:10000000DAC100000C94280D0C94FD0C0C94D20C59
:100010000C94A70C0C947C0C0C94510C0C94260C96
:100020000C94FB0BF9C10000F7C10000F5C1000002
:10003000F3C10000F1C10000EFC10000EDC10000FC
:10004000EBC10000E9C10000E7C10000E5C100000C
:10005000E3C10000E1C10000DFC100000C94B10B5E
:10006000DBC100000C9490090C946709D5C1000015
:10007000D3C10000D1C10000CFC10000CDC100003C
:10008000CBC10000C9C10000C7C10000C5C100004C
:10009000C3C10000C1C10000BFC100000C94A71083
:1000A000BBC10000B9C10000B7C10000B5C100006C
:1000B000B3C10000B1C10000AFC10000ADC100007C
:1000C000ABC10000A9C10000A7C10000A5C100008C
:1000D000A3C10000A1C100009FC100009DC100009C
:1000E0009BC10000E109E409D309D709DD091B0A16
:1000F000E809EC09F209F609FA09000A040A080AF3
:100100001B0A0E0A120A160AAE0AB30AB80AC20A73
:10011000CC0A450BD60ADE0AE60AF00AFA0A040BF4
:10012000130B1D0B450B270B310B3B0B1F1C1F1E0D
:100130001F1E1F1F1E1F1E1F00000A0B02090C0D91
:100140000E0807030401000000000000000000008A
:10015000000000000000000000000000000000009F
:10016000000000001211100000000000000000005C
:10017000000000000000000000000000000000007F
:1001800020002300260029002C002F00320000014F
:10019000000003010601090105050505070508081A
:1001A0000808020202020A0A080804040404010101
:1001B0000101010101010303030303030303040716
:1001C00007070C0C0C0C0C0C0C0C020202020606AD
:1001D0000606060606060B0B0B0B0B0B0B0B0102A0
:1001E0001020200808102040102040800201020149
:1001F0000804020101020408102040808040201001
:100200000804020180040201804020100804020159
:1002100008040201010204081020408001020408C1
:1002200010204080005EBCE2613FDD83C29C7E20E6
:10023000A3FD1F419DC3217FFCA2401E5F01E3BDC2
:100240003E6082DC237D9FC1421CFEA0E1BF5D03B6
:1002500080DE3C62BEE0025CDF81633D7C22C09EAA
:100260001D43A1FF4618FAA427799BC584DA386696
:10027000E5BB5907DB856739BAE406581947A5FB82
:100280007826C49A653BD987045AB8E6A7F91B4576
:10029000C6987A24F8A6441A99C7257B3A6486D86A
:1002A0005B05E7B98CD2306EEDB3510F4E10F2AC56
:1002B0002F7193CD114FADF3702ECC92D38D6F3142
:1002C000B2EC0E50AFF1134DCE90722C6D33D18F36
:1002D0000C52B0EE326C8ED0530DEFB1F0AE4C122A
:1002E00091CF2D73CA947628ABF517490856B4EA16
:1002F0006937D58B5709EBB536688AD495CB297702
:10030000F4AA4816E9B7550B88D6346A2B7597C9F5
:100310004A14F6A8742AC896154BA9F7B6E80A54E9
:10032000D7896B3500002100240027002A002D000A
:100330003000330001010000040107010A01000040
:100340002200250028002B002E003100340002017D
:100350000000050108010B010930202D204D6169C5
:100360006E204D656E75000933202D204C434420CE
:100370004261636B6C696768742053746174757350
:10038000000932202D205254432053746174757338
:10039000000931202D2051756572792054656D70EA
:1003A0002053656E736F72004C43442048554420BF
:1003B0002D200000141811241FBECFEFD1E2DEBFA4
:1003C000CDBF00E00CBF25E0A2EEB3E001C01D925E
:1003D000A03AB207E1F713E0A0E0B2E0EEE6F0E405
:1003E00000E00BBF02C007900D92A23EB107D9F703
:1003F00011E0CBEDD1E000E006C021970109802F8C
:10040000FE010E943F1BCA3DD10780E00807A9F703
:100410000E9453120C943520F3CDCF92DF92EF92CD
:10042000FF920F931F93CF93DF936C017A018B019F
:10043000C0E0D0E0CE15DF0589F0D8016D918D01C7
:10044000D601ED91FC910190F081E02DC601199546
:10045000892B11F47E0102C02196ECCFC701DF91F8
:10046000CF911F910F91FF90EF90DF90CF90089563
:1004700089E694E0D1D521E0892B09F420E0822F90
:100480000895DC01ED91FC910190F081E02D19942B
:100490006115710579F0FB0101900020E9F73197B2
:1004A000AF01461B570BDC01ED91FC910280F381FB
:1004B000E02D199480E090E008954F925F926F9242
:1004C0007F92EF92FF920F931F93CF93DF93CDB75D
:1004D000DEB7A1970FB6F894DEBF0FBECDBF7C018B
:1004E000FA01CB0119A2223008F42AE08E010F5D37
:1004F0001F4F422E512C612C712CBF01A301920180
:100500000E941D1BF901CA01015011096A3014F43F
:10051000605D01C0695CD8016C93232B242B252BD3
:1005200061F7B801C701B4DFA1960FB6F894DEBF3A
:100530000FBECDBFDF91CF911F910F91FF90EF9034
:100540007F906F905F904F9008950895CF93DF93C1
:10055000EAE4F1E08491E0EFF1E0D491EAEAF1E03D
:10056000C491CC2389F0811111D7EC2FF0E0EE0F6C
:10057000FF1FE258FE4FA591B491EC91ED2381E06D
:1005800090E021F480E002C080E090E0DF91CF9124
:10059000089563ED73E089E694E07ACFCF93DF931B
:1005A000BC0189E694E074DFEC01F3DF8C0F9D1F42
:1005B000DF91CF910895909168049111FCCF91E063
:1005C00090936804909367042FEF20936604109231
:1005D0006504260F20936404909363049091630450
:1005E000880F892B8093630480916204813061F4C9
:1005F00010926204809163048093BB008091BC00E0
:1006000083FDF8CF85EC01C085EE8093BC0080911E
:1006100068048130E1F380916504861710F46091DD
:100620006504A2E4B4E022E234E0F9018E2F821BDB
:10063000861718F48D918193F9CF862F0895382F5E
:100640002091210490912004213208F049C080912A
:1006500068048111FCCF42E0409368043093670442
:100660003FEF309366041092650420936404A0E089
:10067000B4E042E454E0FA013E2F341B321718F480
:100680003D913193F9CF1092630420916304990F47
:10069000922B9093630490916204913061F41092D4
:1006A0006204909163049093BB009091BC0093FD11
:1006B000F8CF95EC01C095EE9093BC009091680442
:1006C0009230E1F3909166049F3F79F08091660447
:1006D000803241F080916604803331F084E005C0BF
:1006E00081E003C082E001C083E01092FF0310921A
:1006F00021041092FE030895813208F080E2682FF1
:1007000088E659DF1092FD038093FC0308950F9350
:100710001F93CF93DF938C01C0E0D0E0F801EC0F82
:10072000FD1F6491662371F0E0916904F0916A0401
:100730000190F081E02D89E694E01995892B11F064
:100740002196ECCFCE01DF91CF911F910F910895AB
:10075000CF93DF93DCDFEC011CDF8C0F9D1FDF915B
:10076000CF910895AF92BF92CF92DF92EF92FF9216
:100770000F931F93CF93DF93EC018B018091300592
:10078000909131050E94A10E8823A1F1BE018091B4
:100790003005909131050E94760E40E06EEB80911D
:1007A0003005909131050E94350EE801680189E01D
:1007B000C80ED11CA0903005B090310588E0E82E1D
:1007C000F12C01E010E0C5010E94E20D8111102B17
:1007D000000F81E0E81AF108B1F71993CC15DD0597
:1007E00049F780913005909131050E94A10E91E06A
:1007F000813009F090E0892FDF91CF911F910F9107
:10080000FF90EF90DF90CF90BF90AF9008950F933F
:100810001F93CF93DF93CDB7DEB729970FB6F89428
:10082000DEBF0FBECDBF8C01BE016F5F7F4F9ADF71
:100830008823B1F168E0CE0101960E94D50D99851B
:1008400089132EC0298158E0259FB00111249A8177
:10085000292F30E0322F2227330F330F330F262B6F
:10086000372BF80180818031C9F4688570E08F8171
:10087000AB01481B5109CA019695982F8827979577
:1008800087950E940A1BCB014097207F53E0220FDF
:10089000331F5A95E1F7820F931F04C0C90102C0AC
:1008A00080E894EE29960FB6F894DEBF0FBECDBF58
:1008B000DF91CF911F910F910895AF92BF92CF9288
:1008C000DF92EF92FF920F931F93CF93DF931F92CC
:1008D000CDB7DEB75C01D62EE72EFC0185858111F0
:1008E00005C0C5010E94A10E811106C0F501138645
:1008F0001586148680E065C040E060EFC5010E9467
:10090000350E01E0F12CC12C11E0C5010E94E20D71
:10091000682FC50169830E94E20D6981613019F475
:100920008130B9F433C04F2D50E068131BC0F5017E
:100930008385181730F4E40FF51F8381802349F471
:1009400002C0181731F060E0193058F4F50114872F
:1009500008C0F501EF0DF11D8381802B838361E0D9
:1009600009C0C12EF501E40FF51F9381802F8095FA
:1009700089238383C5010E94060E1F5F000F11F4B7
:10098000F39401E0F7E0FF1508F0BFCF113408F44D
:10099000ADCFF501C386C11002C081E08587F501A6
:1009A0008381882309F4A2CFD5011396ED2DFE2D66
:1009B0009501255F3F4F8D918193A217B307D9F71A
:1009C00081E00F90DF91CF911F910F91FF90EF90F9
:1009D000DF90CF90BF90AF900895CF93DF93EC015D
:1009E000E0913005F0913105138615861486DF01FC
:1009F0001B96CF0103961E92A817B907E1F7BE0117
:100A0000CF015BDF882349F067E0CE010E94D50D5E
:100A10009F81891302C081E001C080E0DF91CF9106
:100A20000895CF93DF93CDB7DEB728970FB6F8942C
:100A3000DEBF0FBECDBFCE010196CFDF811105C055
:100A40006AE979E984E493EC19C0CE010196DFDE0E
:100A5000813824EE9207A4F3BC01990F880B990BFF
:100A60000E94DD1826E636E646E65CE30E943C1965
:100A700020E030E040E052E40E94F11928960FB6E1
:100A8000F894DEBF0FBECDBFDF91CF910895809166
:100A90003005909131050E94A10E40E06CEC8091F0
:100AA0003005909131050E94350E40912B0564E48C
:100AB00080913005909131050E94350E80912D0571
:100AC0008823A1F0E0912C05E950E33040F4F0E0F8
:100AD000EE0FFF1FE650FD4F6081718102C06EEE88
:100AE00072E0072E000C880B990BF7C50895CF9282
:100AF000DF92EF92FF92CF93DF93AB01BC0177FFC0
:100B00001BC06A017B016DE282E195E0BADCEC0179
:100B100044275527BA014C195D096E097F092AE05F
:100B200082E195E0CADC8C0F9D1FDF91CF91FF9091
:100B3000EF90DF90CF9008952AE082E195E0DF9179
:100B4000CF91FF90EF90DF90CF90B7CCCF93DF9312
:100B5000CDB7DEB728970FB6F894DEBF0FBECDBF76
:100B60001D8290E49E8324E12F8324E52887198247
:100B70009A8390E19B8390E59C8390911905691776
:100B800010F06FEF690F40911A05262F30E0FE013B
:100B9000E20FF31F403121F4943011F4918101C030
:100BA0009581682F690F606882E195E028960FB6FD
:100BB000F894DEBF0FBECDBFDF91CF910C94CA0F6A
:100BC0001092FD031092FC031092FF031092210477
:100BD0001092680481E0809367041092620461E0DF
:100BE00084E12AD461E085E127D4E9EBF0E080815B
:100BF0008E7F808380818D7F808388E48093B8009E
:100C000085E48093BC000895CF93DF93CDB7DEB722
:100C100029970FB6F894DEBF0FBECDBFFC0120812F
:100C2000203109F1BE016F5F7F4F9CDD882371F099
:100C300068E0CE010196B9D79985891307C008C02D
:100C4000803458F08F3569F08F3769F080E00CC040
:100C50008D818F33A9F78AE007C08F31B9F789E01A
:100C600003C08BE001C08CE029960FB6F894DEBF7C
:100C70000FBECDBFDF91CF910895CF92DF92EF925B
:100C8000FF920F931F93CF93DF931F92CDB7DEB7E1
:100C9000162F877028E0829FC0011124682F60649E
:100CA00082E195E079830E94CA0F83E790E0019783
:100CB000F1F7C12E7981D72E8601085F1F4F8BE98E
:100CC000E82EF12CF60161916F0182E195E00E941E
:100CD000EB0EC7010197F1F7C016D10699F70F90F7
:100CE000DF91CF911F910F91FF90EF90DF90CF9008
:100CF00008950F931F93CF93DF938C01EB01FC01B9
:100D0000808191810097B1F06881798161157105C9
:100D100079F0428153812C813D814217530740F085
:100D20000E94651D8C819D81F8019583848313C089
:100D30000E94DC1B88819981F801918380838A81DC
:100D40009B81938382838C819D8195838483198287
:100D500018821B821A821D821C82DF91CF911F9103
:100D60000F910895EF92FF920F931F93CF93DF930C
:100D7000EC01198218821B821A821D821C82611565
:100D80007105A9F17B01FB0101900020E9F7319782
:100D90008F01061B170BB8016F5F7F4F80E090E05B
:100DA0000E94741C009759F0998388831B830A83DF
:100DB0002C813D81232B81F4FC0110820DC08881A0
:100DC0009981009711F00E94DC1B198218821D8204
:100DD0001C821B821A820BC01D830C83B701DF911A
:100DE000CF911F910F91FF90EF900C94651DDF91B3
:100DF000CF911F910F91FF90EF9008954F925F92C6
:100E00006F927F928F929F92AF92BF92CF92DF921A
:100E1000EF92FF92CF93DF93EC016A017B01B22E38
:100E20009A01AB01C701B6010E94F21A882319F09A
:100E300066ED73E027C026013701E89477F82FEFBD
:100E40003FEF4FE75FE7C301B2010E94F21A811141
:100E50000DC02FEF3FEF4FE75FE7C301B2010E94E4
:100E6000D71818161CF46AED73E00CC02FEF3FEF93
:100E70004FE75FE4C701B6010E94EE1A181694F41A
:100E80006EED73E0CE01DF91CF91FF90EF90DF9098
:100E9000CF90BF90AF909F908F907F906F905F901A
:100EA0004F90F6CA2FEF3FEF4FE75FECC701B60157
:100EB0000E94D71887FDE4CF20E030E0A901C701E8
:100EC000B6010E94D71887FF09C06DE2CE01D9DABA
:100ED0004C01F7FAF094F7F8F09402C0812C912CB1
:100EE000A12C60E070E080E09FE3AB1441F020E0D3
:100EF00030E040E251E40E94551AA394F6CF9B01E2
:100F0000AC01C701B6010E94F1192B013C010E94FE
:100F1000C21A6B017C010E94DB189B01AC01C3016A
:100F2000B2010E94F0192B013C012AE0B701A60191
:100F3000CE01C3DA7C01E80CF91CBB2029F06EE27B
:100F4000CE019FDAE80EF91EDB2CDD2021F120E036
:100F500030E040E251E4C301B2010E943C192B0190
:100F60003C010E94C21A4B01A12CB12C2AE0B50110
:100F7000A401CE01A2DAE80EF91EC501B4010E9457
:100F8000DB189B01AC01C301B2010E94F0192B01D7
:100F90003C01DA94DACFC701DF91CF91FF90EF9057
:100FA000DF90CF90BF90AF909F908F907F906F9089
:100FB0005F904F900895FC01538D448D252F30E0B4
:100FC000842F90E0821B930B541710F0CF96089556
:100FD00001970895FC01918D828D981761F0828DA3
:100FE000DF01A80FB11D5D968C91928D9F5F9F735D
:100FF000928F90E008958FEF9FEF0895FC01918DFF
:10100000828D981731F0828DE80FF11D858D90E06B
:1010100008958FEF9FEF0895FC01918D228D892F08
:1010200090E0805C9F4F821B91098F7399270895F0
:10103000FC01848DDF01A80FB11DA35ABF4F2C9175
:10104000848D90E001968F739927848FA689B78944
:101050002C93A089B1898C9180648C93938D848D1D
:10106000981306C00288F389E02D80818F7D8083EC
:101070000895EF92FF920F931F93CF93DF93EC01AC
:1010800081E0888F9B8D8C8D981305C0E889F98944
:10109000808185FD23C0F62E0B8D10E00F5F1F4F62
:1010A0000F731127E02E8C8DE8120BC00FB607FCD2
:1010B000FACFE889F989808185FFF5CFCE01B8DFC5
:1010C000F2CF8B8DFE01E80FF11DE35AFF4FF08246
:1010D0000B8FEA89FB898081806207C0EE89FF89D6
:1010E0006083E889F98980818064808381E090E071
:1010F000DF91CF911F910F91FF90EF900895CF93C3
:10110000DF93EC01888D8823C1F0EA89FB89808117
:1011100085FD05C0A889B9898C9186FD0EC00FB6E2
:1011200007FCF5CF808185FFF2CFA889B9898C9122
:1011300085FFEDCFCE017CDFE8CFDF91CF91089521
:1011400080E090E0892B19F093D9811125C080E0CF
:1011500090E0892B41F080E090E0892B21F00E9403
:10116000000081111CC080E090E0892B41F080E0FC
:1011700090E0892B21F00E940000811113C080E0D3
:1011800090E0892BA1F080E090E0892B81F00E9413
:10119000000081110AC008950E940000D8CF0E946B
:1011A0000000E1CF0E940000EACF0C9400000895F7
:1011B0003FB7F8948091510590915205A091530545
:1011C000B091540526B5A89B05C02F3F19F0019694
:1011D000A11DB11D3FBFBA2FA92F982F8827820FBD
:1011E000911DA11DB11DBC01CD0142E0660F771F0D
:1011F000881F991F4A95D1F7089508950E94581D98
:10120000EF92FF920F931F93CF938C01FC01759681
:1012100084E0C0E060FF02C09081C92B66958150D8
:1012200031968111F7CF413011F4F8014489F8016A
:101230008585C82BC42B7801FEE0EF0EF11CF80168
:1012400062896C2BC7012ED7F801628960956C23E7
:10125000C701CF911F910F91FF90EF9023C70F937C
:101260001F93CF93DF93062F0F70423019F440E0A5
:10127000602F0FC0142F262FEC0130E0B90184E05D
:10128000759567958A95E1F7CE01BADF412F602FFA
:10129000CE01DF91CF911F910F91B2CFFC018485D8
:1012A0008823A1F0218532852115310519F46111BA
:1012B00006C007C02130310521F4611102C08587C5
:1012C00001C015866585CF010E96ECC608951F9264
:1012D0000F920FB60F9211240BB60F922F933F93DC
:1012E0004F935F936F937F938F939F93AF93BF932E
:1012F000EF93FF9389E694E09BDEFF91EF91BF911E
:10130000AF919F918F917F916F915F914F913F919D
:101310002F910F900BBE0F900FBE0F901F9018953E
:101320001F920F920FB60F9211240BB60F922F93AC
:101330008F939F93EF93FF93E0917904F0917A0458
:101340008081E0917F04F091800482FD12C0908141
:10135000809182048F5F8F7320918304821751F0F4
:10136000E0918204F0E0E759FB4F958F809382046F
:1013700001C08081FF91EF919F918F912F910F90EC
:101380000BBE0F900FBE0F901F90189590E0FC01C0
:101390003197E231F10508F04EC08827EE58FF4F33
:1013A0008F4F0C943F1B809180008F7703C08091FA
:1013B00080008F7D80938000089580918000877FDA
:1013C000F9CF84B58F7702C084B58F7D84BD089531
:1013D0008091B0008F7703C08091B0008F7D8093A3
:1013E000B0000895809190008F7707C080919000A1
:1013F0008F7D03C080919000877F80939000089537
:101400008091A0008F7707C08091A0008F7D03C0DE
:101410008091A000877F8093A00008958091200193
:101420008F7707C0809120018F7D03C080912001BC
:10143000877F8093200108951F93CF93DF93282FF8
:1014400030E0F901E85CFE4F8491F901E252FE4F71
:10145000D491F901E856FE4FC491CC23C1F0162F68
:10146000811194DFEC2FF0E0EE0FFF1FE25CFC4FE8
:10147000A591B4918FB7F894111105C09C91ED2FEF
:10148000E095E92302C0EC91ED2BEC938FBFDF9147
:10149000CF911F910895CF93DF9390E0FC01E2522A
:1014A000FE4F2491FC01E856FE4F8491882361F1A0
:1014B00090E0880F991FFC01EC5DFC4FC591D49121
:1014C000FC01E25CFC4FA591B491611109C09FB78A
:1014D000F8948881209582238883EC912E230BC079
:1014E000623061F49FB7F8943881822F809583230E
:1014F0008883EC912E2B2C939FBF06C08FB7F89456
:10150000E8812E2B28838FBFDF91CF9108951F9301
:10151000CF93DF93182FEB0161E0BDDF209711F42B
:1015200060E004C0CF3FD10531F461E0812FDF914D
:10153000CF911F9181CFE12FF0E0E85CFE4FE49165
:101540004E2F50E0FA013197E231F10508F09DC0CD
:101550008827EC57FF4F8F4F0C943F1B84B5806852
:1015600084BDC7BD97C084B5806284BDC8BD92C02C
:1015700080918000806880938000D0938900C09320
:10158000880088C080918000806280938000D09322
:101590008B00C0938A007EC0809180008860809319
:1015A0008000D0938D00C0938C0074C08091B000F7
:1015B00080688093B000C093B3006CC08091B0008D
:1015C00080628093B000C093B40064C080919000AA
:1015D000806880939000D0939900C09398005AC07F
:1015E00080919000806280939000D0939B00C09384
:1015F0009A0050C080919000886080939000D093B2
:101600009D00C0939C0046C08091A000806880939C
:10161000A0008091A0008F7B8093A000D093A900B0
:10162000C093A80037C08091A00080628093A00082
:10163000D093AB00C093AA002DC08091A000886019
:101640008093A000D093AD00C093AC0023C08091E4
:101650002001806880932001D0932901C093280144
:1016600019C080912001806280932001D0932B01CA
:10167000C0932A010FC080912001886080932001CF
:10168000D0932D01C0932C0105C0C038D1050CF0BA
:101690004CCF46CFDF91CF911F910895863308F04C
:1016A000865390917B00282F2870977F922B9093E0
:1016B0007B008770806480937C0080917A008064D6
:1016C00080937A0080917A0086FDFCCF809178002B
:1016D0002091790090E0922B08958F929F92AF9283
:1016E000BF92CF92DF92EF92FF926B017C0160DD9F
:1016F0004B015C01C114D104E104F104E9F058DDAF
:10170000DC01CB0188199909AA09BB09883E9340DD
:10171000A105B10578F321E0C21AD108E108F1086A
:1017200088EE880E83E0981EA11CB11CC114D10460
:10173000E104F10421F7DECFFF90EF90DF90CF902E
:10174000BF90AF909F908F9008952FB7F8946091BD
:101750004D0570914E0580914F05909150052FBF1A
:1017600008951F920F920FB60F9211242F933F935B
:101770008F939F93AF93BF9380914D0590914E05AA
:10178000A0914F05B091500530914C0523E0230FF7
:101790002D3720F40196A11DB11D05C026E8230FA9
:1017A0000296A11DB11D20934C0580934D05909389
:1017B0004E05A0934F05B09350058091510590912F
:1017C0005205A0915305B09154050196A11DB11D7C
:1017D0008093510590935205A0935305B0935405FF
:1017E000BF91AF919F918F913F912F910F900FBE1D
:1017F0000F901F9018951F920F920FB60F92112401
:101800000BB60F922F933F934F935F936F937F93FA
:101810008F939F93AF93BF93EF93FF93E091F20267
:10182000F091F3021995FF91EF91BF91AF919F91C4
:101830008F917F916F915F914F913F912F910F9079
:101840000BBE0F900FBE0F901F9018951F920F9216
:101850000FB60F9211240BB60F922F933F934F9315
:101860005F936F937F938F939F93AF93BF93EF9308
:10187000FF93E091F002F091F1021995FF91EF9141
:10188000BF91AF919F918F917F916F915F914F9198
:101890003F912F910F900BBE0F900FBE0F901F9096
:1018A00018951F920F920FB60F9211240BB60F923C
:1018B0002F933F934F935F936F937F938F939F9358
:1018C000AF93BF93EF93FF93E091E602F091E702AD
:1018D0001995FF91EF91BF91AF919F918F917F915A
:1018E0006F915F914F913F912F910F900BBE0F9091
:1018F0000FBE0F901F9018951F920F920FB60F9268
:1019000011240BB60F922F933F934F935F936F93D6
:101910007F938F939F93AF93BF93EF93FF93E09148
:10192000E402F091E5021995FF91EF91BF91AF911B
:101930009F918F917F916F915F914F913F912F91E7
:101940000F900BBE0F900FBE0F901F9018951F9217
:101950000F920FB60F9211240BB60F922F933F9355
:101960004F935F936F937F938F939F93AF93BF93A7
:10197000EF93FF93E091EE02F091EF021995FF9142
:10198000EF91BF91AF919F918F917F916F915F91F7
:101990004F913F912F910F900BBE0F900FBE0F9064
:1019A0001F9018951F920F920FB60F9211240BB62D
:1019B0000F922F933F934F935F936F937F938F93E8
:1019C0009F93AF93BF93EF93FF93E091EC02F0915D
:1019D000ED021995FF91EF91BF91AF919F918F917A
:1019E0007F916F915F914F913F912F910F900BBE1F
:1019F0000F900FBE0F901F9018951F920F920FB669
:101A00000F9211240BB60F922F933F934F935F9336
:101A10006F937F938F939F93AF93BF93EF93FF93B6
:101A2000E091EA02F091EB021995FF91EF91BF91DD
:101A3000AF919F918F917F916F915F914F913F9166
:101A40002F910F900BBE0F900FBE0F901F90189507
:101A50001F920F920FB60F9211240BB60F922F9375
:101A60003F934F935F936F937F938F939F93AF9326
:101A7000BF93EF93FF93E091E802F091E90219958B
:101A8000FF91EF91BF91AF919F918F917F916F9156
:101A90005F914F913F912F910F900BBE0F900FBE12
:101AA0000F901F901895CF92DF92EF92FF920F93B5
:101AB0001F93CF93DF93EC0181E08093FE0388E6D0
:101AC000809320041092FF031092210460E086E0CE
:101AD00095E01CD281E00E941F0387E090E00E9405
:101AE0007C0386E095E0C7D18F77982F92959F7001
:101AF0001AEF082F919F000D112486E095E0BBD1CD
:101B00009C01332794E0359527959A95E1F7F82EB7
:101B1000129FF00C112486E095E0ADD19C01332793
:101B200044E0359527954A95E1F7E82E129FE00CA1
:101B3000112486E095E09FD186E095E09CD19C0140
:101B4000332754E0359527955A95E1F7D82E129F03
:101B5000D00C112486E095E08ED19C01332764E0FF
:101B6000359527956A95E1F7C82E129FC00C112470
:101B700086E095E080D19C01332774E03595279568
:101B80007A95E1F7129F800D11248883C982DA8249
:101B9000EB82FC820D83CE01DF91CF911F910F91DB
:101BA000FF90EF90DF90CF900895DC01E0E061506E
:101BB00038F08D91E827F0E0EC5DFD4FE491F7CF30
:101BC0008E2F0895FC0190810180F281E02DF89420
:101BD0008181892B81832281892F809528232283EB
:101BE000A7E0B0E01197F1F7218182238183A3E27E
:101BF000B0E01197F1F780817894EFECF0E0319745
:101C0000F1F7982381E009F480E00895FC019081C8
:101C10000180F281E02D892F809560FF12C0F89439
:101C20002281822382838181892B8183A3E2B0E098
:101C30001197F1F78281982B9283789487ED90E049
:101C400011C0F8942281822382838181892B818330
:101C5000AFEFB0E01197F1F78281982B92837894DF
:101C60008FE090E00197F1F70895CF92DF92EF9225
:101C7000FF920F931F93CF93DF931F92CDB7DEB7E1
:101C80006C01E62E08E010E0FF24F39461E08F2D54
:101C90008E2109F460E0C6014983B8DFFF0C0150D2
:101CA000110949810115110589F7411115C0F894F1
:101CB000D6011196ED91FC91129791818C918095AE
:101CC000892381831196ED91FC91129792818C91D9
:101CD00080958923828378940F90DF91CF911F9113
:101CE0000F91FF90EF90DF90CF900895CF92DF9209
:101CF000EF92FF920F931F93CF93DF931F92CDB775
:101D0000DEB78C01F62E40E065E57983AEDFCF2C9F
:101D10007981D72E760188E0E80EF11CF6016191F9
:101D20006F0140E0C801A1DFCE14DF04B9F70F90C6
:101D3000DF91CF911F910F91FF90EF90DF90CF90A7
:101D40000895FC0190810180F281E02DF894818159
:101D5000292F20958223818378948DE743E050E0FA
:101D6000815021F1DA011197F1F730813923C1F364
:101D7000F8948281822382838181892B8183789464
:101D8000ABE7B7E01197F1F7F8948181282321831D
:101D9000A3E1B1E01197F1F78081982381E009F088
:101DA00080E07894E3E6F6E03197F1F7089521E0DA
:101DB00001C0220F6A95EAF7DC011C962C931C9750
:101DC0001A965C934E931997ED91FC910484F585D6
:101DD000E02D60E01994DC01ED91FC910684F7851B
:101DE000E02D41E0199581E090E00895089508956F
:101DF000089585ED8093BC008091BC0084FDFCCFEC
:101E000010926804089540917705262F30E0240F42
:101E1000311D21323105DCF4209168042430C9F4ED
:101E2000FC0180E090E0861758F43091770521910D
:101E3000DC01AB5ABA4FA30FB11D2C930196F3CF1F
:101E400080917705680F6093770580E0089581E0C1
:101E5000089582E008950895E091FD038091FC03C8
:101E6000E81730F4F0E0EE5DFB4F808190E00895DC
:101E70008FEF9FEF08959091FD038091FC039817D9
:101E800050F4E92FF0E0EE5DFB4F208130E09F5FE2
:101E90009093FD0302C02FEF3FEFC9010895809199
:101EA000FC0390E02091FD03821B91090895CF92DD
:101EB000DF92EF92FF920F931F93CF93DF937C01FA
:101EC000262F972F8A018091FE03882391F0C62F39
:101ED000D72F6E01C40ED51ECC15DD0569F06991B2
:101EE000D701ED91FC910190F081E02DC70119958A
:101EF000F3CF642F822F87DFC801DF91CF911F912D
:101F00000F91FF90EF90DF90CF900895CF93DF93E4
:101F10001F92CDB7DEB769832091FE032223D1F053
:101F200020912104203240F021E030E0FC01338395
:101F3000228380E090E014C08091FF03E82FF0E05E
:101F4000E050FC4F998190838F5F8093FF038093D3
:101F5000210404C061E0CE01019655DF81E090E0EC
:101F60000F90DF91CF910895089580E090E008955B
:101F70000E94A6029093E3038093E203892B11F45D
:101F800061E001C060E08BE057DA62E370E080E07E
:101F900090E0A3CBDC01ED91FC910684F785E02D68
:101FA00040E019940F931F93CF93DF93EC014230DD
:101FB00018F08C8188608C834F836887222329F0F6
:101FC000413019F48C8184608C8364E670E080E099
:101FD00090E083DB6C8164FD31C0E881F981068487
:101FE000F785E02D42E063E0CE0119950BE416E49D
:101FF000C8010197F1F7E881F9810684F785E02DA2
:1020000042E063E0CE011995C8010197F1F7E8813C
:10201000F9810684F785E02D42E063E0CE01199551
:1020200083E592E00197F1F7E881F9810684F7856D
:10203000E02D42E062E0CE01199513C06062CE014E
:10204000A9DF8BE496E40197F1F76C816062CE0121
:10205000A1DF83E592E00197F1F76C816062CE0128
:1020600099DF6C816062CE0195DF84E08D836CE046
:10207000CE0190DF61E0CE018DDF8BE39FE1019720
:10208000F1F782E08E8366E0CE0184DFE881F9819A
:102090000484F585E02D6FEFCE01DF91CF911F9184
:1020A0000F911994FC0123812223B9F0918190951D
:1020B00069236083828191E09093FE0380932004E2
:1020C0001092FF031092210486E095E01FDF81E06B
:1020D0000E941F03282F30E002C020E030E081E0A2
:1020E00090E0232B11F080E090E00895FF920F9391
:1020F0001F93CF93DF93EC01162F042FF22E8B85C5
:10210000888B0E94E00561E088890E94DB021092C2
:10211000FD038093FC0391E0811101C090E0998B55
:1021200086E095E0A8DE8E878989882331F01F86B6
:102130001C8260E0CE010E96B5DF2F2D402F612F5F
:10214000CE01DF91CF911F910F91FF902BCF1F9266
:102150000F920FB60F9211240BB60F922F933F934D
:102160004F935F936F937F938F939F93AF93BF939F
:10217000EF93FF938091B900887F803609F49CC06B
:1021800068F5883209F45BC090F4803109F454C0DA
:1021900038F4882309F4F6C0883009F44DC0F5C03E
:1021A000883109F44CC0803209F45DC0EEC080343F
:1021B00009F468C048F4803309F455C0883309F045
:1021C000E4C080936604D8C0803509F44FC08835D8
:1021D00009F45DC0883409F0D8C0D6C0883909F444
:1021E000C7C0A8F4883709F467C038F4883609F402
:1021F00063C0803709F460C0C8C0883809F4B8C02B
:10220000803909F45FC0803809F0BFC05BC0803BF3
:1022100009F486C038F4803A09F466C0883A09F4B3
:102220007FC0B3C0803C09F4A7C0883C09F4A4C0B7
:10223000883B09F48AC0A9C08091630410C09091C2
:10224000650480916404981770F5E091650481E05D
:102250008E0F80936504F0E0EE5BFB4F80818093EE
:10226000BB0085EC86C0809366048EC0E091650457
:1022700081E08E0F809365048091BB00F0E0EE5BFF
:10228000FB4F808390916504809164046EC0E0915F
:10229000650481E08E0F809365048091BB00F0E0BF
:1022A000EE5BFB4F80838091670481116DC081E0FC
:1022B0008093620484EA61C083E080936804109292
:1022C0009B05CFCF80919B05803208F051C0E091F3
:1022D0009B0581E08E0F80939B058091BB00F0E011
:1022E000E558FA4F8083BDCF85EC8093BC001092F7
:1022F000680480919B05803230F4E0919B05F0E00A
:10230000E558FA4F108260919B0570E0E0917905E5
:10231000F0917A058BE795E0199510929B0535C0F1
:1023200084E0809368041092780510927705E0911C
:102330007505F0917605199580917705811105C095
:1023400081E08093770510925505E091780581E052
:102350008E0F80937805F0E0EB5AFA4F80818093DE
:10236000BB009091780580917705981708F479CF94
:1023700085E88093BC0009C085EC8093BC00109276
:10238000680403C01092660434DDFF91EF91BF91A1
:10239000AF919F918F917F916F915F914F913F91FD
:1023A0002F910F900BBE0F900FBE0F901F9018959E
:1023B000CF93DF93EC010A9728F460E382E195E084
:1023C0000E944102BE01DD0F880B990BDF91CF9176
:1023D0000C9477050F931F93CF93DF93CDB7DEB7A0
:1023E0006C970FB6F894DEBF0FBECDBF65ED73E0FE
:1023F000CE0141960E94B2061F928FE38F931F92E7
:1024000085E08F931F921F9288E393E09F938F93B1
:102410008E010F5F1F4F1F930F930E946C1DB80119
:10242000CE0147960E94B206BE01695E7F4FCE0183
:1024300041960E9479068F89988D0E94DC1B88EA5C
:1024400093E00E9487034D895E8969897A8989E6CC
:1024500094E00E940D020E94C90281E993E00E946B
:10246000A80381E893E00E94A80387E693E00E9416
:10247000A80388E593E00E94A8030E94C902898905
:102480009A890E94DC1B0FB6F894DEBF0FBECDBF49
:102490006C960FB6F894DEBF0FBECDBFDF91CF9123
:1024A0001F910F910895CF93DF93CDB7DEB7A1971A
:1024B0000FB6F894DEBF0FBECDBF789484B58260AE
:1024C00084BD84B5816084BD85B5826085BD85B5D8
:1024D000816085BD80916E00816080936E00109256
:1024E00081008091810082608093810080918100D1
:1024F0008160809381008091800081608093800062
:102500008091B10084608093B1008091B0008160BF
:102510008093B000809191008260809391008091BF
:102520009100816080939100809190008160809300
:1025300090008091A10082608093A1008091A10011
:1025400081608093A1008091A00081608093A000B1
:10255000809121018260809321018091210181601D
:1025600080932101809120018160809320018091DE
:102570007A00846080937A0080917A0082608093F0
:102580007A0080917A00816080937A0080917A004D
:10259000806880937A001092C100E0917904F091F4
:1025A0007A0482E08083E0917504F09176041082D1
:1025B000E0917704F091780480E1808310928104A7
:1025C000E0917D04F0917E0486E08083E0917B04BD
:1025D000F0917C04808180618083E0917B04F091A4
:1025E0007C04808188608083E0917B04F0917C048E
:1025F000808180688083E0917B04F0917C048081FD
:102600008F7D8083E7DE20E044E064E182E195E0B5
:102610006DDD40E050E063E082E195E0C8DB61E021
:1026200082E195E00E944E0981E08093E80368E230
:1026300072E080E00E943D0660E272E081E00E946C
:102640003D0668E172E082E00E943D0660E172E0D2
:1026500083E00E943D0668E072E084E00E943D064F
:1026600060E072E085E00E943D060E94E00564E1C2
:1026700070E086E00E94870A60E082E10E944B0AD7
:1026800061E08DE00E944B0A61E089E00E944B0A04
:1026900061E08BE00E944B0A65ED73E0CE01499644
:1026A0000E94B2061F928FE38F931F9285E08F9353
:1026B0001F921F9288E393E09F938F938E010F5F89
:1026C0001F4F1F930F930E946C1DB801CE014196BE
:1026D0000E94B206BE016F5E7F4FCE0149960E94F6
:1026E000790689899A890E94DC1B61E082E00E9458
:1026F000A6056DE473E082E195E00E94480262E085
:1027000083E00E94A6054D8D5E8D698D7A8D82E1F4
:1027100095E00E940D0260ED77E080E090E00E947D
:102720006D0B61E082E195E035DC8BE39FE1019781
:10273000F1F7898D9A8D0E94DC1B0E94E005E091E3
:102740003005F0913105138615861486DF011B963E
:1027500033960FB6F894DEBF0FBECDBF1E92AE17F4
:10276000BF07E1F710922F05FF24F394BE016F5EBF
:102770007F4F80913005909131050E945D04882340
:1027800009F449C067E0CE0141960FDA988D8913AC
:10279000EDCF80912B05811122C080913005909161
:1027A0003105CFDABE016F5E7F4F80913005909189
:1027B00031059CDA40E064EB809130059091310561
:1027C00054DA8091300590913105FCD9E82E809142
:1027D000300590913105B5DAEE2009F4A9C2B801AF
:1027E000CE0141960E94B203E0902C05CE014196A5
:1027F0000E9404068E1518F480912C0504C0CE01A9
:1028000041960E94040680932C0580912F058F5FCE
:1028100080932F05ABCF8CE291E071E0781B7F8F26
:1028200072E0272E312CE5E0CE2ED12CF4E0AF2E35
:10283000B12C88248394912C0E94A50B4090E00237
:102840005090E1026090E2027090E302AB01BC01A3
:10285000441955096609770940365A4E61057105D4
:1028600008F4A4C0D301C201805A9541AF4FBF4FB5
:102870008093E0029093E102A093E202B093E3021E
:102880000E9447050E9411056093F6037093F703B9
:102890008093F8039093F90361E080E00E94A6051D
:1028A0006EE573E082E195E00E9448024090F603F5
:1028B0005090F7036090F8037090F90320E030E047
:1028C000A901C301B2018AD620E030E040E05FE315
:1028D00087FD04C0C301B20184D503C0C301B201A6
:1028E0007FD54BD60E9477056FED82E195E00E947F
:1028F000410266E482E195E00E944102C8010E9423
:10290000ED04811105C060E070E08EEF92EC11C023
:10291000C8010E940704813824EE9207A4F3BC0189
:10292000990F880B990B49D420E030E040E05CE33C
:10293000A3D46093E4037093E5038093E60390933C
:10294000E70361E08CE00E94A6056EE782E195E076
:102950000E94410261E08FE00E94A6054090E403DE
:102960005090E5036090E6037090E70320E030E0CC
:10297000A901C301B20132D620E030E040E05FE3BC
:1029800087FD04C0C301B2012CD503C0C301B2014D
:1029900027D5F3D50E9477056FED82E195E00E947F
:1029A000410263E482E195E00E944102C8017BD8C4
:1029B0008E818C3379F060E080E00E94A6058C81E6
:1029C00090E0F6DC6AE382E195E00E9441028D81AD
:1029D00090E0EEDC8B81833609F457C060E086E03E
:1029E0000E94A6056A819981492F50E02B8130E031
:1029F000ECE2F1E08F8D8E0F861728F48491280F7A
:102A0000311D3196F7CF633020F0937011F42F5FB2
:102A10003F4F6DE671E0469FC001479F900D569F66
:102A2000900D112405964D5F5F4F5695479556952D
:102A30004795840F951F820F931F67E070E0D6D5EE
:102A400028E1289FB001299F700D1124605D7D4F02
:102A500082E195E00E94480260E08AE00E94A605BB
:102A6000898190E08053984FA3DC6FE282E195E08A
:102A70000E9441028A8190E09BDC6FE282E195E056
:102A80000E9441028B8190E093DC0E94A602909309
:102A9000E3038093E203892BB9F485E693E00E9477
:102AA000CE020E94A50B6093EB037093EC0380931E
:102AB000ED039093EE031092EA031092E90371E0A4
:102AC0007093E8036FEF16C08091E8038823B1F09C
:102AD0000E94A50B2091EB033091EC03621B730B5A
:102AE0007093EA036093E90361367A4E38F01092EE
:102AF000E80360E082E195E00E944E0939DA4090F7
:102B0000F6035090F7036090F8037090F90320E00B
:102B100030E040EA52E4C301B20160D587FF0AC049
:102B200020E030E040E752E4C301B20140D3181680
:102B300064F554C0E12CF12CB7018DE00E94870AA6
:102B40006EE170E080E090E00E946D0B9FE0E90E86
:102B5000F11C2EE0E21621E0F20671F72FEF30E0D3
:102B6000B9018DE028A339A30E94870A6EE170E0C5
:102B700080E090E00E946D0B28A139A12F5031090F
:102B8000213F6FEF360761F7CBCF612C712CB3017A
:102B900089E00E94870A6EE170E080E090E00E9488
:102BA0006D0B9FE0690E711C2EE0621621E072062B
:102BB00071F766246A94712CB30189E00E94870A38
:102BC0006EE170E080E090E00E946D0B6FE0661AAD
:102BD000710871EF67167FEF770671F70E94A50BFA
:102BE0004090D8025090D9026090DA027090DB02D7
:102BF000AB01BC01441955096609770940365A4EA4
:102C00006105710508F46EC0D301C201805A954177
:102C1000AF4FBF4F8093D8029093D902A093DA02AE
:102C2000B093DB027090F30389E08715B8F088E376
:102C30000E944E0B2091F4033091F503820F931FF5
:102C40009093F5038093F40373947092F3036AE016
:102C500070E080E090E00E946D0BE4CF6091F4039F
:102C60007091F503072E000C880B990BA6D220E07B
:102C700030E040E251E419D424EF3DEF4CE950E458
:102C8000FBD220E030E040E85AE3F6D26093EF0355
:102C90007093F0038093F1039093F20362E080E07D
:102CA0000E94A6052DEC3CEC4CE85FE36091EF033D
:102CB0007091F0038091F1039091F203DDD2AB01AA
:102CC000BC0122E082E195E00E94FE0662E773E02B
:102CD00082E195E00E9448021092F3031092F503FE
:102CE0001092F40381E00E944E0B892B39F062E0D0
:102CF00088E00E94A60565E773E091C188E30E9421
:102D00004E0B892BC1F02DEC3CEC4CE85FE360915D
:102D1000EF037091F0038091F1039091F203ACD234
:102D200020E030E048ED50E459D487FF28C003C0CC
:102D3000F0922B0554CD88E30E944E0B892B79F13C
:102D40002DEC3CEC4CE85FE36091EF037091F003F5
:102D50008091F1039091F2038FD220E030E040E9BE
:102D600050E43CD487FD1BC062E088E00E94A605C9
:102D700060E082E195E00E94410261E034C062E0DF
:102D800088E00E94A60560E082E195E00E94410291
:102D900061E082E195E00E94410262E029C088E39F
:102DA0000E944E0B892B09F40AC12DEC3CEC4CE837
:102DB0005FE36091EF037091F0038091F1039091D4
:102DC000F2035AD220E030E040E150E407D487FD1E
:102DD000F6C062E088E00E94A60560E082E195E02E
:102DE0000E94410264E082E195E00E94410265E0B8
:102DF00082E195E00E94410289E694E00E940C087D
:102E0000892B49F189E694E00E94EA07823399F020
:102E10004CF48033E1F08133F1F49092FB03809223
:102E2000FA0319C0833361F08336A9F4D092FB030F
:102E3000C092FA0310C03092FB032092FA030BC039
:102E400063E070E07093FB036093FA0304C0B092F8
:102E5000FB03A092FA038091FA039091FB03823066
:102E6000910509F452C08430910509F4A0C001977E
:102E700009F0A2C00E9447050E9411056093F60365
:102E80007093F7038093F8039093F9030E94A50BC6
:102E90004090DC025090DD026090DE027090DF0214
:102EA000AB01BC01441955096609770940365A4EF1
:102EB0006105710508F480C0D301C201805A9541B3
:102EC000AF4FBF4F8093DC029093DD02A093DE02F0
:102ED000B093DF0269E773E089E694E00E9448025C
:102EE0004091F6035091F7036091F8037091F90354
:102EF00022E089E694E00E94FE0666E489E694E01A
:102F00000E9441020E94C90257C0C8010E94530D8D
:102F100091E09093FE0388E6809320041092FF03D3
:102F20001092210460E086E095E00E94860F81E027
:102F30000E941F0381E090E00E947C0386E095E000
:102F40000E943B0F87FD2EC087E993E00E94CE02CE
:102F500087EA93E00E94CE024C8150E060E070E08E
:102F60002AE089E694E00E945D026AE389E694E043
:102F70000E9441024D8150E060E070E02AE089E665
:102F800094E00E945D026AE389E694E00E944102B7
:102F90004E8150E060E070E02AE089E694E00E9413
:102FA0005D020AC086EB93E00E94CE0205C012DAF1
:102FB0001092FB031092FA030E94A0083DCC88E314
:102FC0000E944E0B892B09F417CF2DEC3CEC4CE8FA
:102FD0005FE36091EF037091F0038091F1039091B2
:102FE000F2034AD120E030E040EE5FE3E0D0181673
:102FF0000CF402CF62E088E00E94A60560E082E166
:1030000095E00E94410264E082E195E00E94410265
:1030100065E082E195E00E9441026AEC73E082E1A2
:1030200095E00E944802E8CE10926C0410926B0466
:1030300088EE93E0A0E0B0E080936D0490936E047E
:10304000A0936F04B093700424E033E030936A04DB
:103050002093690425EC30E03093760420937504C6
:1030600024EC30E0309378042093770420EC30E0B7
:1030700030937A042093790421EC30E030937C047F
:1030800020937B0422EC30E030937E0420937D0477
:1030900026EC30E03093800420937F041092820469
:1030A00010928304109284041092850410920905F2
:1030B0001092080580930A0590930B05A0930C05C8
:1030C000B0930D0586E193E0909307058093060584
:1030D00060E08AE00E944B0AE8EEF1E0E491E093C0
:1030E0003E05E2EAF1E0E491F0E0EE0FFF1FE25866
:1030F000FE4F859194919093400580933F051092E7
:10310000490510924B0510924A05E9E4F5E0129248
:1031100085E0E134F807D9F788EF9EE090933D050C
:1031200080933C058EE395E09093310580933005C4
:1031300010922F0510922B0589E080932C0581E0D9
:1031400080932D0580932E0510921505109214057D
:1031500028E233E0309313052093120510922205E4
:103160009FEF90932105109220051092230597E27E
:1031700090931D0510921E0510921F0510921C05BC
:1031800010921B0594E09093240592E090932505FE
:103190008093260580E18093270580E280932805AF
:1031A00080E48093290580E880932A05089540D023
:1031B00008F481E00895E89409C097FB3EF49095E7
:1031C0008095709561957F4F8F4F9F4F9923A9F000
:1031D000F92F96E9BB279395F6958795779567958F
:1031E000B795F111F8CFFAF4BB0F11F460FF1BC0D3
:1031F0006F5F7F4F8F4F9F4F16C0882311F096E966
:1032000011C0772321F09EE8872F762F05C0662313
:1032100071F096E8862F70E060E02AF09A95660FCC
:10322000771F881FDAF7880F9695879597F9089585
:10323000990F0008550FAA0BE0E8FEEF16161706C7
:10324000E807F907C0F012161306E407F50798F02F
:10325000621B730B840B950B39F40A2661F0232B48
:10326000242B252B21F408950A2609F4A140A695C4
:103270008FEF811D811D08950BD078C069D028F093
:103280006ED018F0952309F05AC05FC01124A2C077
:103290007ED0A0F3959FD1F3950F50E0551F629F0C
:1032A000F001729FBB27F00DB11D639FAA27F00D9F
:1032B000B11DAA1F649F6627B00DA11D661F829FC6
:1032C0002227B00DA11D621F739FB00DA11D621FAB
:1032D000839FA00D611D221F749F3327A00D611DC8
:1032E000231F849F600D211D822F762F6A2F1124AA
:1032F0009F5750408AF0E1F088234AF0EE0FFF1FFD
:10330000BB1F661F771F881F91505040A9F79E3F33
:10331000510570F014C05EC05F3FECF3983EDCF3E3
:10332000869577956795B795F795E7959F5FC1F770
:10333000FE2B880F911D9695879597F9089597F91B
:103340009F6780E870E060E008959FEF80EC08954B
:1033500000240A9416161706180609060895002474
:103360000A9412161306140605060895092E0394EE
:10337000000C11F4882352F0BB0F40F4BF2B11F462
:1033800060FF04C06F5F7F4F8F4F9F4F089557FDC1
:103390009058440F551F59F05F3F71F04795880FC3
:1033A00097FB991F61F09F3F79F08795089512165A
:1033B00013061406551FF2CF4695F1DF08C0161606
:1033C00017061806991FF1CF8695710561050894B7
:1033D0000895E894BB2766277727CB0197F90895CE
:1033E0005058BB27AA270ED0C1CFB2DF30F0B7DFCD
:1033F00020F031F49F3F11F41EF4A7CF0EF4E095B6
:10340000E7FB9DCFE92FC3DF80F3BA17620773078D
:103410008407950718F071F49EF5DBCF0EF4E09564
:103420000B2EBA2FA02D0B01B90190010C01CA017E
:10343000A0011124FF27591B99F0593F50F4503E29
:1034400068F11A16F040A22F232F342F4427585F1B
:10345000F3CF469537952795A795F0405395C9F733
:103460007EF41F16BA0B620B730B840BBAF09150EB
:10347000A1F0FF0FBB1F661F771F881FC2F70EC08A
:10348000BA0F621F731F841F48F48795779567955D
:10349000B795F7959E3F08F0B3CF9395880F08F046
:1034A0009927EE0F9795879508950CD05FCF57DF3A
:1034B00040F04EDF30F021F45F3F19F040CF511162
:1034C00089CF43CF64DF98F39923C9F35523B1F330
:1034D000951B550BBB27AA2762177307840738F083
:1034E0009F5F5F4F220F331F441FAA1FA9F333D0E2
:1034F0000E2E3AF0E0E830D091505040E695001C96
:10350000CAF729D0FE2F27D0660F771F881FBB1F51
:10351000261737074807AB07B0E809F0BB0B802D2B
:10352000BF01FF2793585F4F2AF09E3F510568F077
:1035300006CF50CF5F3FECF3983EDCF3869577954E
:103540006795B795F7959F5FC9F7880F911D969579
:10355000879597F90895E1E0660F771F881FBB1FD5
:10356000621773078407BA0720F0621B730B840B82
:10357000BA0BEE1F88F7E095089504D06894B11156
:1035800029CF08950CDF88F09F5790F0B92F992725
:10359000B751A0F0D1F0660F771F881F991F1AF05E
:1035A000BA95C9F712C0B13081F013DFB1E00895C8
:1035B00010CF672F782F8827B85F39F0B93FCCF349
:1035C000869577956795B395D9F73EF49095809554
:1035D000709561957F4F8F4F9F4F089529DE08F4B6
:1035E0008FEF089525DE880B990B0895AA1BBB1B4E
:1035F00051E107C0AA1FBB1FA617B70710F0A61BF3
:10360000B70B881F991F5A95A9F780959095BC0113
:10361000CD01089597FB072E16F4009406D077FD90
:1036200008D0E4DF07FC05D03EF4909581959F4FCC
:103630000895709561957F4F0895A1E21A2EAA1BF7
:10364000BB1BFD010DC0AA1FBB1FEE1FFF1FA21752
:10365000B307E407F50720F0A21BB30BE40BF50B4F
:10366000661F771F881F991F1A9469F760957095D8
:10367000809590959B01AC01BD01CF010895EE0F9F
:10368000FF1F881F8BBF0790F691E02D1994CF93F1
:10369000DF938230910510F482E090E0E0919E0586
:1036A000F0919F0520E030E0C0E0D0E0309711F1CC
:1036B0004081518148175907C0F04817590761F4F4
:1036C00082819381209719F09B838A832BC09093EA
:1036D0009F0580939E0526C02115310519F04217DC
:1036E000530718F49A01BE01DF01EF010280F38154
:1036F000E02DDCCF2115310509F1281B390B2430D1
:10370000310590F412968D919C9113976115710576
:1037100021F0FB019383828304C090939F058093E3
:103720009E05FD01329644C0FD01E20FF31F819317
:103730009193225031092D933C933AC020919C05DE
:1037400030919D05232B41F42091F6023091F70230
:1037500030939D0520939C052091F4023091F50251
:103760002115310541F42DB73EB74091F802509133
:10377000F902241B350BE0919C05F0919D05E217A1
:10378000F307A0F42E1B3F0B2817390778F0AC0184
:103790004E5F5F4F2417350748F04E0F5F1F509361
:1037A0009D0540939C058193919302C0E0E0F0E079
:1037B000CF01DF91CF9108950F931F93CF93DF93A4
:1037C000009709F48CC0FC01329713821282009199
:1037D0009E0510919F050115110581F4208131810D
:1037E000820F931F20919C0530919D052817390762
:1037F00079F5F0939D05E0939C0571C0D80140E0F8
:1038000050E0AE17BF0750F412962D913C911397DC
:10381000AD012115310509F1D901F3CF9D01DA017F
:103820003383228360817181860F971F82179307EC
:1038300069F4EC0128813981260F371F2E5F3F4F35
:10384000318320838A819B8193838283452B29F452
:10385000F0939F05E0939E0542C01396FC93EE9370
:103860001297ED01499159919E01240F351FE217DE
:10387000F30771F480819181840F951F0296119650
:103880009C938E938281938113969C938E9312972F
:10389000E0E0F0E0D80112968D919C91139700978B
:1038A00019F0F8018C01F6CF8D919C9198012E5F53
:1038B0003F4F820F931F20919C0530919D05281743
:1038C000390769F4309729F410929F0510929E05EC
:1038D00002C01382128210939D0500939C05DF9114
:1038E000CF911F910F9108956F927F928F929F9227
:1038F000AF92BF92CF92DF92EF92FF920F931F93FE
:10390000CF93DF93EC01009781F4CB01DF91CF914E
:103910001F910F91FF90EF90DF90CF90BF90AF90ED
:103920009F908F907F906F90B2CEFC01E60FF71FB3
:103930009C0122503109E217F30708F4A8C0D9010D
:103940000D911C91119706171707A8F00530110566
:1039500008F49BC0C80104978617970708F495C020
:1039600002501109061B170B019311936D937C9361
:10397000CF0122DF8AC05B01A01AB10A4C01800E80
:10398000911EA0919E05B0919F0540E050E0E12C72
:10399000F12C109709F44AC0A815B905D1F56D901E
:1039A0007C901197630182E0C80ED11CCA14DB041D
:1039B00080F1A3014A195B096A0182E0C80ED11C9B
:1039C0001296BC9012971396AC91B5E0CB16D10429
:1039D00040F0B282A38351834083D9016D937C93DD
:1039E0000AC00E5F1F4FC301800F911FF901918321
:1039F0008083EB2DFA2FE114F10431F0D7011396F7
:103A0000FC93EE93129741C0F0939F05E0939E05BF
:103A10003CC08D919C9111974817590708F4AC014F
:103A20007D0112960D90BC91A02DB3CF80919C0585
:103A300090919D0588159905E1F446175707C8F43C
:103A40008091F4029091F502009741F48DB79EB7F2
:103A50004091F8025091F902841B950BE817F90781
:103A6000B0F4F0939D05E0939C05F90171836083A8
:103A70000CC0CB010CDE7C01009749F0A801BE010F
:103A80001BD0CE0199DEC70104C0CE0102C080E088
:103A900090E0DF91CF911F910F91FF90EF90DF9019
:103AA000CF90BF90AF909F908F907F906F90089530
:103AB00081E090E0F894D9C2FB01DC0102C00190E2
:103AC0000D9241505040D8F70895FB01DC01019060
:103AD0000D920020E1F708950F931F93CF93DF938A
:103AE000CDB7DEB72E970FB6F894DEBF0FBECDBFB1
:103AF0000E891F8986E08C831A8309838FEF9FE7E5
:103B00009E838D83AE01465E5F4F688D798DCE01B9
:103B1000019611D02F813885F801E20FF31F108232
:103B20002E960FB6F894DEBF0FBECDBFDF91CF91BA
:103B30001F910F9108952F923F924F925F926F9233
:103B40007F928F929F92AF92BF92CF92DF92EF922D
:103B5000FF920F931F93CF93DF93CDB7DEB72C97D0
:103B60000FB6F894DEBF0FBECDBF7C016B018A019A
:103B7000FC0117821682838181FFB0C1CE010196BC
:103B80004C01F7019381F60193FD859193FF81919B
:103B90006F01882309F49EC1853239F493FD859124
:103BA00093FF81916F01853221F4B70190E0C7D175
:103BB000E8CF512C312C20E02032A0F48B3269F078
:103BC00030F4803259F0833269F420612CC08D3298
:103BD00039F0803339F4216026C02260246023C08C
:103BE000286021C027FD27C030ED380F3A3078F427
:103BF00026FF06C0FAE05F9E300D1124532E13C03D
:103C00008AE0389E300D1124332E20620CC08E3293
:103C100021F426FD5FC1206406C08C3611F42068B3
:103C200002C0883641F4F60193FD859193FF81919E
:103C30006F018111C1CF982F9F7D9554933028F447
:103C40000C5F1F4FFFE3F9830DC0833631F08337DC
:103C500071F0833509F057C021C0F8018081898354
:103C60000E5F1F4F44244394512C540114C038015B
:103C7000F2E06F0E711CF801A080B18026FF03C036
:103C8000652D70E002C06FEF7FEFC5012C874CD12E
:103C90002C0183012C852F77222E16C03801F2E0EB
:103CA0006F0E711CF801A080B18026FF03C0652D46
:103CB00070E002C06FEF7FEFC5012C872AD12C0185
:103CC0002C852068222E830123FC19C0832D90E0CF
:103CD00048165906A0F4B70180E290E030D13A943A
:103CE000F5CFF50127FC859127FE81915F01B70192
:103CF00090E025D131103A94F1E04F1A5108411467
:103D0000510479F7DEC0843611F0893631F5F801B7
:103D100027FF07C060817181828193810C5F1F4FF3
:103D200008C060817181072E000C880B990B0E5F13
:103D30001F4F2F76722E97FF09C090958095709532
:103D400061957F4F8F4F9F4F2068722E2AE030E0A1
:103D5000A4012DD1A82EA81843C0853729F42F7EA1
:103D6000B22E2AE030E025C0F22FF97FBF2E8F3629
:103D7000C1F018F4883579F0ADC0803719F0883774
:103D800021F0A8C02F2F2061B22EB4FE0DC08B2DC4
:103D90008460B82E09C024FF0AC09F2F9660B92EF8
:103DA00006C028E030E005C020E130E002C020E19C
:103DB00032E0F801B7FE07C0608171818281938192
:103DC0000C5F1F4F06C06081718180E090E00E5F44
:103DD0001F4FA401ECD0A82EA818FB2DFF777F2E33
:103DE00076FE0BC0372D3E7FA51450F474FE0AC03A
:103DF00072FC08C0372D3E7E05C0BA2C372D03C09B
:103E0000BA2C01C0B52C34FF0DC0FE01EA0DF11D26
:103E10008081803311F4397E09C032FF06C0B3942B
:103E2000B39404C0832F867809F0B39433FD12C095
:103E300030FF06C05A2CB31418F4530C5B18B32C83
:103E4000B31460F4B70180E290E03C8778D0B3947B
:103E50003C85F6CFB31410F43B1801C0312C34FF6D
:103E600011C0B70180E390E03C8769D03C8532FF08
:103E700016C031FD03C088E790E002C088E590E0FD
:103E8000B7010CC0832F867851F031FF02C08BE25E
:103E900001C080E237FD8DE2B70190E050D0A5145B
:103EA00030F4B70180E390E04AD05A94F8CFAA9456
:103EB000F401EA0DF11D8081B70190E040D0A1101E
:103EC000F6CF332009F45DCEB70180E290E037D021
:103ED0003A94F7CFF7018681978102C08FEF9FEF69
:103EE0002C960FB6F894DEBF0FBECDBFDF91CF91F9
:103EF0001F910F91FF90EF90DF90CF90BF90AF9008
:103F00009F908F907F906F905F904F903F902F90F9
:103F10000895FC010590615070400110D8F780951C
:103F200090958E0F9F1F0895FC0161507040019085
:103F30000110D8F7809590958E0F9F1F08950F93CD
:103F40001F93CF93DF93FB01238121FD03C08FEFEC
:103F50009FEF28C022FF16C04681578124813581FA
:103F60004217530744F4A081B1819D012F5F3F4F59
:103F7000318320838C93268137812F5F3F4F378396
:103F8000268310C0EB01092F182F0084F185E02D46
:103F90001995892BE1F68E819F8101969F838E83EF
:103FA000812F902FDF91CF911F910F910895FA01EA
:103FB000AA27283051F1203181F1E8946F936E7F68
:103FC0006E5F7F4F8F4F9F4FAF4FB1E03ED0B4E059
:103FD0003CD0670F781F891F9A1FA11D680F791F9A
:103FE0008A1F911DA11D6A0F711D811D911DA11DAB
:103FF00020D009F468943F912AE0269F11243019BB
:10400000305D3193DEF6CF010895462F4770405D55
:104010004193B3E00FD0C9F7F6CF462F4F70405D04
:104020004A3318F0495D31FD4052419302D0A9F75F
:10403000EACFB4E0A6959795879577956795BA9559
:10404000C9F700976105710508959B01AC010A2E1F
:1040500006945795479537952795BA95C9F7620FF6
:0E406000731F841F951FA01D0895F894FFCFB5
:10406E001E0203010103021E1F0000000000001FBC
:10407E001F1010101010101F1E021B1D1D1B021EE4
:10408E001F001F1F1F1F001F1F1017171717101FAE
:10409E0053756E00000000000000000000000000DC
:1040AE0000000000000000004D6F6E0000000000D8
:1040BE0000000000000000000000000000000000F2
:1040CE0054756500000000000000000000000000B4
:1040DE0000000000000000005765640000000000B2
:1040EE0000000000000000000000000000000000C2
:1040FE005468750000000000000000000000000081
:10410E000000000000000000467269000000000080
:10411E000000000000000000000000000000000091
:10412E005361740000000000000000000000000059
:10413E000000000000000000A015FFFFA015FFFF0B
:10414E00A015FFFFFD08FD08FD08FD08FD08FD0890
:10415E00FD08FD080000A00580005E00BC00770190
:10416E000000000039080D02DB077F080C08EA0783
:10417E00FE0700000000860F570FB50F2B0F4F0FD5
:10418E003B0F2C0F00000000EB0E0D02B50FB40F0D
:10419E007610D70E4E092F0956657273696F6E2011
:1041AE0025642E253032642E2530326400442E4193
:1041BE002E542E452E20446973706C61790054651F
:1041CE006D703A20004261636B6C69676874204FB2
:1041DE006E002056005553420043757272656E7420
:1041EE002072656164696E672066726F6D207365FB
:1041FE006E736F723A2000525443206973207275A9
:10420E006E6E696E672E0043757272656E742074E1
:10421E00696D653A2000525443206973206E6F74A5
:10422E002072756E6E696E672E0020424154204CCE
:10423E004F57000D0A006E616E00696E66006F7654
:02424E00660008
:020000023000CC
:10E000000D9489F10D94B2F10D94B2F10D94B2F129
:10E010000D94B2F10D94B2F10D94B2F10D94B2F1F0
:10E020000D94B2F10D94B2F10D94B2F10D94B2F1E0
:10E030000D94B2F10D94B2F10D94B2F10D94B2F1D0
:10E040000D94B2F10D94B2F10D94B2F10D94B2F1C0
:10E050000D94B2F10D94B2F10D94B2F10D94B2F1B0
:10E060000D94B2F10D94B2F10D94B2F10D94B2F1A0
:10E070000D94B2F10D94B2F10D94B2F10D94B2F190
:10E080000D94B2F10D94B2F10D94B2F10D94B2F180
:10E090000D94B2F10D94B2F10D94B2F10D94B2F170
:10E0A0000D94B2F10D94B2F10D94B2F10D94B2F160
:10E0B0000D94B2F10D94B2F10D94B2F10D94B2F150
:10E0C0000D94B2F10D94B2F10D94B2F10D94B2F140
:10E0D0000D94B2F10D94B2F10D94B2F10D94B2F130
:10E0E0000D94B2F141546D656761323536300041AF
:10E0F000726475696E6F206578706C6F72657220DE
:10E1000073746B3530305632206279204D4C530099
:10E11000426F6F746C6F616465723E004875683F52
:10E1200000436F6D70696C6564206F6E203D200048
:10E130004350552054797065202020203D20005FF9
:10E140005F4156525F415243485F5F3D2000415658
:10E1500052204C696243205665723D20004743437C
:10E160002056657273696F6E203D20004350552024
:10E1700049442020202020203D20004C6F7720663D
:10E18000757365202020203D20004869676820665F
:10E190007573652020203D200045787420667573D6
:10E1A00065202020203D20004C6F636B2066757336
:10E1B000652020203D20004D617220203720323024
:10E1C000313300312E362E3800342E332E350056A2
:10E1D00023202020414444522020206F7020636F70
:10E1E00064652020202020696E73747275637469E1
:10E1F0006F6E2061646472202020496E74657272B3
:10E20000757074006E6F20766563746F7200726A49
:10E210006D702020006A6D70200057686174207056
:10E220006F72743A00506F7274206E6F7420737541
:10E2300070706F72746564004D7573742062652030
:10E2400061206C6574746572002000577269747483
:10E25000696E672045450052656164696E672045B7
:10E26000450045452065727220636E743D00504F35
:10E27000525400303D5A65726F2061646472003FF1
:10E280003D43505520737461747300403D454550C3
:10E29000524F4D207465737400423D426C696E6B41
:10E2A000204C454400453D44756D70204545505215
:10E2B0004F4D00463D44756D7020464C415348001B
:10E2C000483D48656C70004C3D4C69737420492F83
:10E2D0004F20506F72747300513D51756974005234
:10E2E0003D44756D702052414D00563D73686F7707
:10E2F00020696E7465727275707420566563746FF0
:10E30000727300593D506F727420626C696E6B00BD
:10E310002A0011241FBECFEFD1E2DEBFCDBF01E046
:10E320000CBF12E0A0E0B2E0EEE1FDEF03E00BBFB6
:10E3300002C007900D92A030B107D9F712E0A0E01B
:10E34000B2E001C01D92AE30B107E1F70F9460F367
:10E350000D948DFE01E20EBF0FEF0DBF11241FBE05
:10E360000D9460F30D9400F020E030E040ED57E0B4
:10E3700005C0FA013197F1F72F5F3F4F2817390792
:10E38000C0F308959C01260F311DC901A0E0B0E043
:10E390002F5F3F4FABBFFC018791882361F08093D3
:10E3A000C6008091C00086FFFCCF8091C0008064D1
:10E3B0008093C000EACF08958DE08093C6008091DD
:10E3C000C00086FFFCCF8091C00080648093C000B5
:10E3D0008AE08093C6008091C00086FFFCCF8091C8
:10E3E000C00080648093C00008950F94C2F10F9420
:10E3F000DCF10895FC019081992359F09093C600B7
:10E400008091C00086FFFCCF8091C0008064809323
:10E41000C0003196992379F70895282F982F929567
:10E420009F70892F805D8A3308F0895F8093C600D2
:10E430008091C00086FFFCCF8091C00080648093F3
:10E44000C000822F8F70982F905D9A3308F0995FEB
:10E450009093C6008091C00086FFFCCF8091C000E1
:10E4600080648093C00008959C01FB01853691056E
:10E470001CF46330710594F0C90164E670E00F94F8
:10E480002EFE605D7F4F6093C6008091C00086FFC6
:10E49000FCCF8091C00080648093C0002B30310598
:10E4A00014F43297B4F0C90164E670E00F942EFEC4
:10E4B0006AE070E00F942EFE605D7F4F6093C600AF
:10E4C0008091C00086FFFCCF8091C0008064809363
:10E4D000C000C9016AE070E00F942EFEC0968093E0
:10E4E000C6008091C00086FFFCCF8091C000806490
:10E4F0008093C00008951F93182F8EE692EE60E07F
:10E500000F94C2F11093C6008091C00086FFFCCF2B
:10E510008091C00080648093C0000F94DCF11F9153
:10E5200008952F923F924F925F926F927F928F92B7
:10E530009F92AF92BF92CF92DF92EF92FF920F9392
:10E540001F93DF93CF93CDB7DEB762970FB6F894E2
:10E55000DEBF0FBECDBF382E622ECA01DB015C01CB
:10E560006D01772420E2222E2E010894411C511CBB
:10E570008BC081E0A81680E0B80681E0C80680E084
:10E58000D80628F0C601AA27BB270F940DF2BB2797
:10E59000AD2D9C2D8B2D0F940DF28A2D0F940DF225
:10E5A0002092C6008091C00086FFFCCF8091C00001
:10E5B00080648093C0009DE29093C6008091C0006B
:10E5C00086FFFCCF8091C00080648093C0002092C1
:10E5D000C6008091C00086FFFCCF8091C00080649F
:10E5E0008093C00019828601750188249924A1E0D6
:10E5F0003A1651F03A1620F0B2E03B1661F409C029
:10E600000BBFF701779007C0C7010F9477FE782EF4
:10E6100002C0F7017080872D0F940DF22092C60082
:10E620008091C00086FFFCCF8091C0008064809301
:10E63000C000872D8052F401EF70F0708F3520F408
:10E64000E40DF51D708204C0E40DF51D8EE280839B
:10E650000894E11CF11C011D111D0894811C911CE2
:10E6600090E18916910409F0C2CF80E190E0A0E02A
:10E67000B0E0A80EB91ECA1EDB1E198AC2010F9493
:10E68000FAF10F94DCF16A94662009F072CF629679
:10E690000FB6F894DEBF0FBECDBFCF91DF911F91B3
:10E6A0000F91FF90EF90DF90CF90BF90AF909F9031
:10E6B0008F907F906F905F904F903F902F90089534
:10E6C0002F923F924F925F926F927F928F929F9282
:10E6D000AF92BF92CF92DF92EF92FF920F931F9370
:10E6E000DF93CF93CDB7DEB7CD53D1400FB6F894BB
:10E6F000DEBF0FBECDBF01E20EBF0FEF0DBF94B75F
:10E70000F894A89514BE80916000886180936000A1
:10E7100010926000789493FF05C0E0910002F091A0
:10E7200001021995279A2F9A8091C00082608093E8
:10E73000C00080E18093C40088E18093C1000000A4
:10E74000EE24FF24870144E0A42EB12CCC24DD2448
:10E7500024C0C5010197F1F70894E11CF11C011DCB
:10E76000111D21E2E2162EE4F20620E0020720E06D
:10E77000120718F031E0C32ED12CC801B70127ECE5
:10E780003BE140E050E00F9441FE611571058105C9
:10E79000910519F485B1805885B98091C00087FD35
:10E7A00003C0C114D104A9F2A6014F5F5F4FC25E3E
:10E7B000DE4F59834883CE51D140C25EDE4F8881FF
:10E7C0009981CE51D140019711F00D9410FEC05D9A
:10E7D000DE4F19821882C053D14060E0C15DDE4F28
:10E7E0001882CF52D14088249924C35DDE4F19820C
:10E7F0001882CD52D140C05EDE4F188219821A8233
:10E800001B82C052D140CE5CDE4F188219821A8220
:10E810001B82C253D140EE24FF2487010BBFF701B6
:10E8200007911691C45CDE4F19830883CC53D14005
:10E830000D940BFEC25EDE4F28813981CE51D1404E
:10E840002130310509F52091C600C25EDE4F1982E4
:10E850001882CE51D14022C02F5F3F4F4F4F5F4FA4
:10E86000213082E138078AE7480780E0580780F0C6
:10E87000C45CDE4FE881F981CC53D140EF5FFF4F9C
:10E8800019F0EE27FF27099420E030E040E050E047
:10E890008091C00087FFE0CF2091C600C35DDE4FAE
:10E8A00048815981CD52D1404F5F5F4FC35DDE4FEC
:10E8B00059834883CD52D140213209F063C64A3092
:10E8C000510508F05FC60894811C911C53E0851621
:10E8D000910409F059C600E010E018C081E280936D
:10E8E000C6008091C00086FFFCCF8091C00080648C
:10E8F0008093C0002F5F3F4F2931310579F70F9486
:10E90000DCF10F5F1F4F0530110519F020E030E0FA
:10E91000E5CF10920A0210920B0210920C02109294
:10E920000D02109206021092070210920802109235
:10E930000902109202021092030210920402109235
:10E9400005028FEE90EE60E00F94F5F180E191EE1C
:10E9500060E00F94C2F18091C00087FFFCCF9091DE
:10E96000C600903608F09F759032B8F09093C600BC
:10E970008091C00086FFFCCF8091C00080648093AE
:10E98000C000A0E2A093C6008091C00086FFFCCF2B
:10E990008091C00080648093C000983409F4D7C18E
:10E9A0009934B8F4923409F459C1933458F490333B
:10E9B00019F1903308F4E3C59F33A1F1903409F0C5
:10E9C000DEC5BDC0953409F470C1963409F0D7C5D1
:10E9D00098C1923509F42BC2933538F49C3409F46C
:10E9E000F5C1913509F0CBC518C2963509F445C279
:10E9F000993509F0C4C567C483E792EE62E00F94CD
:10EA0000F5F110920602109207021092080210927D
:10EA1000090210920A0210920B0210920C0210923C
:10EA20000D0213C18FE792EE62E00F94F5F18FEEC5
:10EA300090EE60E00F94F5F181E291EE60E00F94CA
:10EA4000C2F187EB91EE60E00F94F5F180E391EE77
:10EA500060E00F94C2F184EE90EE60E00F94F5F167
:10EA60008FE391EE60E00F94C2F186E090E061E008
:10EA700070E00F9434F20F94DCF18DE591EE60E0DC
:10EA80000F94C2F189EC91EE60E00F94F5F18EE401
:10EA900091EE60E00F94C2F183EC91EE60E00F9490
:10EAA000F5F18CE691EE60E00F94C2F18EE10F94E7
:10EAB0000DF288E90F940DF281E00F940DF20F949E
:10EAC000DCF18BE791EE60E00F94C2F119E0E0E039
:10EAD000F0E010935700E4918E2F0F940DF20F94F5
:10EAE000DCF18AE891EE60E00F94C2F1E3E0F0E03F
:10EAF00010935700E4918E2F0F940DF20F94DCF1D8
:10EB000089E991EE60E00F94C2F1E2E0F0E0109349
:10EB10005700E4918E2F0F940DF20F94DCF188EAE8
:10EB200091EE60E00F94C2F1E1E0F0E01093570045
:10EB30001491812F0F940DF20F94DCF107CF8BE825
:10EB400092EE62E00F94F5F18BE492EE60E00F94A8
:10EB5000F5F10F94DCF100E010E019C0C8016F2D51
:10EB60000F947FFEFF2031F489E492EE60E00F9471
:10EB7000C2F10BC0F092C6008091C00086FFFCCFAE
:10EB80008091C00080648093C0000F5F1F4FC80158
:10EB900081519F41A0E0B0E0ABBFFC01F790BAE229
:10EBA000FB1621F0E2E000301E07C1F60F94DCF105
:10EBB0000F94DCF187E592EE60E00F94F5F10F948D
:10EBC000DCF1CC24DD2400E010E01EC0C8010F946D
:10EBD00077FEF82E882331F489E492EE60E00F94FA
:10EBE000C2F10BC08093C6008091C00086FFFCCFAD
:10EBF0008091C00080648093C000FE1419F00894D6
:10EC0000C11CD11C0F5F1F4FC80181519F41A0E063
:10EC1000B0E0ABBFFC01E790FAE2EF1621F022E092
:10EC20000030120799F60F94DCF10F94DCF182E6C4
:10EC300092EE60E00F94C2F1C60161E070E00F94C3
:10EC400034F20F94DCF10F94DCF110920202109276
:10EC50000302109204021092050278CE89E992EE26
:10EC600062E00F94F5F1279A2F9A16C02F9880E052
:10EC700090E0E0EDF7E03197F1F7019684369105E9
:10EC8000C1F72F9A80E090E0E0EDF7E03197F1F7DF
:10EC9000019684369105C1F78091C00087FFE6CFC9
:10ECA0008091C00087FFFCCF64C485EA92EE62E0E9
:10ECB0000F94F5F140910202509103026091040219
:10ECC0007091050281E020E10F9491F2809102029F
:10ECD00090910302A0910402B091050280509F4FD1
:10ECE000AF4FBF4F8093020290930302A0930402A0
:10ECF000B093050280509041A040B04008F426CE69
:10ED0000A4CF83EB92EE62E00F94F5F140910602FE
:10ED100050910702609108027091090280E020E1A1
:10ED20000F9491F28091060290910702A09108023F
:10ED3000B091090280509F4FAF4FBF4F80930602A2
:10ED400090930702A0930802B0930902FFCD80ECD4
:10ED500092EE62E00F94F5F183E792EE60E00F949B
:10ED6000F5F18FE792EE60E00F94F5F18BE892EE0B
:10ED700060E00F94F5F189E992EE60E00F94F5F10F
:10ED800085EA92EE60E00F94F5F183EB92EE60E09D
:10ED90000F94F5F180EC92EE60E00F94F5F187ECC2
:10EDA00092EE60E00F94F5F188ED92EE60E00F9442
:10EDB000F5F18FED92EE60E00F94F5F18AEE92EEB0
:10EDC00060E00F94F5F183E093EEBDCD87EC92EE19
:10EDD00062E00F94F5F181E40F947BF282E40F94EA
:10EDE0007BF283E40F947BF284E40F947BF285E45E
:10EDF0000F947BF286E40F947BF287E40F947BF20E
:10EE000088E40F947BF28AE40F947BF28BE40F94F6
:10EE10007BF28CE40F947BF299CD88ED92EE62E068
:10EE20000F94F5F1772473948824992409C48FED05
:10EE300092EE62E00F94F5F140910A0250910B02BC
:10EE400060910C0270910D0282E020E10F9491F22A
:10EE500080910A0290910B02A0910C02B0910D02D8
:10EE600080509F4FAF4FBF4F80930A0290930B0289
:10EE7000A0930C02B0930D0269CD8AEE92EE62E08F
:10EE80000F94F5F184EE90EE60E00F94F5F18FECC5
:10EE900091EE60E00F94F5F1662477244301CC5D98
:10EEA000DE4F19821882C452D140D401C301B695F5
:10EEB000A79597958795CA5DDE4F88839983AA8326
:10EEC000BB83C652D140CC5DDE4FA881B981C4520C
:10EED000D1401196CC5DDE4FB983A883C452D14096
:10EEE000CD0162E070E00F9434F2B0E2B093C6005E
:10EEF0008091C00086FFFCCF8091C0008064809329
:10EF0000C000EDE2E093C6008091C00086FFFCCF18
:10EF10008091C00080648093C000F0E2F093C6004E
:10EF20008091C00086FFFCCF8091C00080648093F8
:10EF3000C000CA5DDE4FE880F9800A811B81C6529D
:10EF4000D140BB27A12F902F8F2D0F940DF2CA5DBA
:10EF5000DE4F8881C652D1400F940DF2B0E2FB2EF5
:10EF6000F092C6008091C00086FFFCCF8091C00067
:10EF700080648093C0000DE30093C6008091C000C0
:10EF800086FFFCCF8091C00080648093C00010E2B7
:10EF90001093C6008091C00086FFFCCF8091C00016
:10EFA00080648093C0008BBEF3012791C65DDE4F65
:10EFB0002883CA52D140A22EBB24CC24DD2408943D
:10EFC000611C711C811C911C8BBEF3018791282E42
:10EFD0003324442455240894611C711C811C911C09
:10EFE0008BBEF3013791C55DDE4F3883CB52D140E4
:10EFF0000894611C711C811C911C8BBEF30147910C
:10F00000C45DDE4F4883CC52D140ADEFEA2EAFEF66
:10F01000FA2EAFEF0A2FAFEF1A2F6E0C7F1C801E57
:10F02000911E142D032DF22CEE24EA0CFB1C0C1D5A
:10F030001D1D0F940DF220E22093C6008091C000A8
:10F0400086FFFCCF8091C00080648093C000C65DC5
:10F05000DE4F8881CA52D1400F940DF230E23093D6
:10F06000C6008091C00086FFFCCF8091C000806404
:10F070008093C000C45DDE4F8881CC52D1400F9494
:10F080000DF240E24093C6008091C00086FFFCCFA5
:10F090008091C00080648093C000C55DDE4F888190
:10F0A000CB52D1400F940DF250E25093C6008091A4
:10F0B000C00086FFFCCF8091C00080648093C000B8
:10F0C0008FEFE8168FEFF80680E0080780E018075A
:10F0D00031F484E092EE60E00F94C2F1DFC0D80119
:10F0E000C7018070907CA070B0708050904CA040A0
:10F0F000B040D1F52FEF3FE340E050E0E222F322B1
:10F1000004231523CA5DDE4FA880B980CA80DB8046
:10F11000C652D140AE0CBF1CC01ED11EAA0CBB1CD7
:10F12000CC1CDD1C8EE092EE60E00F94C2F1BB2798
:10F13000A12F902F8F2D0F940DF28E2D0F940DF285
:10F1400030E23093C6008091C00086FFFCCF8091F2
:10F15000C00080648093C0004EE34093C60080915D
:10F16000C00086FFFCCF87C08EE09EEFA0E0B0E03D
:10F17000E822F9220A231B239CE0E91694E9F90608
:10F1800090E0090790E0190709F088C0C45DDE4FE0
:10F19000A881CC52D140EA2EFF2400E010E0102FCD
:10F1A0000F2DFE2CEE24C55DDE4FB881CB52D14031
:10F1B000EB0EF11C011D111DD601C501817090706F
:10F1C000A070B070DC0199278827E80EF91E0A1F8D
:10F1D0001B1F20EF30E040E050E0A222B322C42207
:10F1E000D52241E1AA0CBB1CCC1CDD1C4A95D1F7F1
:10F1F000EA0CFB1C0C1D1D1D81E090E0A0E0B0E0BE
:10F20000282239224A225B2235E1220C331C441C7D
:10F21000551C3A95D1F7E20CF31C041D151D57013E
:10F220006801AA0CBB1CCC1CDD1C85E192EE60E0E1
:10F230000F94C2F1C801AA27BB270F940DF2BB2778
:10F24000A12F902F8F2D0F940DF28E2D0F940DF274
:10F2500090E29093C6008091C00086FFFCCF809121
:10F26000C00080648093C000AEE3A093C60080918C
:10F27000C00086FFFCCF8091C00080648093C000F6
:10F28000C601AA27BB270F940DF2BB27AD2D9C2DDD
:10F290008B2D0F940DF28A2D0F940DF20F94DCF14B
:10F2A000CC5DDE4FE881F981C452D140F99709F471
:10F2B0004DCBF4E0EF2EF12C012D112D6E0C7F1CA7
:10F2C000801E911EF2CD83E093EE62E00F94F5F183
:10F2D0008AE192EE60E00F94C2F18091C00087FF56
:10F2E000FCCF1091C6001F751093C6008091C0001E
:10F2F00086FFFCCF8091C00080648093C0000F9493
:10F30000DCF1812F81548A3108F036C1163409F4BA
:10F3100095C0173490F4133409F44EC0143430F40B
:10F320001134F1F0123409F01DC130C0143409F465
:10F3300059C0153409F016C16BC01A3409F4C4C0A1
:10F340001B3438F4173409F48FC0183409F00AC19B
:10F35000A1C01B3409F4D2C01C3409F003C1E8C0B9
:10F360008FEF81B90DC082B1809582B980E090E0C5
:10F37000E0EDF7E03197F1F70196883C9105C1F790
:10F380008091C00087FFEFCF12B8EFC08FEF84B934
:10F390000DC085B1809585B980E090E0E0EDF7E0A3
:10F3A0003197F1F70196883C9105C1F78091C00033
:10F3B00087FFEFCF15B8D9C08FEF87B90DC088B1DF
:10F3C000809588B980E090E0E0EDF7E03197F1F7C3
:10F3D0000196883C9105C1F78091C00087FFEFCF6F
:10F3E00018B8C3C08FEF8AB90DC08BB180958BB9A7
:10F3F00080E090E0E0EDF7E03197F1F70196883C8E
:10F400009105C1F78091C00087FFEFCF1BB8ADC059
:10F410008FEF8DB90DC08EB180958EB980E090E0F0
:10F42000E0EDF7E03197F1F70196883C9105C1F7DF
:10F430008091C00087FFEFCF1EB897C08FEF80BBD1
:10F440000DC081B3809581BB80E090E0E0EDF7E0F6
:10F450003197F1F70196883C9105C1F78091C00082
:10F4600087FFEFCF11BA81C08FEF83BB0DC084B38C
:10F47000809584BB80E090E0E0EDF7E03197F1F714
:10F480000196883C9105C1F78091C00087FFEFCFBE
:10F4900014BA6BC08FEF809301010FC080910201FD
:10F4A00080958093020180E090E0E0EDF7E03197F5
:10F4B000F1F70196883C9105C1F78091C00087FF64
:10F4C000EDCF1092020151C08FEF809304010FC065
:10F4D0008091050180958093050180E090E0E0ED4A
:10F4E000F7E03197F1F70196883C9105C1F78091DB
:10F4F000C00087FFEDCF1092050137C08FEF8093DA
:10F5000007010FC08091080180958093080180E079
:10F5100090E0E0EDF7E03197F1F70196883C910536
:10F52000C1F78091C00087FFEDCF109208011DC088
:10F530008FEF80930A010FC080910B01809580931B
:10F540000B0180E090E0E0EDF7E03197F1F70196F4
:10F55000883C9105C1F78091C00087FFEDCF1092E4
:10F560000B0103C085E292EEEEC98091C00087FFD7
:10F57000FCCF8091C600EAC988E392EEE4C98CE131
:10F5800091EEE1C988249924933011F1943028F444
:10F59000913089F09230B8F408C0953061F195301F
:10F5A000F0F0963009F048C043C02B3109F042C951
:10F5B00091E06BE13FC96227C15DDE4F2883CF52E6
:10F5C000D14092E037C9B22FA0E0622793E032C960
:10F5D000822F90E0A82BB92B622794E02BC92E3004
:10F5E00009F039C3622795E0C05DDE4F19821882A9
:10F5F000C053D1401FC9E1E0F0E0EC0FFD1FC05D3A
:10F60000DE4F08811981C053D140E00FF11F2083E4
:10F610000F5F1F4FC05DDE4F19830883C053D14079
:10F6200062270A171B0709F005C9D80196E002C92D
:10F63000261709F010C303C0973009F0FBC87724E0
:10F640009981933109F412C19431C8F4963009F4C8
:10F65000D8C0973050F4923009F406C1933009F4C1
:10F660006DC0913009F059C253C0913109F477C08F
:10F67000923108F0BBC0903109F04FC2F5C098310B
:10F6800009F487C0993150F4953109F4EFC09531F0
:10F6900008F4C6C1963109F040C2C2C19A3109F4DA
:10F6A0006CC09A3108F491C09B3109F45BC09D3164
:10F6B00009F033C29D81903359F48F81882311F46E
:10F6C0009EE11CC0813011F091E018C098E916C08D
:10F6D000892F807591F0903539F4E0E0F0E089E011
:10F6E0008093570094910AC0983539F4E3E0F0E034
:10F6F00089E080935700949101C090E01A821B82A8
:10F700008D818C831D829E831F8227E030E009C299
:10F710001A8288E08B8381E48C8386E58D8382E581
:10F720008E8389E48F8383E5888780E589878FE5E9
:10F730008A8782E38B872BE030E0F3C18A818139AD
:10F7400041F0823941F0803911F48FE005C080E04A
:10F7500003C082E001C08AE01A828B8344C0772410
:10F76000739482C08D81882311F48EE12CC0813086
:10F7700011F081E028C088E926C01A82E1E0F0E0BB
:10F7800089E08093570084918B831C8224E030E0D1
:10F79000C8C18B81803589F48C81883039F4E2E0EE
:10F7A000F0E089E08093570084910DC0E0E0F0E044
:10F7B00089E080935700849106C0E3E0F0E089E09F
:10F7C0008093570084911A82DFCF8D81836C99E0FA
:10F7D000E1E0F0E0082E90935700E89507B600FCB2
:10F7E000FDCF1A821B8223E030E09BC180EC8A832C
:10F7F000CE5CDE4F188219821A821B82C253D1401E
:10F800008EC18A8190E0A0E0B0E0582F44273327D2
:10F8100022278B8190E0A0E0B0E0DC0199278827C7
:10F82000282B392B4A2B5B2B8D8190E0A0E0B0E098
:10F83000282B392B4A2B5B2B8C8190E0A0E0B0E089
:10F84000BA2FA92F982F8827282B392B4A2B5B2BCF
:10F85000220F331F441F551FC05EDE4F288339839C
:10F860004A835B83C052D1401A8259C13A81C95C34
:10F87000DE4F3883C753D140CA5CDE4F1882C6536F
