:10000000B2C10000E1C10000DFC10000DDC100009D
:10001000DBC10000D9C10000D7C10000D5C100007C
:10002000D3C10000D1C10000CFC10000CDC100008C
:10003000CBC10000C9C10000C7C10000C5C100009C
:10004000C3C10000C1C10000BFC10000BDC10000AC
:10005000BBC10000B9C10000B7C1000006C5000067
:10006000B3C1000088C200005DC20000ADC1000045
:10007000ABC10000A9C10000A7C10000A5C10000DC
:10008000A3C10000A1C100009FC100009DC10000EC
:100090009BC1000099C1000097C10000BEC60000CE
:1000A00093C1000091C100008FC100008DC100000C
:1000B0008BC1000089C1000087C1000085C100001C
:1000C00083C1000081C100007FC100007DC100002C
:1000D0007BC1000079C1000077C1000075C100003C
:1000E00073C100000C0D210D210D200D210DFE0C02
:1000F000210D210D210D000D210D210D130D1E0DC2
:100100001C0D210D210D210D1A0D600463045204F4
:1001100056045A049A0467046B0471047504790444
:100120007F04830487049A048D0491049504313973
:100130003A32353A3538004F637420323420323049
:10014000313700005EBCE2613FDD83C29C7E20A3AC
:10015000FD1F419DC3217FFCA2401E5F01E3BD3E08
:100160006082DC237D9FC1421CFEA0E1BF5D038055
:10017000DE3C62BEE0025CDF81633D7C22C09E1DEE
:1001800043A1FF4618FAA427799BC584DA3866E5AF
:10019000BB5907DB856739BAE406581947A5FB78D0
:1001A00026C49A653BD987045AB8E6A7F91B45C609
:1001B000987A24F8A6441A99C7257B3A6486D85BB6
:1001C00005E7B98CD2306EEDB3510F4E10F2AC2F63
:1001D0007193CD114FADF3702ECC92D38D6F31B2A0
:1001E000EC0E50AFF1134DCE90722C6D33D18F0CBD
:1001F00052B0EE326C8ED0530DEFB1F0AE4C129186
:10020000CF2D73CA947628ABF517490856B4EA691E
:1002100037D58B5709EBB536688AD495CB2977F457
:10022000AA4816E9B7550B88D6346A2B7597C94A80
:1002300014F6A8742AC896154BA9F7B6E80A54D73D
:10024000896B3500002100240027002A002D003092
:1002500000330001010000040107010A010000222F
:1002600000250028002B002E003100340002010080
:1002700000050108010B0100000A0B02090C0D0E1C
:100280000807030401000000000000000000000057
:10029000000000000000000000000000000000005E
:1002A000000000121110000000000000000000001B
:1002B000000000000000000000000000000000201E
:1002C000002300260029002C002F0032000001002E
:1002D00000030106010901050505050705080808D1
:1002E00008020202020A0A080804040404010101C7
:1002F00001010101010303030303030303040707CF
:10030000070C0C0C0C0C0C0C0C020202020606066C
:1003100006060606060B0B0B0B0B0B0B0B01021054
:10032000202008081020401020408002010201080F
:1003300004020101020408102040808040201008BF
:100340000402018004020180402010080402010818
:100350000402010102040810204080010204081078
:1003600020408000760F11241FBECFEFD1E2DEBF08
:10037000CDBF00E00CBF12E0A0E0B2E0E2E7F5E2A2
:1003800000E00BBF02C007900D92AC38B107D9F75F
:1003900024E0ACE8B2E001C01D92AF32B207E1F751
:1003A00011E0C3EBD1E000E006C021970109802FE6
:1003B000FE010E949712C23BD10780E00807A9F70F
:1003C0000E94E50B0C94B7121BCEFC01538D448D9B
:1003D000252F30E0842F90E0821B930B541710F0F0
:1003E000CF96089501970895FC01918D828D9817FD
:1003F00061F0828DDF01A80FB11D5D968C91928D09
:100400009F5F9F73928F90E008958FEF9FEF089505
:10041000FC01918D828D981731F0828DE80FF11DCE
:10042000858D90E008958FEF9FEF0895FC01918DE9
:10043000228D892F90E0805C9F4F821B91098F73E2
:10044000992708958DE493E0F1DF21E0892B09F4E9
:1004500020E0822F0895EF92FF920F931F93CF9386
:10046000DF93EC0181E0888F9B8D8C8D981305C004
:10047000E889F989808185FD23C0F62E0B8D10E077
:100480000F5F1F4F0F731127E02E8C8DE8120BC0EA
:100490000FB607FCFACFE889F989808185FFF5CF8F
:1004A000CE01BED1F2CF8B8DFE01E80FF11DE35AD4
:1004B000FF4FF0820B8FEA89FB898081806207C041
:1004C000EE89FF896083E889F9898081806480836F
:1004D00081E090E0DF91CF911F910F91FF90EF901D
:1004E0000895CF93DF93EC01888D8823C1F0EA89CA
:1004F000FB89808185FD05C0A889B9898C9186FD1D
:100500000EC00FB607FCF5CF808185FFF2CFA8891A
:10051000B9898C9185FFEDCFCE0182D1E8CFDF91F3
:10052000CF9108951F920F920FB60F9211240BB620
:100530000F922F933F934F935F936F937F938F937C
:100540009F93AF93BF93EF93FF938DE493E068D1B4
:10055000FF91EF91BF91AF919F918F917F916F919B
:100560005F914F913F912F910F900BBE0F900FBE57
:100570000F901F9018951F920F920FB60F92112493
:100580000BB60F922F938F939F93EF93FF93E0916E
:100590005D03F0915E038081E0916303F091640359
:1005A00082FD12C09081809166038F5F8F732091CE
:1005B0006703821751F0E0916603F0E0E35BFC4FC4
:1005C000958F8093660301C08081FF91EF919F9189
:1005D0008F912F910F900BBE0F900FBE0F901F9019
:1005E000189580E090E0892B19F02CDF811125C04F
:1005F00080E090E0892B41F080E090E0892B21F0B1
:100600000E94000081111CC080E090E0892B41F025
:1006100080E090E0892B21F00E940000811113C03E
:1006200080E090E0892BA1F080E090E0892B81F0C0
:100630000E94000081110AC008950E940000D8CFD6
:100640000E940000E1CF0E940000EACF0C9400005D
:1006500008953FB7F8948091DC029091DD02A0915B
:10066000DE02B091DF0226B5A89B05C02F3F19F02E
:100670000196A11DB11D3FBFBA2FA92F982F882722
:10068000820F911DA11DB11DBC01CD0142E0660F7D
:10069000771F881F991F4A95D1F70895089585ED12
:1006A0008093BC008091BC0084FDFCCF1092280395
:1006B00008954091B202262F30E0240F311D2132DF
:1006C0003105DCF4209128032430C9F4FC0180E0DA
:1006D00090E0861758F43091B2022191DC01A057C6
:1006E000BD4FA30FB11D2C930196F3CF8091B202A1
:1006F000680F6093B20280E0089581E0089582E07F
:1007000008950895E091E1028091E002E81730F445
:10071000F0E0EE51FD4F808190E008958FEF9FEF64
:1007200008959091E1028091E002981750F4E92F2A
:10073000F0E0EE51FD4F208130E09F5F9093E102A9
:1007400002C02FEF3FEFC90108958091E00290E0D1
:100750002091E102821B91090895CF92DF92EF92DE
:10076000FF920F931F93CF93DF937C01262F972F38
:100770008A0180912903882391F0C62FD72F6E011B
:10078000C40ED51ECC15DD0569F06991D701ED9138
:10079000FC910190F081E02DC7011995F3CF642FF2
:1007A000822F87DFC801DF91CF911F910F91FF90BA
:1007B000EF90DF90CF900895CF93DF931F92CDB746
:1007C000DEB76983209129032223D1F020914C03C5
:1007D000203240F021E030E0FC013383228380E0CE
:1007E00090E014C080912A03E82FF0E0E55DFC4F13
:1007F000998190838F5F80932A0380934C0304C078
:1008000061E0CE01019655DF81E090E00F90DF912D
:10081000CF910895089580E090E008950E94B3126A
:10082000FC01848DDF01A80FB11DA35ABF4F2C918D
:10083000848D90E001968F739927848FA689B7895C
:100840002C93A089B1898C9180648C93938D848D35
:10085000981306C00288F389E02D80818F7D808304
:100860000895362F90E0FC01E958FD4F4491FC01BA
:10087000E35EFC4F2491FC01E952FD4F94919923D2
:1008800009F46BC0442309F455C050E0FA013197D4
:10089000E231F10508F04EC08827EB57FF4F8F4F2C
:1008A0000C949712809180008F7707C08091800010
:1008B0008F7D03C080918000877F809380003AC045
:1008C00084B58F7702C084B58F7D84BD33C080919D
:1008D000B0008F7703C08091B0008F7D8093B0000F
:1008E00029C0809190008F7707C0809190008F7D04
:1008F00003C080919000877F809390001BC08091FF
:10090000A0008F7707C08091A0008F7D03C08091E9
:10091000A000877F8093A0000DC0809120018F7779
:1009200007C0809120018F7D03C080912001877FC7
:1009300080932001E92FF0E0EE0FFF1FE35AFD4FF7
:10094000A591B4918FB7F894EC91311103C0209523
:100950002E2301C02E2B2C938FBF0895CF93DF93AE
:10096000EC0160E08E817DDF61E08E817ADF60E006
:100970008E8177DF8BE891E00197F1F7DF91CF91DE
:100980000895CF93DF9390E0FC01E35EFC4F249148
:10099000FC01E952FD4F8491882361F190E0880FBA
:1009A000991FFC01ED5BFD4FC591D491FC01E35A09
:1009B000FD4FA591B491611109C09FB7F89488814A
:1009C000209582238883EC912E230BC0623061F442
:1009D0009FB7F8943881822F809583238883EC9188
:1009E0002E2B2C939FBF06C08FB7F894E8812E2B37
:1009F00028838FBFDF91CF9108958F929F92AF92FE
:100A0000BF92CF92DF92EF92FF926B017C0121DEC9
:100A10004B015C01C114D104E104F104E9F019DED9
:100A2000DC01CB0188199909AA09BB09883E9340CA
:100A3000A105B10578F321E0C21AD108E108F10857
:100A400088EE880E83E0981EA11CB11CC114D1044D
:100A5000E104F10421F7DECFFF90EF90DF90CF901B
:100A6000BF90AF909F908F9008951F920F920FB6F6
:100A70000F9211242F933F938F939F93AF93BF9324
:100A80008091D8029091D902A091DA02B091DB0254
:100A90003091D70223E0230F2D3720F40196A11DBA
:100AA000B11D05C026E8230F0296A11DB11D20939C
:100AB000D7028093D8029093D902A093DA02B09320
:100AC000DB028091DC029091DD02A091DE02B09108
:100AD000DF020196A11DB11D8093DC029093DD021F
:100AE000A093DE02B093DF02BF91AF919F918F91EF
:100AF0003F912F910F900FBE0F901F901895FC0102
:100B0000908190539A3008F090E0818180532AE0E0
:100B1000929F800D11240895DC01E0E0615038F0CF
:100B20008D91E827F0E0ED5BFE4FE491F7CF8E2F3B
:100B30000895FC0190810180F281E02DF89481817B
:100B4000892B81832281892F809528232283A7E006
:100B5000B0E01197F1F7218182238183A3E2B0E015
:100B60001197F1F780817894EFECF0E03197F1F78D
:100B7000982381E009F480E00895FC0190810180D0
:100B8000F281E02D892F809560FF12C0F8942281B8
:100B9000822382838181892B8183A3E2B0E0119734
:100BA000F1F78281982B9283789487ED90E011C0C1
:100BB000F8942281822382838181892B8183AFEF04
:100BC000B0E01197F1F78281982B928378948FE0AF
:100BD00090E00197F1F70895CF92DF92EF92FF92A4
:100BE0000F931F93CF93DF931F92CDB7DEB76C01A6
:100BF000E62E08E010E0FF24F39461E08F2D8E21B3
:100C000009F460E0C6014983B8DFFF0C0150110907
:100C100049810115110589F7411115C0F894D601D4
:100C20001196ED91FC91129791818C918095892379
:100C300081831196ED91FC91129792818C91809510
:100C40008923828378940F90DF91CF911F910F9128
:100C5000FF90EF90DF90CF900895CF92DF92EF92C8
:100C6000FF920F931F93CF93DF931F92CDB7DEB701
:100C70008C01F62E40E065E57983AEDFCF2C7981DB
:100C8000D72E760188E0E80EF11CF60161916F0124
:100C900040E0C801A1DFCE14DF04B9F70F90DF9167
:100CA000CF911F910F91FF90EF90DF90CF9008951B
:100CB000FC0190810180F281E02DF8948181292F3F
:100CC00020958223818378948DE743E050E0815022
:100CD00021F1DA011197F1F730813923C1F3F8944A
:100CE0008281822382838181892B81837894ABE7FF
:100CF000B7E01197F1F7F894818128232183A3E1CC
:100D0000B1E01197F1F78081982381E009F080E04C
:100D10007894E3E6F6E03197F1F70895CF92DF9209
:100D2000EF92FF920F931F93CF93DF937C016C019F
:100D300087E0C80ED11CC0E0D0E0062F10E0B8015B
:100D40000C2E02C0759567950A94E2F76170F60162
:100D500081916F0186DD2196C430D10581F7C701ED
:100D6000DF91CF911F910F91FF90EF90DF90CF9087
:100D7000F5CDCF92DF92EF92FF920F931F93CF9317
:100D8000DF93EC01F62E642F8C816BDD8D818F3F1C
:100D900011F060E066DD8F850F2D10E084FF23C029
:100DA0006E0187E0C80ED11CE12CF12CB8010E2C8D
:100DB00002C0759567950A94E2F76170F60181911A
:100DC0006F014FDDFFEFEF1AFF0A88E0E816F1042C
:100DD00069F7CE01DF91CF911F910F91FF90EF90B6
:100DE000DF90CF90BBCDB80184E0759567958A956B
:100DF000E1F7CE0193DF6F2DCE01DF91CF911F91EF
:100E00000F91FF90EF90DF90CF9088CF41E0B1DF5E
:100E100081E090E0089540E0ACCF1F920F920FB6B2
:100E20000F9211240BB60F922F933F934F935F9322
:100E30006F937F938F939F93AF93BF93EF93FF93A2
:100E40008091B900887F803609F49CC068F58832AB
:100E500009F45BC090F4803109F454C038F488235D
:100E600009F4F6C0883009F44DC0F5C0883109F4A2
:100E70004CC0803209F45DC0EEC0803409F468C013
:100E800048F4803309F455C0883309F0E4C08093F6
:100E90002603D8C0803509F44FC0883509F45DC0F9
:100EA000883409F0D8C0D6C0883909F4C7C0A8F47E
:100EB000883709F467C038F4883609F463C080378E
:100EC00009F460C0C8C0883809F4B8C0803909F492
:100ED0005FC0803809F0BFC05BC0803B09F486C0AA
:100EE00038F4803A09F466C0883A09F47FC0B3C088
:100EF000803C09F4A7C0883C09F4A4C0883B09F4ED
:100F00008AC0A9C08091030310C0909125038091ED
:100F10002403981770F5E091250381E08E0F8093EC
:100F20002503F0E0EC5FFC4F80818093BB0085ECF3
:100F300086C0809326038EC0E091250381E08E0F4A
:100F4000809325038091BB00F0E0EC5FFC4F808331
:100F500090912503809124036EC0E091250381E0E8
:100F60008E0F809325038091BB00F0E0EC5FFC4F77
:100F700080838091270381116DC081E080930203FB
:100F800084EA61C083E0809328031092D602CFCF19
:100F90008091D602803208F051C0E091D60281E003
:100FA0008E0F8093D6028091BB00F0E0EA54FD4F93
:100FB0008083BDCF85EC8093BC0010922803809184
:100FC000D602803230F4E091D602F0E0EA54FD4FD0
:100FD00010826091D60270E0E091B402F091B50207
:100FE00086EB92E019951092D60235C084E080938A
:100FF00028031092B3021092B202E091B002F09175
:10100000B10219958091B202811105C081E08093EF
:10101000B20210929002E091B30281E08E0F8093B1
:10102000B302F0E0E057FD4F80818093BB009091C8
:10103000B3028091B202981708F479CF85E88093C3
:10104000BC0009C085EC8093BC001092280303C04B
:101050001092260324DBFF91EF91BF91AF919F91F6
:101060008F917F916F915F914F913F912F910F9051
:101070000BBE0F900FBE0F901F901895CF92DF926E
:10108000EF92FF920F931F93CF93DF936C017A013E
:101090008B01C0E0D0E0CE15DF0589F0D8016D915D
:1010A0008D01D601ED91FC910190F081E02DC601FA
:1010B0001995892B11F47E0102C02196ECCFC7014E
:1010C000DF91CF911F910F91FF90EF90DF90CF9024
:1010D0000895EF92FF920F931F93CF93DF93EC014C
:1010E000623018F08F8588608F876B8B1C8A80E454
:1010F0008D8B80E18E8B80E58F8B61E08C8141DC74
:101100008D818F3F11F061E03CDC61E08E8139DC44
:101110007E0187E0E80EF11C00E010E08F8584FD81
:1011200003C084E090E002C088E090E0081719074F
:1011300044F461E0F70181917F0123DC0F5F1F4FD1
:10114000EDCF8BE39DE00197F1F760E08C8189DBC7
:1011500060E08E8186DB8D818F3F11F060E081DB66
:101160006F8564FD19C063E0CE01D8DD0BE416E4A1
:10117000C8010197F1F763E0CE01D0DDC801019706
:10118000F1F763E0CE01CADD83E592E00197F1F764
:1011900062E0CE01C3DD13C06062CE013CDE8BE4B1
:1011A00096E40197F1F76F856062CE0134DE83E546
:1011B00092E00197F1F76F856062CE012CDE6F85BA
:1011C0006062CE0128DE84E0888B6CE0CE0123DEF5
:1011D00061E0CE0120DE8BE39FE10197F1F782E031
:1011E000898B66E0CE01DF91CF911F910F91FF9027
:1011F000EF9011CE382F20914C0390914B03213268
:1012000008F049C0809128038111FCCF42E040934F
:101210002803309327033FEF3093260310922503D2
:1012200020932403ABE2B3E044E053E0FA013E2F05
:10123000341B321718F43D913193F9CF1092030308
:1012400020910303990F922B909303039091020333
:10125000913061F410920203909103039093BB00CC
:101260009091BC0093FDF8CF95EC01C095EE909362
:10127000BC00909128039230E1F3909126039F3FA8
:1012800079F080912603803241F0809126038033EB
:1012900031F084E005C081E003C082E001C083E05A
:1012A00010922A0310924C031092290308959091F2
:1012B00028039111FCCF813208F080E291E09093F5
:1012C0002803909327032FEF2093260310922503E2
:1012D000280F209324039093030390910303906DB0
:1012E0009093030390910203913061F410920203F2
:1012F000909103039093BB009091BC0093FDF8CFB5
:1013000095EC01C095EE9093BC009091280391302C
:10131000E1F390912503981710F480912503A4E040
:10132000B3E022EE32E0F9019E2F921B981718F4D9
:101330009D919193F9CF1092E1028093E00208957C
:10134000AF92BF92CF92DF92EF92FF920F931F93D3
:10135000CF93DF93EC018B018091130490911404DF
:10136000A7DC882381F1BE018091130490911404BD
:1013700074DC40E06EEB80911304909114042CDC3B
:10138000E801680189E0C80ED11CA0901304B09058
:10139000140488E0E82EF12C01E010E0C501C9DB5F
:1013A0008111102B000F81E0E81AF108B9F71993A9
:1013B000CC15DD0551F7809113049091140478DC6D
:1013C00091E0813009F090E0892FDF91CF911F915A
:1013D0000F91FF90EF90DF90CF90BF90AF90089566
:1013E000AF92BF92CF92DF92EF92FF920F931F9333
:1013F000CF93DF931F92CDB7DEB75C01D62EE72ED9
:10140000FC018585811104C0C50152DC811106C033
:10141000F50113861586148680E061C040E060EF18
:10142000C501DADB01E0F12CC12C11E0C50181DB43
:10143000682FC50169837DDB6981613019F48130D2
:10144000B9F432C04F2D50E068131BC0F5018385FD
:10145000181730F4E40FF51F8381802349F402C08C
:10146000181731F060E0193058F4F501148708C0FE
:10147000F501EF0DF11D8381802B838361E009C0AD
:10148000C12EF501E40FF51F9381802F80958923EC
:101490008383C50172DB1F5F000F11F4F39401E039
:1014A000F7E0FF1508F0C2CF113408F4B1CFF50111
:1014B000C386C11002C081E08587F501838188233E
:1014C00009F4A6CFD5011396ED2DFE2D9501255FCC
:1014D0003F4F8D918193A217B307D9F781E00F9009
:1014E000DF91CF911F910F91FF90EF90DF90CF9000
:1014F000BF90AF900895CF93DF93CDB7DEB7299714
:101500000FB6F894DEBF0FBECDBFFC0120812031A5
:1015100009F1BE016F5F7F4F13DF882371F068E030
:10152000CE010196F9DA9985891307C008C0803485
:1015300058F08F3569F08F3769F080E00CC08D81ED
:101540008F33A9F78AE007C08F31B9F789E003C06C
:101550008BE001C08CE029960FB6F894DEBF0FBE79
:10156000CDBFDF91CF910895DC01ED91FC91019009
:10157000F081E02D19946115710579F0FB0101905E
:101580000020E9F73197AF01461B570BDC01ED91C5
:10159000FC910280F381E02D199480E090E00895A1
:1015A0004F925F926F927F92EF92FF920F931F93F1
:1015B000CF93DF93CDB7DEB7A1970FB6F894DEBF18
:1015C0000FBECDBF7C01FA01CB0119A2223008F475
:1015D0002AE08E010F5D1F4F422E512C612C712C81
:1015E000BF01A301920181D7F901CA01015011097C
:1015F0006A3014F4605D01C0695CD8016C93232BE0
:10160000242B252B69F7B801C701B5DFA1960FB6CA
:10161000F894DEBF0FBECDBFDF91CF911F910F9128
:10162000FF90EF907F906F905F904F9008954F9252
:101630005F926F927F928F929F92AF92BF92CF9262
:10164000DF92EF92FF92CF93DF93EC016A017B016F
:10165000B22E9A01AB01C701B60124D7882319F035
:1016600060E872E024C026013701E89477F82FEF94
:101670003FEF4FE75FE7C301B20114D781110CC000
:101680002FEF3FEF4FE75FE7C301B2015AD51816BE
:101690001CF464E872E00BC02FEF3FEF4FE75FE40C
:1016A000C701B60198D6181694F468E872E0CE0126
:1016B000DF91CF91FF90EF90DF90CF90BF90AF90F0
:1016C0009F908F907F906F905F904F9054CF2FEFAF
:1016D0003FEF4FE75FECC701B60133D587FDE5CF9C
:1016E00020E030E0A901C701B6012BD587FF09C072
:1016F0006DE2CE0139DF4C01F7FAF094F7F8F0947F
:1017000002C0812C912CA12C60E070E080E09FE36E
:10171000AB1439F020E030E040E251E416D5A39458
:10172000F7CF9B01AC01C701B601A7D42B013C0147
:1017300074D56B017C019DD59B01AC01C301B20145
:101740009BD42B013C012AE0B701A601CE0128DF82
:101750007C01E80CF91CBB2029F06EE2CE0104DF0D
:10176000E80EF91EDB2CDD2001F120E030E040E244
:1017700051E4C301B20133D62B013C014ED54B01DC
:10178000A12CB12C2AE0B501A401CE0109DFE80E9D
:10179000F91EC501B4016DD59B01AC01C301B201B5
:1017A0006BD42B013C01DA94DECFC701DF91CF91DE
:1017B000FF90EF90DF90CF90BF90AF909F908F9071
:1017C0007F906F905F904F900895CF93DF93CDB748
:1017D000DEB763970FB6F894DEBF0FBECDBF789427
:1017E00084B5826084BD84B5816084BD85B5826026
:1017F00085BD85B5816085BD80916E0081608093D7
:101800006E0010928100809181008260809381003F
:10181000809181008160809381008091800081604F
:10182000809380008091B10084608093B1008091AA
:10183000B00081608093B0008091910082608093BD
:10184000910080919100816080939100809190003F
:101850008160809390008091A10082608093A100BC
:101860008091A10081608093A1008091A00081609F
:101870008093A0008091210182608093210180915A
:1018800021018160809321018091200181608093FA
:10189000200180917A00846080937A0080917A00A0
:1018A000826080937A0080917A00816080937A00D0
:1018B00080917A00806880937A001092C10062E083
:1018C00086EF93E006DCE0915D03F0915E0382E039
:1018D0008083E0915903F0915A031082E0915B03F9
:1018E000F0915C038FEC808310926503E0916103BB
:1018F000F091620386E08083E0915F03F0916003E2
:10190000808180618083E0915F03F091600380813A
:1019100088608083E0915F03F0916003808180683C
:101920008083E0915F03F091600380818F7D8083ED
:101930001092E1021092E00210922A0310924C03DE
:101940001092280301E0009327031092020361E044
:1019500084E10E94310461E085E10E9431048091BC
:10196000B9008E7F8093B9008091B9008D7F8093FC
:10197000B90088E48093B80085E48093BC000093AC
:10198000290388E680934B0310922A0310924C039C
:1019900060E08AEE93E00E94DC0381E02BDC81E0D2
:1019A00090E085DC8AEE93E00E94910387FFC5C03A
:1019B00066E372E08DE493E0DEDD6AE472E08DE4DC
:1019C00093E0D9DD4BE050E067E371E0CE01019692
:1019D0004AD3CE010A9693D8082FE9818E2FEE0FB5
:1019E000990BAA0BBB0BFC01E154F109E331F105A2
:1019F00040F58827EE58FF4F8F4F99C512E021C060
:101A00008A81813639F08B818E3611F017E019C04A
:101A100016E017C011E015C08B81823711F018E075
:101A200010C014E00EC08B81823711F015E009C0A0
:101A300013E007C019E005C01AE003C01BE001C0B5
:101A40001CE0CE0105965BD8E82E48E050E06EE23F
:101A500071E0CE01019607D3CE01019650D8D82E61
:101A6000CE0104964CD8C82ECE01079648D8B82E81
:101A700081E08093290388E680934B0310922A0328
:101A800010924C0360E08AEE93E00E94DC038AE04F
:101A9000F82E8B2D6F2D0AD5482F880F480F440F35
:101AA000642F6B0D8AEE93E00E94DC038C2D6F2D6A
:101AB000FDD4382F880F380F330F632F6C0D8AEE4B
:101AC00093E00E94DC038D2D6F2DF0D4282F880F1A
:101AD000280F220F622F6D0D8AEE93E00E94DC0327
:101AE00060E08AEE93E00E94DC038E2D6F2DDED441
:101AF000982F880F980F990F692F6E0D8AEE93E03B
:101B00000E94DC03812F6F2DD1D4982F990F980F4D
:101B1000990F692F610F8AEE93E00E94DC03802FFA
:101B20006F2DC4D4682F660F680F660F600F8AEEA2
:101B300093E00E94DC0381E05DDBE0911304F0910F
:101B40001404138615861486DF011B9633961E92A5
:101B5000AE17BF07E1F71092120411E0BE01645FF7
:101B60007F4F80911304909114043ADC882309F488
:101B70004AC067E0CE010C960E948C059B898913B0
:101B8000EDCF80910E04811123C0809113049091B8
:101B900014048ED8BE01645F7F4F8091130490912E
:101BA00014045BD840E064EB80911304909114041A
:101BB00013D880911304909114040E949905082F62
:101BC000809113049091140473D8002309F437C151
:101BD000BE016F5F7F4FCE010C96B2DB00910F0408
:101BE000CE010C9688DC801718F480910F0403C096
:101BF000CE010C9680DC80930F04809112048F5FDD
:101C000080931204ABCF01E0B8E6FB2E1AEFE0910F
:101C10000904E23010F4E15001C0E1E0F0E0EA50E4
:101C2000FC4F6489606886EF93E0F5D86DE472E05C
:101C300086EF93E0A0DC40918C0250918D02609180
:101C40008E0270918F0222E086EF93E0F0DC64E573
:101C500072E08DE493E08FDC809113049091140482
:101C600027D840E06CEC80911304909114040E94FA
:101C7000EC0540910E0464E48091130490911404E7
:101C80000E94EC05809110048823A9F0E0910F04D4
:101C9000E950E33040F4F0E0EE0FFF1FE050FE4F5C
:101CA0006081718102C06EEE72E0072E000C880B1D
:101CB000990B0E94FD046BE772E08DE493E05BDC1E
:101CC000E0911304F0911404138615861486DF0145
:101CD0001B96CF0103961E92A817B907E1F7BE0124
:101CE000645F7F4FCF017CDB882349F067E0CE0142
:101CF0000C960E948C059B89891709F4A3C06AE998
:101D000079E984E493EC60938C0270938D02809364
:101D10008E0290938F026DE472E08DE493E02BDCF1
:101D200040918C0250918D0260918E0270918F02D1
:101D300022E08DE493E07BDCE1E0809109048111F5
:101D4000E0E0E195F0E0EA50FC4F6489606886EFDE
:101D500093E061D800932903F0924B0310922A0379
:101D600010924C0360E08AEE93E00E94DC0381E075
:101D700041DA87E090E09BDA8AEE93E00E949103DB
:101D80008F77982F92959F70E82E919FE00C1124E9
:101D90008AEE93E00E9491039C01332794E03595ED
:101DA00027959A95E1F7D82E129FD00C11248AEE30
:101DB00093E00E9491039C01332744E035952795D9
:101DC0004A95E1F7C82E129FC00C11248AEE93E0C9
:101DD0000E9491038AEE93E00E9491038AEE93E0C1
:101DE0000E9491038AEE93E00E9491034C2D50E0F3
:101DF00060E070E02AE086EF93E0D2DB6AE386EFF2
:101E000093E0B2DB4D2D50E060E070E02AE086EF19
:101E100093E0C6DB6AE386EF93E0A6DB4E2D50E04D
:101E200060E070E02AE086EF93E0BADB68EE73E0F2
:101E300080E090E00E94FD040E94F102E8CE109341
:101E40000E04C6CEBE016F5F7F4FCE010C9678DACE
:101E5000882309F448C068E0CE0101960E948C05F1
:101E60009985891340C0698188E0689FB001112479
:101E70008A81282F30E0322F2227330F330F330F80
:101E8000262B372B8C85803161F5688570E08F813A
:101E9000AB01481B5109CA019695982F8827979541
:101EA000879510D360517109207FE3E0220F331F23
:101EB000EA95E1F7620F731F613854EE75070CF471
:101EC0001ECF072E000C880B990BD5D126E636E6DF
:101ED00046E65CE384D220E030E040E052E4CDD03E
:101EE00012CFB901E9CF60E874EEE6CF109250034B
:101EF00010924F0388EE93E0A0E0B0E0809351038E
:101F000090935203A0935303B09354032AE032E01A
:101F100030934E0320934D0325EC30E030935A0369
:101F20002093590324EC30E030935C0320935B034F
:101F300020EC30E030935E0320935D0321EC30E031
:101F40003093600320935F0322EC30E03093620310
:101F50002093610326EC30E0309364032093630305
:101F6000109266031092670310926803109269033F
:101F70001092ED031092EC038093EE039093EF0325
:101F8000A093F003B093F1038CE192E09093EB0304
:101F90008093EA0360E08AE00E94C104E7E2F3E094
:101FA000E491E0932104E1EEF2E0E491F0E0EE0F41
:101FB000FF1FE354FD4F85919491909323048093E8
:101FC000220410922C0410922E0410922D04ECE2A4
:101FD000F4E0129284E0E432F807D9F78EE493E05B
:101FE0009093200480931F0481E294E09093140462
:101FF000809313041092120410920E0489E08093CF
:102000000F0481E080931004809311041092F9036F
:102010001092F8038EE292E09093F7038093F60318
:102020008CE08093FA038FEF8093FB038BE0809327
:10203000FC0385E08093FD0384E08093FE0383E04E
:102040008093FF0382E080930004109201041092B9
:10205000020410920304109204041092050461E03B
:1020600086EF93E036C8FB01DC0102C005900D92BB
:1020700041505040D8F708955058BB27AA270ED09A
:1020800070C161D130F066D120F031F49F3F11F47E
:102090001EF456C10EF4E095E7FB4CC1E92F72D156
:1020A00080F3BA17620773078407950718F071F475
:1020B0009EF58AC10EF4E0950B2EBA2FA02D0B01D0
:1020C000B90190010C01CA01A0011124FF27591B7D
:1020D00099F0593F50F4503E68F11A16F040A22F83
:1020E000232F342F4427585FF3CF469537952795F4
:1020F000A795F0405395C9F77EF41F16BA0B620BF3
:10210000730B840BBAF09150A1F0FF0FBB1F661F39
:10211000771F881FC2F70EC0BA0F621F731F841F7C
:1021200048F4879577956795B795F7959E3F08F0A2
:10213000B3CF9395880F08F09927EE0F9795879561
:102140000895D4D008F481E008950CD00AC102D1DA
:1021500040F0F9D030F021F45F3F19F0EBC051119D
:1021600034C1EEC00FD198F39923C9F35523B1F3CD
:10217000951B550BBB27AA2762177307840738F0F6
:102180009F5F5F4F220F331F441FAA1FA9F333D055
:102190000E2E3AF0E0E830D091505040E695001C09
:1021A000CAF729D0FE2F27D0660F771F881FBB1FC5
:1021B000261737074807AB07B0E809F0BB0B802D9F
:1021C000BF01FF2793585F4F2AF09E3F510568F0EB
:1021D000B1C0FBC05F3FECF3983EDCF3869577958A
:1021E0006795B795F7959F5FC9F7880F911D9695ED
:1021F000879597F90895E1E0660F771F881FBB1F49
:10220000621773078407BA0720F0621B730B840BF5
:10221000BA0BEE1F88F7E0950895BCD088F09F5761
:1022200090F0B92F9927B751A0F0D1F0660F771F22
:10223000881F991F1AF0BA95C9F712C0B13081F002
:10224000C3D0B1E00895C0C0672F782F8827B85F4A
:1022500039F0B93FCCF3869577956795B395D9F763
:102260003EF490958095709561957F4F8F4F9F4F6D
:102270000895E89409C097FB3EF490958095709579
:1022800061957F4F8F4F9F4F9923A9F0F92F96E9C2
:10229000BB279395F695879577956795B795F11137
:1022A000F8CFFAF4BB0F11F460FF1BC06F5F7F4FD4
:1022B0008F4F9F4F16C0882311F096E911C07723E6
:1022C00021F09EE8872F762F05C0662371F096E8EF
:1022D000862F70E060E02AF09A95660F771F881FBE
:1022E000DAF7880F9695879597F90895990F000862
:1022F000550FAA0BE0E8FEEF16161706E807F907D8
:10230000C0F012161306E407F50798F0621B730B72
:10231000840B950B39F40A2661F0232B242B252BF3
:1023200021F408950A2609F4A140A6958FEF811D96
:10233000811D089597F99F6780E870E060E0089537
:102340009FEF80EC089500240A94161617061806CD
:102350000906089500240A941216130614060506A9
:102360000895092E0394000C11F4882352F0BB0F3A
:1023700040F4BF2B11F460FF04C06F5F7F4F8F4F9D
:102380009F4F089557FD9058440F551F59F05F3FD8
:1023900071F04795880F97FB991F61F09F3F79F087
:1023A00087950895121613061406551FF2CF469509
:1023B000F1DF08C0161617061806991FF1CF86958B
:1023C0007105610508940895E894BB27662777276F
:1023D000CB0197F908958ADF08F48FEF08950BD0A9
:1023E000C0CFB1DF28F0B6DF18F0952309F0A2CFF7
:1023F000A7CF1124EACFC6DFA0F3959FD1F3950FA5
:1024000050E0551F629FF001729FBB27F00DB11D78
:10241000639FAA27F00DB11DAA1F649F6627B00D08
:10242000A11D661F829F2227B00DA11D621F739FF1
:10243000B00DA11D621F839FA00D611D221F749FFF
:102440003327A00D611D231F849F600D211D822F46
:10245000762F6A2F11249F5750408AF0E1F088238D
:102460004AF0EE0FFF1FBB1F661F771F881F91509A
:102470005040A9F79E3F510570F05CCFA6CF5F3F5B
:10248000ECF3983EDCF3869577956795B795F795CD
:10249000E7959F5FC1F7FE2B880F911D9695879555
:1024A00097F9089523DF880B990B0895991B79E01C
:1024B00004C0991F961708F0961B881F7A95C9F7D4
:1024C0008095089597FB072E16F4009406D077FDAB
:1024D00008D035D007FC05D03EF4909581959F4FEC
:1024E0000895709561957F4F0895A1E21A2EAA1B59
:1024F000BB1BFD010DC0AA1FBB1FEE1FFF1FA217B4
:10250000B307E407F50720F0A21BB30BE40BF50BB0
:10251000661F771F881F991F1A9469F76095709539
:10252000809590959B01AC01BD01CF010895EE0F00
:10253000FF1F881F8BBF0790F691E02D1994AA1BEF
:10254000BB1B51E107C0AA1FBB1FA617B70710F09E
:10255000A61BB70B881F991F5A95A9F780959095D0
:10256000BC01CD01089581E090E0F89400C0F8949A
:02257000FFCF9B
:102572005E00BC007701000000002B023E08E5016E
:1025820071021602F401080200000000DC03AD0330
:102592000B048103A50391038203000000000607D8
:1025A2003E080B040A04525443206973204E4F54D0
:1025B2002072756E6E696E6721000D0A0054656D9A
:1025C200703A200052657175657374696E672054A4
:1025D200656D7065726174757265732066726F6D78
:1025E2002073656E736F72733A2000444F4E45003C
:0C25F2006E616E00696E66006F76660018
:020000023000CC
:10E000000D9489F10D94B2F10D94B2F10D94B2F129
:10E010000D94B2F10D94B2F10D94B2F10D94B2F1F0
:10E020000D94B2F10D94B2F10D94B2F10D94B2F1E0
:10E030000D94B2F10D94B2F10D94B2F10D94B2F1D0
:10E040000D94B2F10D94B2F10D94B2F10D94B2F1C0
:10E050000D94B2F10D94B2F10D94B2F10D94B2F1B0
:10E060000D94B2F10D94B2F10D94B2F10D94B2F1A0
:10E070000D94B2F10D94B2F10D94B2F10D94B2F190
:10E080000D94B2F10D94B2F10D94B2F10D94B2F180
:10E090000D94B2F10D94B2F10D94B2F10D94B2F170
:10E0A0000D94B2F10D94B2F10D94B2F10D94B2F160
:10E0B0000D94B2F10D94B2F10D94B2F10D94B2F150
:10E0C0000D94B2F10D94B2F10D94B2F10D94B2F140
:10E0D0000D94B2F10D94B2F10D94B2F10D94B2F130
:10E0E0000D94B2F141546D656761323536300041AF
:10E0F000726475696E6F206578706C6F72657220DE
:10E1000073746B3530305632206279204D4C530099
:10E11000426F6F746C6F616465723E004875683F52
:10E1200000436F6D70696C6564206F6E203D200048
:10E130004350552054797065202020203D20005FF9
:10E140005F4156525F415243485F5F3D2000415658
:10E1500052204C696243205665723D20004743437C
:10E160002056657273696F6E203D20004350552024
:10E1700049442020202020203D20004C6F7720663D
:10E18000757365202020203D20004869676820665F
:10E190007573652020203D200045787420667573D6
:10E1A00065202020203D20004C6F636B2066757336
:10E1B000652020203D20004D617220203720323024
:10E1C000313300312E362E3800342E332E350056A2
:10E1D00023202020414444522020206F7020636F70
:10E1E00064652020202020696E73747275637469E1
:10E1F0006F6E2061646472202020496E74657272B3
:10E20000757074006E6F20766563746F7200726A49
:10E210006D702020006A6D70200057686174207056
:10E220006F72743A00506F7274206E6F7420737541
:10E2300070706F72746564004D7573742062652030
:10E2400061206C6574746572002000577269747483
:10E25000696E672045450052656164696E672045B7
:10E26000450045452065727220636E743D00504F35
:10E27000525400303D5A65726F2061646472003FF1
:10E280003D43505520737461747300403D454550C3
:10E29000524F4D207465737400423D426C696E6B41
:10E2A000204C454400453D44756D70204545505215
:10E2B0004F4D00463D44756D7020464C415348001B
:10E2C000483D48656C70004C3D4C69737420492F83
:10E2D0004F20506F72747300513D51756974005234
:10E2E0003D44756D702052414D00563D73686F7707
:10E2F00020696E7465727275707420566563746FF0
:10E30000727300593D506F727420626C696E6B00BD
:10E310002A0011241FBECFEFD1E2DEBFCDBF01E046
:10E320000CBF12E0A0E0B2E0EEE1FDEF03E00BBFB6
:10E3300002C007900D92A030B107D9F712E0A0E01B
:10E34000B2E001C01D92AE30B107E1F70F9460F367
:10E350000D948DFE01E20EBF0FEF0DBF11241FBE05
:10E360000D9460F30D9400F020E030E040ED57E0B4
:10E3700005C0FA013197F1F72F5F3F4F2817390792
:10E38000C0F308959C01260F311DC901A0E0B0E043
:10E390002F5F3F4FABBFFC018791882361F08093D3
:10E3A000C6008091C00086FFFCCF8091C0008064D1
:10E3B0008093C000EACF08958DE08093C6008091DD
:10E3C000C00086FFFCCF8091C00080648093C000B5
:10E3D0008AE08093C6008091C00086FFFCCF8091C8
:10E3E000C00080648093C00008950F94C2F10F9420
:10E3F000DCF10895FC019081992359F09093C600B7
:10E400008091C00086FFFCCF8091C0008064809323
:10E41000C0003196992379F70895282F982F929567
:10E420009F70892F805D8A3308F0895F8093C600D2
:10E430008091C00086FFFCCF8091C00080648093F3
:10E44000C000822F8F70982F905D9A3308F0995FEB
:10E450009093C6008091C00086FFFCCF8091C000E1
:10E4600080648093C00008959C01FB01853691056E
:10E470001CF46330710594F0C90164E670E00F94F8
:10E480002EFE605D7F4F6093C6008091C00086FFC6
:10E49000FCCF8091C00080648093C0002B30310598
:10E4A00014F43297B4F0C90164E670E00F942EFEC4
:10E4B0006AE070E00F942EFE605D7F4F6093C600AF
:10E4C0008091C00086FFFCCF8091C0008064809363
:10E4D000C000C9016AE070E00F942EFEC0968093E0
:10E4E000C6008091C00086FFFCCF8091C000806490
:10E4F0008093C00008951F93182F8EE692EE60E07F
:10E500000F94C2F11093C6008091C00086FFFCCF2B
:10E510008091C00080648093C0000F94DCF11F9153
:10E5200008952F923F924F925F926F927F928F92B7
:10E530009F92AF92BF92CF92DF92EF92FF920F9392
:10E540001F93DF93CF93CDB7DEB762970FB6F894E2
:10E55000DEBF0FBECDBF382E622ECA01DB015C01CB
:10E560006D01772420E2222E2E010894411C511CBB
:10E570008BC081E0A81680E0B80681E0C80680E084
:10E58000D80628F0C601AA27BB270F940DF2BB2797
:10E59000AD2D9C2D8B2D0F940DF28A2D0F940DF225
:10E5A0002092C6008091C00086FFFCCF8091C00001
:10E5B00080648093C0009DE29093C6008091C0006B
:10E5C00086FFFCCF8091C00080648093C0002092C1
:10E5D000C6008091C00086FFFCCF8091C00080649F
:10E5E0008093C00019828601750188249924A1E0D6
:10E5F0003A1651F03A1620F0B2E03B1661F409C029
:10E600000BBFF701779007C0C7010F9477FE782EF4
:10E6100002C0F7017080872D0F940DF22092C60082
:10E620008091C00086FFFCCF8091C0008064809301
:10E63000C000872D8052F401EF70F0708F3520F408
:10E64000E40DF51D708204C0E40DF51D8EE280839B
:10E650000894E11CF11C011D111D0894811C911CE2
:10E6600090E18916910409F0C2CF80E190E0A0E02A
:10E67000B0E0A80EB91ECA1EDB1E198AC2010F9493
:10E68000FAF10F94DCF16A94662009F072CF629679
:10E690000FB6F894DEBF0FBECDBFCF91DF911F91B3
:10E6A0000F91FF90EF90DF90CF90BF90AF909F9031
:10E6B0008F907F906F905F904F903F902F90089534
:10E6C0002F923F924F925F926F927F928F929F9282
:10E6D000AF92BF92CF92DF92EF92FF920F931F9370
:10E6E000DF93CF93CDB7DEB7CD53D1400FB6F894BB
:10E6F000DEBF0FBECDBF01E20EBF0FEF0DBF94B75F
:10E70000F894A89514BE80916000886180936000A1
:10E7100010926000789493FF05C0E0910002F091A0
:10E7200001021995279A2F9A8091C00082608093E8
:10E73000C00080E18093C40088E18093C1000000A4
:10E74000EE24FF24870144E0A42EB12CCC24DD2448
:10E7500024C0C5010197F1F70894E11CF11C011DCB
:10E76000111D21E2E2162EE4F20620E0020720E06D
:10E77000120718F031E0C32ED12CC801B70127ECE5
:10E780003BE140E050E00F9441FE611571058105C9
:10E79000910519F485B1805885B98091C00087FD35
:10E7A00003C0C114D104A9F2A6014F5F5F4FC25E3E
:10E7B000DE4F59834883CE51D140C25EDE4F8881FF
:10E7C0009981CE51D140019711F00D9410FEC05D9A
:10E7D000DE4F19821882C053D14060E0C15DDE4F28
:10E7E0001882CF52D14088249924C35DDE4F19820C
:10E7F0001882CD52D140C05EDE4F188219821A8233
:10E800001B82C052D140CE5CDE4F188219821A8220
:10E810001B82C253D140EE24FF2487010BBFF701B6
:10E8200007911691C45CDE4F19830883CC53D14005
:10E830000D940BFEC25EDE4F28813981CE51D1404E
:10E840002130310509F52091C600C25EDE4F1982E4
:10E850001882CE51D14022C02F5F3F4F4F4F5F4FA4
:10E86000213082E138078AE7480780E0580780F0C6
:10E87000C45CDE4FE881F981CC53D140EF5FFF4F9C
:10E8800019F0EE27FF27099420E030E040E050E047
:10E890008091C00087FFE0CF2091C600C35DDE4FAE
:10E8A00048815981CD52D1404F5F5F4FC35DDE4FEC
:10E8B00059834883CD52D140213209F063C64A3092
:10E8C000510508F05FC60894811C911C53E0851621
:10E8D000910409F059C600E010E018C081E280936D
:10E8E000C6008091C00086FFFCCF8091C00080648C
:10E8F0008093C0002F5F3F4F2931310579F70F9486
:10E90000DCF10F5F1F4F0530110519F020E030E0FA
:10E91000E5CF10920A0210920B0210920C02109294
:10E920000D02109206021092070210920802109235
:10E930000902109202021092030210920402109235
:10E9400005028FEE90EE60E00F94F5F180E191EE1C
:10E9500060E00F94C2F18091C00087FFFCCF9091DE
:10E96000C600903608F09F759032B8F09093C600BC
:10E970008091C00086FFFCCF8091C00080648093AE
:10E98000C000A0E2A093C6008091C00086FFFCCF2B
:10E990008091C00080648093C000983409F4D7C18E
:10E9A0009934B8F4923409F459C1933458F490333B
:10E9B00019F1903308F4E3C59F33A1F1903409F0C5
:10E9C000DEC5BDC0953409F470C1963409F0D7C5D1
:10E9D00098C1923509F42BC2933538F49C3409F46C
:10E9E000F5C1913509F0CBC518C2963509F445C279
:10E9F000993509F0C4C567C483E792EE62E00F94CD
:10EA0000F5F110920602109207021092080210927D
:10EA1000090210920A0210920B0210920C0210923C
:10EA20000D0213C18FE792EE62E00F94F5F18FEEC5
:10EA300090EE60E00F94F5F181E291EE60E00F94CA
:10EA4000C2F187EB91EE60E00F94F5F180E391EE77
:10EA500060E00F94C2F184EE90EE60E00F94F5F167
:10EA60008FE391EE60E00F94C2F186E090E061E008
:10EA700070E00F9434F20F94DCF18DE591EE60E0DC
:10EA80000F94C2F189EC91EE60E00F94F5F18EE401
:10EA900091EE60E00F94C2F183EC91EE60E00F9490
:10EAA000F5F18CE691EE60E00F94C2F18EE10F94E7
:10EAB0000DF288E90F940DF281E00F940DF20F949E
:10EAC000DCF18BE791EE60E00F94C2F119E0E0E039
:10EAD000F0E010935700E4918E2F0F940DF20F94F5
:10EAE000DCF18AE891EE60E00F94C2F1E3E0F0E03F
:10EAF00010935700E4918E2F0F940DF20F94DCF1D8
:10EB000089E991EE60E00F94C2F1E2E0F0E0109349
:10EB10005700E4918E2F0F940DF20F94DCF188EAE8
:10EB200091EE60E00F94C2F1E1E0F0E01093570045
:10EB30001491812F0F940DF20F94DCF107CF8BE825
:10EB400092EE62E00F94F5F18BE492EE60E00F94A8
:10EB5000F5F10F94DCF100E010E019C0C8016F2D51
:10EB60000F947FFEFF2031F489E492EE60E00F9471
:10EB7000C2F10BC0F092C6008091C00086FFFCCFAE
:10EB80008091C00080648093C0000F5F1F4FC80158
:10EB900081519F41A0E0B0E0ABBFFC01F790BAE229
:10EBA000FB1621F0E2E000301E07C1F60F94DCF105
:10EBB0000F94DCF187E592EE60E00F94F5F10F948D
:10EBC000DCF1CC24DD2400E010E01EC0C8010F946D
:10EBD00077FEF82E882331F489E492EE60E00F94FA
:10EBE000C2F10BC08093C6008091C00086FFFCCFAD
:10EBF0008091C00080648093C000FE1419F00894D6
:10EC0000C11CD11C0F5F1F4FC80181519F41A0E063
:10EC1000B0E0ABBFFC01E790FAE2EF1621F022E092
:10EC20000030120799F60F94DCF10F94DCF182E6C4
:10EC300092EE60E00F94C2F1C60161E070E00F94C3
:10EC400034F20F94DCF10F94DCF110920202109276
:10EC50000302109204021092050278CE89E992EE26
:10EC600062E00F94F5F1279A2F9A16C02F9880E052
:10EC700090E0E0EDF7E03197F1F7019684369105E9
:10EC8000C1F72F9A80E090E0E0EDF7E03197F1F7DF
:10EC9000019684369105C1F78091C00087FFE6CFC9
:10ECA0008091C00087FFFCCF64C485EA92EE62E0E9
:10ECB0000F94F5F140910202509103026091040219
:10ECC0007091050281E020E10F9491F2809102029F
:10ECD00090910302A0910402B091050280509F4FD1
:10ECE000AF4FBF4F8093020290930302A0930402A0
:10ECF000B093050280509041A040B04008F426CE69
:10ED0000A4CF83EB92EE62E00F94F5F140910602FE
:10ED100050910702609108027091090280E020E1A1
:10ED20000F9491F28091060290910702A09108023F
:10ED3000B091090280509F4FAF4FBF4F80930602A2
:10ED400090930702A0930802B0930902FFCD80ECD4
:10ED500092EE62E00F94F5F183E792EE60E00F949B
:10ED6000F5F18FE792EE60E00F94F5F18BE892EE0B
:10ED700060E00F94F5F189E992EE60E00F94F5F10F
:10ED800085EA92EE60E00F94F5F183EB92EE60E09D
:10ED90000F94F5F180EC92EE60E00F94F5F187ECC2
:10EDA00092EE60E00F94F5F188ED92EE60E00F9442
:10EDB000F5F18FED92EE60E00F94F5F18AEE92EEB0
:10EDC00060E00F94F5F183E093EEBDCD87EC92EE19
:10EDD00062E00F94F5F181E40F947BF282E40F94EA
:10EDE0007BF283E40F947BF284E40F947BF285E45E
:10EDF0000F947BF286E40F947BF287E40F947BF20E
:10EE000088E40F947BF28AE40F947BF28BE40F94F6
:10EE10007BF28CE40F947BF299CD88ED92EE62E068
:10EE20000F94F5F1772473948824992409C48FED05
:10EE300092EE62E00F94F5F140910A0250910B02BC
:10EE400060910C0270910D0282E020E10F9491F22A
:10EE500080910A0290910B02A0910C02B0910D02D8
:10EE600080509F4FAF4FBF4F80930A0290930B0289
:10EE7000A0930C02B0930D0269CD8AEE92EE62E08F
:10EE80000F94F5F184EE90EE60E00F94F5F18FECC5
:10EE900091EE60E00F94F5F1662477244301CC5D98
:10EEA000DE4F19821882C452D140D401C301B695F5
:10EEB000A79597958795CA5DDE4F88839983AA8326
:10EEC000BB83C652D140CC5DDE4FA881B981C4520C
:10EED000D1401196CC5DDE4FB983A883C452D14096
:10EEE000CD0162E070E00F9434F2B0E2B093C6005E
:10EEF0008091C00086FFFCCF8091C0008064809329
:10EF0000C000EDE2E093C6008091C00086FFFCCF18
:10EF10008091C00080648093C000F0E2F093C6004E
:10EF20008091C00086FFFCCF8091C00080648093F8
:10EF3000C000CA5DDE4FE880F9800A811B81C6529D
:10EF4000D140BB27A12F902F8F2D0F940DF2CA5DBA
:10EF5000DE4F8881C652D1400F940DF2B0E2FB2EF5
:10EF6000F092C6008091C00086FFFCCF8091C00067
:10EF700080648093C0000DE30093C6008091C000C0
:10EF800086FFFCCF8091C00080648093C00010E2B7
:10EF90001093C6008091C00086FFFCCF8091C00016
:10EFA00080648093C0008BBEF3012791C65DDE4F65
:10EFB0002883CA52D140A22EBB24CC24DD2408943D
:10EFC000611C711C811C911C8BBEF3018791282E42
:10EFD0003324442455240894611C711C811C911C09
:10EFE0008BBEF3013791C55DDE4F3883CB52D140E4
:10EFF0000894611C711C811C911C8BBEF30147910C
:10F00000C45DDE4F4883CC52D140ADEFEA2EAFEF66
:10F01000FA2EAFEF0A2FAFEF1A2F6E0C7F1C801E57
:10F02000911E142D032DF22CEE24EA0CFB1C0C1D5A
:10F030001D1D0F940DF220E22093C6008091C000A8
:10F0400086FFFCCF8091C00080648093C000C65DC5
:10F05000DE4F8881CA52D1400F940DF230E23093D6
:10F06000C6008091C00086FFFCCF8091C000806404
:10F070008093C000C45DDE4F8881CC52D1400F9494
:10F080000DF240E24093C6008091C00086FFFCCFA5
:10F090008091C00080648093C000C55DDE4F888190
:10F0A000CB52D1400F940DF250E25093C6008091A4
:10F0B000C00086FFFCCF8091C00080648093C000B8
:10F0C0008FEFE8168FEFF80680E0080780E018075A
:10F0D00031F484E092EE60E00F94C2F1DFC0D80119
:10F0E000C7018070907CA070B0708050904CA040A0
:10F0F000B040D1F52FEF3FE340E050E0E222F322B1
:10F1000004231523CA5DDE4FA880B980CA80DB8046
:10F11000C652D140AE0CBF1CC01ED11EAA0CBB1CD7
:10F12000CC1CDD1C8EE092EE60E00F94C2F1BB2798
:10F13000A12F902F8F2D0F940DF28E2D0F940DF285
:10F1400030E23093C6008091C00086FFFCCF8091F2
:10F15000C00080648093C0004EE34093C60080915D
:10F16000C00086FFFCCF87C08EE09EEFA0E0B0E03D
:10F17000E822F9220A231B239CE0E91694E9F90608
:10F1800090E0090790E0190709F088C0C45DDE4FE0
:10F19000A881CC52D140EA2EFF2400E010E0102FCD
:10F1A0000F2DFE2CEE24C55DDE4FB881CB52D14031
:10F1B000EB0EF11C011D111DD601C501817090706F
:10F1C000A070B070DC0199278827E80EF91E0A1F8D
:10F1D0001B1F20EF30E040E050E0A222B322C42207
:10F1E000D52241E1AA0CBB1CCC1CDD1C4A95D1F7F1
:10F1F000EA0CFB1C0C1D1D1D81E090E0A0E0B0E0BE
:10F20000282239224A225B2235E1220C331C441C7D
:10F21000551C3A95D1F7E20CF31C041D151D57013E
:10F220006801AA0CBB1CCC1CDD1C85E192EE60E0E1
:10F230000F94C2F1C801AA27BB270F940DF2BB2778
:10F24000A12F902F8F2D0F940DF28E2D0F940DF274
:10F2500090E29093C6008091C00086FFFCCF809121
:10F26000C00080648093C000AEE3A093C60080918C
:10F27000C00086FFFCCF8091C00080648093C000F6
:10F28000C601AA27BB270F940DF2BB27AD2D9C2DDD
:10F290008B2D0F940DF28A2D0F940DF20F94DCF14B
:10F2A000CC5DDE4FE881F981C452D140F99709F471
:10F2B0004DCBF4E0EF2EF12C012D112D6E0C7F1CA7
:10F2C000801E911EF2CD83E093EE62E00F94F5F183
:10F2D0008AE192EE60E00F94C2F18091C00087FF56
:10F2E000FCCF1091C6001F751093C6008091C0001E
:10F2F00086FFFCCF8091C00080648093C0000F9493
:10F30000DCF1812F81548A3108F036C1163409F4BA
:10F3100095C0173490F4133409F44EC0143430F40B
:10F320001134F1F0123409F01DC130C0143409F465
:10F3300059C0153409F016C16BC01A3409F4C4C0A1
:10F340001B3438F4173409F48FC0183409F00AC19B
:10F35000A1C01B3409F4D2C01C3409F003C1E8C0B9
:10F360008FEF81B90DC082B1809582B980E090E0C5
:10F37000E0EDF7E03197F1F70196883C9105C1F790
:10F380008091C00087FFEFCF12B8EFC08FEF84B934
:10F390000DC085B1809585B980E090E0E0EDF7E0A3
:10F3A0003197F1F70196883C9105C1F78091C00033
:10F3B00087FFEFCF15B8D9C08FEF87B90DC088B1DF
:10F3C000809588B980E090E0E0EDF7E03197F1F7C3
:10F3D0000196883C9105C1F78091C00087FFEFCF6F
:10F3E00018B8C3C08FEF8AB90DC08BB180958BB9A7
:10F3F00080E090E0E0EDF7E03197F1F70196883C8E
:10F400009105C1F78091C00087FFEFCF1BB8ADC059
:10F410008FEF8DB90DC08EB180958EB980E090E0F0
:10F42000E0EDF7E03197F1F70196883C9105C1F7DF
:10F430008091C00087FFEFCF1EB897C08FEF80BBD1
:10F440000DC081B3809581BB80E090E0E0EDF7E0F6
:10F450003197F1F70196883C9105C1F78091C00082
:10F4600087FFEFCF11BA81C08FEF83BB0DC084B38C
:10F47000809584BB80E090E0E0EDF7E03197F1F714
:10F480000196883C9105C1F78091C00087FFEFCFBE
:10F4900014BA6BC08FEF809301010FC080910201FD
:10F4A00080958093020180E090E0E0EDF7E03197F5
:10F4B000F1F70196883C9105C1F78091C00087FF64
:10F4C000EDCF1092020151C08FEF809304010FC065
:10F4D0008091050180958093050180E090E0E0ED4A
:10F4E000F7E03197F1F70196883C9105C1F78091DB
:10F4F000C00087FFEDCF1092050137C08FEF8093DA
:10F5000007010FC08091080180958093080180E079
:10F5100090E0E0EDF7E03197F1F70196883C910536
:10F52000C1F78091C00087FFEDCF109208011DC088
:10F530008FEF80930A010FC080910B01809580931B
:10F540000B0180E090E0E0EDF7E03197F1F70196F4
:10F55000883C9105C1F78091C00087FFEDCF1092E4
:10F560000B0103C085E292EEEEC98091C00087FFD7
:10F57000FCCF8091C600EAC988E392EEE4C98CE131
:10F5800091EEE1C988249924933011F1943028F444
:10F59000913089F09230B8F408C0953061F195301F
:10F5A000F0F0963009F048C043C02B3109F042C951
:10F5B00091E06BE13FC96227C15DDE4F2883CF52E6
:10F5C000D14092E037C9B22FA0E0622793E032C960
:10F5D000822F90E0A82BB92B622794E02BC92E3004
:10F5E00009F039C3622795E0C05DDE4F19821882A9
:10F5F000C053D1401FC9E1E0F0E0EC0FFD1FC05D3A
:10F60000DE4F08811981C053D140E00FF11F2083E4
:10F610000F5F1F4FC05DDE4F19830883C053D14079
:10F6200062270A171B0709F005C9D80196E002C92D
:10F63000261709F010C303C0973009F0FBC87724E0
:10F640009981933109F412C19431C8F4963009F4C8
:10F65000D8C0973050F4923009F406C1933009F4C1
:10F660006DC0913009F059C253C0913109F477C08F
:10F67000923108F0BBC0903109F04FC2F5C098310B
:10F6800009F487C0993150F4953109F4EFC09531F0
:10F6900008F4C6C1963109F040C2C2C19A3109F4DA
:10F6A0006CC09A3108F491C09B3109F45BC09D3164
:10F6B00009F033C29D81903359F48F81882311F46E
:10F6C0009EE11CC0813011F091E018C098E916C08D
:10F6D000892F807591F0903539F4E0E0F0E089E011
:10F6E0008093570094910AC0983539F4E3E0F0E034
:10F6F00089E080935700949101C090E01A821B82A8
:10F700008D818C831D829E831F8227E030E009C299
:10F710001A8288E08B8381E48C8386E58D8382E581
:10F720008E8389E48F8383E5888780E589878FE5E9
:10F730008A8782E38B872BE030E0F3C18A818139AD
:10F7400041F0823941F0803911F48FE005C080E04A
:10F7500003C082E001C08AE01A828B8344C0772410
:10F76000739482C08D81882311F48EE12CC0813086
:10F7700011F081E028C088E926C01A82E1E0F0E0BB
:10F7800089E08093570084918B831C8224E030E0D1
:10F79000C8C18B81803589F48C81883039F4E2E0EE
:10F7A000F0E089E08093570084910DC0E0E0F0E044
:10F7B00089E080935700849106C0E3E0F0E089E09F
:10F7C0008093570084911A82DFCF8D81836C99E0FA
:10F7D000E1E0F0E0082E90935700E89507B600FCB2
:10F7E000FDCF1A821B8223E030E09BC180EC8A832C
:10F7F000CE5CDE4F188219821A821B82C253D1401E
:10F800008EC18A8190E0A0E0B0E0582F44273327D2
:10F8100022278B8190E0A0E0B0E0DC0199278827C7
:10F82000282B392B4A2B5B2B8D8190E0A0E0B0E098
:10F83000282B392B4A2B5B2B8C8190E0A0E0B0E089
:10F84000BA2FA92F982F8827282B392B4A2B5B2BCF
:10F85000220F331F441F551FC05EDE4F288339839C
:10F860004A835B83C052D1401A8259C13A81C95C34
:10F87000DE4F3883C753D140CA5CDE4F1882C6536F
:10F88000D1408B81C82EDD24CA5CDE4F488159816E
:10F89000C653D140C42AD52A933109F082C0CE5C28
:10F8A000DE4F88819981AA81BB81C253D1408050AB
:10F8B000904CA340B04030F583E0CE5CDE4FE88052
:10F8C000F9800A811B81C253D140F70100935B008C
:10F8D00080935700E89507B600FCFDCFCE5CDE4F65
:10F8E000088119812A813B81C253D14000501F4FAA
:10F8F0002F4F3F4FCE5CDE4F088319832A833B8313
:10F90000C253D140C05EDE4F488159816A817B81FC
:10F91000C052D140DE011B9631E08C9111962C91A2
:10F9200011971296C75CDE4F2883C953D140C85C3B
:10F93000DE4F1882C853D14090E0C85CDE4FE881AA
:10F94000F981C853D1408E2B9F2B0C01FA01609393
:10F950005B0030935700E89511244E5F5F4F6F4F67
:10F960007F4F0EEFE02E0FEFF02ECE0CDF1CC114F8
:10F97000D10499F685E0C05EDE4F088119812A81A5
:10F980003B81C052D140F80120935B008093570027
:10F99000E89507B600FCFDCF81E180935700E8951C
:10F9A00035C0C05EDE4F88819981AA81BB81C0527B
:10F9B000D140B695A795979587957C018601ABE0D8
:10F9C000AA2EB12CAC0EBD1E0BC0D5016D915D01F0
:10F9D000C7010F947FFE0894E11CF11C01501040F8
:10F9E0000115110591F7A60160E070E0440F551F65
:10F9F000661F771FC05EDE4FE880F9800A811B8199
:10FA0000C052D1404E0D5F1D601F711F1A82C05E33
:10FA1000DE4F488359836A837B83C052D1407FC0C5
:10FA2000FA80C55CDE4FF882CB53D140C65CDE4F16
:10FA30001882CA53D1408B81C82EDD24C65CDE4FAC
:10FA400008811981CA53D140C02AD12A1A828981DA
:10FA5000BE016D5F7F4F843121F59601C05EDE4FA0
:10FA6000E880F9800A811B81C052D1400BBFF701A9
:10FA700087919691DB018C9311969C936E5F7F4FDB
:10FA8000D801C7010296A11DB11DC05EDE4F88835B
:10FA90009983AA83BB83C052D14022503040F1F6F3
:10FAA00036C0C05EDE4F288139814A815B81C052F9
:10FAB000D1400894C108D108760100E010E0089414
:10FAC000C11CD11C0894E11CF11C011D111DE20E8A
:10FAD000F31E041F151F21BDBB27A52F942F832FB5
:10FAE00082BD2F5F3F4F4F4F5F4FF89A80B5DB01CC
:10FAF0008D93BD012E153F054007510761F7C05E8C
:10FB0000DE4F288339834A835B83C052D1409601FC
:10FB10002D5F3F4FFB01108204C080EC8A8322E0FE
:10FB200030E08BE18093C6008091C00086FFFCCF5F
:10FB30008091C00080648093C000C15DDE4FF88179
:10FB4000CF52D140F093C6008091C00086FFFCCF19
:10FB50008091C00080648093C000432F3093C60022
:10FB60008091C00086FFFCCF8091C00080648093AC
:10FB7000C000922F2093C6008091C00086FFFCCF6A
:10FB80008091C00080648093C0008EE08093C600A6
:10FB90008091C00086FFFCCF8091C000806480937C
:10FBA000C00065E1C15DDE4FE880CF52D1406E25D7
:10FBB00069276427FE01319610C090819093C6009A
:10FBC0008091C00086FFFCCF31968091C000806498
:10FBD0008093C0006927215030402115310569F715
:10FBE0006093C6008091C00086FFFCCF8091C0006A
:10FBF00080648093C00085B1805885B9772081F4F6
:10FC0000C15DDE4F0881CF52D1400F5FC15DDE4F35
:10FC10000883CF52D14090E0A0E0B0E00D941AF4F8
:10FC200027982F9880E090E020ED37E0F901319798
:10FC3000F1F7019684369105C9F700008091C00064
:10FC40008D7F8093C00081E180935700E895EE2777
:10FC5000FF270994FFCF90E00D941AF497FB092E2B
:10FC600007260AD077FD04D02ED006D000201AF443
:10FC7000709561957F4F0895F6F7909581959F4F08
:10FC80000895A1E21A2EAA1BBB1BFD010DC0AA1FDD
:10FC9000BB1FEE1FFF1FA217B307E407F50720F0F5
:10FCA000A21BB30BE40BF50B661F771F881F991F70
:10FCB0001A9469F760957095809590959B01AC01B9
:10FCC000BD01CF010895AA1BBB1B51E107C0AA1FAC
:10FCD000BB1FA617B70710F0A61BB70B881F991FED
:10FCE0005A95A9F780959095BC01CD010895F99991
:10FCF000FECF92BD81BDF89A992780B50895262F31
:10FD0000F999FECF1FBA92BD81BD20BD0FB6F89400
:0EFD1000FA9AF99A0FBE01960895F894FFCF63
:040000033000E000E9
:00000001FF