:10000000DAC100000C944E080C942308F1C70000DC
:10001000C4C7000097C700006AC700003DC70000C2
:1000200010C70000F9C10000F7C10000F5C10000D1
:10003000F3C10000F1C10000EFC10000EDC10000FC
:10004000EBC10000E9C10000E7C10000E5C100000C
:10005000E3C10000E1C10000DFC10000A8C600004C
:10006000DBC100009DC4000072C40000D5C10000C7
:10007000D3C10000D1C10000CFC10000CDC100003C
:10008000CBC10000C9C10000C7C10000C5C100004C
:10009000C3C10000C1C10000BFC100000C94B20A7E
:1000A000BBC10000B9C10000B7C10000B5C100006C
:1000B000B3C10000B1C10000AFC10000ADC100007C
:1000C000ABC10000A9C10000A7C10000A5C100008C
:1000D000A3C10000A1C100009FC100009DC100009C
:1000E0009BC1000021052405130517051D055B05AF
:1000F00028052C05320536053A0540054405480516
:100100005B054E0552055605EE05F305F80502069A
:100110000C06850616061E06260630063A06440616
:1001200053065D068506670671067B060930202D9D
:10013000204D61696E204D656E75000933202D20BC
:100140004C4344204261636B6C696768742053744C
:1001500061747573000932202D205254432053746A
:1001600061747573000931202D20517565727920F5
:1001700054656D702053656E736F72004C4344205C
:10018000485544202D2000005EBCE2613FDD83C263
:100190009C7E20A3FD1F419DC3217FFCA2401E5FCA
:1001A00001E3BD3E6082DC237D9FC1421CFEA0E1D5
:1001B000BF5D0380DE3C62BEE0025CDF81633D7CAC
:1001C00022C09E1D43A1FF4618FAA427799BC5842F
:1001D000DA3866E5BB5907DB856739BAE406581992
:1001E00047A5FB7826C49A653BD987045AB8E6A789
:1001F000F91B45C6987A24F8A6441A99C7257B3A74
:100200006486D85B05E7B98CD2306EEDB3510F4EE2
:1002100010F2AC2F7193CD114FADF3702ECC92D361
:100220008D6F31B2EC0E50AFF1134DCE90722C6D3C
:1002300033D18F0C52B0EE326C8ED0530DEFB1F043
:10024000AE4C1291CF2D73CA947628ABF51749089E
:1002500056B4EA6937D58B5709EBB536688AD49519
:10026000CB2977F4AA4816E9B7550B88D6346A2B00
:100270007597C94A14F6A8742AC896154BA9F7B6FB
:10028000E80A54D7896B3500002100240027002A92
:10029000002D003000330001010000040107010AB5
:1002A0000100002200250028002B002E0031003420
:1002B0000002010000050108010B0100000A0B0209
:1002C000090C0D0E080703040100000000000000E7
:1002D000000000000000000000000000000000001E
:1002E00000000000000000121110000000000000DB
:1002F00000000000000000000000000000000000FE
:1003000000000020002300260029002C002F0032CE
:1003100000000100000301060109010505050507AC
:100320000508080808020202020A0A080804040470
:10033000040101010101010101030303030303039C
:1003400003040707070C0C0C0C0C0C0C0C0202022B
:100350000206060606060606060B0B0B0B0B0B0B1E
:100360000B010210202008081020401020408002BD
:1003700001020108040201010204081020408080EB
:10038000402010080402018004020180402010086F
:100390000402010804020101020408102040800147
:1003A000020408102040801F1C1F1E1F1E1F1F1E3E
:1003B0001F1E1F001F1111241FBECFEFD1E2DEBF91
:1003C000CDBF00E00CBF25E0AEEAB3E001C01D9256
:1003D000A636B207E1F713E0A0E0B2E0E2E1FBE30A
:1003E00000E00BBF02C007900D92AE3AB107D9F7FB
:1003F00011E0CBEDD1E000E006C021970109802F8C
:10040000FE010E949118CA3DD10780E00807A9F7B4
:100410000E94E2110C94871DF3CDFC01538D448D95
:10042000252F30E0842F90E0821B930B541710F09F
:10043000CF96089501970895FC01918D828D9817AC
:1004400061F0828DDF01A80FB11D5D968C91928DB8
:100450009F5F9F73928F90E008958FEF9FEF0895B5
:10046000FC01918D828D981731F0828DE80FF11D7E
:10047000858D90E008958FEF9FEF0895FC01918D99
:10048000228D892F90E0805C9F4F821B91098F7392
:100490009927089588E694E0F1DF21E0892B09F49B
:1004A00020E0822F0895FC01848DDF01A80FB11D8B
:1004B000A35ABF4F2C91848D90E001968F7399279A
:1004C000848FA689B7892C93A089B1898C91806487
:1004D0008C93938D848D981306C00288F389E02D48
:1004E00080818F7D80830895EF92FF920F931F93F9
:1004F000CF93DF93EC0181E0888F9B8D8C8D9813D7
:1005000005C0E889F989808185FD23C0F62E0B8D11
:1005100010E00F5F1F4F0F731127E02E8C8DE81234
:100520000BC00FB607FCFACFE889F989808185FFF7
:10053000F5CFCE01B8DFF2CF8B8DFE01E80FF11DB4
:10054000E35AFF4FF0820B8FEA89FB89808180623A
:1005500007C0EE89FF896083E889F989808180641A
:10056000808381E090E0DF91CF911F910F91FF9008
:10057000EF900895CF93DF93EC01888D8823C1F02D
:10058000EA89FB89808185FD05C0A889B9898C919C
:1005900086FD0EC00FB607FCF5CF808185FFF2CF38
:1005A000A889B9898C9185FFEDCFCE017CDFE8CF9A
:1005B000DF91CF91089580E090E0892B19F06ADFF8
:1005C000811125C080E090E0892B41F080E090E02F
:1005D000892B21F00E94000081111CC080E090E076
:1005E000892B41F080E090E0892B21F00E940000EF
:1005F000811113C080E090E0892BA1F080E090E0B1
:10060000892B81F00E94000081110AC008950E9488
:100610000000D8CF0E940000E1CF0E940000EACF86
:100620000C94000008953FB7F8948091F6039091E0
:10063000F703A091F803B091F90326B5A89B05C074
:100640002F3F19F00196A11DB11D3FBFBA2FA92F51
:10065000982F8827820F911DA11DB11DBC01CD01CE
:1006600042E0660F771F881F991F4A95D1F70895BA
:10067000089521E001C0220F6A95EAF7DC011C967B
:100680002C931C971A965C934E931997ED91FC91BD
:100690000484F585E02D60E01994DC01ED91FC9176
:1006A0000684F785E02D41E0199581E090E00895FA
:1006B00008950895089585ED8093BC008091BC0055
:1006C00084FDFCCF1092670408954091D003262F3B
:1006D00030E0240F311D21323105DCF42091670414
:1006E0002430C9F4FC0180E090E0861758F4309182
:1006F000D0032191DC01A255BC4FA30FB11D2C9357
:100700000196F3CF8091D003680F6093D00380E00F
:10071000089581E0089582E008950895E091FC0332
:100720008091FB03E81730F4F0E0EF5DFB4F808130
:1007300090E008958FEF9FEF08959091FC038091D2
:10074000FB03981750F4E92FF0E0EF5DFB4F208199
:1007500030E09F5F9093FC0302C02FEF3FEFC90191
:1007600008958091FB0390E02091FC03821B910986
:100770000895CF92DF92EF92FF920F931F93CF9342
:10078000DF937C01262F972F8A018091FD03882318
:1007900091F0C62FD72F6E01C40ED51ECC15DD05E6
:1007A00069F06991D701ED91FC910190F081E02D04
:1007B000C7011995F3CF642F822F87DFC801DF911E
:1007C000CF911F910F91FF90EF90DF90CF90089500
:1007D000CF93DF931F92CDB7DEB769832091FD03DE
:1007E0002223D1F020912004203240F021E030E09B
:1007F000FC013383228380E090E014C08091FE03EB
:10080000E82FF0E0E150FC4F998190838F5F809357
:10081000FE038093200404C061E0CE01019655DF01
:1008200081E090E00F90DF91CF910895089580E0EE
:1008300090E008950E94AA1AFC0123812223B9F0B6
:100840009181909569236083828191E09093FD036B
:1008500080931F041092FE031092200485E095E01F
:10086000B7DF81E00E94ED0C282F30E002C020E0CD
:1008700030E081E090E0232B11F080E090E00895DB
:10088000EF92FF920F931F93CF938C01FC0175960B
:1008900084E0C0E060FF02C09081C92B6695815062
:1008A00031968111F7CF413011F4F8014489F801F4
:1008B0008585C82BC42B7801FEE0EF0EF11CF801F2
:1008C00062896C2BC701B8DFF801628960956C23DF
:1008D000C701CF911F910F91FF90EF90ADCF0F9374
:1008E0001F93CF93DF93062F0F70423019F440E02F
:1008F000602F0FC0142F262FEC0130E0B90184E0E7
:10090000759567958A95E1F7CE01BADF412F602F83
:10091000CE01DF91CF911F910F91B2CFFC01848561
:100920008823A1F0218532852115310519F4611143
:1009300006C007C02130310521F4611102C085874E
:1009400001C015866585CF010E9676CF08951F925A
:100950000F920FB60F9211240BB60F922F933F9365
:100960004F935F936F937F938F939F93AF93BF93B7
:10097000EF93FF9388E694E096DDFF91EF91BF91AE
:10098000AF919F918F917F916F915F914F913F9127
:100990002F910F900BBE0F900FBE0F901F901895C8
:1009A0001F920F920FB60F9211240BB60F922F9336
:1009B0008F939F93EF93FF93E0917804F0917904E4
:1009C0008081E0917E04F0917F0482FD12C09081CD
:1009D000809181048F5F8F7320918204821751F080
:1009E000E0918104F0E0E859FB4F958F80938104FA
:1009F00001C08081FF91EF919F918F912F910F9076
:100A00000BBE0F900FBE0F901F90189590E0FC0149
:100A10003197E231F10508F04EC08827EE58FF4FBC
:100A20008F4F0C949118809180008F7703C0809134
:100A300080008F7D80938000089580918000877F63
:100A4000F9CF84B58F7702C084B58F7D84BD0895BA
:100A50008091B0008F7703C08091B0008F7D80932C
:100A6000B0000895809190008F7707C0809190002A
:100A70008F7D03C080919000877F809390000895C0
:100A80008091A0008F7707C08091A0008F7D03C068
:100A90008091A000877F8093A0000895809120011D
:100AA0008F7707C0809120018F7D03C08091200146
:100AB000877F8093200108951F93CF93DF93282F82
:100AC00030E0F901E554FD4F8491F901EF59FC4FF5
:100AD000D491F901E55EFC4FC491CC23C1F0162FEF
:100AE000811194DFEC2FF0E0EE0FFF1FEF55FD4F6B
:100AF000A591B4918FB7F894111105C09C91ED2F79
:100B0000E095E92302C0EC91ED2BEC938FBFDF91D0
:100B1000CF911F910895CF93DF9390E0FC01EF599F
:100B2000FC4F2491FC01E55EFC4F8491882361F128
:100B300090E0880F991FFC01E957FD4FC591D491B2
:100B4000FC01EF55FD4FA591B491611109C09FB70C
:100B5000F8948881209582238883EC912E230BC002
:100B6000623061F49FB7F8943881822F8095832397
:100B70008883EC912E2B2C939FBF06C08FB7F894DF
:100B8000E8812E2B28838FBFDF91CF9108951F938B
:100B9000CF93DF93182FEB0161E0BDDF209711F4B5
:100BA00060E004C0CF3FD10531F461E0812FDF91D7
:100BB000CF911F9181CFE12FF0E0E554FD4FE491FB
:100BC0004E2F50E0FA013197E231F10508F09DC057
:100BD0008827EC57FF4F8F4F0C94911884B580688D
:100BE00084BDC7BD97C084B5806284BDC8BD92C0B6
:100BF00080918000806880938000D0938900C093AA
:100C0000880088C080918000806280938000D093AB
:100C10008B00C0938A007EC08091800088608093A2
:100C20008000D0938D00C0938C0074C08091B00080
:100C300080688093B000C093B3006CC08091B00016
:100C400080628093B000C093B40064C08091900033
:100C5000806880939000D0939900C09398005AC008
:100C600080919000806280939000D0939B00C0930D
:100C70009A0050C080919000886080939000D0933B
:100C80009D00C0939C0046C08091A0008068809326
:100C9000A0008091A0008F7B8093A000D093A9003A
:100CA000C093A80037C08091A00080628093A0000C
:100CB000D093AB00C093AA002DC08091A0008860A3
:100CC0008093A000D093AD00C093AC0023C080916E
:100CD0002001806880932001D0932901C0932801CE
:100CE00019C080912001806280932001D0932B0154
:100CF000C0932A010FC08091200188608093200159
:100D0000D0932D01C0932C0105C0C038D1050CF043
:100D10004CCF46CFDF91CF911F9108958F929F9234
:100D2000AF92BF92CF92DF92EF92FF926B017C0164
:100D30007ADC4B015C01C114D104E104F104E9F057
:100D400072DCDC01CB0188199909AA09BB09883E2C
:100D50009340A105B10578F321E0C21AD108E1085A
:100D6000F10888EE880E83E0981EA11CB11CC11406
:100D7000D104E104F10421F7DECFFF90EF90DF9082
:100D8000CF90BF90AF909F908F900895BFD59093D4
:100D9000500580934F05892B11F461E001C060E09C
:100DA0008BE08ADE62E370E080E090E0B7CF1F92D4
:100DB0000F920FB60F9211242F933F938F939F930F
:100DC000AF93BF9380914B0590914C05A0914D0539
:100DD000B0914E053091F50323E0230F2D3720F419
:100DE0000196A11DB11D05C026E8230F0296A11D85
:100DF000B11D2093F50380934B0590934C05A09370
:100E00004D05B0934E058091F6039091F703A091A4
:100E1000F803B091F9030196A11DB11D8093F6036B
:100E20009093F703A093F803B093F903BF91AF91A8
:100E30009F918F913F912F910F900FBE0F901F9018
:100E400018951F920F920FB60F9211240BB60F92A6
:100E50002F933F934F935F936F937F938F939F93C2
:100E6000AF93BF93EF93FF93E0910E02F0910F02C7
:100E70001995FF91EF91BF91AF919F918F917F91C4
:100E80006F915F914F913F912F910F900BBE0F90FB
:100E90000FBE0F901F9018951F920F920FB60F92D2
:100EA00011240BB60F922F933F934F935F936F9341
:100EB0007F938F939F93AF93BF93EF93FF93E091B3
:100EC0000C02F0910D021995FF91EF91BF91AF9136
:100ED0009F918F917F916F915F914F913F912F9152
:100EE0000F900BBE0F900FBE0F901F9018951F9282
:100EF0000F920FB60F9211240BB60F922F933F93C0
:100F00004F935F936F937F938F939F93AF93BF9311
:100F1000EF93FF93E0910202F09103021995FF9184
:100F2000EF91BF91AF919F918F917F916F915F9161
:100F30004F913F912F910F900BBE0F900FBE0F90CE
:100F40001F9018951F920F920FB60F9211240BB697
:100F50000F922F933F934F935F936F937F938F9352
:100F60009F93AF93BF93EF93FF93E0910002F091B3
:100F700001021995FF91EF91BF91AF919F918F91D0
:100F80007F916F915F914F913F912F910F900BBE89
:100F90000F900FBE0F901F9018951F920F920FB6D3
:100FA0000F9211240BB60F922F933F934F935F93A1
:100FB0006F937F938F939F93AF93BF93EF93FF9321
:100FC000E0910A02F0910B021995FF91EF91BF9108
:100FD000AF919F918F917F916F915F914F913F91D1
:100FE0002F910F900BBE0F900FBE0F901F90189572
:100FF0001F920F920FB60F9211240BB60F922F93E0
:101000003F934F935F936F937F938F939F93AF9390
:10101000BF93EF93FF93E0910802F09109021995B5
:10102000FF91EF91BF91AF919F918F917F916F91C0
:101030005F914F913F912F910F900BBE0F900FBE7C
:101040000F901F9018951F920F920FB60F921124B8
:101050000BB60F922F933F934F935F936F937F93B2
:101060008F939F93AF93BF93EF93FF93E09106020B
:10107000F09107021995FF91EF91BF91AF919F9168
:101080008F917F916F915F914F913F912F910F9031
:101090000BBE0F900FBE0F901F9018951F920F92CE
:1010A0000FB60F9211240BB60F922F933F934F93CD
:1010B0005F936F937F938F939F93AF93BF93EF93C0
:1010C000FF93E0910402F09105021995FF91EF91D1
:1010D000BF91AF919F918F917F916F915F914F9150
:1010E0003F912F910F900BBE0F900FBE0F901F904E
:1010F0001895CF92DF92EF92FF920F931F93CF93A9
:10110000DF93EC0181E08093FD0388E680931F0468
:101110001092FE031092200460E085E095E058DB19
:1011200081E05BD487E090E0B5D485E095E005DB15
:101130008F77982F92959F701AEF082F919F000D2F
:10114000112485E095E0F9DA9C01332794E0359588
:1011500027959A95E1F7F82E129FF00C112485E05F
:1011600095E0EBDA9C01332744E0359527954A95C5
:10117000E1F7E82E129FE00C112485E095E0DDDA1E
:1011800085E095E0DADA9C01332754E03595279520
:101190005A95E1F7D82E129FD00C112485E095E0E6
:1011A000CCDA9C01332764E0359527956A95E1F701
:1011B000C82E129FC00C112485E095E0BEDA9C0178
:1011C000332774E0359527957A95E1F7129F800DC6
:1011D00011248883C982DA82EB82FC820D83CE01DE
:1011E000DF91CF911F910F91FF90EF90DF90CF9003
:1011F0000895DC01E0E0615038F08D91E827F0E0DF
:10120000E957FE4FE491F7CF8E2F0895FC019081AE
:101210000180F281E02DF8948181892B81832281E4
:10122000892F809528232283A7E0B0E01197F1F75A
:10123000218182238183A3E2B0E01197F1F78081BD
:101240007894EFECF0E03197F1F7982381E009F41E
:1012500080E00895FC0190810180F281E02D892FCA
:10126000809560FF12C0F89422818223828381815D
:10127000892B8183A3E2B0E01197F1F78281982B4B
:101280009283789487ED90E011C0F89422818223B4
:1012900082838181892B8183AFEFB0E01197F1F7D1
:1012A0008281982B928378948FE090E00197F1F7F8
:1012B0000895CF92DF92EF92FF920F931F93CF93F7
:1012C000DF931F92CDB7DEB76C01E62E08E010E089
:1012D000FF24F39461E08F2D8E2109F460E0C601B4
:1012E0004983B8DFFF0C015011094981011511052F
:1012F00089F7411115C0F894D6011196ED91FC9132
:10130000129791818C918095892381831196ED911B
:10131000FC91129792818C91809589238283789495
:101320000F90DF91CF911F910F91FF90EF90DF9081
:10133000CF900895CF92DF92EF92FF920F931F9379
:10134000CF93DF931F92CDB7DEB78C01F62E40E02E
:1013500065E57983AEDFCF2C7981D72E760188E0E1
:10136000E80EF11CF60161916F0140E0C801A1DFB8
:10137000CE14DF04B9F70F90DF91CF911F910F9139
:10138000FF90EF90DF90CF900895FC019081018055
:10139000F281E02DF8948181292F20958223818389
:1013A00078948DE743E050E0815021F1DA01119704
:1013B000F1F730813923C1F3F8948281822382834B
:1013C0008181892B81837894ABE7B7E01197F1F79E
:1013D000F894818128232183A3E1B1E01197F1F7EB
:1013E0008081982381E009F080E07894E3E6F6E0DC
:1013F0003197F1F70895DC01ED91FC910684F785B2
:10140000E02D40E019940F931F93CF93DF93EC01ED
:10141000423018F08C8188608C834F836887222348
:1014200029F0413019F48C8184608C8364E670E08B
:1014300080E090E073DC6C8164FD31C0E881F9816B
:101440000684F785E02D42E063E0CE0119950BE4B8
:1014500016E4C8010197F1F7E881F9810684F78560
:10146000E02D42E063E0CE011995C8010197F1F744
:10147000E881F9810684F785E02D42E063E0CE0142
:10148000199583E592E00197F1F7E881F9810684E7
:10149000F785E02D42E062E0CE01199513C060624D
:1014A000CE01A9DF8BE496E40197F1F76C816062CD
:1014B000CE01A1DF83E592E00197F1F76C816062D4
:1014C000CE0199DF6C816062CE0195DF84E08D836F
:1014D0006CE0CE0190DF61E0CE018DDF8BE39FE118
:1014E0000197F1F782E08E8366E0CE0184DFE88128
:1014F000F9810484F585E02D6FEFCE01DF91CF9166
:101500001F910F911994FF920F931F93CF93DF9325
:10151000EC01162F042FF22E8B85888BECD261E024
:10152000888917D21092FC038093FB0391E081110C
:1015300001C090E0998B85E095E0FFD88E8789897E
:10154000882331F01F861C8260E0CE010E9674D98C
:101550002F2D402F612FCE01DF91CF911F910F9141
:10156000FF9051CF1F920F920FB60F9211240BB61E
:101570000F922F933F934F935F936F937F938F932C
:101580009F93AF93BF93EF93FF938091B900887FB0
:10159000803609F49CC068F5883209F45BC090F489
:1015A000803109F454C038F4882309F4F6C0883037
:1015B00009F44DC0F6C0883109F44CC0803209F4FA
:1015C0005DC0EFC0803409F468C048F4803309F48A
:1015D00055C0883309F0E5C080936504D8C08035D4
:1015E00009F44FC0883509F45DC0883409F0D9C0CA
:1015F000D6C0883909F4C7C0A8F4883709F467C091
:1016000038F4883609F463C0803709F460C0C9C073
:10161000883809F4B8C0803909F45FC0803809F00F
:10162000C0C05BC0803B09F486C038F4803A09F43E
:1016300066C0883A09F47FC0B4C0803C09F4A7C0F2
:10164000883C09F4A4C0883B09F48AC0AAC08091F0
:10165000620410C09091640480916304981770F53F
:10166000E091640481E08E0F80936404F0E0EF5B0E
:10167000FB4F80818093BB0085EC86C0809365041E
:101680008EC0E091640481E08E0F809364048091A9
:10169000BB00F0E0EF5BFB4F80839091640480918E
:1016A00063046EC0E091640481E08E0F8093640453
:1016B0008091BB00F0E0EF5BFB4F8083809166047C
:1016C00081116DC081E08093610484EA61C083E090
:1016D000809367041092F403CFCF8091F40380329B
:1016E00008F051C0E091F40381E08E0F8093F40381
:1016F0008091BB00F0E0EC52FC4F8083BDCF85ECC5
:101700008093BC00109267048091F403803230F41F
:10171000E091F403F0E0EC52FC4F10826091F4038E
:1017200070E0E091D203F091D30384ED93E019953A
:101730001092F40336C084E0809367041092D103C2
:101740001092D003E091CE03F091CF0319958091D0
:10175000D003811105C081E08093D0031092AE03C5
:10176000E091D10381E08E0F8093D103F0E0E25548
:10177000FC4F80818093BB009091D1038091D00376
:10178000981708F479CF85E88093BC000AC085ECEF
:101790008093BC001092670404C0109265040E94FC
:1017A0005B03FF91EF91BF91AF919F918F917F91DB
:1017B0006F915F914F913F912F910F900BBE0F90C2
:1017C0000FBE0F901F901895CF93DF93EC010A97EF
:1017D00020F460E381E195E081D4BE01DD0F880B48
:1017E000990BDF91CF91FCC40F931F93CF93DF939D
:1017F000CDB7DEB76C970FB6F894DEBF0FBECDBF86
:1018000067E173E0CE0141961DD41F9284E28F936D
:101810001F9285E08F931F921F9280E093E09F9329
:101820008F938E010F5F1F4F1F930F930E94BE1A5D
:10183000B801CE01479606D4BE01695E7F4FCE0146
:101840004196C7D38F89988D0E942E198CE791E01D
:1018500078D14D895E8969897A8988E694E02BD0B0
:1018600065E173E088E694E040D485E691E063D4D6
:1018700085E591E060D48BE391E05DD48CE291E06A
:101880005AD465E173E088E694E02FD489899A8977
:101890000E942E190FB6F894DEBF0FBECDBF6C9616
:1018A0000FB6F894DEBF0FBECDBFDF91CF911F9171
:1018B0000F9108950895CF92DF92EF92FF920F93C8
:1018C0001F93CF93DF936C017A018B01C0E0D0E0CE
:1018D000CE15DF0589F0D8016D918D01D601ED910E
:1018E000FC910190F081E02DC6011995892B11F42E
:1018F0007E0102C02196ECCFC701DF91CF911F91ED
:101900000F91FF90EF90DF90CF900895CF93DF93EA
:10191000EDECF2E08491E3E7F3E0D491EDE2F3E063
:10192000C491CC2389F0811171D8EC2FF0E0EE0F37
:10193000FF1FEF5FFC4FA591B491EC91ED2381E087
:1019400090E021F480E002C080E090E0DF91CF9150
:101950000895909167049111FCCF91E090936704F2
:10196000909366042FEF2093650410926404260F71
:10197000209363049093620490916204880F892BF2
:101980008093620480916104813061F4109261045B
:10199000809162048093BB008091BC0083FDF8CFEE
:1019A00085EC01C085EE8093BC0080916704813096
:1019B000E1F380916404861710F460916404A1E45B
:1019C000B4E021E234E0F9018E2F821B861718F46F
:1019D0008D918193F9CF862F0895382F209120047F
:1019E00090911F04213208F049C080916704811151
:1019F000FCCF42E040936704309366043FEF30939E
:101A000065041092640420936304AFEFB3E041E4F3
:101A100054E0FA013E2F341B321718F43D913193F4
:101A2000F9CF1092620420916204990F922B909347
:101A3000620490916104913061F41092610490917C
:101A400062049093BB009091BC0093FDF8CF95EC9D
:101A500001C095EE9093BC00909167049230E1F341
:101A6000909165049F3F79F080916504803241F048
:101A700080916504803331F084E005C081E003C0CB
:101A800082E001C083E01092FE03109220041092C5
:101A9000FD030895813208F080E2682F88E659DF5F
:101AA0001092FC038093FB030895CF93DF9381E0B2
:101AB0008093FD0388E680931F041092FE0310922A
:101AC000200460E085E095E00E94E80381E085DF86
:101AD00081E090E0DFDF85E095E00E949D0387FBD9
:101AE000882780F9C82F20E0D22FCE0121E082275D
:101AF000DF91CF9108951092FC031092FB03109296
:101B0000FE03109220041092670481E08093660423
:101B10001092610461E084E10E945C0561E085E16E
:101B20000E945C05E9EBF0E080818E7F80838081FC
:101B30008D7F808388E48093B80085E48093BC0027
:101B400008950F931F93CF93DF938C01C0E0D0E0F3
:101B5000F801EC0FFD1F6491662371F0E0916804B9
:101B6000F09169040190F081E02D88E694E01995E8
:101B7000892B11F02196ECCFCE01DF91CF911F91EF
:101B80000F910895AF92BF92CF92DF92EF92FF92A2
:101B90000F931F93CF93DF93EC018B0180912F055F
:101BA00090913005F2DB882381F1BE0180912F05F1
:101BB00090913005BFDB40E06EEB80912F05909156
:101BC000300577DBE801680189E0C80ED11CA090E0
:101BD0002F05B090300588E0E82EF12C01E010E0F0
:101BE000C50114DB8111102B000F81E0E81AF10808
:101BF000B9F71993CC15DD0551F780912F05909118
:101C00003005C3DB91E0813009F090E0892FDF914E
:101C1000CF911F910F91FF90EF90DF90CF90BF90E9
:101C2000AF9008950F931F93CF93DF93CDB7DEB797
:101C300029970FB6F894DEBF0FBECDBF8C01BE0151
:101C40006F5F7F4F9FDF8823A9F168E0CE01019687
:101C5000D0DA998589132EC0298158E0259FB001DB
:101C600011249A81292F30E0322F2227330F330F8E
:101C7000330F262B372BF80180818031C9F468851A
:101C800070E08F81AB01481B5109CA019695982FCE
:101C90008827979587950E945C18CB014097207FF5
:101CA00053E0220F331F5A95E1F7820F931F04C0B0
:101CB000C90102C080E894EE29960FB6F894DEBF01
:101CC0000FBECDBFDF91CF911F910F910895AF92BD
:101CD000BF92CF92DF92EF92FF920F931F93CF9319
:101CE000DF931F92CDB7DEB75C01D62EE72EFC0145
:101CF0008585811104C0C50148DB811106C0F5014D
:101D000013861586148680E061C040E060EFC5014F
:101D1000D0DA01E0F12CC12C11E0C50177DA682F8F
:101D2000C501698373DA6981613019F48130B9F4CE
:101D300032C04F2D50E068131BC0F5018385181782
:101D400030F4E40FF51F8381802349F402C0181793
:101D500031F060E0193058F4F501148708C0F5013E
:101D6000EF0DF11D8381802B838361E009C0C12EBB
:101D7000F501E40FF51F9381802F809589238383DC
:101D8000C50168DA1F5F000F11F4F39401E0F7E07A
:101D9000FF1508F0C2CF113408F4B1CFF501C386A6
:101DA000C11002C081E08587F5018381882309F491
:101DB000A6CFD5011396ED2DFE2D9501255F3F4F42
:101DC0008D918193A217B307D9F781E00F90DF912E
:101DD000CF911F910F91FF90EF90DF90CF90BF9028
:101DE000AF900895CF93DF93EC01E0912F05F09130
:101DF0003005138615861486DF011B96CF010396E6
:101E00001E92A817B907E1F7BE01CF0160DF882352
:101E100041F067E0CE01EDD99F81891302C081E0D6
:101E200001C080E0DF91CF910895CF93DF93CDB7CC
:101E3000DEB728970FB6F894DEBF0FBECDBFCE0138
:101E40000196D0DF811105C06AE979E984E493EC59
:101E500017C0CE010196E6DE813824EE9207A4F386
:101E6000BC01990F880B990B62D726E636E646E649
:101E70005CE3BCD720E030E040E052E40E94AB17C6
:101E800028960FB6F894DEBF0FBECDBFDF91CF917D
:101E9000089580912F059091300577DA40E06CEC41
:101EA00080912F059091300504DA40912A0564E471
:101EB00080912F0590913005FCD980912C058823C5
:101EC000A9F0E0912B05E950E33040F4F0E0EE0F8B
:101ED000FF1FEE53FD4F6081718102C06EEE72E014
:101EE000072E000C880B990B0C948E060895CF9347
:101EF000DF93CDB7DEB728970FB6F894DEBF0FBEDD
:101F0000CDBF1D8290E49E8324E12F8324E52887A2
:101F100019829A8390E19B8390E59C8390911805A8
:101F2000691710F06FEF690F40911905262F30E007
:101F3000FE01E20FF31F403121F4943011F491813E
:101F400001C09581682F690F606881E195E028964E
:101F50000FB6F894DEBF0FBECDBFDF91CF914BCA55
:101F6000CF93DF93CDB7DEB729970FB6F894DEBFD6
:101F70000FBECDBFFC012081203109F1BE016F5F92
:101F80007F4F00DE882371F068E0CE01019631D9E1
:101F90009985891307C008C0803458F08F3569F0DF
:101FA0008F3769F080E00CC08D818F33A9F78AE00C
:101FB00007C08F31B9F789E003C08BE001C08CE026
:101FC00029960FB6F894DEBF0FBECDBFDF91CF913B
:101FD00008950F931F93CF93DF938C01EB01FC01C6
:101FE000808191810097B1F06881798161157105D7
:101FF00079F0428153812C813D814217530740F093
:102000000E94B71A8C819D81F8019583848313C047
:102010000E942E1988819981F801918380838A8199
:102020009B81938382838C819D8195838483198294
:1020300018821B821A821D821C82DF91CF911F9110
:102040000F910895EF92FF920F931F93CF93DF9319
:10205000EC01198218821B821A821D821C82611572
:102060007105A9F17B01FB0101900020E9F731978F
:102070008F01061B170BB8016F5F7F4F80E090E068
:102080000E94C619009759F0998388831B830A839D
:102090002C813D81232B81F4FC0110820DC08881AD
:1020A0009981009711F00E942E19198218821D82C1
:1020B0001C821B821A820BC01D830C83B701DF9127
:1020C000CF911F910F91FF90EF900C94B71ADF9171
:1020D000CF911F910F91FF90EF900895DC01ED914A
:1020E000FC910190F081E02D19946115710579F052
:1020F000FB0101900020E9F73197AF01461B570B18
:10210000DC01ED91FC910280F381E02D199480E0D7
:1021100090E00895CF93DF93BC0188E694E0E5DF7B
:10212000EC0165E173E088E694E0DFDF8C0F9D1F32
:10213000DF91CF910895CF93DF9303DDEC0165E14B
:1021400073E088E694E0D1DF8C0F9D1FDF91CF9183
:1021500008954F925F926F927F92EF92FF920F934A
:102160001F93CF93DF93CDB7DEB7A1970FB6F89447
:10217000DEBF0FBECDBF7C01FA01CB0119A2223018
:1021800008F42AE08E010F5D1F4F422E512C612C66
:10219000712CBF01A3019201A2D7F901CA0101501C
:1021A00011096A3014F4605D01C0695CD8016C9358
:1021B000232B242B252B69F7B801C70196DFA196A5
:1021C0000FB6F894DEBF0FBECDBFDF91CF911F9148
:1021D0000F91FF90EF907F906F905F904F900895D8
:1021E000CF92DF92EF92FF92CF93DF93AB01BC01CE
:1021F00077FF1BC06A017B016DE281E195E06EDF34
:10220000EC0144275527BA014C195D096E097F0975
:102210002AE081E195E09DDF8C0F9D1FDF91CF913A
:10222000FF90EF90DF90CF9008952AE081E195E054
:10223000DF91CF91FF90EF90DF90CF908ACF1092F7
:102240006B0410926A0488EE93E0A0E0B0E0809303
:102250006C0490936D04A0936E04B0936F042CEC07
:1022600032E0309369042093680425EC30E0309329
:1022700075042093740424EC30E0309377042093A9
:10228000760420EC30E0309379042093780421EC3C
:1022900030E030937B0420937A0422EC30E03093DA
:1022A0007D0420937C0426EC30E030937F0420935F
:1022B0007E04109281041092820410928304109282
:1022C00084041092080510920705809309059093E5
:1022D0000A05A0930B05B0930C058EED92E0909348
:1022E00006058093050560E08AE00E948B05EBE619
:1022F000F3E0E491E0933D05E5E2F3E0E491F0E002
:10230000EE0FFF1FEF5FFC4F8591949190933F0577
:1023100080933E051092480510924A051092490597
:10232000E8E4F5E0129285E0E034F807D9F78AE5B1
:1023300093E090933C0580933B058DE395E090936B
:10234000300580932F0510922E0510922A0589E002
:1023500080932B0581E080932C0580932D051092AE
:1023600014051092130520EF32E0309312052093EC
:102370001105109221059FEF9093200510921F05E3
:102380001092220597E290931C0510921D05109261
:102390001E0510921B0510921A0594E090932305D8
:1023A00092E0909324058093250580E18093260593
:1023B00080E28093270580E48093280580E880935D
:1023C00029050895CF93DF93CDB7DEB76E970FB68B
:1023D000F894DEBF0FBECDBF789484B5826084BD13
:1023E00084B5816084BD85B5826085BD85B5816019
:1023F00085BD80916E00816080936E001092810097
:102400008091810082608093810080918100816051
:102410008093810080918000816080938000809112
:10242000B10084608093B1008091B000816080939E
:10243000B000809191008260809391008091910022
:1024400081608093910080919000816080939000E2
:102450008091A10082608093A1008091A1008160A1
:102460008093A1008091A00081608093A000809162
:1024700021018260809321018091210181608093FC
:1024800021018091200181608093200180917A0058
:10249000846080937A0080917A00826080937A00D1
:1024A00080917A00816080937A0080917A008068C0
:1024B00080937A001092C100E0917804F091790441
:1024C00082E08083E0917404F09175041082E091C1
:1024D0007604F091770480E1808310928004E0918B
:1024E0007C04F0917D0486E08083E0917A04F09191
:1024F0007B04808180618083E0917A04F0917B0489
:10250000808188608083E0917A04F0917B048081EF
:1025100080688083E0917A04F0917B0480818F7DD4
:10252000808362D920E044E064E181E195E00E948B
:10253000830A40E050E063E081E195E00E943903C6
:1025400061E081E195E00E948E0481E08093550571
:10255000D2DA64E170E086E00E94C70560E082E1C3
:102560000E948B0561E08DE00E948B0561E089E0AF
:102570000E948B0561E08BE00E948B0567E173E0B0
:10258000CE0149965FDD1F9284E28F931F9285E012
:102590008F931F921F9280E093E09F938F938E0101
:1025A0000F5F1F4F1F930F93E9D7B801CE014196DC
:1025B00049DDBE016F5E7F4FCE0149960ADD8989F4
:1025C0009A894CD660E080E092DC68E173E081E1BA
:1025D00095E08BDD61E080E08ADC4D8D5E8D698D5C
:1025E0007A8D81E195E067D960ED77E080E090E059
:1025F0000E948E0661E081E195E00E94FB098BE379
:102600009FE10197F1F7898D9A8D28D674DA4DDA1A
:102610000FB6F894DEBF0FBECDBF811103C089E2B3
:1026200093E078DDE0912F05F09130051386158653
:102630001486DF011B9633961E92AE17BF07E1F793
:1026400010922E05FF24F394BE016F5E7F4F8091A0
:102650002F05909130053BDB882309F44CC067E0DF
:10266000CE0141960E94F908988D8913EDCF809193
:102670002A05811127C080912F05909130050E9475
:10268000C509BE016F5E7F4F80912F059091300587
:102690000E949A0940E064EB80912F0590913005EB
:1026A0000E94590980912F05909130050E940609DA
:1026B000E82E80912F05909130050E94C509EE20EB
:1026C00009F42CC3B801CE0141965CDAE0902B05E9
:1026D000CE01419645DC8E1518F480912B0503C080
:1026E000CE0141963DDC80932B0580912E058F5FB6
:1026F00080932E05A9CFBB24B39487EA93E0AB2C3B
:10270000A81A74E0272E312C88248394912C8FB73B
:10271000F89440914B0550914C0560914D05709196
:102720004E058FBF8091B8029091B902A091BA0274
:10273000B091BB02481B590B6A0B7B0B40365A4EBB
:102740006105710508F493C0805A9541AF4FBF4FA2
:102750008093B8029093B902A093BA02B093BB02DF
:1027600098DB63DB60935C0570935D0580935E0589
:1027700090935F0561E080E0BADB6DE373E081E197
:1027800095E0B3DCC0905C05D0905D05E0905E05FF
:10279000F0905F0520E030E0A901C701B60170D4D8
:1027A00020E030E040E05FE387FD04C0C701B601F0
:1027B000D2D303C0C701B601CDD331D411DD6FED43
:1027C00081E195E08BDC66E481E195E087DCC8017E
:1027D00009DB811105C060E070E08EEF92EC10C063
:1027E000C80120DA813864EE9607ACF3BC01990F7A
:1027F000880B990B9CD220E030E040E05CE3F6D2FD
:10280000609351057093520580935305909354053E
:1028100061E08CE06CDB6EE781E195E05FDC61E01C
:102820008FE065DBC0905105D0905205E0905305D4
:10283000F090540520E030E0A901C701B60120D492
:1028400020E030E040E05FE387FD04C0C701B6014F
:1028500082D303C0C701B6017DD3E1D3C1DC6FEDE4
:1028600081E195E03BDC63E481E195E037DCC80180
:102870000E9479088E818C3379F060E080E037DB4C
:102880008C8190E00E94E40B6AE381E195E026DC14
:102890008D8190E00E94E40B8B81833609F455C052
:1028A00060E086E024DB6A819981492F50E02B812A
:1028B00030E0E7EAF3E08A2D8E0F861728F4849142
:1028C000280F311D3196F7CF633020F0937011F44B
:1028D0002F5F3F4F6DE671E0469FC001479F900D0F
:1028E000569F900D112405964D5F5F4F5695479565
:1028F00056954795840F951F820F931F67E070E0F0
:10290000C7D328E1289FB001299F700D1124605F73
:102910007D4F81E195E0E9DB60E08AE0E8DA8981DA
:1029200090E08053984F0E94E40B6FE281E195E0C4
:10293000D5DB8A8190E00E94E40B6FE281E195E0B3
:10294000CDDB8B8190E00E94E40B0E94860C90937B
:10295000500580934F05892BF1F484E493E0DADB92
:102960002FB7F89480914B0590914C05A0914D059F
:10297000B0914E052FBF8093580590935905A093B1
:102980005A05B0935B051092570510925605B09208
:1029900055056FEF1FC0809155058823F9F02FB7BB
:1029A000F89480914B0590914C05A0914D05B09104
:1029B0004E052FBF2091580530915905821B930B6E
:1029C000909357058093560581369A4E38F01092B1
:1029D000550560E081E195E00E948E040E94C606E4
:1029E000C0905C05D0905D05E0905E05F0905F05BD
:1029F00020E030E040EA52E4C701B60141D387FF4E
:102A00000AC020E030E040E752E4C701B60189D1B6
:102A100018165CF553C0612C712CB3018DE00E9437
:102A2000C7056EE170E080E090E00E948E068FE0C6
:102A3000680E711C9EE0691691E0790671F76624B4
:102A40006A94712CB3018DE00E94C7056EE170E0BD
:102A500080E090E00E948E062FE0621A710831EF4C
:102A600063163FEF730671F7CCCFE12CF12CB70161
:102A700089E00E94C7056EE170E080E090E00E946E
:102A80008E066FE0E60EF11C7EE0E71671E0F706B9
:102A900071F7EE24EA94F12CB70189E00E94C70592
:102AA0006EE170E080E090E00E948E068FE0E81A10
:102AB000F10891EFE9169FEFF90671F788E694E0C7
:102AC0000E943E02892B69F188E694E00E941C0274
:102AD0008233A9F04CF4803301F1813311F59092E7
:102AE0006105809260051DC0833381F08336C9F48F
:102AF00085E090E0909361058093600512C022E02C
:102B000030E030936105209360050BC063E070E016
:102B1000709361056093600504C030926105209256
:102B2000600580916005909161058230910509F4FE
:102B3000B8C08430910509F4E8C0019709F0EBC0F2
:102B4000A8D973D960935C0570935D0580935E0589
:102B500090935F0561E573E088E694E0C6DAC09083
:102B60005C05D0905D05E0905E05F0905F05A701E3
:102B70009601C701B60188D2882319F06FE673E089
:102B800018C026013701E89477F82FEF3FEF4FE7A1
:102B90005FE7C301B20178D281110FC02FEF3FEF81
:102BA0004FE75FE7C301B201BCD0181634F463E706
:102BB00073E088E694E099DA6BC02FEF3FEF4FE7C0
:102BC0005FE4C701B6015CD218161CF467E773E036
:102BD000F0CF2FEF3FEF4FE75FECC701B601A1D079
:102BE00087FDF4CF20E030E0A901C701B60199D0FC
:102BF00087FF08C06DE288E694E070DAF7FAF09497
:102C0000F7F8F0942AE037ED43EA5BE3C701B60139
:102C1000A2D12B013C0108D26B017C0186D09B0123
:102C2000AC01C301B20196D12B013C012AE0B701EE
:102C3000A60188E694E08DDA6EE288E694E04EDA4A
:102C400020E030E040E251E4C301B201CFD06B019B
:102C50007C01EAD12B01612C712C2AE0B301A20185
:102C600088E694E076DAC301B2015FD09B01AC0143
:102C7000C701B6016FD120E030E040E251E4B6D0A8
:102C8000D3D1AB0160E070E02AE088E694E061DA3D
:102C90006FED88E694E022DA66E488E694E01EDAD6
:102CA0003AC00E947B0DC8010E9479080E94550D10
:102CB000882339F18BE793E02DDA8BE893E02ADA69
:102CC0004C8150E060E070E02AE088E694E041DA70
:102CD0006AE388E694E002DA4D8150E060E070E05B
:102CE0002AE088E694E035DA6AE388E694E0F6D9EB
:102CF0004E8150E060E070E02AE088E694E029DA56
:102D00000AC08AE993E006DA06C00E94F40B10922A
:102D10006105109260050E94DB02F9CCF0922A0551
:102D2000D1CC40D008F481E00895E89409C097FB25
:102D30003EF490958095709561957F4F8F4F9F4F92
:102D40009923A9F0F92F96E9BB279395F6958795D6
:102D500077956795B795F111F8CFFAF4BB0F11F499
:102D600060FF1BC06F5F7F4F8F4F9F4F16C0882340
:102D700011F096E911C0772321F09EE8872F762F76
:102D800005C0662371F096E8862F70E060E02AF0B7
:102D90009A95660F771F881FDAF7880F96958795A3
:102DA00097F90895990F0008550FAA0BE0E8FEEF78
:102DB00016161706E807F907C0F012161306E407FF
:102DC000F50798F0621B730B840B950B39F40A26F8
:102DD00061F0232B242B252B21F408950A2609F4D6
:102DE000A140A6958FEF811D811D08950BD078C05D
:102DF00069D028F06ED018F0952309F05AC05FC052
:102E00001124A2C07ED0A0F3959FD1F3950F50E07E
:102E1000551F629FF001729FBB27F00DB11D639F8C
:102E2000AA27F00DB11DAA1F649F6627B00DA11D32
:102E3000661F829F2227B00DA11D621F739FB00DD8
:102E4000A11D621F839FA00D611D221F749F332748
:102E5000A00D611D231F849F600D211D822F762FE1
:102E60006A2F11249F5750408AF0E1F088234AF0DE
:102E7000EE0FFF1FBB1F661F771F881F915050402A
:102E8000A9F79E3F510570F014C05EC05F3FECF3A0
:102E9000983EDCF3869577956795B795F795E79516
:102EA0009F5FC1F7FE2B880F911D9695879597F927
:102EB000089597F99F6780E870E060E008959FEFBC
:102EC00080EC089500240A941616170618060906C1
:102ED000089500240A941216130614060506089590
:102EE000092E0394000C11F4882352F0BB0F40F418
:102EF000BF2B11F460FF04C06F5F7F4F8F4F9F4F58
:102F0000089557FD9058440F551F59F05F3F71F0D9
:102F10004795880F97FB991F61F09F3F79F0879540
:102F20000895121613061406551FF2CF4695F1DFC9
:102F300008C0161617061806991FF1CF8695710559
:102F4000610508940895E894BB2766277727CB018D
:102F500097F908955058BB27AA270ED0C1CFB2DFEA
:102F600030F0B7DF20F031F49F3F11F41EF4A7CF0B
:102F70000EF4E095E7FB9DCFE92FC3DF80F3BA178E
:102F8000620773078407950718F071F49EF5DBCF8D
:102F90000EF4E0950B2EBA2FA02D0B01B901900174
:102FA0000C01CA01A0011124FF27591B99F0593FB8
:102FB00050F4503E68F11A16F040A22F232F342F00
:102FC0004427585FF3CF469537952795A795F0404E
:102FD0005395C9F77EF41F16BA0B620B730B840B63
:102FE000BAF09150A1F0FF0FBB1F661F771F881F1B
:102FF000C2F70EC0BA0F621F731F841F48F4879573
:1030000077956795B795F7959E3F08F0B3CF939561
:10301000880F08F09927EE0F97958795089504D0AB
:103020006894B11191CF089574DF88F09F5790F0A4
:10303000B92F9927B751A0F0D1F0660F771F881FDD
:10304000991F1AF0BA95C9F712C0B13081F07BDF31
:10305000B1E0089578CF672F782F8827B85F39F0CF
:10306000B93FCCF3869577956795B395D9F73EF43C
:1030700090958095709561957F4F8F4F9F4F0895E4
:1030800091DE08F48FEF08958DDE880B990B08957B
:10309000AA1BBB1B51E107C0AA1FBB1FA617B7077E
:1030A00010F0A61BB70B881F991F5A95A9F780959A
:1030B0009095BC01CD01089597FB072E16F400945E
:1030C00006D077FD08D0E4DF07FC05D03EF49095EC
:1030D00081959F4F0895709561957F4F0895A1E266
:1030E0001A2EAA1BBB1BFD010DC0AA1FBB1FEE1F82
:1030F000FF1FA217B307E407F50720F0A21BB30BCD
:10310000E40BF50B661F771F881F991F1A9469F748
:1031100060957095809590959B01AC01BD01CF01A4
:103120000895EE0FFF1F881F8BBF0790F691E02DCB
:103130001994CF93DF938230910510F482E090E0F0
:10314000E0916405F091650520E030E0C0E0D0E05A
:10315000309711F14081518148175907C0F0481745
:10316000590761F482819381209719F09B838A83A8
:103170002BC0909365058093640526C02115310509
:1031800019F04217530718F49A01BE01DF01EF014D
:103190000280F381E02DDCCF2115310509F1281BD8
:1031A000390B2430310590F412968D919C91139730
:1031B0006115710521F0FB019383828304C0909314
:1031C000650580936405FD01329644C0FD01E20F60
:1031D000F31F81939193225031092D933C933AC070
:1031E0002091620530916305232B41F42091BE02AA
:1031F0003091BF0230936305209362052091BC0299
:103200003091BD022115310541F42DB73EB74091F3
:10321000C0025091C102241B350BE0916205F09170
:103220006305E217F307A0F42E1B3F0B281739079D
:1032300078F0AC014E5F5F4F2417350748F04E0F12
:103240005F1F50936305409362058193919302C081
:10325000E0E0F0E0CF01DF91CF9108950F931F934D
:10326000CF93DF93009709F48CC0FC01329713824F
:10327000128200916405109165050115110581F414
:1032800020813181820F931F209162053091630567
:103290002817390779F5F0936305E093620571C04B
:1032A000D80140E050E0AE17BF0750F412962D91C0
:1032B0003C911397AD012115310509F1D901F3CFE7
:1032C0009D01DA013383228360817181860F971F0C
:1032D0008217930769F4EC0128813981260F371F83
:1032E0002E5F3F4F318320838A819B81938382832A
:1032F000452B29F4F0936505E093640542C01396CD
:10330000FC93EE931297ED01499159919E01240F80
:10331000351FE217F30771F480819181840F951FA7
:10332000029611969C938E938281938113969C931F
:103330008E931297E0E0F0E0D80112968D919C9167
:103340001397009719F0F8018C01F6CF8D919C919D
:1033500098012E5F3F4F820F931F2091620530919D
:1033600063052817390769F4309729F41092650529
:103370001092640502C013821282109363050093B9
:103380006205DF91CF911F910F9108956F927F9207
:103390008F929F92AF92BF92CF92DF92EF92FF9265
:1033A0000F931F93CF93DF93EC01009781F4CB0130
:1033B000DF91CF911F910F91FF90EF90DF90CF9011
:1033C000BF90AF909F908F907F906F90B2CEFC0196
:1033D000E60FF71F9C0122503109E217F30708F4AA
:1033E000A8C0D9010D911C91119706171707A8F0D5
:1033F0000530110508F49BC0C8010497861797078C
:1034000008F495C002501109061B170B0193119384
:103410006D937C93CF0122DF8AC05B01A01AB10AB1
:103420004C01800E911EA0916405B091650540E0AD
:1034300050E0E12CF12C109709F44AC0A815B90509
:10344000D1F56D907C901197630182E0C80ED11C7C
:10345000CA14DB0480F1A3014A195B096A0182E006
:10346000C80ED11C1296BC9012971396AC91B5E081
:10347000CB16D10440F0B282A38351834083D9019B
:103480006D937C930AC00E5F1F4FC301800F911F85
:10349000F90191838083EB2DFA2FE114F10431F0CF
:1034A000D7011396FC93EE93129741C0F0936505F4
:1034B000E09364053CC08D919C9111974817590782
:1034C00008F4AC017D0112960D90BC91A02DB3CFF4
:1034D000809162059091630588159905E1F446177E
:1034E0005707C8F48091BC029091BD02009741F447
:1034F0008DB79EB74091C0025091C102841B950BBD
:10350000E817F907B0F4F0936305E0936205F90159
:10351000718360830CC0CB010CDE7C01009749F005
:10352000A801BE011BD0CE0199DEC70104C0CE01A7
:1035300002C080E090E0DF91CF911F910F91FF904A
:10354000EF90DF90CF90BF90AF909F908F907F9043
:103550006F90089581E090E0F894D9C2FB01DC01FE
:1035600002C001900D9241505040D8F70895FB01E0
:10357000DC0101900D920020E1F708950F931F9355
:10358000CF93DF93CDB7DEB72E970FB6F894DEBF9B
:103590000FBECDBF0E891F8986E08C831A830983F5
:1035A0008FEF9FE79E838D83AE01465E5F4F688DF0
:1035B000798DCE01019611D02F813885F801E20F67
:1035C000F31F10822E960FB6F894DEBF0FBECDBF4C
:1035D000DF91CF911F910F9108952F923F924F92BB
:1035E0005F926F927F928F929F92AF92BF92CF9293
:1035F000DF92EF92FF920F931F93CF93DF93CDB79C
:10360000DEB72C970FB6F894DEBF0FBECDBF7C019E
:103610006B018A01FC0117821682838181FFB0C190
:10362000CE0101964C01F7019381F60193FD85913E
:1036300093FF81916F01882309F49EC1853239F48B
:1036400093FD859193FF81916F01853221F4B7013C
:1036500090E0C7D1E8CF512C312C20E02032A0F4EB
:103660008B3269F030F4803259F0833269F4206192
:103670002CC08D3239F0803339F4216026C02260AD
:10368000246023C0286021C027FD27C030ED380FFB
:103690003A3078F426FF06C0FAE05F9E300D112420
:1036A000532E13C08AE0389E300D1124332E206231
:1036B0000CC08E3221F426FD5FC1206406C08C361A
:1036C00011F4206802C0883641F4F60193FD85911B
:1036D00093FF81916F018111C1CF982F9F7D9554E8
:1036E000933028F40C5F1F4FFFE3F9830DC083363E
:1036F00031F0833771F0833509F057C021C0F801EC
:10370000808189830E5F1F4F44244394512C5401C0
:1037100014C03801F2E06F0E711CF801A080B18076
:1037200026FF03C0652D70E002C06FEF7FEFC5017B
:103730002C874CD12C0183012C852F77222E16C08B
:103740003801F2E06F0E711CF801A080B18026FFF5
:1037500003C0652D70E002C06FEF7FEFC5012C87BD
:103760002AD12C012C852068222E830123FC19C02C
:10377000832D90E048165906A0F4B70180E290E04E
:1037800030D13A94F5CFF50127FC859127FE819140
:103790005F01B70190E025D131103A94F1E04F1A62
:1037A00051084114510479F7DEC0843611F089368E
:1037B00031F5F80127FF07C0608171818281938113
:1037C0000C5F1F4F08C060817181072E000C880BB1
:1037D000990B0E5F1F4F2F76722E97FF09C09095A1
:1037E0008095709561957F4F8F4F9F4F2068722E07
:1037F0002AE030E0A4012DD1A82EA81843C08537B7
:1038000029F42F7EB22E2AE030E025C0F22FF97F76
:10381000BF2E8F36C1F018F4883579F0ADC08037EF
:1038200019F0883721F0A8C02F2F2061B22EB4FEE6
:103830000DC08B2D8460B82E09C024FF0AC09F2FB5
:103840009660B92E06C028E030E005C020E130E0E7
:1038500002C020E132E0F801B7FE07C0608171814B
:10386000828193810C5F1F4F06C06081718180E06F
:1038700090E00E5F1F4FA401ECD0A82EA818FB2DDE
:10388000FF777F2E76FE0BC0372D3E7FA51450F4B8
:1038900074FE0AC072FC08C0372D3E7E05C0BA2CEB
:1038A000372D03C0BA2C01C0B52C34FF0DC0FE016A
:1038B000EA0DF11D8081803311F4397E09C032FF99
:1038C00006C0B394B39404C0832F867809F0B394F0
:1038D00033FD12C030FF06C05A2CB31418F4530C39
:1038E0005B18B32CB31460F4B70180E290E03C871E
:1038F00078D0B3943C85F6CFB31410F43B1801C0D4
:10390000312C34FF11C0B70180E390E03C8769D0CF
:103910003C8532FF16C031FD03C088E790E002C04D
:1039200088E590E0B7010CC0832F867851F031FF15
:1039300002C08BE201C080E237FD8DE2B70190E06A
:1039400050D0A51430F4B70180E390E04AD05A94E7
:10395000F8CFAA94F401EA0DF11D8081B70190E03F
:1039600040D0A110F6CF332009F45DCEB70180E23C
:1039700090E037D03A94F7CFF7018681978102C063
:103980008FEF9FEF2C960FB6F894DEBF0FBECDBF22
:10399000DF91CF911F910F91FF90EF90DF90CF902B
:1039A000BF90AF909F908F907F906F905F904F905F
:1039B0003F902F900895FC010590615070400110D8
:1039C000D8F7809590958E0F9F1F0895FC01615048
:1039D000704001900110D8F7809590958E0F9F1F31
:1039E00008950F931F93CF93DF93FB01238121FD54
:1039F00003C08FEF9FEF28C022FF16C0468157817A
:103A0000248135814217530744F4A081B1819D017F
:103A10002F5F3F4F318320838C93268137812F5F27
:103A20003F4F3783268310C0EB01092F182F0084E6
:103A3000F185E02D1995892BE1F68E819F81019604
:103A40009F838E83812F902FDF91CF911F910F91B4
:103A50000895FA01AA27283051F1203181F1E89424
:103A60006F936E7F6E5F7F4F8F4F9F4FAF4FB1E071
:103A70003ED0B4E03CD0670F781F891F9A1FA11D6C
:103A8000680F791F8A1F911DA11D6A0F711D811D6D
:103A9000911DA11D20D009F468943F912AE0269F32
:103AA00011243019305D3193DEF6CF010895462F91
:103AB0004770405D4193B3E00FD0C9F7F6CF462F72
:103AC0004F70405D4A3318F0495D31FD40524193DB
:103AD00002D0A9F7EACFB4E0A69597958795779598
:103AE0006795BA95C9F700976105710508959B011F
:103AF000AC010A2E06945795479537952795BA95A8
:103B0000C9F7620F731F841F951FA01D0895F894B5
:023B1000FFCFE5
:103B120038033803380338033803380338033803CB
:103B220053756E000000000000000000000000005D
:103B320000000000000000004D6F6E000000000059
:103B42000000000000000000000000000000000073
:103B52005475650000000000000000000000000035
:103B62000000000000000000576564000000000033
:103B72000000000000000000000000000000000043
:103B82005468750000000000000000000000000002
:103B92000000000000000000467269000000000002
:103BA2000000000000000000000000000000000013
:103BB20053617400000000000000000000000000DB
:103BC2000000000000000000A015FFFF00006605D5
:103BD20080005E00BC0077010000000074025B0CF4
:103BE2000D02BA023E021C02300200000000E8038D
:103BF200B90317048D03B1039D038E030000000077
:103C02004D035B0C17041604830A39038E046F04F8
:103C120056657273696F6E2025642E253032642ECC
:103C220025303264000D0A00442E412E542E452EBA
:103C320020446973706C6179005254432069732087
:103C42004E4F542072756E6E696E67210054656D19
:103C5200703A20004261636B6C69676874204F6E32
:103C62000043757272656E742072656164696E6775
:103C72002066726F6D2073656E736F723A20006EEC
:103C8200616E00696E66006F766600525443206969
:103C9200732072756E6E696E672E0043757272655F
:103CA2006E742074696D653A200052544320697322
:0E3CB200206E6F742072756E6E696E672E0044
:00000001FF
