:100000009AC10000C9C10000C7C10000C5C10000FD
:10001000C3C10000C1C10000BFC10000BDC10000DC
:10002000BBC10000B9C10000B7C10000B5C10000EC
:10003000B3C10000B1C10000AFC10000ADC10000FC
:10004000ABC10000A9C10000A7C10000A5C100000C
:10005000A3C10000A1C100009FC1000040C4000076
:100060009BC100000C94FE090C94D50995C10000B9
:1000700093C1000091C100008FC100008DC100003C
:100080008BC1000089C1000087C1000085C100004C
:1000900083C1000081C100007FC100006BC6000069
:1000A0007BC1000079C1000077C1000075C100006C
:1000B00073C1000071C100006FC100006DC100007C
:1000C0006BC1000069C1000067C1000065C100008C
:1000D00063C1000061C100005FC100005DC100009C
:1000E0005BC100009A039D038C0390039403D40327
:1000F000A103A503AB03AF03B303B903BD03C1035E
:10010000D403C703CB03CF03005EBCE2613FDD83B2
:10011000C29C7E20A3FD1F419DC3217FFCA2401EE7
:100120005F01E3BD3E6082DC237D9FC1421CFEA0D7
:10013000E1BF5D0380DE3C62BEE0025CDF81633DC7
:100140007C22C09E1D43A1FF4618FAA427799BC5B7
:1001500084DA3866E5BB5907DB856739BAE40658A7
:100160001947A5FB7826C49A653BD987045AB8E697
:10017000A7F91B45C6987A24F8A6441A99C7257B87
:100180003A6486D85B05E7B98CD2306EEDB3510F77
:100190004E10F2AC2F7193CD114FADF3702ECC9267
:1001A000D38D6F31B2EC0E50AFF1134DCE90722C57
:1001B0006D33D18F0C52B0EE326C8ED0530DEFB147
:1001C000F0AE4C1291CF2D73CA947628ABF5174937
:1001D0000856B4EA6937D58B5709EBB536688AD427
:1001E00095CB2977F4AA4816E9B7550B88D6346A17
:1001F0002B7597C94A14F6A8742AC896154BA9F707
:10020000B6E80A54D7896B35000021002400270086
:100210002A002D0030003300010100000401070115
:100220000A0100002200250028002B002E003100CA
:10023000340002010000050108010B0100000A0B57
:1002400002090C0D0E080703040100000000000065
:10025000000000000000000000000000000000009E
:10026000000000000000000012111000000000005B
:10027000000000000000000000000000000000007E
:1002800000001F1C1F1E1F1E1F1F1E1F1E1F000001
:1002900020002300260029002C002F00320000013E
:1002A0000000030106010901050505050705080809
:1002B0000808020202020A0A0808040404040101F0
:1002C0000101010101010303030303030303040705
:1002D00007070C0C0C0C0C0C0C0C0202020206069C
:1002E0000606060606060B0B0B0B0B0B0B0B01028F
:1002F0001020200808102040102040800201020138
:1003000008040201010204081020408080402010EF
:100310000804020180040201804020100804020148
:1003200008040201010204081020408001020408B0
:1003300010204080AA0F11241FBECFEFD1E2DEBFF4
:10034000CDBF00E00CBF13E0A0E0B2E0E0EBF5E2CF
:1003500000E00BBF02C007900D92AC33B107D9F794
:1003600024E0ACE3B3E001C01D92AF3DB207E1F77A
:1003700011E0CBE9D1E000E006C021970109802F10
:10038000FE010E94CA12CA39D10780E00807A9F706
:100390000E948D0C0C94D61233CEFC01538D448DEB
:1003A000252F30E0842F90E0821B930B541710F020
:1003B000CF96089501970895FC01918D828D98172D
:1003C00061F0828DDF01A80FB11D5D968C91928D39
:1003D0009F5F9F73928F90E008958FEF9FEF089536
:1003E000FC01918D828D981731F0828DE80FF11DFF
:1003F000858D90E008958FEF9FEF0895FC01918D1A
:10040000228D892F90E0805C9F4F821B91098F7312
:100410009927089580E090E0892B19F05DD681112D
:1004200025C080E090E0892B41F080E090E0892BAE
:1004300021F00E94000081111CC080E090E0892B17
:1004400041F080E090E0892B21F00E9400008111B2
:1004500013C080E090E0892BA1F080E090E0892B30
:1004600081F00E94000081110AC008950E940000DE
:10047000D8CF0E940000E1CF0E940000EACF0C9488
:10048000000008953FB7F894809188039091890304
:10049000A0918A03B0918B0326B5A89B05C02F3F7E
:1004A00019F00196A11DB11D3FBFBA2FA92F982F9A
:1004B0008827820F911DA11DB11DBC01CD0142E015
:1004C000660F771F881F991F4A95D1F708950895E1
:1004D00085ED8093BC008091BC0084FDFCCF109220
:1004E000D803089540915E03262F30E0240F311D7C
:1004F00021323105DCF42091D8032430C9F4FC0109
:1005000080E090E0861758F430915E032191DC0181
:10051000A45CBC4FA30FB11D2C930196F3CF809127
:100520005E03680F60935E0380E0089581E00895A4
:1005300082E008950895E091910380919003E81777
:1005400030F4F0E0EE56FC4F808190E008958FEF9C
:100550009FEF08959091910380919003981750F424
:10056000E92FF0E0EE56FC4F208130E09F5F909342
:10057000910302C02FEF3FEFC901089580919003CE
:1005800090E020919103821B91090895CF92DF9210
:10059000EF92FF920F931F93CF93DF937C01262F4F
:1005A000972F8A018091D903882391F0C62FD72FE6
:1005B0006E01C40ED51ECC15DD0569F06991D70119
:1005C000ED91FC910190F081E02DC7011995F3CFD9
:1005D000642F822F87DFC801DF91CF911F910F9188
:1005E000FF90EF90DF90CF900895CF93DF931F920D
:1005F000CDB7DEB769832091D9032223D1F02091B2
:10060000FC03203240F021E030E0FC013383228300
:1006100080E090E014C08091DA03E82FF0E0E5522A
:10062000FC4F998190838F5F8093DA038093FC0362
:1006300004C061E0CE01019655DF81E090E00F90AB
:10064000DF91CF910895089580E090E008950E9491
:10065000D212FC01848DDF01A80FB11DA35ABF4F38
:100660002C91848D90E001968F739927848FA689B1
:10067000B7892C93A089B1898C9180648C93938DD8
:10068000848D981306C00288F389E02D80818F7DC8
:1006900080830895CF93DF93EC01888D8823C1F088
:1006A000EA89FB89808185FD05C0A889B9898C917B
:1006B00086FD0EC00FB607FCF5CF808185FFF2CF17
:1006C000A889B9898C9185FFEDCFCE01C2DFE8CF33
:1006D000DF91CF910895362F90E0FC01E45CFD4F4F
:1006E0004491FC01E251FD4F2491FC01E855FD4F7E
:1006F0009491992309F46BC0442309F455C050E048
:10070000FA013197E231F10508F04EC08827EE5822
:10071000FF4F8F4F0C94CA12809180008F7707C0D3
:10072000809180008F7D03C080918000877F8093BF
:1007300080003AC084B58F7702C084B58F7D84BDB8
:1007400033C08091B0008F7703C08091B0008F7D5F
:100750008093B00029C0809190008F7707C080916E
:1007600090008F7D03C080919000877F80939000E0
:100770001BC08091A0008F7707C08091A0008F7D63
:1007800003C08091A000877F8093A0000DC080915E
:1007900020018F7707C0809120018F7D03C0809159
:1007A0002001877F80932001E92FF0E0EE0FFF1FEB
:1007B000EE5DFD4FA591B4918FB7F894EC91311196
:1007C00003C020952E2301C02E2B2C938FBF08959C
:1007D000CF93DF93EC0160E08E817DDF61E08E815D
:1007E0007ADF60E08E8177DF8BE891E00197F1F7A7
:1007F000DF91CF910895CF93DF9390E0FC01E25118
:10080000FD4F2491FC01E855FD4F8491882361F14F
:1008100090E0880F991FFC01E85FFD4FC591D491CE
:10082000FC01EE5DFD4FA591B491611109C09FB728
:10083000F8948881209582238883EC912E230BC025
:10084000623061F49FB7F8943881822F80958323BA
:100850008883EC912E2B2C939FBF06C08FB7F89402
:10086000E8812E2B28838FBFDF91CF9108958F923F
:100870009F92AF92BF92CF92DF92EF92FF926B0165
:100880007C0100DE4B015C01C114D104E104F104E0
:10089000E9F0F8DDDC01CB0188199909AA09BB0947
:1008A000883E9340A105B10578F321E0C21AD10832
:1008B000E108F10888EE880E83E0981EA11CB11CA7
:1008C000C114D104E104F10421F7DECFFF90EF90D1
:1008D000DF90CF90BF90AF909F908F9008951F9220
:1008E0000F920FB60F9211242F933F938F939F93E4
:1008F000AF93BF938091840390918503A091860369
:10090000B09187033091830323E0230F2D3720F428
:100910000196A11DB11D05C026E8230F0296A11D59
:10092000B11D209383038093840390938503A09348
:100930008603B09387038091880390918903A091E7
:100940008A03B0918B030196A11DB11D809388038A
:1009500090938903A0938A03B0938B03BF91AF91C7
:100960009F918F913F912F910F900FBE0F901F90ED
:100970001895CF92DF92EF92FF920F931F93CF9330
:10098000DF93EC0181E08093D90388E68093FB0339
:100990001092DA031092FC0360E08AE994E025DE0D
:1009A00081E0F3D587E090E04DD68AE994E0D2DD8E
:1009B0008F77982F92959F701AEF082F919F000DB7
:1009C00011248AE994E0C6DD9C01332794E0359533
:1009D00027959A95E1F7F82E129FF00C11248AE9D9
:1009E00094E0B8DD9C01332744E0359527954A957E
:1009F000E1F7E82E129FE00C11248AE994E0AADDC9
:100A00008AE994E0A7DD9C01332754E035952795CA
:100A10005A95E1F7D82E129FD00C11248AE994E060
:100A200099DD9C01332764E0359527956A95E1F7B8
:100A3000C82E129FC00C11248AE994E08BDD9C0122
:100A4000332774E0359527957A95E1F7129F800D4D
:100A500011248883C982DA82EB82FC820D83CE0165
:100A6000DF91CF911F910F91FF90EF90DF90CF908A
:100A70000895DC01E0E0615038F08D91E827F0E066
:100A8000E85FFE4FE491F7CF8E2F0895FC0190812F
:100A90000180F281E02DF8948181892B818322816C
:100AA000892F809528232283A7E0B0E01197F1F7E2
:100AB000218182238183A3E2B0E01197F1F7808145
:100AC0007894EFECF0E03197F1F7982381E009F4A6
:100AD00080E00895FC0190810180F281E02D892F52
:100AE000809560FF12C0F8942281822382838181E5
:100AF000892B8183A3E2B0E01197F1F78281982BD3
:100B00009283789487ED90E011C0F894228182233B
:100B100082838181892B8183AFEFB0E01197F1F758
:100B20008281982B928378948FE090E00197F1F77F
:100B30000895CF92DF92EF92FF920F931F93CF937E
:100B4000DF931F92CDB7DEB76C01E62E08E010E010
:100B5000FF24F39461E08F2D8E2109F460E0C6013B
:100B60004983B8DFFF0C01501109498101151105B6
:100B700089F7411115C0F894D6011196ED91FC91B9
:100B8000129791818C918095892381831196ED91A3
:100B9000FC91129792818C9180958923828378941D
:100BA0000F90DF91CF911F910F91FF90EF90DF9009
:100BB000CF900895CF92DF92EF92FF920F931F9301
:100BC000CF93DF931F92CDB7DEB78C01F62E40E0B6
:100BD00065E57983AEDFCF2C7981D72E760188E069
:100BE000E80EF11CF60161916F0140E0C801A1DF40
:100BF000CE14DF04B9F70F90DF91CF911F910F91C1
:100C0000FF90EF90DF90CF900895FC0190810180DC
:100C1000F281E02DF8948181292F20958223818310
:100C200078948DE743E050E0815021F1DA0111978B
:100C3000F1F730813923C1F3F894828182238283D2
:100C40008181892B81837894ABE7B7E01197F1F725
:100C5000F894818128232183A3E1B1E01197F1F772
:100C60008081982381E009F080E07894E3E6F6E063
:100C70003197F1F70895CF92DF92EF92FF920F93A1
:100C80001F93CF93DF937C016C0187E0C80ED11CCA
:100C9000C0E0D0E0062F10E0B8010C2E02C0759520
:100CA00067950A94E2F76170F60181916F0113DD97
:100CB0002196C430D10581F7C701DF91CF911F91F3
:100CC0000F91FF90EF90DF90CF9082CDCF92DF9287
:100CD000EF92FF920F931F93CF93DF93EC01F62EC9
:100CE000642F8C81F8DC8D818F3F11F060E0F3DCA4
:100CF0008F850F2D10E084FF23C06E0187E0C80EA2
:100D0000D11CE12CF12CB8010E2C02C07595679511
:100D10000A94E2F76170F60181916F01DCDCFFEF6C
:100D2000EF1AFF0A88E0E816F10469F7CE01DF91B7
:100D3000CF911F910F91FF90EF90DF90CF9048CD12
:100D4000B80184E0759567958A95E1F7CE0193DF48
:100D50006F2DCE01DF91CF911F910F91FF90EF90FA
:100D6000DF90CF9088CF41E0B1DF81E090E008953F
:100D700040E0ACCF1F920F920FB60F9211240BB62A
:100D80000F922F933F934F935F936F937F938F9324
:100D90009F93AF93BF93EF93FF938091B900887FA8
:100DA000803609F49CC068F5883209F45BC090F481
:100DB000803109F454C038F4882309F4F6C088302F
:100DC00009F44DC0F5C0883109F44CC0803209F4F3
:100DD0005DC0EEC0803409F468C048F4803309F483
:100DE00055C0883309F0E4C08093D603D8C080355D
:100DF00009F44FC0883509F45DC0883409F0D8C0C3
:100E0000D6C0883909F4C7C0A8F4883709F467C088
:100E100038F4883609F463C0803709F460C0C8C06C
:100E2000883809F4B8C0803909F45FC0803809F007
:100E3000BFC05BC0803B09F486C038F4803A09F437
:100E400066C0883A09F47FC0B3C0803C09F4A7C0EB
:100E5000883C09F4A4C0883B09F48AC0A9C08091E9
:100E6000B30310C09091D5038091D403981770F507
:100E7000E091D50381E08E0F8093D503F0E0EC5430
:100E8000FC4F80818093BB0085EC86C08093D603A5
:100E90008EC0E091D50381E08E0F8093D5038091C1
:100EA000BB00F0E0EC54FC4F80839091D50380911F
:100EB000D4036EC0E091D50381E08E0F8093D503FB
:100EC0008091BB00F0E0EC54FC4F80838091D7030D
:100ED00081116DC081E08093B20384EA61C083E038
:100EE0008093D80310928203CFCF80918203803207
:100EF00008F051C0E091820381E08E0F809382035D
:100F00008091BB00F0E0EE59FC4F8083BDCF85ECB3
:100F10008093BC001092D80380918203803230F419
:100F2000E0918203F0E0EE59FC4F10826091820361
:100F300070E0E0916003F091610382E693E019951F
:100F40001092820335C084E08093D80310925F032F
:100F500010925E03E0915C03F0915D03199580911E
:100F60005E03811105C081E080935E0310923C0313
:100F7000E0915F0381E08E0F80935F03F0E0E45C1B
:100F8000FC4F80818093BB0090915F0380915E0352
:100F9000981708F479CF85E88093BC0009C085ECE8
:100FA0008093BC001092D80303C01092D60390DA4D
:100FB000FF91EF91BF91AF919F918F917F916F9131
:100FC0005F914F913F912F910F900BBE0F900FBEED
:100FD0000F901F901895DC01ED91FC910190F0812C
:100FE000E02D1994CF92DF92EF92FF920F931F930F
:100FF000CF93DF936C017A018B01C0E0D0E0CE1576
:10100000DF0589F0D8016D918D01D601ED91FC913C
:101010000190F081E02DC6011995892B11F47E0114
:1010200002C02196ECCFC701DF91CF911F910F91A4
:10103000FF90EF90DF90CF900895CF93DF93CDB7DF
:10104000DEB729970FB6F894DEBF0FBECDBFFC0107
:101050002081203109F1BE016F5F7F4F42D3882389
:1010600071F068E0CE01019604DD9985891307C00F
:1010700008C0803458F08F3569F08F3769F080E010
:101080000CC08D818F33A9F78AE007C08F31B9F783
:1010900089E003C08BE001C08CE029960FB6F8947C
:1010A000DEBF0FBECDBFDF91CF91089561157105F1
:1010B00079F0FB0101900020E9F73197AF01461B61
:1010C000570BDC01ED91FC910280F381E02D199426
:1010D00080E090E00895EACF8DEF93E08FD921E092
:1010E000892B09F420E0822F0895EF92FF920F934D
:1010F0001F93CF93DF93EC0181E0888F9B8D8C8DC4
:10110000981305C0E889F989808185FD23C0F62EF2
:101110000B8D10E00F5F1F4F0F731127E02E8C8D8A
:10112000E8120BC00FB607FCFACFE889F989808175
:1011300085FFF5CFCE018DDAF2CF8B8DFE01E80F62
:10114000F11DE35AFF4FF0820B8FEA89FB89808102
:10115000806207C0EE89FF896083E889F989808110
:101160008064808381E090E0DF91CF911F910F91A7
:10117000FF90EF9008954F925F926F927F92EF925F
:10118000FF920F931F93CF93DF93CDB7DEB7A19755
:101190000FB6F894DEBF0FBECDBF7C01FA01CB01C4
:1011A00019A2223008F42AE08E010F5D1F4F422E53
:1011B000512C612C712CBF01A30192010E94A81235
:1011C000F901CA01015011096A3014F4605D01C0CF
:1011D000695CD8016C93232B242B252B61F7B80174
:1011E000C70164DFA1960FB6F894DEBF0FBECDBF76
:1011F000DF91CF911F910F91FF90EF907F906F90B3
:101200005F904F9008954F925F926F927F928F926E
:101210009F92AF92BF92CF92DF92EF92FF92CF93C5
:10122000DF93EC016A017B01B22E9A01AB01C70189
:10123000B6010E947D12882319F06EED72E026C07F
:1012400026013701E89477F82FEF3FEF4FE75FE78C
:10125000C301B2010E947D1281110CC02FEF3FEF3C
:101260004FE75FE7C301B20197D718161CF462EE8F
:1012700072E00CC02FEF3FEF4FE75FE4C701B6010C
:101280000E941612181694F466EE72E0CE01DF91F9
:10129000CF91FF90EF90DF90CF90BF90AF909F9055
:1012A0008F907F906F905F904F9000CF2FEF3FEF28
:1012B0004FE75FECC701B6016FD787FDE5CF20E0B0
:1012C00030E0A901C701B60167D787FF09C06DE209
:1012D000CE0181DE4C01F7FAF094F7F8F09402C0E9
:1012E000812C912CA12C60E070E080E09FE3AB1496
:1012F00039F020E030E040E251E452D7A394F7CF38
:101300009B01AC01C701B601E3D62B013C01B0D76C
:101310006B017C01D9D79B01AC01C301B201D7D6C7
:101320002B013C012AE0B701A601CE0124DF7C019C
:10133000E80CF91CBB2029F06EE2CE014CDEE80E71
:10134000F91EDB2CDD2009F120E030E040E251E421
:10135000C301B2010E941A122B013C0189D74B0133
:10136000A12CB12C2AE0B501A401CE0104DFE80EC6
:10137000F91EC501B401A8D79B01AC01C301B2019C
:10138000A6D62B013C01DA94DDCFC701DF91CF91C6
:10139000FF90EF90DF90CF90BF90AF909F908F9095
:1013A0007F906F905F904F9008951F920F920FB6AD
:1013B0000F9211240BB60F922F933F934F935F938D
:1013C0006F937F938F939F93AF93BF93EF93FF930D
:1013D0008DEF93E03ED9FF91EF91BF91AF919F9137
:1013E0008F917F916F915F914F913F912F910F90CE
:1013F0000BBE0F900FBE0F901F9018951F920F926B
:101400000FB60F9211240BB60F922F938F939F93C9
:10141000EF93FF93E0910D04F0910E048081E09131
:101420001304F091140482FD12C09081809116047F
:101430008F5F8F7320911704821751F0E09116048B
:10144000F0E0E350FC4F958F8093160401C080813B
:10145000FF91EF919F918F912F910F900BBE0F9065
:101460000FBE0F901F901895EF92FF920F931F934E
:10147000CF93DF93EC01623018F08F8588608F87FF
:101480006B8B1C8A80E48D8B80E18E8B80E58F8B4B
:1014900061E08C81B0D98D818F3F11F061E0ABD9D3
:1014A00061E08E81A8D97E0187E0E80EF11C00E0A2
:1014B00010E08F8584FD03C084E090E002C088E0E6
:1014C00090E00817190744F461E0F70181917F016A
:1014D00092D90F5F1F4FEDCF8BE39DE00197F1F79E
:1014E00060E08C81F8D860E08E81F5D88D818F3FE7
:1014F00011F060E0F0D86F8564FD19C063E0CE01A3
:10150000BADB0BE416E4C8010197F1F763E0CE0102
:10151000B2DBC8010197F1F763E0CE01ACDB83E5F4
:1015200092E00197F1F762E0CE01A5DB13C06062A3
:10153000CE011EDC8BE496E40197F1F76F856062C3
:10154000CE0116DC83E592E00197F1F76F856062CA
:10155000CE010EDC6F856062CE010ADC84E0888BF0
:101560006CE0CE0105DC61E0CE0102DC8BE39FE1A3
:101570000197F1F782E0898B66E0CE01DF91CF9190
:101580001F910F91FF90EF90F3CB382F2091FC0328
:101590009091FB03213208F049C08091D80381115A
:1015A000FCCF42E04093D8033093D7033FEF309312
:1015B000D6031092D5032093D403ABEDB3E044EBF4
:1015C00053E0FA013E2F341B321718F43D9131934A
:1015D000F9CF1092B3032091B303990F922B9093FC
:1015E000B3039091B203913061F41092B2039091E1
:1015F000B3039093BB009091BC0093FDF8CF95ECA2
:1016000001C095EE9093BC009091D8039230E1F325
:101610009091D6039F3F79F08091D603803241F0BC
:101620008091D603803331F084E005C081E003C0AF
:1016300082E001C083E01092DA031092FC03109262
:10164000D90308959091D8039111FCCF813208F00D
:1016500080E291E09093D8039093D7032FEF2093EB
:10166000D6031092D503280F2093D4039093B3038D
:101670009091B303906D9093B3039091B203913026
:1016800061F41092B2039091B3039093BB009091D8
:10169000BC0093FDF8CF95EC01C095EE9093BC0093
:1016A0009091D8039130E1F39091D503981710F4FD
:1016B0008091D503A4EBB3E022E933E0F9019E2F3A
:1016C000921B981718F49D919193F9CF1092910362
:1016D000809390030895462F50E060E070E02AE088
:1016E0004ACDAF92BF92CF92DF92EF92FF920F93CB
:1016F0001F93CF93DF93EC018B018091C3049091F2
:10170000C40483DA882381F1BE018091C3049091DF
:10171000C40450DA40E06EEB8091C3049091C4049D
:1017200008DAE801680189E0C80ED11CA090C30462
:10173000B090C40488E0E82EF12C01E010E0C5016F
:10174000A5D98111102B000F81E0E81AF108B9F733
:101750001993CC15DD0551F78091C3049091C40411
:1017600054DA91E0813009F090E0892FDF91CF9138
:101770001F910F91FF90EF90DF90CF90BF90AF90AF
:1017800008958091C3049091C4043FDA40E06CEC6A
:101790008091C3049091C404CCD94091BE0464E408
:1017A0008091C3049091C404C4D98091C00488235B
:1017B000A1F0E091BF04E950E33040F4F0E0EE0F17
:1017C000FF1FE855FD4F6081718102C06EEE72E02F
:1017D000072E000C880B990B4AC80895AF92BF9250
:1017E000CF92DF92EF92FF920F931F93CF93DF93ED
:1017F0001F92CDB7DEB75C01D62EE72EFC018585A2
:10180000811104C0C50101DA811106C0F5011386FA
:101810001586148680E061C040E060EFC50189D97B
:1018200001E0F12CC12C11E0C50130D9682FC501B0
:1018300069832CD96981613019F48130B9F432C0DF
:101840004F2D50E068131BC0F5018385181730F445
:10185000E40FF51F8381802349F402C0181731F08B
:1018600060E0193058F4F501148708C0F501EF0D58
:10187000F11D8381802B838361E009C0C12EF501B6
:10188000E40FF51F9381802F809589238383C50101
:1018900021D91F5F000F11F4F39401E0F7E0FF1569
:1018A00008F0C2CF113408F4B1CFF501C386C110DE
:1018B00002C081E08587F5018381882309F4A6CFE2
:1018C000D5011396ED2DFE2D9501255F3F4F8D918E
:1018D0008193A217B307D9F781E00F90DF91CF91E1
:1018E0001F910F91FF90EF90DF90CF90BF90AF903E
:1018F0000895643008F063E09091B904691710F01E
:101900006FEF690FE62FF0E0EA55FB4F9489682FDF
:10191000690F606886EA94E02BCACF93DF93CDB756
:10192000DEB761970FB6F894DEBF0FBECDBF7894D7
:1019300084B5826084BD84B5816084BD85B58260D4
:1019400085BD85B5816085BD80916E008160809385
:101950006E001092810080918100826080938100EE
:1019600080918100816080938100809180008160FE
:10197000809380008091B10084608093B100809159
:10198000B00081608093B00080919100826080936C
:1019900091008091910081608093910080919000EE
:1019A0008160809390008091A10082608093A1006B
:1019B0008091A10081608093A1008091A00081604E
:1019C0008093A00080912101826080932101809109
:1019D00021018160809321018091200181608093A9
:1019E000200180917A00846080937A0080917A004F
:1019F000826080937A0080917A00816080937A007F
:101A000080917A00806880937A001092C10062E031
:101A100086EA94E029DDE0910D04F0910E0482E065
:101A20008083E0910904F0910A041082E0910B0494
:101A3000F0910C048FEC808310921504E091110456
:101A4000F091120486E08083E0910F04F09110047D
:101A5000808180618083E0910F04F0911004808187
:101A600088608083E0910F04F09110048081806889
:101A70008083E0910F04F091100480818F7D80833A
:101A800010929103109290031092DA031092FC03CB
:101A90001092D80311E01093D7031092B20361E0C3
:101AA00084E10E946B0361E085E10E946B038091F9
:101AB000B9008E7F8093B9008091B9008D7F8093AB
:101AC000B90088E48093B80085E48093BC0010934B
:101AD000D90308E60093FB031092DA031092FC038B
:101AE00060E08AE994E00E94F50281E04EDD81E049
:101AF00090E0A8DD8AE994E00E94AA0287FF3CC03A
:101B00006AEE72E08DEF93E0D1DA6EEF72E08DEF66
:101B100093E0CCDA1093D9030093FB031092DA031D
:101B20001092FC0360E08AE994E00E94F50260E014
:101B30008AE994E00E94F50262E18AE994E00E9459
:101B4000F50261E28AE994E00E94F50260E08AE928
:101B500094E00E94F50261E38AE994E00E94F502B4
:101B600060E18AE994E00E94F50267E18AE994E085
:101B70000E94F50281E009DDE091C304F091C40404
:101B8000138615861486DF011B9633961E92AE17B8
:101B9000BF07E1F71092C20411E0BE01665F7F4FFC
:101BA0008091C3049091C40419DE882309F44DC0C8
:101BB00067E0CE010A960E94390599898913EDCF15
:101BC0008091BE04811126C08091C3049091C40409
:101BD0001CD8BE01665F7F4F8091C3049091C404FE
:101BE0000E94DA0540E064EB8091C3049091C40444
:101BF0000E9499058091C3049091C4040E944605F7
:101C0000082F8091C3049091C4040E94050600230C
:101C100009F449C1BE016F5F7F4FCE010A9661DDB5
:101C20000091BF04CE010A9608DA801718F480915B
:101C3000BF0403C0CE010A9600DA8093BF048091EE
:101C4000C2048F5F8093C204A8CF21E082E892E0B3
:101C5000D22ED81A0DE611E0F7E0EF2EF12CA8E114
:101C6000CA2E61E073E08DEF93E035DA8ADD68E239
:101C700073E08DEF93E02FDA6EEF72E08DEF93E07B
:101C800015DA6DE273E08DEF93E025DA40918C0375
:101C900050918D0360918E0370918F0322E08DEF40
:101CA00093E0B1DA6EEF72E08DEF93E0FFD9CE01F1
:101CB00001960E94B904498150E04053584F052EC7
:101CC000000C660B770B2AE08DEF93E054DA6FE29D
:101CD0008DEF93E080D96A818DEF93E0FCDC6FE2B9
:101CE0008DEF93E078D96B818DEF93E0F4DC64E3C2
:101CF00073E08DEF93E0EFD95A814981242F30E0D2
:101D00008B8190E0E2E8F2E06D2D6E0F651728F40C
:101D10006491860F911D3196F7CF533018F04370C0
:101D200009F40196209FB001219F700D309F700D26
:101D300011246B5F7F4F2D5F3F4FA901569547954B
:101D4000569547959B01240F351F820F931FB701AE
:101D5000D8D3C89EB001C99E700D112460507E4F2B
:101D60008DEF93E0B8D967E373E08DEF93E0B3D9DB
:101D70006C818DEF93E0AFDC6AE38DEF93E02BD9BC
:101D80006D818DEF93E0A7DC6AE38DEF93E023D9BB
:101D90006E818DEF93E09FDC6EEF72E08DEF93E04C
:101DA00085D961E080E0A5DD6DE273E086EA94E02C
:101DB00092D940918C0350918D0360918E03709164
:101DC0008F0322E086EA94E01EDADBDCE091C304B4
:101DD000F091C404138615861486DF011B96CF018B
:101DE00003961E92A817B907E1F7BE01665F7F4F01
:101DF000CF01F4DC882349F067E0CE010A960E9407
:101E000039059989891709F451C06AE979E984E4A7
:101E100093EC60938C0370938D0380938E03909367
:101E20008F0360E080E065DDCE0101960E94B90479
:101E30006C8186EA94E04FDC6AE386EA94E0CBD8D2
:101E40006D8186EA94E047DC6AE386EA94E0C3D8D1
:101E50006E8186EA94E03FDC8D818A3060F460E038
:101E600084E047DD6AE373E086EA94E034D96D816B
:101E700086EA94E030DC8E818A3060F460E086E0AF
:101E800038DD6AE373E086EA94E025D96E8186EA5C
:101E900094E021DC64EF71E080E090E00E94370480
:101EA0000E940A02DECE1093BE04B4CEBE016F5F64
:101EB0007F4FCE010A9615DC882309F448C068E0FC
:101EC000CE0101960E9439059985891340C0698128
:101ED00088E0689FB00111248A81282F30E0322FDA
:101EE0002227330F330F330F262B372B8A85803170
:101EF00061F5688570E08F81AB01481B5109CA010B
:101F00009695982F8827979587950FD360517109DB
:101F1000207F53E0220F331F5A95E1F7620F731FA2
:101F2000613854EE75070CF470CF072E000C880B47
:101F3000990BCCD126E636E646E65CE37BD220E080
:101F400030E040E052E4C4D064CFB901E9CF60E8AA
:101F500074EEE6CF109200041092FF0388EE93E037
:101F6000A0E0B0E08093010490930204A0930304E6
:101F7000B093040422EB32E03093FE032093FD0380
:101F800025EC30E030930A042093090424EC30E07F
:101F900030930C0420930B0420EC30E030930E04BB
:101FA00020930D0421EC30E03093100420930F04B3
:101FB00022EC30E0309312042093110426EC30E040
:101FC00030931404209313041092160410921704F3
:101FD000109218041092190410929D0410929C04FF
:101FE00080939E0490939F04A093A004B093A104B7
:101FF00084EC92E090939B0480939A0460E08AE0E2
:102000000E94FB03E8EFF2E0E491E093D104E2EBFD
:10201000F2E0E491F0E0EE0FFF1FE257FD4F8591F3
:1020200094919093D3048093D2041092DC04109284
:10203000DE041092DD04ECEDF4E0129284E0E43D65
:10204000F807D9F787E692E09093D0048093CF0405
:1020500081ED94E09093C4048093C3041092C20471
:102060001092BE0489E08093BF0481E08093C00495
:102070008093C1041092A9041092A80486ED92E006
:102080009093A7048093A6048CE08093AA048FEF1A
:102090008093AB048BE08093AC0485E08093AD0427
:1020A00084E08093AE0483E08093AF0482E0809369
:1020B000B0041092B1041092B2041092B3041092C2
:1020C000B4041092B50461E086EA94E0CDC950589A
:1020D000BB27AA270ED070C161D130F066D120F0A5
:1020E00031F49F3F11F41EF456C10EF4E095E7FB66
:1020F0004CC1E92F72D180F3BA17620773078407C6
:10210000950718F071F49EF58AC10EF4E0950B2E38
:10211000BA2FA02D0B01B90190010C01CA01A00139
:102120001124FF27591B99F0593F50F4503E68F194
:102130001A16F040A22F232F342F4427585FF3CFD5
:10214000469537952795A795F0405395C9F77EF4A6
:102150001F16BA0B620B730B840BBAF09150A1F0EF
:10216000FF0FBB1F661F771F881FC2F70EC0BA0F75
:10217000621F731F841F48F4879577956795B795FD
:10218000F7959E3F08F0B3CF9395880F08F09927F5
:10219000EE0F979587950895D4D008F481E00895BF
:1021A0000CD00AC102D140F0F9D030F021F45F3FE9
:1021B00019F0EBC0511134C1EEC00FD198F399233F
:1021C000C9F35523B1F3951B550BBB27AA276217FB
:1021D0007307840738F09F5F5F4F220F331F441F40
:1021E000AA1FA9F333D00E2E3AF0E0E830D0915078
:1021F0005040E695001CCAF729D0FE2F27D0660F65
:10220000771F881FBB1F261737074807AB07B0E8A3
:1022100009F0BB0B802DBF01FF2793585F4F2AF0B9
:102220009E3F510568F0B1C0FBC05F3FECF3983EA4
:10223000DCF3869577956795B795F7959F5FC9F716
:10224000880F911D9695879597F90895E1E0660F9F
:10225000771F881FBB1F621773078407BA0720F018
:10226000621B730B840BBA0BEE1F88F7E095089581
:10227000BCD088F09F5790F0B92F9927B751A0F0A4
:10228000D1F0660F771F881F991F1AF0BA95C9F70A
:1022900012C0B13081F0C3D0B1E00895C0C0672F43
:1022A000782F8827B85F39F0B93FCCF386957795BA
:1022B0006795B395D9F73EF49095809570956195A3
:1022C0007F4F8F4F9F4F0895E89409C097FB3EF4CE
:1022D00090958095709561957F4F8F4F9F4F992373
:1022E000A9F0F92F96E9BB279395F69587957795F1
:1022F0006795B795F111F8CFFAF4BB0F11F460FFB1
:102300001BC06F5F7F4F8F4F9F4F16C0882311F008
:1023100096E911C0772321F09EE8872F762F05C01C
:10232000662371F096E8862F70E060E02AF09A95B7
:10233000660F771F881FDAF7880F9695879597F9AC
:102340000895990F0008550FAA0BE0E8FEEF161646
:102350001706E807F907C0F012161306E407F50799
:1023600098F0621B730B840B950B39F40A2661F00D
:10237000232B242B252B21F408950A2609F4A140B0
:10238000A6958FEF811D811D089597F99F6780E8BD
:1023900070E060E008959FEF80EC089500240A94B7
:1023A0001616170618060906089500240A94121630
:1023B0001306140605060895092E0394000C11F463
:1023C000882352F0BB0F40F4BF2B11F460FF04C010
:1023D0006F5F7F4F8F4F9F4F089557FD9058440F69
:1023E000551F59F05F3F71F04795880F97FB991F74
:1023F00061F09F3F79F08795089512161306140631
:10240000551FF2CF4695F1DF08C0161617061806BD
:10241000991FF1CF86957105610508940895E89498
:10242000BB2766277727CB0197F908958ADF08F441
:102430008FEF08950BD0C0CFB1DF28F0B6DF18F0D2
:10244000952309F0A2CFA7CF1124EACFC6DFA0F3CE
:10245000959FD1F3950F50E0551F629FF001729F39
:10246000BB27F00DB11D639FAA27F00DB11DAA1F58
:10247000649F6627B00DA11D661F829F2227B00DA5
:10248000A11D621F739FB00DA11D621F839FA00D30
:10249000611D221F749F3327A00D611D231F849F80
:1024A000600D211D822F762F6A2F11249F575040D7
:1024B0008AF0E1F088234AF0EE0FFF1FBB1F661F72
:1024C000771F881F91505040A9F79E3F510570F02B
:1024D0005CCFA6CF5F3FECF3983EDCF38695779513
:1024E0006795B795F795E7959F5FC1F7FE2B880F26
:1024F000911D9695879597F9089523DF880B990B81
:102500000895AA1BBB1B51E107C0AA1FBB1FA6173A
:10251000B70710F0A61BB70B881F991F5A95A9F78C
:1025200080959095BC01CD01089597FB072E16F478
:10253000009406D077FD08D0E4DF07FC05D03EF418
:10254000909581959F4F0895709561957F4F08955F
:10255000A1E21A2EAA1BBB1BFD010DC0AA1FBB1FA7
:10256000EE1FFF1FA217B307E407F50720F0A21B19
:10257000B30BE40BF50B661F771F881F991F1A9486
:1025800069F760957095809590959B01AC01BD01B0
:10259000CF010895EE0FFF1F881F8BBF0790F691A4
:1025A000E02D199481E090E0F89400C0F894FFCFFA
:1025B00053756E64617900000000000000000000A7
:1025C00000000000000000004D6F6E6461790000A3
:1025D00000000000000000000000000000000000FB
:1025E000547565736461790000000000000000000C
:1025F00000000000000000005765646E65736461B0
:102600007900000000000000000000000000000051
:102610005468757273646179000000000000000066
:10262000000000000000000046726964617900004B
:10263000000000000000000000000000000000009A
:10264000536174757264617900000000000000003D
:1026500000000000000000005E00BC0077010000E8
:1026600000007508F207CD014A03FE01DC01F0010C
:1026700000000000F502C60224039A02BE02AA026C
:102680009B0200000000B306F207240323036E61DF
:102690006E00696E66006F7666005254432069735F
:1026A000204E4F542072756E6E696E6721000D0AC0
:1026B0000052657175657374696E672074656D701D
:1026C00065726174757265732066726F6D207365D3
:1026D0006E736F72733A2000444F4E450054656D1F
:0C26E000703A2000202800292000300063
:00000001FF
