:100000009AC10000C9C10000C7C10000C5C10000FD
:10001000C3C10000C1C10000BFC10000BDC10000DC
:10002000BBC10000B9C10000B7C10000B5C10000EC
:10003000B3C10000B1C10000AFC10000ADC10000FC
:10004000ABC10000A9C10000A7C10000A5C100000C
:10005000A3C10000A1C100009FC10000BCC40000FA
:100060009BC10000F6C200000C94550995C1000028
:1000700093C1000091C100008FC100008DC100003C
:100080008BC1000089C1000087C1000085C100004C
:1000900083C1000081C100007FC10000E7C60000ED
:1000A0007BC1000079C1000077C1000075C100006C
:1000B00073C1000071C100006FC100006DC100007C
:1000C0006BC1000069C1000067C1000065C100008C
:1000D00063C1000061C100005FC100005DC100009C
:1000E0005BC100001604190408040C041004500439
:1000F0001D04210427042B042F04350439043D0476
:100100005004430447044B04005EBCE2613FDD83BE
:10011000C29C7E20A3FD1F419DC3217FFCA2401EE7
:100120005F01E3BD3E6082DC237D9FC1421CFEA0D7
:10013000E1BF5D0380DE3C62BEE0025CDF81633DC7
:100140007C22C09E1D43A1FF4618FAA427799BC5B7
:1001500084DA3866E5BB5907DB856739BAE40658A7
:100160001947A5FB7826C49A653BD987045AB8E697
:10017000A7F91B45C6987A24F8A6441A99C7257B87
:100180003A6486D85B05E7B98CD2306EEDB3510F77
:100190004E10F2AC2F7193CD114FADF3702ECC9267
:1001A000D38D6F31B2EC0E50AFF1134DCE90722C57
:1001B0006D33D18F0C52B0EE326C8ED0530DEFB147
:1001C000F0AE4C1291CF2D73CA947628ABF5174937
:1001D0000856B4EA6937D58B5709EBB536688AD427
:1001E00095CB2977F4AA4816E9B7550B88D6346A17
:1001F0002B7597C94A14F6A8742AC896154BA9F707
:10020000B6E80A54D7896B35000021002400270086
:100210002A002D0030003300010100000401070115
:100220000A0100002200250028002B002E003100CA
:10023000340002010000050108010B0100000A0B57
:1002400002090C0D0E080703040100000000000065
:10025000000000000000000000000000000000009E
:10026000000000000000000012111000000000005B
:10027000000000000000000000000000000000007E
:1002800000001F1C1F1E1F1E1F1F1E1F1E1F000001
:1002900020002300260029002C002F00320000013E
:1002A0000000030106010901050505050705080809
:1002B0000808020202020A0A0808040404040101F0
:1002C0000101010101010303030303030303040705
:1002D00007070C0C0C0C0C0C0C0C0202020206069C
:1002E0000606060606060B0B0B0B0B0B0B0B01028F
:1002F0001020200808102040102040800201020138
:1003000008040201010204081020408080402010EF
:100310000804020180040201804020100804020148
:1003200008040201010204081020408001020408B0
:1003300010204080E50F11241FBECFEFD1E2DEBFB9
:10034000CDBF00E00CBF13E0A0E0B2E0E0E6F5E2D4
:1003500000E00BBF02C007900D92A836B107D9F795
:1003600025E0A8E6B3E001C01D92AB30B207E1F78B
:1003700011E0CBE9D1E000E006C021970109802F10
:10038000FE010E94A212CA39D10780E00807A9F72E
:100390000E94DC0B0C94AE1233CEFC01538D448DC5
:1003A000252F30E0842F90E0821B930B541710F020
:1003B000CF96089501970895FC01918D828D98172D
:1003C00061F0828DDF01A80FB11D5D968C91928D39
:1003D0009F5F9F73928F90E008958FEF9FEF089536
:1003E000FC01918D828D981731F0828DE80FF11DFF
:1003F000858D90E008958FEF9FEF0895FC01918D1A
:10040000228D892F90E0805C9F4F821B91098F7312
:100410009927089580E090E0892B19F0DFD68111AB
:1004200025C080E090E0892B41F080E090E0892BAE
:1004300021F00E94000081111CC080E090E0892B17
:1004400041F080E090E0892B21F00E9400008111B2
:1004500013C080E090E0892BA1F080E090E0892B30
:1004600081F00E94000081110AC008950E940000DE
:10047000D8CF0E940000E1CF0E940000EACF0C9488
:10048000000008953FB7F8948091B4039091B503AC
:10049000A091B603B091B70326B5A89B05C02F3F26
:1004A00019F00196A11DB11D3FBFBA2FA92F982F9A
:1004B0008827820F911DA11DB11DBC01CD0142E015
:1004C000660F771F881F991F4A95D1F708950895E1
:1004D00085ED8093BC008091BC0084FDFCCF109220
:1004E0000404089540918A03262F30E0240F311D23
:1004F00021323105DCF4209104042430C9F4FC01DC
:1005000080E090E0861758F430918A032191DC0155
:10051000A859BC4FA30FB11D2C930196F3CF809126
:100520008A03680F60938A0380E0089581E008954C
:1005300082E008950895E091BD038091BC03E8171F
:1005400030F4F0E0E254FC4F808190E008958FEFAA
:100550009FEF08959091BD038091BC03981750F4CC
:10056000E92FF0E0E254FC4F208130E09F5F909350
:10057000BD0302C02FEF3FEFC90108958091BC0376
:1005800090E02091BD03821B91090895CF92DF92E4
:10059000EF92FF920F931F93CF93DF937C01262F4F
:1005A000972F8A0180910504882391F0C62FD72FB9
:1005B0006E01C40ED51ECC15DD0569F06991D70119
:1005C000ED91FC910190F081E02DC7011995F3CFD9
:1005D000642F822F87DFC801DF91CF911F910F9188
:1005E000FF90EF90DF90CF900895CF93DF931F920D
:1005F000CDB7DEB76983209105042223D1F0209185
:100600002804203240F021E030E0FC0133832283D3
:1006100080E090E014C080910604E82FF0E0E95FEC
:10062000FB4F998190838F5F809306048093280409
:1006300004C061E0CE01019655DF81E090E00F90AB
:10064000DF91CF910895089580E090E008950E9491
:10065000AA121F920F920FB60F9211240BB60F928F
:100660002F938F939F93EF93FF93E0913904F09131
:100670003A048081E0913F04F091400482FD12C071
:100680009081809142048F5F8F7320914304821781
:1006900051F0E0914204F0E0E75DFB4F958F8093CD
:1006A000420401C08081FF91EF919F918F912F9122
:1006B0000F900BBE0F900FBE0F901F901895FC016E
:1006C000848DDF01A80FB11DA35ABF4F2C91848DDB
:1006D00090E001968F739927848FA689B7892C9310
:1006E000A089B1898C9180648C93938D848D9813AB
:1006F00006C00288F389E02D80818F7D8083089574
:10070000EF92FF920F931F93CF93DF93EC0181E061
:10071000888F9B8D8C8D981305C0E889F98980811D
:1007200085FD23C0F62E0B8D10E00F5F1F4F0F735A
:100730001127E02E8C8DE8120BC00FB607FCFACF04
:10074000E889F989808185FFF5CFCE01B8DFF2CF46
:100750008B8DFE01E80FF11DE35AFF4FF0820B8FE6
:10076000EA89FB898081806207C0EE89FF89608306
:10077000E889F98980818064808381E090E0DF915D
:10078000CF911F910F91FF90EF900895CF93DF933A
:10079000EC01888D8823C1F0EA89FB89808185FD81
:1007A00005C0A889B9898C9186FD0EC00FB607FCDB
:1007B000F5CF808185FFF2CFA889B9898C9185FF1B
:1007C000EDCFCE017CDFE8CFDF91CF910895362FBA
:1007D00090E0FC01E45CFD4F4491FC01E251FD4FCF
:1007E0002491FC01E855FD4F9491992309F46BC0C5
:1007F000442309F455C050E0FA013197E231F10584
:1008000008F04EC08827EE58FF4F8F4F0C94A2126D
:10081000809180008F7707C0809180008F7D03C01A
:1008200080918000877F809380003AC084B58F7765
:1008300002C084B58F7D84BD33C08091B0008F77B6
:1008400003C08091B0008F7D8093B00029C080915B
:1008500090008F7707C0809190008F7D03C08091BA
:100860009000877F809390001BC08091A0008F77BD
:1008700007C08091A0008F7D03C08091A000877F7A
:100880008093A0000DC0809120018F7707C08091D8
:1008900020018F7D03C080912001877F80932001FC
:1008A000E92FF0E0EE0FFF1FEE5DFD4FA591B49133
:1008B0008FB7F894EC91311103C020952E2301C01D
:1008C0002E2B2C938FBF0895CF93DF93EC0160E024
:1008D0008E817DDF61E08E817ADF60E08E8177DF5F
:1008E0008BE891E00197F1F7DF91CF910895CF93D5
:1008F000DF9390E0FC01E251FD4F2491FC01E855AB
:10090000FD4F8491882361F190E0880F991FFC01CD
:10091000E85FFD4FC591D491FC01EE5DFD4FA591BF
:10092000B491611109C09FB7F89488812095822302
:100930008883EC912E230BC0623061F49FB7F8944A
:100940003881822F809583238883EC912E2B2C93E2
:100950009FBF06C08FB7F894E8812E2B28838FBFE6
:10096000DF91CF9108958F929F92AF92BF92CF92D5
:10097000DF92EF92FF926B017C0184DD4B015C0101
:10098000C114D104E104F104E9F07CDDDC01CB0108
:1009900088199909AA09BB09883E9340A105B105A8
:1009A00078F321E0C21AD108E108F10888EE880E38
:1009B00083E0981EA11CB11CC114D104E104F10410
:1009C00021F7DECFFF90EF90DF90CF90BF90AF90F8
:1009D0009F908F9008951F920F920FB60F9211243F
:1009E0002F933F938F939F93AF93BF938091B003C7
:1009F0009091B103A091B203B091B3033091AF03D2
:100A000023E0230F2D3720F40196A11DB11D05C051
:100A100026E8230F0296A11DB11D2093AF038093FA
:100A2000B0039093B103A093B203B093B30380914A
:100A3000B4039091B503A091B603B091B7030196AA
:100A4000A11DB11D8093B4039093B503A093B60389
:100A5000B093B703BF91AF919F918F913F912F9129
:100A60000F900FBE0F901F901895CF92DF92EF92CC
:100A7000FF920F931F93CF93DF93EC0181E080935C
:100A8000050488E680932704109206041092280437
:100A900060E086EC94E0A9DD81E0CCD487E090E0D2
:100AA00026D586EC94E056DD8F77982F92959F702F
:100AB0001AEF082F919F000D112486EC94E04ADD77
:100AC0009C01332794E0359527959A95E1F7F82E08
:100AD000129FF00C112486EC94E03CDD9C0133273E
:100AE00044E0359527954A95E1F7E82E129FE00CF2
:100AF000112486EC94E02EDD86EC94E02BDD9C0145
:100B0000332754E0359527955A95E1F7D82E129F53
:100B1000D00C112486EC94E01DDD9C01332764E0A9
:100B2000359527956A95E1F7C82E129FC00C1124C0
:100B300086EC94E00FDD9C01332774E03595279512
:100B40007A95E1F7129F800D11248883C982DA8299
:100B5000EB82FC820D83CE01DF91CF911F910F912B
:100B6000FF90EF90DF90CF900895DC01E0E06150BE
:100B700038F08D91E827F0E0E85FFE4FE491F7CF81
:100B80008E2F0895FC0190810180F281E02DF89470
:100B90008181892B81832281892F8095282322833B
:100BA000A7E0B0E01197F1F7218182238183A3E2CE
:100BB000B0E01197F1F780817894EFECF0E0319795
:100BC000F1F7982381E009F480E00895FC01908119
:100BD0000180F281E02D892F809560FF12C0F8948A
:100BE0002281822382838181892B8183A3E2B0E0E9
:100BF0001197F1F78281982B9283789487ED90E09A
:100C000011C0F8942281822382838181892B818380
:100C1000AFEFB0E01197F1F78281982B928378942F
:100C20008FE090E00197F1F70895CF92DF92EF9275
:100C3000FF920F931F93CF93DF931F92CDB7DEB731
:100C40006C01E62E08E010E0FF24F39461E08F2DA4
:100C50008E2109F460E0C6014983B8DFFF0C015022
:100C6000110949810115110589F7411115C0F89441
:100C7000D6011196ED91FC91129791818C918095FE
:100C8000892381831196ED91FC91129792818C9129
:100C900080958923828378940F90DF91CF911F9163
:100CA0000F91FF90EF90DF90CF900895CF92DF9259
:100CB000EF92FF920F931F93CF93DF931F92CDB7C5
:100CC000DEB78C01F62E40E065E57983AEDFCF2CF0
:100CD0007981D72E760188E0E80EF11CF60161914A
:100CE0006F0140E0C801A1DFCE14DF04B9F70F9017
:100CF000DF91CF911F910F91FF90EF90DF90CF90F8
:100D00000895FC0190810180F281E02DF8948181A9
:100D1000292F20958223818378948DE743E050E04A
:100D2000815021F1DA011197F1F730813923C1F3B4
:100D3000F8948281822382838181892B81837894B4
:100D4000ABE7B7E01197F1F7F8948181282321836D
:100D5000A3E1B1E01197F1F78081982381E009F0D8
:100D600080E07894E3E6F6E03197F1F70895CF92CA
:100D7000DF92EF92FF920F931F93CF93DF937C014B
:100D80006C0187E0C80ED11CC0E0D0E0062F10E057
:100D9000B8010C2E02C0759567950A94E2F7617050
:100DA000F60181916F0113DD2196C430D10581F7E1
:100DB000C701DF91CF911F910F91FF90EF90DF90CE
:100DC000CF9082CDCF92DF92EF92FF920F931F933D
:100DD000CF93DF93EC01F62E642F8C81F8DC8D81AC
:100DE0008F3F11F060E0F3DC8F850F2D10E084FF62
:100DF00023C06E0187E0C80ED11CE12CF12CB80194
:100E00000E2C02C0759567950A94E2F76170F601A1
:100E100081916F01DCDCFFEFEF1AFF0A88E0E81632
:100E2000F10469F7CE01DF91CF911F910F91FF90EF
:100E3000EF90DF90CF9048CDB80184E0759567952D
:100E40008A95E1F7CE0193DF6F2DCE01DF91CF912F
:100E50001F910F91FF90EF90DF90CF9088CF41E0EE
:100E6000B1DF81E090E0089540E0ACCF1F920F9297
:100E70000FB60F9211240BB60F922F933F934F93FF
:100E80005F936F937F938F939F93AF93BF93EF93F2
:100E9000FF938091B900887F803609F49CC068F583
:100EA000883209F45BC090F4803109F454C038F4FE
:100EB000882309F4F6C0883009F44DC0F5C08831A4
:100EC00009F44CC0803209F45DC0EEC0803409F4EE
:100ED00068C048F4803309F455C0883309F0E4C091
:100EE00080930204D8C0803509F44FC0883509F4D6
:100EF0005DC0883409F0D8C0D6C0883909F4C7C0AD
:100F0000A8F4883709F467C038F4883609F463C058
:100F1000803709F460C0C8C0883809F4B8C0803987
:100F200009F45FC0803809F0BFC05BC0803B09F4A2
:100F300086C038F4803A09F466C0883A09F47FC064
:100F4000B3C0803C09F4A7C0883C09F4A4C0883B26
:100F500009F48AC0A9C08091DF0310C090910104F8
:100F600080910004981770F5E091010481E08E0FE4
:100F700080930104F0E0E052FC4F80818093BB003D
:100F800085EC86C0809302048EC0E091010481E06C
:100F90008E0F809301048091BB00F0E0E052FC4F83
:100FA000808390910104809100046EC0E09101045F
:100FB00081E08E0F809301048091BB00F0E0E0524D
:100FC000FC4F80838091030481116DC081E0809388
:100FD000DE0384EA61C083E0809304041092AE03D0
:100FE000CFCF8091AE03803208F051C0E091AE03C4
:100FF00081E08E0F8093AE038091BB00F0E0E2575A
:10100000FC4F8083BDCF85EC8093BC00109204041C
:101010008091AE03803230F4E091AE03F0E0E2570D
:10102000FC4F10826091AE0370E0E0918C03F09170
:101030008D038EE893E019951092AE0335C084E0DD
:101040008093040410928B0310928A03E09188032A
:10105000F0918903199580918A03811105C081E07F
:1010600080938A0310926803E0918B0381E08E0FD6
:1010700080938B03F0E0E859FC4F80818093BB00A4
:1010800090918B0380918A03981708F479CF85E8B3
:101090008093BC0009C085EC8093BC0010920404CE
:1010A00003C01092020414DAFF91EF91BF91AF9147
:1010B0009F918F917F916F915F914F913F912F9170
:1010C0000F900BBE0F900FBE0F901F9018951092AF
:1010D000040481E0809303041092DE0361E084E164
:1010E00076DB61E085E173DBE9EBF0E080818E7F08
:1010F000808380818D7F808388E48093B80085E43D
:101100008093BC000895DC01ED91FC910190F08189
:10111000E02D1994CF92DF92EF92FF920F931F93DD
:10112000CF93DF936C017A018B01C0E0D0E0CE1544
:10113000DF0589F0D8016D918D01D601ED91FC910B
:101140000190F081E02DC6011995892B11F47E01E3
:1011500002C02196ECCFC701DF91CF911F910F9173
:10116000FF90EF90DF90CF900895CF93DF93CDB7AE
:10117000DEB729970FB6F894DEBF0FBECDBFFC01D6
:101180002081203109F1BE016F5F7F4FF9D18823A3
:1011900071F068E0CE010196E8DC9985891307C0FB
:1011A00008C0803458F08F3569F08F3769F080E0DF
:1011B0000CC08D818F33A9F78AE007C08F31B9F752
:1011C00089E003C08BE001C08CE029960FB6F8944B
:1011D000DEBF0FBECDBFDF91CF91089589E294E0CD
:1011E0000DD921E0892B09F420E0822F08956115A3
:1011F000710579F0FB0101900020E9F73197AF010B
:10120000461B570BDC01ED91FC910280F381E02D30
:10121000199480E090E008954F925F926F927F92D0
:10122000EF92FF920F931F93CF93DF93CDB7DEB76B
:10123000A1970FB6F894DEBF0FBECDBF7C01FA01B7
:10124000CB0119A2223008F42AE08E010F5D1F4F56
:10125000422E512C612C712CBF01A30192010E94DE
:101260008012F901CA01015011096A3014F4605D5D
:1012700001C0695CD8016C93232B242B252B61F7CB
:10128000B801C701B4DFA1960FB6F894DEBF0FBE58
:10129000CDBFDF91CF911F910F91FF90EF907F9085
:1012A0006F905F904F900895A2CF1F920F920FB64C
:1012B0000F9211240BB60F922F933F934F935F938E
:1012C0006F937F938F939F93AF93BF93EF93FF930E
:1012D00089E294E0F4D9FF91EF91BF91AF919F9192
:1012E0008F917F916F915F914F913F912F910F90CF
:1012F0000BBE0F900FBE0F901F901895EF92FF92AC
:101300000F931F93CF93DF93EC01623018F08F851A
:1013100088608F876B8B1C8A80E48D8B80E18E8B3D
:1013200080E58F8B61E08C81E2DA8D818F3F11F057
:1013300061E0DDDA61E08E81DADA7E0187E0E80ED5
:10134000F11C00E010E08F8584FD03C084E090E094
:1013500002C088E090E00817190744F461E0F70143
:1013600081917F01C4DA0F5F1F4FEDCF8BE39DE0CA
:101370000197F1F760E08C812ADA60E08E8127DA4C
:101380008D818F3F11F060E022DA6F8564FD19C016
:1013900063E0CE01ECDC0BE416E4C8010197F1F741
:1013A00063E0CE01E4DCC8010197F1F763E0CE0110
:1013B000DEDC83E592E00197F1F762E0CE01D7DC55
:1013C00013C06062CE0150DD8BE496E40197F1F723
:1013D0006F856062CE0148DD83E592E00197F1F709
:1013E0006F856062CE0140DD6F856062CE013CDDBD
:1013F00084E0888B6CE0CE0137DD61E0CE0134DD26
:101400008BE39FE10197F1F782E0898B66E0CE01E3
:10141000DF91CF911F910F91FF90EF9025CD65E661
:1014200073E089E294E0E3CE462F50E060E070E0A4
:101430002AE0F2CE382F20912804909127042132FF
:1014400008F049C0809104048111FCCF42E0409330
:101450000404309303043FEF30930204109201041C
:1014600020930004A7E0B4E040EE53E0FA013E2FE1
:10147000341B321718F43D913193F9CF1092DF03EA
:101480002091DF03990F922B9093DF039091DE035D
:10149000913061F41092DE039091DF039093BB00D2
:1014A0009091BC0093FDF8CF95EC01C095EE909320
:1014B000BC00909104049230E1F3909102049F3FAC
:1014C00079F080910204803241F0809102048033EF
:1014D00031F084E005C081E003C082E001C083E018
:1014E0001092060410922804109205040895909119
:1014F00004049111FCCF813208F080E291E09093D6
:101500000404909303042FEF20930204109201042B
:10151000280F209300049093DF039091DF03906DD8
:101520009093DF039091DE03913061F41092DE031B
:101530009091DF039093BB009091BC0093FDF8CF96
:1015400095EC01C095EE9093BC009091040491300D
:10155000E1F390910104981710F480910104A0EE3A
:10156000B3E02EEB33E0F9019E2F921B981718F48D
:101570009D919193F9CF1092BD038093BC03089580
:10158000AF92BF92CF92DF92EF92FF920F931F9391
:10159000CF93DF93EC018B018091EF049091F004E5
:1015A000B0DB882381F1BE018091EF049091F004BB
:1015B0007DDB40E06EEB8091EF049091F00435DB31
:1015C000E801680189E0C80ED11CA090EF04B0903A
:1015D000F00488E0E82EF12C01E010E0C501D2DA39
:1015E0008111102B000F81E0E81AF108B9F7199367
:1015F000CC15DD0551F78091EF049091F00481DB6B
:1016000091E0813009F090E0892FDF91CF911F9117
:101610000F91FF90EF90DF90CF90BF90AF90089523
:101620008091EF049091F0046CDB40E06CEC8091D1
:10163000EF049091F004F9DA4091EA0464E48091B7
:10164000EF049091F004F1DA8091EC048823A1F08A
:10165000E091EB04E950E33040F4F0E0EE0FFF1FBF
:10166000E855FD4F6081718102C06EEE72E0072E79
:10167000000C880B990B77C90895AF92BF92CF9257
:10168000DF92EF92FF920F931F93CF93DF931F92FE
:10169000CDB7DEB75C01D62EE72EFC018585811122
:1016A00004C0C5012EDB811106C0F5011386158625
:1016B000148680E061C040E060EFC501B6DA01E069
:1016C000F12CC12C11E0C5015DDA682FC5016983D9
:1016D00059DA6981613019F48130B9F432C04F2D83
:1016E00050E068131BC0F5018385181730F4E40F30
:1016F000F51F8381802349F402C0181731F060E0A0
:10170000193058F4F501148708C0F501EF0DF11DEB
:101710008381802B838361E009C0C12EF501E40F32
:10172000F51F9381802F809589238383C5014EDA2D
:101730001F5F000F11F4F39401E0F7E0FF1508F0CC
:10174000C2CF113408F4B1CFF501C386C11002C075
:1017500081E08587F5018381882309F4A6CFD5012F
:101760001396ED2DFE2D9501255F3F4F8D918193B1
:10177000A217B307D9F781E00F90DF91CF911F91A6
:101780000F91FF90EF90DF90CF90BF90AF900895B2
:10179000643008F063E09091E504691710F06FEF92
:1017A000690FE62FF0E0EE52FB4F9489682F690F26
:1017B000606882ED94E058CBCF93DF93CDB7DEB76E
:1017C00061970FB6F894DEBF0FBECDBF789484B595
:1017D000826084BD84B5816084BD85B5826085BD2D
:1017E00085B5816085BD80916E00816080936E00BB
:1017F00010928100809181008260809381008091AD
:10180000810081608093810080918000816080935D
:1018100080008091B10084608093B1008091B0001D
:1018200081608093B00080919100826080939100EC
:1018300080919100816080939100809190008160FF
:10184000809390008091A10082608093A10080919C
:10185000A10081608093A1008091A00081608093AD
:10186000A00080912101826080932101809121015B
:10187000816080932101809120018160809320010B
:1018800080917A00846080937A0080917A008260EF
:1018900080937A0080917A00816080937A008091B1
:1018A0007A00806880937A001092C10062E082ED35
:1018B00094E024DDE0913904F0913A0482E08083E1
:1018C000E0913504F09136041082E0913704F091F4
:1018D00038048FEC808310924104E0913D04F09134
:1018E0003E0486E08083E0913B04F0913C048081DB
:1018F00080618083E0913B04F0913C0480818860AA
:101900008083E0913B04F0913C0480818068808377
:10191000E0913B04F0913C0480818F7D80831092A4
:10192000BD031092BC031092060410922804CFDB72
:1019300060E083E02DDF6EED72E082ED94E0B4DCD8
:1019400061E081E025DF69EE72E082ED94E0ACDCDD
:1019500068EE73E080E090E006D861E082ED94E00C
:1019600083DA8BE39FE10197F1F71092BD031092A8
:10197000BC031092060410922804A9DB81E0809336
:10198000050488E680932704109206041092280428
:1019900060E086EC94E00E94F50281E04BDD81E09E
:1019A00090E0A5DD86EC94E00E94AA0287FF06C0C5
:1019B00068EF72E089E294E01ADC31DD81E0809327
:1019C000050488E6809327041092060410922804E8
:1019D00060E086EC94E00E94F50265E086EC94E01D
:1019E0000E94F50265E386EC94E00E94F50266E150
:1019F00086EC94E00E94F50260E086EC94E00E94A0
:101A0000F50264E086EC94E00E94F50261E186EC68
:101A100094E00E94F50267E186EC94E00E94F502F2
:101A200081E008DDE091EF04F091F0041386158663
:101A30001486DF011B9633961E92AE17BF07E1F79F
:101A40001092EE0411E0BE01665F7F4F8091EF04BB
:101A50009091F00412DE882309F448C067E0CE01BB
:101A60000A9683D899898913EECF8091EA0481116F
:101A700022C08091EF049091F00443D9BE01665FCB
:101A80007F4F8091EF049091F00410D940E064EB17
:101A90008091EF049091F004C8D88091EF04909168
:101AA000F00470D8082F8091EF049091F00429D9A8
:101AB000002309F404C2BE016F5F7F4FCE010A9676
:101AC0005FDD0091EB04CE010A964FDB801718F41E
:101AD0008091EB0403C0CE010A9647DB8093EB04B0
:101AE0008091EE048F5F8093EE04ADCF21E082E819
:101AF00092E0D22ED81A0DE611E0F7E0EF2EF12C8D
:101B0000A8E1CA2E6CE073E089E294E0CDDB88DDC9
:101B100063E373E089E294E0C7DB81DC68E373E0B0
:101B200089E294E0C1DB8090B8039090B903A09063
:101B3000BA03B090BB03A5019401C501B401B5D4AB
:101B4000882319F06FE373E018C024013501E8948D
:101B500077F82FEF3FEF4FE75FE7C301B201A5D45E
:101B600081110FC02FEF3FEF4FE75FE7C301B201D5
:101B70004ED3181634F463E473E089E294E037DB63
:101B80006BC02FEF3FEF4FE75FE4C501B40126D4F0
:101B900018161CF467E473E0F0CF2FEF3FEF4FE728
:101BA0005FECC501B40133D387FDF4CF20E030E012
:101BB000A901C501B4012BD387FF08C06DE289E2FA
:101BC00094E0A1DAB7FAB094B7F8B0942AE037ED10
:101BD00043EA5BE3C501B401B6D22B013C0120D33B
:101BE0004B015C0149D39B01AC01C301B201AAD2F4
:101BF0002B013C012AE0B501A40189E294E00CDB51
:101C00006EE289E294E07FDA20E030E040E251E4E5
:101C1000C301B201E7D32B013C0102D34B01A12C3C
:101C2000B12C2AE0B501A40189E294E0F5DAC501FE
:101C3000B40122D39B01AC01C301B20183D220E0E5
:101C400030E040E251E4CED3EBD2AB0160E070E093
:101C50002AE089E294E0E0DAE2DB6BE473E089E217
:101C600094E022DBDCDBCE0101960E943505498140
:101C700050E04053584F052E000C660B770B2AE0BE
:101C800089E294E0C9DA6FE289E294E03CDA6A81A1
:101C900089E294E0C9DB6FE289E294E034DA6B8197
:101CA00089E294E0C1DB6FE573E089E294E0FCDA5D
:101CB0005A814981242F30E08B8190E0E2E8F2E004
:101CC0006D2D6E0F651728F46491860F911D319666
:101CD000F7CF533018F0437009F40196209FB001FC
:101CE000219F700D309F700D11246B5F7F4F2D5F12
:101CF0003F4FA90156954795569547959B01240F4F
:101D0000351F820F931FB701D4D3C89EB001C99E5F
:101D1000700D112460507E4F89E294E0C5DA62E6CE
:101D200073E089E294E0C0DA6C8189E294E07CDBC4
:101D30006AE389E294E0E7D96D8189E294E074DB9B
:101D40006AE389E294E0DFD96E8189E294E06CDB9A
:101D500066DB60E080E01CDDCE0101960E94350567
:101D60006C8182ED94E060DB6AE382ED94E0CBD994
:101D70006D8182ED94E058DB8C818A3008F4A2C03A
:101D80008D818A3008F4B5C060E086E001DD4981CC
:101D900050E04053584F052E000C660B770B2AE09D
:101DA00082ED94E039DA6FE282ED94E0ACD96A8199
:101DB00082ED94E039DB6FE282ED94E0A4D96B818F
:101DC00082ED94E031DB8B818A3008F49EC064EFB1
:101DD00071E080E090E00E94B30461E080E0D8DC34
:101DE00068E373E082ED94E05FDA8090B80390904E
:101DF000B903A090BA03B090BB0320E030E0A90182
:101E0000C501B401EBD220E030E040E05FE387FDA4
:101E100004C0C501B40197D103C0C501B40192D17A
:101E2000FAD14B015C0197FF0DC06DE282ED94E0A9
:101E30006AD944275527BA01481959096A097B0903
:101E40002AE003C02AE0AB01BC0182ED94E0E4D9B2
:101E50006FED82ED94E057D966E482ED94E053D9BA
:101E6000DFDBE091EF04F091F00413861586148611
:101E7000DF011B96CF0103961E92A817B907E1F761
:101E8000BE01665F7F4FCF01F8DB882349F067E032
:101E9000CE010A960E94B5059989891709F441C0B7
:101EA0006AE979E984E493EC6093B8037093B90329
:101EB0008093BA039093BB030E940A0223CE10932F
:101EC000EA04F9CD60E080E063DC60E382ED94E059
:101ED0001AD96C8182ED94E0A7DA60E082E058DCE8
:101EE0006AE382ED94E00FD96D8182ED94E09CDA93
:101EF00047CF60E083E04CDC60E382ED94E003D9FF
:101F00006D8182ED94E090DA3FCF60E08EE040DCBE
:101F100060E382ED94E0F7D86B8182ED94E084DA9F
:101F200056CFBE016F5F7F4FCE010A9629DB882313
:101F300009F448C068E0CE0101960E94B505998574
:101F4000891340C0698188E0689FB00111248A81AB
:101F5000282F30E0322F2227330F330F330F262B59
:101F6000372B8A85803161F5688570E08F81AB0100
:101F7000481B5109CA019695982F882797958795F0
:101F8000ACD260517109207F53E0220F331F5A9564
:101F9000E1F7620F731F613854EE75070CF480CFC0
:101FA000072E000C880B990B69D126E636E646E62B
:101FB0005CE318D220E030E040E052E4C4D074CFBB
:101FC000B901E9CF60E874EEE6CF10922C041092CC
:101FD0002B0488EE93E0A0E0B0E080932D04909372
:101FE0002E04A0932F04B093300422EB32E0309300
:101FF0002A042093290425EC30E030933604209302
:10200000350424EC30E0309338042093370420EC7E
:1020100030E030933A042093390421EC30E03093DF
:102020003C0420933B0422EC30E030933E042093A8
:102030003D0426EC30E03093400420933F0410929E
:1020400042041092430410924404109245041092EA
:10205000C9041092C8048093CA049093CB04A0933F
:10206000CC04B093CD0484EC92E09093C7048093A9
:10207000C60460E08AE00E947704E8EFF2E0E491B1
:10208000E093FD04E2EBF2E0E491F0E0EE0FFF1FDD
:10209000E257FD4F859194919093FF048093FE0445
:1020A0001092080510920A0510920905E8E0F5E083
:1020B000129285E0E030F807D9F787E692E0909336
:1020C000FC048093FB048DEF94E09093F0048093E4
:1020D000EF041092EE041092EA0489E08093EB047E
:1020E00081E08093EC048093ED041092D50410926B
:1020F000D40486ED92E09093D3048093D2048CE0D4
:102100008093D6048FEF8093D7048BE08093D8041C
:1021100085E08093D90484E08093DA0483E080939F
:10212000DB0482E08093DC041092DD041092DE0474
:102130001092DF041092E0041092E10461E082ED5D
:1021400094E0DCC85058BB27AA270ED00DC1FED0A2
:1021500030F003D120F031F49F3F11F41EF4F3C0AE
:102160000EF4E095E7FBE9C0E92F0FD180F3BA1731
:10217000620773078407950718F071F49EF527C16D
:102180000EF4E0950B2EBA2FA02D0B01B901900192
:102190000C01CA01A0011124FF27591B99F0593FD6
:1021A00050F4503E68F11A16F040A22F232F342F1E
:1021B0004427585FF3CF469537952795A795F0406C
:1021C0005395C9F77EF41F16BA0B620B730B840B81
:1021D000BAF09150A1F0FF0FBB1F661F771F881F39
:1021E000C2F70EC0BA0F621F731F841F48F4879591
:1021F00077956795B795F7959E3F08F0B3CF939580
:10220000880F08F09927EE0F97958795089571D05C
:1022100008F481E0089504D06894B111D9C00895FC
:10222000BCD088F09F5790F0B92F9927B751A0F0F4
:10223000D1F0660F771F881F991F1AF0BA95C9F75A
:1022400012C0B13081F0C3D0B1E00895C0C0672F93
:10225000782F8827B85F39F0B93FCCF3869577950A
:102260006795B395D9F73EF49095809570956195F3
:102270007F4F8F4F9F4F0895E89409C097FB3EF41E
:1022800090958095709561957F4F8F4F9F4F9923C3
:10229000A9F0F92F96E9BB279395F6958795779541
:1022A0006795B795F111F8CFFAF4BB0F11F460FF01
:1022B0001BC06F5F7F4F8F4F9F4F16C0882311F059
:1022C00096E911C0772321F09EE8872F762F05C06D
:1022D000662371F096E8862F70E060E02AF09A9508
:1022E000660F771F881FDAF7880F9695879597F9FD
:1022F0000895990F0008550FAA0BE0E8FEEF161697
:102300001706E807F907C0F012161306E407F507E9
:1023100098F0621B730B840B950B39F40A2661F05D
:10232000232B242B252B21F408950A2609F4A14000
:10233000A6958FEF811D811D089597F99F6780E80D
:1023400070E060E008959FEF80EC089500240A9407
:102350001616170618060906089500240A94121680
:102360001306140605060895092E0394000C11F4B3
:10237000882352F0BB0F40F4BF2B11F460FF04C060
:102380006F5F7F4F8F4F9F4F089557FD9058440FB9
:10239000551F59F05F3F71F04795880F97FB991FC4
:1023A00061F09F3F79F08795089512161306140681
:1023B000551FF2CF4695F1DF08C01616170618060E
:1023C000991FF1CF86957105610508940895E894E9
:1023D000BB2766277727CB0197F908958ADF08F492
:1023E0008FEF08950BD0C0CFB1DF28F0B6DF18F023
:1023F000952309F0A2CFA7CF1124EACFC6DFA0F31F
:10240000959FD1F3950F50E0551F629FF001729F89
:10241000BB27F00DB11D639FAA27F00DB11DAA1FA8
:10242000649F6627B00DA11D661F829F2227B00DF5
:10243000A11D621F739FB00DA11D621F839FA00D80
:10244000611D221F749F3327A00D611D231F849FD0
:10245000600D211D822F762F6A2F11249F57504027
:102460008AF0E1F088234AF0EE0FFF1FBB1F661FC2
:10247000771F881F91505040A9F79E3F510570F07B
:102480005CCFA6CF5F3FECF3983EDCF38695779563
:102490006795B795F795E7959F5FC1F7FE2B880F76
:1024A000911D9695879597F9089523DF880B990BD1
:1024B0000895AA1BBB1B51E107C0AA1FBB1FA6178B
:1024C000B70710F0A61BB70B881F991F5A95A9F7DD
:1024D00080959095BC01CD01089597FB072E16F4C9
:1024E000009406D077FD08D0E4DF07FC05D03EF469
:1024F000909581959F4F0895709561957F4F0895B0
:10250000A1E21A2EAA1BBB1BFD010DC0AA1FBB1FF7
:10251000EE1FFF1FA217B307E407F50720F0A21B69
:10252000B30BE40BF50B661F771F881F991F1A94D6
:1025300069F760957095809590959B01AC01BD0100
:10254000CF010895EE0FFF1F881F8BBF0790F691F4
:10255000E02D199481E090E0F89400C0F894FFCF4A
:1025600053756E64617900000000000000000000F7
:1025700000000000000000004D6F6E6461790000F3
:10258000000000000000000000000000000000004B
:10259000547565736461790000000000000000005C
:1025A00000000000000000005765646E6573646100
:1025B00079000000000000000000000000000000A2
:1025C00054687572736461790000000000000000B7
:1025D000000000000000000046726964617900009C
:1025E00000000000000000000000000000000000EB
:1025F000536174757264617900000000000000008E
:1026000000000000000000005E00BC007701000038
:10261000000080038A08CD01C603FE01DC01F00141
:1026200000000000F502C60224039A02BE02AA02BC
:102630009B02000000002F078A08240323034C6F2D
:102640006164696E672E2E2E00506C656173652083
:10265000576169742E2E2E00525443206973204E08
:102660004F542072756E6E696E67210052657175E8
:10267000657374696E672074656D706572617475D9
:102680007265732066726F6D2073656E736F7273FF
:102690003A2000444F4E450054656D703A20006E5C
:1026A000616E00696E66006F7666002D2D2D2D2DF2
:1026B0002D2D2D2D2D2D2D2D2D2D2D2D2D2D002084
:0826C00028002920000D0A008A
:00000001FF
