:10000000ACC100000C942008F0C70000C3C700007A
:1000100096C7000069C700003CC700000FC700007A
:10002000E2C60000CBC10000C9C10000C7C100008A
:10003000C5C10000C3C10000C1C10000BFC10000B4
:10004000BDC10000BBC10000B9C10000B7C10000C4
:10005000B5C10000B3C10000B1C100007AC6000004
:10006000ADC100006FC4000044C40000A7C100007F
:10007000A5C10000A3C10000A1C100009FC10000F4
:100080009DC100009BC1000099C1000097C1000004
:1000900095C1000093C1000091C100000C94B70A03
:1000A0008DC100008BC1000089C1000087C1000024
:1000B00085C1000083C1000081C100007FC1000034
:1000C0007DC100007BC1000079C1000077C1000044
:1000D00075C1000073C1000071C100006FC1000054
:1000E0006DC10000F304F604E504E904EF042D05F6
:1000F000FA04FE04040508050C05120516051A0588
:100100002D05200524052805C005C505CA05D4050B
:10011000DE055706E805F005F80502060C0616068A
:1001200025062F065706390643064D06005EBCE23B
:10013000613FDD83C29C7E20A3FD1F419DC3217FC3
:10014000FCA2401E5F01E3BD3E6082DC237D9FC1B7
:10015000421CFEA0E1BF5D0380DE3C62BEE0025CAB
:10016000DF81633D7C22C09E1D43A1FF4618FAA497
:1001700027799BC584DA3866E5BB5907DB85673983
:10018000BAE406581947A5FB7826C49A653BD98777
:10019000045AB8E6A7F91B45C6987A24F8A6441A6B
:1001A00099C7257B3A6486D85B05E7B98CD2306E57
:1001B000EDB3510F4E10F2AC2F7193CD114FADF343
:1001C000702ECC92D38D6F31B2EC0E50AFF1134D37
:1001D000CE90722C6D33D18F0C52B0EE326C8ED02B
:1001E000530DEFB1F0AE4C1291CF2D73CA94762817
:1001F000ABF517490856B4EA6937D58B5709EBB503
:1002000036688AD495CB2977F4AA4816E9B7550BF6
:1002100088D6346A2B7597C94A14F6A8742AC896EA
:10022000154BA9F7B6E80A54D7896B351F1C1F1E5A
:100230001F1E1F1F1E1F1E1F00002100240027005D
:100240002A002D00300033000101000004010701E5
:100250000A0100002200250028002B002E0031009A
:10026000340002010000050108010B0100000A0B27
:1002700002090C0D0E080703040100000000000035
:10028000000000000000000000000000000000006E
:10029000000000000000000012111000000000002B
:1002A000000000000000000000000000000000004E
:1002B0000000000020002300260029002C002F0051
:1002C00032000001000003010601090105050505D2
:1002D000070508080808020202020A0A08080404BE
:1002E00004040101010101010101030303030303EC
:1002F0000303040707070C0C0C0C0C0C0C0C02027B
:10030000020206060606060606060B0B0B0B0B0B77
:100310000B0B010210202008081020401020408004
:1003200002010201080402010102040810204080B9
:100330008040201008040201800402018040201047
:100340000804020108040201010204081020408090
:1003500001020408102040801F1411241FBECFEF9B
:10036000D1E2DEBFCDBF00E00CBF25E0A4EBB3E0DF
:1003700001C01D92A536B207E1F713E0A0E0B2E09C
:10038000E4EBF7E300E00BBF02C007900D92A43B43
:10039000B107D9F711E0CDEAD1E000E006C021971E
:1003A0000109802FFE010E94E216CC3AD10780E0BD
:1003B0000807A9F70E94550F0C94D81B21CEFC0109
:1003C000538D448D252F30E0842F90E0821B930BBA
:1003D000541710F0CF96089501970895FC01918D60
:1003E000828D981761F0828DDF01A80FB11D5D9697
:1003F0008C91928D9F5F9F73928F90E008958FEF05
:100400009FEF0895FC01918D828D981731F0828DB8
:10041000E80FF11D858D90E008958FEF9FEF08950F
:10042000FC01918D228D892F90E0805C9F4F821B73
:1004300091098F73992708958EE794E0F1DF21E009
:10044000892B09F420E0822F0895FC01848DDF01BF
:10045000A80FB11DA35ABF4F2C91848D90E0019637
:100460008F739927848FA689B7892C93A089B18926
:100470008C9180648C93938D848D981306C0028830
:10048000F389E02D80818F7D80830895EF92FF9224
:100490000F931F93CF93DF93EC0181E0888F9B8DA7
:1004A0008C8D981305C0E889F989808185FD23C06A
:1004B000F62E0B8D10E00F5F1F4F0F731127E02EEC
:1004C0008C8DE8120BC00FB607FCFACFE889F989CA
:1004D000808185FFF5CFCE01B8DFF2CF8B8DFE0195
:1004E000E80FF11DE35AFF4FF0820B8FEA89FB8979
:1004F0008081806207C0EE89FF896083E889F9897D
:1005000080818064808381E090E0DF91CF911F91B2
:100510000F91FF90EF900895CF93DF93EC01888DBA
:100520008823C1F0EA89FB89808185FD05C0A889FF
:10053000B9898C9186FD0EC00FB607FCF5CF80817E
:1005400085FFF2CFA889B9898C9185FFEDCFCE01C7
:100550007CDFE8CFDF91CF91089580E090E0892B98
:1005600019F06ADF811125C080E090E0892B41F00D
:1005700080E090E0892B21F00E94000081111CC0D6
:1005800080E090E0892B41F080E090E0892B21F021
:100590000E940000811113C080E090E0892BA1F03F
:1005A00080E090E0892B81F00E94000081110AC058
:1005B00008950E940000D8CF0E940000E1CF0E9461
:1005C0000000EACF0C94000008953FB7F8948091A2
:1005D000FC039091FD03A091FE03B091FF0326B5AB
:1005E000A89B05C02F3F19F00196A11DB11D3FBF6B
:1005F000BA2FA92F982F8827820F911DA11DB11DF9
:10060000BC01CD0142E0660F771F881F991F4A95F4
:10061000D1F70895089521E001C0220F6A95EAF705
:10062000DC011C962C931C971A965C934E93199799
:10063000ED91FC910484F585E02D60E01994DC01D6
:10064000ED91FC910684F785E02D41E0199581E05C
:1006500090E0089508950895089585ED8093BC0075
:100660008091BC0084FDFCCF10927D0408954091E0
:10067000D603262F30E0240F311D21323105DCF462
:1006800020917D042430C9F4FC0180E090E08617BD
:1006900058F43091D6032191DC01AC54BC4FA30F28
:1006A000B11D2C930196F3CF8091D603680F609310
:1006B000D60380E0089581E0089582E008950895CA
:1006C000E091120480911104E81730F4F0E0E95C45
:1006D000FB4F808190E008958FEF9FEF08959091F8
:1006E000120480911104981750F4E92FF0E0E95CAE
:1006F000FB4F208130E09F5F9093120402C02FEFE8
:100700003FEFC90108958091110490E020911204F7
:10071000821B91090895CF92DF92EF92FF920F937F
:100720001F93CF93DF937C01262F972F8A0180910F
:100730001304882391F0C62FD72F6E01C40ED51E47
:10074000CC15DD0569F06991D701ED91FC9101901F
:10075000F081E02DC7011995F3CF642F822F87DF39
:10076000C801DF91CF911F910F91FF90EF90DF9023
:10077000CF900895CF93DF931F92CDB7DEB76983F3
:10078000209113042223D1F020913604203240F02E
:1007900021E030E0FC013383228380E090E014C04C
:1007A00080911404E82FF0E0EB5EFB4F9981908379
:1007B0008F5F809314048093360404C061E0CE01FF
:1007C000019655DF81E090E00F90DF91CF91089581
:1007D000089580E090E008950E94FB18FC012381B9
:1007E0002223B9F09181909569236083828191E001
:1007F00090931304809335041092140410923604DD
:100800008BE195E0B7DF81E00E94800C282F30E07B
:1008100002C020E030E081E090E0232B11F080E086
:1008200090E00895EF92FF920F931F93CF938C0166
:10083000FC01759684E0C0E060FF02C09081C92B86
:100840006695815031968111F7CF413011F4F8014E
:100850004489F8018585C82BC42B7801FEE0EF0E92
:10086000F11CF80162896C2BC701B8DFF8016289BD
:1008700060956C23C701CF911F910F91FF90EF906E
:10088000ADCF0F931F93CF93DF93062F0F7042309E
:1008900019F440E0602F0FC0142F262FEC0130E038
:1008A000B90184E0759567958A95E1F7CE01BADFC5
:1008B000412F602FCE01DF91CF911F910F91B2CFC9
:1008C000FC0184858823A1F021853285211531051D
:1008D00019F4611106C007C02130310521F46111FE
:1008E00002C0858701C015866585CF010E9676CF3B
:1008F00008951F920F920FB60F9211240BB60F920C
:100900002F933F934F935F936F937F938F939F9317
:10091000AF93BF93EF93FF938EE794E096DDFF9143
:10092000EF91BF91AF919F918F917F916F915F9167
:100930004F913F912F910F900BBE0F900FBE0F90D4
:100940001F9018951F920F920FB60F9211240BB69D
:100950000F922F938F939F93EF93FF93E0918E04C9
:10096000F0918F048081E0919404F091950482FDD0
:1009700012C09081809197048F5F8F7320919804AB
:10098000821751F0E0919704F0E0E258FB4F958F09
:100990008093970401C08081FF91EF919F918F9187
:1009A0002F910F900BBE0F900FBE0F901F901895B8
:1009B00090E0FC013197E231F10508F04EC0882744
:1009C000EE58FF4F8F4F0C94E216809180008F7786
:1009D00003C0809180008F7D809380000895809176
:1009E0008000877FF9CF84B58F7702C084B58F7D73
:1009F00084BD08958091B0008F7703C08091B000CE
:100A00008F7D8093B0000895809190008F7707C00C
:100A1000809190008F7D03C080919000877F8093AC
:100A2000900008958091A0008F7707C08091A0006A
:100A30008F7D03C08091A000877F8093A0000895E0
:100A4000809120018F7707C0809120018F7D03C0A6
:100A500080912001877F8093200108951F93CF9379
:100A6000DF93282F30E0F901E459FD4F8491F9011B
:100A7000EE5EFC4FD491F901E453FD4FC491CC23B9
:100A8000C1F0162F811194DFEC2FF0E0EE0FFF1F65
:100A9000EE5AFD4FA591B4918FB7F894111105C08E
:100AA0009C91ED2FE095E92302C0EC91ED2BEC93A6
:100AB0008FBFDF91CF911F910895CF93DF9390E087
:100AC000FC01EE5EFC4F2491FC01E453FD4F849148
:100AD000882361F190E0880F991FFC01E85CFD4FCD
:100AE000C591D491FC01EE5AFD4FA591B4916111CD
:100AF00009C09FB7F8948881209582238883EC9160
:100B00002E230BC0623061F49FB7F8943881822F96
:100B1000809583238883EC912E2B2C939FBF06C056
:100B20008FB7F894E8812E2B28838FBFDF91CF9168
:100B300008951F93CF93DF93182FEB0161E0BDDF82
:100B4000209711F460E004C0CF3FD10531F461E09B
:100B5000812FDF91CF911F9181CFE12FF0E0E459F8
:100B6000FD4FE4914E2F50E0FA013197E231F1054B
:100B700008F09DC08827EC57FF4F8F4F0C94E2166A
:100B800084B5806884BDC7BD97C084B5806284BDCC
:100B9000C8BD92C080918000806880938000D0930F
:100BA0008900C093880088C0809180008062809313
:100BB0008000D0938B00C0938A007EC0809180001B
:100BC000886080938000D0938D00C0938C0074C0A7
:100BD0008091B00080688093B000C093B3006CC077
:100BE0008091B00080628093B000C093B40064C074
:100BF00080919000806880939000D0939900C0937A
:100C000098005AC080919000806280939000D093A9
:100C10009B00C0939A0050C08091900088608093A0
:100C20009000D0939D00C0939C0046C08091A0008E
:100C300080688093A0008091A0008F7B8093A000AB
:100C4000D093A900C093A80037C08091A000806213
:100C50008093A000D093AB00C093AA002DC08091D8
:100C6000A00088608093A000D093AD00C093AC003A
:100C700023C080912001806880932001D0932901B6
:100C8000C093280119C080912001806280932001C7
:100C9000D0932B01C0932A010FC08091200188605E
:100CA00080932001D0932D01C0932C0105C0C03842
:100CB000D1050CF04CCF46CFDF91CF911F91089515
:100CC0008F929F92AF92BF92CF92DF92EF92FF925C
:100CD0006B017C017ADC4B015C01C114D104E1049D
:100CE000F104E9F072DCDC01CB0188199909AA0949
:100CF000BB09883E9340A105B10578F321E0C21AF3
:100D0000D108E108F10888EE880E83E0981EA11C46
:100D1000B11CC114D104E104F10421F7DECFFF902E
:100D2000EF90DF90CF90BF90AF909F908F900895FD
:100D30007BD59093050480930404892B11F461E022
:100D400001C060E08BE08ADE62E370E080E090E06A
:100D5000B7CF1F920F920FB60F9211242F933F938C
:100D60008F939F93AF93BF93809100049091010460
:100D7000A0910204B09103043091FB0323E0230F00
:100D80002D3720F40196A11DB11D05C026E8230FC3
:100D90000296A11DB11D2093FB0380930004909344
:100DA0000104A0930204B09303048091FC0390918A
:100DB000FD03A091FE03B091FF030196A11DB11D9B
:100DC0008093FC039093FD03A093FE03B093FF0375
:100DD000BF91AF919F918F913F912F910F900FBE37
:100DE0000F901F9018951F920F920FB60F9211241B
:100DF0000BB60F922F933F934F935F936F937F9315
:100E00008F939F93AF93BF93EF93FF93E0910E0265
:100E1000F0910F021995FF91EF91BF91AF919F91C2
:100E20008F917F916F915F914F913F912F910F9093
:100E30000BBE0F900FBE0F901F9018951F920F9230
:100E40000FB60F9211240BB60F922F933F934F932F
:100E50005F936F937F938F939F93AF93BF93EF9322
:100E6000FF93E0910C02F0910D021995FF91EF9123
:100E7000BF91AF919F918F917F916F915F914F91B2
:100E80003F912F910F900BBE0F900FBE0F901F90B0
:100E900018951F920F920FB60F9211240BB60F9256
:100EA0002F933F934F935F936F937F938F939F9372
:100EB000AF93BF93EF93FF93E0910202F09103028F
:100EC0001995FF91EF91BF91AF919F918F917F9174
:100ED0006F915F914F913F912F910F900BBE0F90AB
:100EE0000FBE0F901F9018951F920F920FB60F9282
:100EF00011240BB60F922F933F934F935F936F93F1
:100F00007F938F939F93AF93BF93EF93FF93E09162
:100F10000002F09101021995FF91EF91BF91AF91FD
:100F20009F918F917F916F915F914F913F912F9101
:100F30000F900BBE0F900FBE0F901F9018951F9231
:100F40000F920FB60F9211240BB60F922F933F936F
:100F50004F935F936F937F938F939F93AF93BF93C1
:100F6000EF93FF93E0910A02F0910B021995FF9124
:100F7000EF91BF91AF919F918F917F916F915F9111
:100F80004F913F912F910F900BBE0F900FBE0F907E
:100F90001F9018951F920F920FB60F9211240BB647
:100FA0000F922F933F934F935F936F937F938F9302
:100FB0009F93AF93BF93EF93FF93E0910802F0915B
:100FC00009021995FF91EF91BF91AF919F918F9178
:100FD0007F916F915F914F913F912F910F900BBE39
:100FE0000F900FBE0F901F9018951F920F920FB683
:100FF0000F9211240BB60F922F933F934F935F9351
:101000006F937F938F939F93AF93BF93EF93FF93D0
:10101000E0910602F09107021995FF91EF91BF91BF
:10102000AF919F918F917F916F915F914F913F9180
:101030002F910F900BBE0F900FBE0F901F90189521
:101040001F920F920FB60F9211240BB60F922F938F
:101050003F934F935F936F937F938F939F93AF9340
:10106000BF93EF93FF93E0910402F091050219956D
:10107000FF91EF91BF91AF919F918F917F916F9170
:101080005F914F913F912F910F900BBE0F900FBE2C
:101090000F901F901895CF92DF92EF92FF920F93CF
:1010A0001F93CF93DF93EC0181E08093130488E6D4
:1010B00080933504109214041092360460E08BE1A2
:1010C00095E058DB81E01CD487E090E076D48BE19A
:1010D00095E005DB8F77982F92959F701AEF082F78
:1010E000919F000D11248BE195E0F9DA9C013327E3
:1010F00094E0359527959A95E1F7F82E129FF00C1C
:1011000011248BE195E0EBDA9C01332744E035951F
:1011100027954A95E1F7E82E129FE00C11248BE108
:1011200095E0DDDA8BE195E0DADA9C01332754E0D3
:10113000359527955A95E1F7D82E129FD00C11249A
:101140008BE195E0CCDA9C01332764E03595279557
:101150006A95E1F7C82E129FC00C11248BE195E02F
:10116000BEDA9C01332774E0359527957A95E1F72F
:10117000129F800D11248883C982DA82EB82FC825F
:101180000D83CE01DF91CF911F910F91FF90EF90D2
:10119000DF90CF900895FC0161819081492F50E04C
:1011A000228130E0ECE2F2E081E08E1B782F7E0FAE
:1011B000761728F47491270F311D3196F7CF6330DD
:1011C00020F0937011F42F5F3F4F6DE671E0469F62
:1011D000C001479F900D569F900D112405964D5FBD
:1011E0005F4F5695479556954795840F951F820FEB
:1011F000931F67E070E00C9499160895DC01E0E01D
:10120000615038F08D91E827F0E0E45DFE4FE49105
:10121000F7CF8E2F0895FC0190810180F281E02D9F
:10122000F8948181892B81832281892F80952823BD
:101230002283A7E0B0E01197F1F721818223818317
:10124000A3E2B0E01197F1F780817894EFECF0E041
:101250003197F1F7982381E009F480E00895FC01CB
:1012600090810180F281E02D892F809560FF12C06E
:10127000F8942281822382838181892B8183A3E256
:10128000B0E01197F1F78281982B9283789487EDE3
:1012900090E011C0F8942281822382838181892B7E
:1012A0008183AFEFB0E01197F1F78281982B9283A1
:1012B00078948FE090E00197F1F70895CF92DF9254
:1012C000EF92FF920F931F93CF93DF931F92CDB7AF
:1012D000DEB76C01E62E08E010E0FF24F39461E035
:1012E0008F2D8E2109F460E0C6014983B8DFFF0C21
:1012F0000150110949810115110589F7411115C0E6
:10130000F894D6011196ED91FC91129791818C91F0
:101310008095892381831196ED91FC91129792819A
:101320008C9180958923828378940F90DF91CF915F
:101330001F910F91FF90EF90DF90CF900895CF9283
:10134000DF92EF92FF920F931F93CF93DF931F9241
:10135000CDB7DEB78C01F62E40E065E57983AEDFD0
:10136000CF2C7981D72E760188E0E80EF11CF601AA
:1013700061916F0140E0C801A1DFCE14DF04B9F72D
:101380000F90DF91CF911F910F91FF90EF90DF9021
:10139000CF900895FC0190810180F281E02DF894B6
:1013A0008181292F20958223818378948DE743E0E2
:1013B00050E0815021F1DA011197F1F730813923A2
:1013C000C1F3F8948281822382838181892B818376
:1013D0007894ABE7B7E01197F1F7F894818128236F
:1013E0002183A3E1B1E01197F1F78081982381E097
:1013F00009F080E07894E3E6F6E03197F1F708959C
:10140000DC01ED91FC910684F785E02D40E0199414
:101410000F931F93CF93DF93EC01423018F08C8130
:1014200088608C834F836887222329F0413019F428
:101430008C8184608C8364E670E080E090E040DC26
:101440006C8164FD31C0E881F9810684F785E02D67
:1014500042E063E0CE0119950BE416E4C801019760
:10146000F1F7E881F9810684F785E02D42E063E039
:10147000CE011995C8010197F1F7E881F981068439
:10148000F785E02D42E063E0CE01199583E592E017
:101490000197F1F7E881F9810684F785E02D42E0B4
:1014A00062E0CE01199513C06062CE01A9DF8BE422
:1014B00096E40197F1F76C816062CE01A1DF83E5CC
:1014C00092E00197F1F76C816062CE0199DF6C8147
:1014D0006062CE0195DF84E08D836CE0CE0190DF09
:1014E00061E0CE018DDF8BE39FE10197F1F782E0B0
:1014F0008E8366E0CE0184DFE881F9810484F5857E
:10150000E02D6FEFCE01DF91CF911F910F911994D4
:10151000FF920F931F93CF93DF93EC01162F042FAD
:10152000F22E8B85888B54D261E08889A5D11092E8
:1015300012048093110491E0811101C090E0998B15
:101540008BE195E0CCD88E878989882331F01F867E
:101550001C8260E0CE010E9641D92F2D402F612FC5
:10156000CE01DF91CF911F910F91FF9051CF1F922C
:101570000F920FB60F9211240BB60F922F933F9339
:101580004F935F936F937F938F939F93AF93BF938B
:10159000EF93FF938091B900887F803609F49CC057
:1015A00068F5883209F45BC090F4803109F454C0C6
:1015B00038F4882309F4F6C0883009F44DC0F6C029
:1015C000883109F44CC0803209F45DC0EFC080342A
:1015D00009F468C048F4803309F455C0883309F031
:1015E000E5C080937B04D8C0803509F44FC08835AE
:1015F00009F45DC0883409F0D9C0D6C0883909F42F
:10160000C7C0A8F4883709F467C038F4883609F4ED
:1016100063C0803709F460C0C9C0883809F4B8C015
:10162000803909F45FC0803809F0C0C05BC0803BDE
:1016300009F486C038F4803A09F466C0883A09F49F
:101640007FC0B4C0803C09F4A7C0883C09F4A4C0A2
:10165000883B09F48AC0AAC08091780410C0909198
:101660007A0480917904981770F5E0917A0481E00A
:101670008E0F80937A04F0E0E95AFB4F80818093CB
:10168000BB0085EC86C080937B048EC0E0917A0419
:1016900081E08E0F80937A048091BB00F0E0E95ADC
:1016A000FB4F808390917A04809179046EC0E09121
:1016B0007A0481E08E0F80937A048091BB00F0E081
:1016C000E95AFB4F808380917C0481116DC081E0D9
:1016D0008093770484EA61C083E080937D04109254
:1016E000FA03CFCF8091FA03803208F051C0E09125
:1016F000FA0381E08E0F8093FA038091BB00F0E043
:10170000E652FC4F8083BDCF85EC8093BC001092E5
:101710007D048091FA03803230F4E091FA03F0E026
:10172000E652FC4F10826091FA0370E0E091D8031A
:10173000F091D9038AED93E019951092FA0336C01F
:1017400084E080937D041092D7031092D603E09139
:10175000D403F091D50319958091D603811105C06A
:1017600081E08093D6031092B403E091D70381E027
:101770008E0F8093D703F0E0EC54FC4F8081809370
:10178000BB009091D7038091D603981708F479CFC6
:1017900085E88093BC000AC085EC8093BC00109261
:1017A0007D0404C010927B040E942D03FF91EF91F1
:1017B000BF91AF919F918F917F916F915F914F9169
:1017C0003F912F910F900BBE0F900FBE0F901F9067
:1017D0001895CF92DF92EF92FF926C018AE0C816C3
:1017E000D10420F460E387E295E042D30D2C000C95
:1017F000EE08FF08F7FE0DC06DE287E295E038D3F2
:1018000044275527BA014C195D096E097F092AE062
:1018100003C02AE0B701A60187E295E0FF90EF90B0
:10182000DF90CF90B3C20895CF93DF93EEE7F2E05D
:101830008491E4E2F3E0D491EEEDF2E0C491CC23A4
:1018400089F08111B5D8EC2FF0E0EE0FFF1FEE54B8
:10185000FD4FA591B491EC91ED2381E090E021F44E
:1018600080E002C080E090E0DF91CF91089560EBCE
:1018700073E08EE794E003C390917D049111FCCF57
:1018800091E090937D0490937C042FEF20937B0450
:1018900010927A04260F2093790490937804909103
:1018A0007804880F892B80937804809177048130A5
:1018B00061F410927704809178048093BB0080914A
:1018C000BC0083FDF8CF85EC01C085EE8093BC00A1
:1018D00080917D048130E1F380917A04861710F4C1
:1018E00060917A04A7E5B4E027E334E0F9018E2F94
:1018F000821B861718F48D918193F9CF862F089556
:10190000382F2091360490913504213208F049C0D7
:1019100080917D048111FCCF42E040937D0430939F
:101920007C043FEF30937B0410927A042093790477
:10193000A5E1B4E047E554E0FA013E2F341B32172D
:1019400018F43D913193F9CF1092780420917804E6
:10195000990F922B9093780490917704913061F4D1
:1019600010927704909178049093BB009091BC0002
:1019700093FDF8CF95EC01C095EE9093BC0090914B
:101980007D049230E1F390917B049F3F79F0809148
:101990007B04803241F080917B04803331F084E01D
:1019A00005C081E003C082E001C083E0109214040E
:1019B00010923604109213040895813208F080E2E8
:1019C000682F88E659DF109212048093110408955D
:1019D0001092120410921104109214041092360402
:1019E00010927D0481E080937C041092770461E082
:1019F00084E134D861E085E131D8E9EBF0E0808121
:101A00008E7F808380818D7F808388E48093B8007F
:101A100085E48093BC000895AF92BF92CF92DF928D
:101A2000EF92FF920F931F93CF93DF93EC018B0103
:101A30008091450590914605ADDC882381F1BE017A
:101A400080914505909146057ADC40E06EEB8091EF
:101A500045059091460532DCE801680189E0C80E31
:101A6000D11CA0904505B090460588E0E82EF12CE9
:101A700001E010E0C501CFDB8111102B000F81E0E8
:101A8000E81AF108B9F71993CC15DD0551F78091E3
:101A90004505909146057EDC91E0813009F090E0AB
:101AA000892FDF91CF911F910F91FF90EF90DF90E1
:101AB000CF90BF90AF9008958091450590914605D5
:101AC00069DC40E06CEC8091450590914605F6DBC1
:101AD0004091400564E48091450590914605EEDB18
:101AE000809142058823A1F0E0914105E950E3305F
:101AF00040F4F0E0EE0FFF1FE254FD4F6081718172
:101B000002C06EEE72E0072E000C880B990BD8C84D
:101B10000895AF92BF92CF92DF92EF92FF920F9310
:101B20001F93CF93DF931F92CDB7DEB75C01D62E04
:101B3000E72EFC018585811104C0C5012BDC8111D4
:101B400006C0F50113861586148680E061C040E06A
:101B500060EFC501B3DB01E0F12CC12C11E0C50140
:101B60005ADB682FC501698356DB6981613019F43E
:101B70008130B9F432C04F2D50E068131BC0F5011D
:101B80008385181730F4E40FF51F8381802349F40F
:101B900002C0181731F060E0193058F4F5011487CD
:101BA00008C0F501EF0DF11D8381802B838361E077
:101BB00009C0C12EF501E40FF51F9381802F809598
:101BC00089238383C5014BDB1F5F000F11F4F3945E
:101BD00001E0F7E0FF1508F0C2CF113408F4B1CFEF
:101BE000F501C386C11002C081E08587F5018381BC
:101BF000882309F4A6CFD5011396ED2DFE2D95016E
:101C0000255F3F4F8D918193A217B307D9F781E0EC
:101C10000F90DF91CF911F910F91FF90EF90DF9088
:101C2000CF90BF90AF900895CF93DF93CDB7DEB73D
:101C300028970FB6F894DEBF0FBECDBF1D8290E48B
:101C40009E8324E12F8324E5288719829A8390E1DB
:101C50009B8390E59C8390912E05691710F06FEFA0
:101C6000690F40912F05262F30E0FE01E20FF31F90
:101C7000403121F4943011F4918101C09581682F95
:101C8000690F606887E295E028960FB6F894DEBF8A
:101C90000FBECDBFDF91CF91B3CBCF93DF93CDB745
:101CA000DEB729970FB6F894DEBF0FBECDBFFC019B
:101CB0002081203109F1BE016F5F7F4FADDE8823A7
:101CC00071F068E0CE01019699DA9985891307C011
:101CD00008C0803458F08F3569F08F3769F080E0A4
:101CE0000CC08D818F33A9F78AE007C08F31B9F717
:101CF00089E003C08BE001C08CE029960FB6F89410
:101D0000DEBF0FBECDBFDF91CF910895EF92FF925E
:101D10000F931F93CF93DF93EC017B018A0188819E
:101D20009981009729F02A813B8124173507F8F41F
:101D3000B8016F5F7F4F0E941718009759F0998381
:101D400088831B830A832C813D81232B81F4FC0132
:101D500010820DC088819981009711F00E947F1731
:101D6000198218821D821C821B821A8207C01D8361
:101D70000C83B701888199810E940819CE01DF91F7
:101D8000CF911F910F91FF90EF9008954F925F9226
:101D90006F927F92EF92FF920F931F93CF93DF93F7
:101DA000CDB7DEB7A1970FB6F894DEBF0FBECDBF9B
:101DB0007C01FA01CB0119A2223008F42AE08E013D
:101DC0000F5D1F4F422E512C612C712CBF01A301BE
:101DD0009201D6D7F901CA01015011096A3014F4F1
:101DE000605D01C0695CD8016C93232B242B252BEB
:101DF00069F7B801C70143D0A1960FB6F894DEBFCA
:101E00000FBECDBFDF91CF911F910F91FF90EF904B
:101E10007F906F905F904F900895CF92DF92EF92F6
:101E2000FF920F931F93CF93DF936C017A018B0185
:101E3000C0E0D0E0CE15DF0589F0D8016D918D01AD
:101E4000D601ED91FC910190F081E02DC60119952C
:101E5000892B11F47E0102C02196ECCFC701DF91DE
:101E6000CF911F910F91FF90EF90DF90CF90089549
:101E7000DC01ED91FC910190F081E02D1994611548
:101E8000710579F0FB0101900020E9F73197AF016E
:101E9000461B570BDC01ED91FC910280F381E02D94
:101EA000199480E090E00895EACFCF93DF93CDB707
:101EB000DEB76E970FB6F894DEBF0FBECDBF789435
:101EC00084B5826084BD84B5816084BD85B582603F
:101ED00085BD85B5816085BD80916E0081608093F0
:101EE0006E00109281008091810082608093810059
:101EF0008091810081608093810080918000816069
:101F0000809380008091B10084608093B1008091C3
:101F1000B00081608093B0008091910082608093D6
:101F20009100809191008160809391008091900058
:101F30008160809390008091A10082608093A100D5
:101F40008091A10081608093A1008091A0008160B8
:101F50008093A00080912101826080932101809173
:101F60002101816080932101809120018160809313
:101F7000200180917A00846080937A0080917A00B9
:101F8000826080937A0080917A00816080937A00E9
:101F900080917A00806880937A001092C100E0916D
:101FA0008E04F0918F0482E08083E0918A04F091A6
:101FB0008B041082E0918C04F0918D0480E1808389
:101FC00010929604E0919204F091930486E080834D
:101FD000E0919004F0919104808180618083E09190
:101FE0009004F0919104808188608083E091900456
:101FF000F0919104808180688083E0919004F09159
:10200000910480818F7D808320E044E064E187E259
:1020100095E07EDA40E050E063E087E295E00E94E0
:102020000B0361E087E295E00E94600481E0809309
:102030000604CEDC64E170E086E00E94990560E071
:1020400082E10E945D0561E08DE00E945D0561E036
:1020500089E00E945D0561E08BE00E945D051A8EBB
:10206000198E1C8E1B8E1E8E1D8E40E050E062EB82
:1020700073E0CE0149964ADE1F928FE08F931F9244
:1020800085E08F931F921F928CEF92E09F938F9326
:102090008E010F5F1F4F1F930F930E940F191A8A13
:1020A000198A1C8A1B8A1E8A1D8AF8010190002049
:1020B000E9F73197AF01401B510BB801CE014196B2
:1020C00025DE898D9A8D0FB6F894DEBF0FBECDBF89
:1020D0000097A1F069897A896115710571F04B8DBE
:1020E0005C8D2D893E894217530738F00E940819EC
:1020F0008D899E899E8F8D8F11C001D789899A897C
:102100009A8F898F8B899C899C8F8B8F8D899E89D3
:102110009E8F8D8F1A8A198A1C8A1B8A1E8A1D8A95
:1021200089899A89ECD660E080E07EDD61E173E028
:1021300087E295E0B9DE61E080E076DD4D8D5E8D71
:10214000698D7A8D87E295E068DE60ED77E080E06A
:1021500090E00E94600661E087E295E051D98BE350
:102160009FE10197F1F7898D9A8DC9D631DC81E025
:102170008093130488E6809335041092140410921F
:10218000360460E08BE195E00E94BA0381E0B8DBA1
:1021900081E090E012DC8BE195E00E946F0387FF05
:1021A00006C062E273E08EE794E069DE60DBE091F6
:1021B0004505F0914605138615861486DF011B96AA
:1021C00033961E92AE17BF07E1F710924405FF2425
:1021D000F394BE016F5E7F4F809145059091460557
:1021E00098DC882309F447C067E0CE01419606D801
:1021F000988D8913EECF80914005811123C0809185
:10220000450590914605C6D8BE016F5E7F4F80910F
:1022100045059091460593D840E064EB80914505D3
:10222000909146054BD880914505909146050E94B6
:102230000B09E82E8091450590914605ABD8EE201C
:1022400009F4A8C2B801CE014196E6DBE090410551
:10225000CE01419622DD8E1518F48091410503C010
:10226000CE0141961ADD80934105809144058F5F30
:1022700080934405AECF68E1D62ECC24C39478EE8B
:10228000E72E73E0F72E66E373E08EE794E00CDE52
:1022900013DC6DE573E08EE794E006DEE8DA62E6D3
:1022A00073E08EE794E000DE80900D0490900E04C1
:1022B000A0900F04B0901004A5019401C501B401D1
:1022C00034D5882319F069E673E018C0240135017C
:1022D000E89477F82FEF3FEF4FE75FE7C301B201D4
:1022E00024D581110FC02FEF3FEF4FE75FE7C30108
:1022F000B20168D3181634F46DE673E08EE794E00B
:10230000BEDD6BC02FEF3FEF4FE75FE4C501B401C7
:1023100008D518161CF461E773E0F0CF2FEF3FEFFC
:102320004FE75FECC501B4014DD387FDF4CF20E04A
:1023300030E0A901C501B40145D387FF08C06DE2B3
:102340008EE794E095DDB7FAB094B7F8B0942AE040
:1023500037ED43EA5BE3C501B4014ED42B013C01E8
:10236000B4D44B015C0132D39B01AC01C301B20177
:1023700042D42B013C012AE0B501A4018EE794E090
:1023800005DD6EE28EE794E073DD20E030E040E2B0
:1023900051E4C301B2017BD32B013C0196D44B0124
:1023A000A12CB12C2AE0B501A4018EE794E0EEDC6B
:1023B000C501B4010BD39B01AC01C301B2011BD415
:1023C00020E030E040E251E462D37FD4AB0160E032
:1023D00070E02AE08EE794E0D9DC49DA65E773E043
:1023E0008EE794E061DD43DAC8010E944B08498121
:1023F00050E04053584F052E000C660B770B2AE037
:102400008EE794E0C3DC6FE28EE794E031DD4A8131
:1024100050E060E070E02AE08EE794E0B7DC6FE225
:102420008EE794E025DD4B8150E060E070E02AE02B
:102430008EE794E0ABDC69E873E08EE794E034DD8E
:10244000C8010E94CB08D89EC0011124BC01605F66
:102450007D4F8EE794E028DD6CE873E08EE794E032
:1024600023DD4C8150E060E070E02AE08EE794E0EC
:102470008DDC6AE38EE794E0FBDC4D8150E060E0A8
:1024800070E02AE08EE794E081DC6AE38EE794E076
:10249000EFDC4E8150E060E070E02AE08EE794E0EF
:1024A00075DCE5D960E080E0BFDBC8010E944B0825
:1024B0008C8190E08ED96AE387E295E0D9DC8D814A
:1024C00090E087D960E086E0AFDBC8010E94CB08CE
:1024D000D89EC0011124BC01605F7D4F87E295E06A
:1024E000E3DC60E08AE0A0DB898190E08053984FD4
:1024F00070D96FE287E295E0BBDC8A8190E069D910
:102500006FE287E295E0B4DC8B8190E062D964EF02
:1025100071E080E090E00E94600686D99093050407
:1025200080930404892B09F56FE873E08EE794E04B
:10253000A6DC9DD92FB7F8948091000490910104F6
:10254000A0910204B09103042FBF809309049093DB
:102550000A04A0930B04B0930C0410920804109288
:102560000704C09206046FEF1FC080910604882301
:10257000F9F02FB7F8948091000490910104A09194
:102580000204B09103042FBF2091090430910A0482
:10259000821B930B909308048093070481369A4E14
:1025A00038F01092060460E087E295E00E94600433
:1025B0006CE973E08EE794E077DC809107049091FA
:1025C0000804B701B6D3AB0160E070E02AE08EE703
:1025D00094E0DCDB4CD90E94980661E080E024DBCB
:1025E00062E673E087E295E05FDC80900D049090F6
:1025F0000E04A0900F04B090100420E030E0A90178
:10260000C501B4018ED320E030E040E05FE387FDF8
:1026100004C0C501B401F0D203C0C501B401EBD2BE
:102620004FD34B015C0197FF0DC06DE287E295E04F
:102630001FDC44275527BA01481959096A097B0943
:102640002AE003C02AE0AB01BC0187E295E09EDBF3
:102650006FED87E295E00CDC66E487E295E008DC4C
:102660002BDAE0914505F091460513861586148610
:10267000DF011B96CF0103961E92A817B907E1F759
:10268000BE016F5E7F4FCF0144DA882349F067E0D7
:10269000CE0141960E94FE08988D891709F47DC0ED
:1026A0003AE9832E39E9932E34E4A32E33ECB32E8A
:1026B00080920D0490920E04A0920F04B092100428
:1026C00020E030E040EA52E4C501B4012AD387FF9C
:1026D0000DC020E030E040E752E4C501B40172D102
:1026E00018160CF454C0A12CB12C2AC0612C712CEA
:1026F000B3018DE00E9499056EE170E080E090E00A
:102700000E9460068FE0680E711C2EE0621621E0C8
:10271000720671F766246A94712CB3018DE00E94F1
:1027200099056EE170E080E090E00E9460063FE075
:10273000631A710841EF64164FEF740671F7C9CF41
:10274000B50189E00E9499056EE170E080E090E0BB
:102750000E9460065FE0A50EB11C8EE0A81681E025
:10276000B80671F7AA24AA94B12CB50189E00E9499
:1027700099056EE170E080E090E00E9460062FE035
:10278000A21AB10831EFA3163FEFB30671F70E940A
:10279000AD0279CDF092400555CDB801CE014196FC
:1027A0003BD9882339F068E0C8010E94FE0899856A
:1027B0008917C9F060E874EE613854EE75070CF4BF
:1027C0006FCF072E000C880B990B02D126E636E658
:1027D00046E65CE35CD120E030E040E052E40CD21D
:1027E0004B015C0165CF698148E0649FB001112411
:1027F0008A81282F30E0322F2227330F330F330FF7
:10280000262B372B89898031C1F4688570E08F8150
:10281000AB01481B5109CA019695982F88279795B7
:1028200087959BD260517109207F53E0220F331F9F
:102830005A95E1F7620F731FBFCFB901BDCF109258
:1028400081041092800488EE93E0A0E0B0E08093D1
:10285000820490938304A0938404B093850428ECAD
:1028600032E030937F0420937E0425EC30E03093F7
:102870008B0420938A0424EC30E030938D04209361
:102880008C0420EC30E030938F0420938E0421ECF4
:1028900030E0309391042093900422EC30E03093A8
:1028A00093042093920426EC30E030939504209317
:1028B0009404109297041092980410929904109224
:1028C0009A0410921E0510921D0580931F05909387
:1028D0002005A0932105B09322058AED92E0909304
:1028E0001C0580931B0560E08AE00E945D05ECE119
:1028F000F3E0E491E0935305E6EDF2E0E491F0E0DB
:10290000EE0FFF1FEE54FD4F859194919093550566
:102910008093540510925E051092600510925F0539
:10292000EEE5F5E0129285E0E635F807D9F78CE29E
:1029300093E0909352058093510583E595E0909341
:10294000460580934505109244051092400589E0A4
:102950008093410581E08093420580934305109266
:102960002A05109229052CEE32E030932805209399
:102970002705109237059FEF909336051092350585
:102980001092380597E29093320510923305109219
:102990003405109231051092300594E0909339057A
:1029A00092E090933A0580933B0580E180933C054B
:1029B00080E280933D0580E480933E0580E880932B
:1029C0003F05089540D008F481E00895E89409C0D7
:1029D00097FB3EF490958095709561957F4F8F4F52
:1029E0009F4F9923A9F0F92F96E9BB279395F69568
:1029F000879577956795B795F111F8CFFAF4BB0FE6
:102A000011F460FF1BC06F5F7F4F8F4F9F4F16C049
:102A1000882311F096E911C0772321F09EE8872FD3
:102A2000762F05C0662371F096E8862F70E060E08F
:102A30002AF09A95660F771F881FDAF7880F969508
:102A4000879597F90895990F0008550FAA0BE0E8AC
:102A5000FEEF16161706E807F907C0F01216130660
:102A6000E407F50798F0621B730B840B950B39F4A0
:102A70000A2661F0232B242B252B21F408950A2606
:102A800009F4A140A6958FEF811D811D08950BD0FB
:102A900078C069D028F06ED018F0952309F05AC09C
:102AA0005FC01124A2C07ED0A0F3959FD1F3950FF3
:102AB00050E0551F629FF001729FBB27F00DB11DC2
:102AC000639FAA27F00DB11DAA1F649F6627B00D52
:102AD000A11D661F829F2227B00DA11D621F739F3B
:102AE000B00DA11D621F839FA00D611D221F749F49
:102AF0003327A00D611D231F849F600D211D822F90
:102B0000762F6A2F11249F5750408AF0E1F08823D6
:102B10004AF0EE0FFF1FBB1F661F771F881F9150E3
:102B20005040A9F79E3F510570F014C05EC05F3F52
:102B3000ECF3983EDCF3869577956795B795F79516
:102B4000E7959F5FC1F7FE2B880F911D969587959E
:102B500097F9089597F99F6780E870E060E008951D
:102B60009FEF80EC089500240A94161617061806A5
:102B70000906089500240A94121613061406050681
:102B80000895092E0394000C11F4882352F0BB0F12
:102B900040F4BF2B11F460FF04C06F5F7F4F8F4F75
:102BA0009F4F089557FD9058440F551F59F05F3FB0
:102BB00071F04795880F97FB991F61F09F3F79F05F
:102BC00087950895121613061406551FF2CF4695E1
:102BD000F1DF08C0161617061806991FF1CF869563
:102BE0007105610508940895E894BB276627772747
:102BF000CB0197F908955058BB27AA270ED0C1CF13
:102C0000B2DF30F0B7DF20F031F49F3F11F41EF453
:102C1000A7CF0EF4E095E7FB9DCFE92FC3DF80F34C
:102C2000BA17620773078407950718F071F49EF5C9
:102C3000DBCF0EF4E0950B2EBA2FA02D0B01B901BE
:102C400090010C01CA01A0011124FF27591B99F022
:102C5000593F50F4503E68F11A16F040A22F232F2E
:102C6000342F4427585FF3CF469537952795A7957E
:102C7000F0405395C9F77EF41F16BA0B620B730B25
:102C8000840BBAF09150A1F0FF0FBB1F661F771F96
:102C9000881FC2F70EC0BA0F621F731F841F48F44B
:102CA000879577956795B795F7959E3F08F0B3CFD1
:102CB0009395880F08F09927EE0F979587950895BB
:102CC00004D06894B11191CF089574DF88F09F57B4
:102CD00090F0B92F9927B751A0F0D1F0660F771F68
:102CE000881F991F1AF0BA95C9F712C0B13081F048
:102CF0007BDFB1E0089578CF672F782F8827B85F02
:102D000039F0B93FCCF3869577956795B395D9F7A8
:102D10003EF490958095709561957F4F8F4F9F4FB2
:102D2000089591DE08F48FEF08958DDE880B990BDE
:102D30000895AA1BBB1B51E107C0AA1FBB1FA61702
:102D4000B70710F0A61BB70B881F991F5A95A9F754
:102D500080959095BC01CD01089597FB072E16F440
:102D6000009406D077FD08D0E4DF07FC05D03EF4E0
:102D7000909581959F4F0895709561957F4F089527
:102D8000A1E21A2EAA1BBB1BFD010DC0AA1FBB1F6F
:102D9000EE1FFF1FA217B307E407F50720F0A21BE1
:102DA000B30BE40BF50B661F771F881F991F1A944E
:102DB00069F760957095809590959B01AC01BD0178
:102DC000CF010895EE0FFF1F881F8BBF0790F6916C
:102DD000E02D1994CF93DF938230910510F482E0B7
:102DE00090E0E0916305F091640520E030E0C0E000
:102DF000D0E0309711F14081518148175907C0F058
:102E00004817590761F482819381209719F09B83B9
:102E10008A832BC0909364058093630526C0211597
:102E2000310519F04217530718F49A01BE01DF016A
:102E3000EF010280F381E02DDCCF2115310509F18E
:102E4000281B390B2430310590F412968D919C91FA
:102E500013976115710521F0FB019383828304C0F0
:102E60009093640580936305FD01329644C0FD0193
:102E7000E20FF31F81939193225031092D933C93DC
:102E80003AC02091610530916205232B41F42091D5
:102E9000BA023091BB023093620520936105209104
:102EA000B8023091B9022115310541F42DB73EB772
:102EB0004091BC025091BD02241B350BE09161058D
:102EC000F0916205E217F307A0F42E1B3F0B2817C1
:102ED000390778F0AC014E5F5F4F2417350748F093
:102EE0004E0F5F1F5093620540936105819391934C
:102EF00002C0E0E0F0E0CF01DF91CF9108950F93A1
:102F00001F93CF93DF93009709F48CC0FC01329795
:102F10001382128200916305109164050115110559
:102F200081F420813181820F931F209161053091BE
:102F300062052817390779F5F0936205E09361057A
:102F400071C0D80140E050E0AE17BF0750F41296B0
:102F50002D913C911397AD012115310509F1D9014E
:102F6000F3CF9D01DA013383228360817181860F63
:102F7000971F8217930769F4EC0128813981260F86
:102F8000371F2E5F3F4F318320838A819B8193833C
:102F90008283452B29F4F0936405E093630542C0D6
:102FA0001396FC93EE931297ED01499159919E016E
:102FB000240F351FE217F30771F480819181840F8C
:102FC000951F029611969C938E93828193811396FE
:102FD0009C938E931297E0E0F0E0D80112968D91C9
:102FE0009C911397009719F0F8018C01F6CF8D9101
:102FF0009C9198012E5F3F4F820F931F2091610596
:10300000309162052817390769F4309729F4109236
:1030100064051092630502C0138212821093620548
:1030200000936105DF91CF911F910F9108956F92E9
:103030007F928F929F92AF92BF92CF92DF92EF9248
:10304000FF920F931F93CF93DF93EC01009781F4CE
:10305000CB01DF91CF911F910F91FF90EF90DF9007
:10306000CF90BF90AF909F908F907F906F90B2CE97
:10307000FC01E60FF71F9C0122503109E217F3070C
:1030800008F4A8C0D9010D911C91119706171707D4
:10309000A8F00530110508F49BC0C80104978617F5
:1030A000970708F495C002501109061B170B0193EE
:1030B00011936D937C93CF0122DF8AC05B01A01A2C
:1030C000B10A4C01800E911EA0916305B091640578
:1030D00040E050E0E12CF12C109709F44AC0A8150B
:1030E000B905D1F56D907C901197630182E0C80E0F
:1030F000D11CCA14DB0480F1A3014A195B096A01DF
:1031000082E0C80ED11C1296BC9012971396AC9117
:10311000B5E0CB16D10440F0B282A3835183408343
:10312000D9016D937C930AC00E5F1F4FC301800FBE
:10313000911FF90191838083EB2DFA2FE114F104A3
:1031400031F0D7011396FC93EE93129741C0F093A0
:103150006405E09363053CC08D919C9111974817DD
:10316000590708F4AC017D0112960D90BC91A02D79
:10317000B3CF809161059091620588159905E1F4BE
:1031800046175707C8F48091B8029091B90200978A
:1031900041F48DB79EB74091BC025091BD02841B93
:1031A000950BE817F907B0F4F0936205E093610519
:1031B000F901718360830CC0CB010CDE7C010097A8
:1031C00049F0A801BE011BD0CE0199DEC70104C0A1
:1031D000CE0102C080E090E0DF91CF911F910F916E
:1031E000FF90EF90DF90CF90BF90AF909F908F9027
:1031F0007F906F90089581E090E0F894D9C2FB0130
:10320000DC0102C001900D9241505040D8F7089562
:10321000FB01DC0101900D920020E1F708950F936E
:103220001F93CF93DF93CDB7DEB72E970FB6F894E9
:10323000DEBF0FBECDBF0E891F8986E08C831A8347
:1032400009838FEF9FE79E838D83AE01465E5F4FBC
:10325000688D798DCE01019611D02F813885F801C6
:10326000E20FF31F10822E960FB6F894DEBF0FBE4A
:10327000CDBFDF91CF911F910F9108952F923F9273
:103280004F925F926F927F928F929F92AF92BF9276
:10329000CF92DF92EF92FF920F931F93CF93DF9322
:1032A000CDB7DEB72C970FB6F894DEBF0FBECDBFFB
:1032B0007C016B018A01FC0117821682838181FFE8
:1032C000B0C1CE0101964C01F7019381F60193FD47
:1032D000859193FF81916F01882309F49EC1853206
:1032E00039F493FD859193FF81916F01853221F42B
:1032F000B70190E0C7D1E8CF512C312C20E020322B
:10330000A0F48B3269F030F4803259F0833269F4E2
:1033100020612CC08D3239F0803339F4216026C011
:103320002260246023C0286021C027FD27C030ED23
:10333000380F3A3078F426FF06C0FAE05F9E300D71
:103340001124532E13C08AE0389E300D1124332EE1
:1033500020620CC08E3221F426FD5FC1206406C0BD
:103360008C3611F4206802C0883641F4F60193FDD2
:10337000859193FF81916F018111C1CF982F9F7D1E
:103380009554933028F40C5F1F4FFFE3F9830DC071
:10339000833631F0833771F0833509F057C021C08F
:1033A000F801808189830E5F1F4F44244394512C80
:1033B000540114C03801F2E06F0E711CF801A080B6
:1033C000B18026FF03C0652D70E002C06FEF7FEF74
:1033D000C5012C874CD12C0183012C852F77222EFF
:1033E00016C03801F2E06F0E711CF801A080B180A8
:1033F00026FF03C0652D70E002C06FEF7FEFC501AF
:103400002C872AD12C012C852068222E830123FCB5
:1034100019C0832D90E048165906A0F4B70180E248
:1034200090E030D13A94F5CFF50127FC859127FE45
:1034300081915F01B70190E025D131103A94F1E01C
:103440004F1A51084114510479F7DEC0843611F047
:10345000893631F5F80127FF07C0608171818281CB
:1034600093810C5F1F4F08C060817181072E000C93
:10347000880B990B0E5F1F4F2F76722E97FF09C096
:1034800090958095709561957F4F8F4F9F4F2068E5
:10349000722E2AE030E0A4012DD1A82EA81843C036
:1034A000853729F42F7EB22E2AE030E025C0F22F96
:1034B000F97FBF2E8F36C1F018F4883579F0ADC092
:1034C000803719F0883721F0A8C02F2F2061B22E45
:1034D000B4FE0DC08B2D8460B82E09C024FF0AC035
:1034E0009F2F9660B92E06C028E030E005C020E18D
:1034F00030E002C020E132E0F801B7FE07C0608191
:103500007181828193810C5F1F4F06C06081718140
:1035100080E090E00E5F1F4FA401ECD0A82EA81809
:10352000FB2DFF777F2E76FE0BC0372D3E7FA51437
:1035300050F474FE0AC072FC08C0372D3E7E05C0F0
:10354000BA2C372D03C0BA2C01C0B52C34FF0DC0E6
:10355000FE01EA0DF11D8081803311F4397E09C02E
:1035600032FF06C0B394B39404C0832F867809F069
:10357000B39433FD12C030FF06C05A2CB31418F4B4
:10358000530C5B18B32CB31460F4B70180E290E0E5
:103590003C8778D0B3943C85F6CFB31410F43B1835
:1035A00001C0312C34FF11C0B70180E390E03C87AB
:1035B00069D03C8532FF16C031FD03C088E790E03A
:1035C00002C088E590E0B7010CC0832F867851F0E7
:1035D00031FF02C08BE201C080E237FD8DE2B7010E
:1035E00090E050D0A51430F4B70180E390E04AD0C9
:1035F0005A94F8CFAA94F401EA0DF11D8081B70125
:1036000090E040D0A110F6CF332009F45DCEB70191
:1036100080E290E037D03A94F7CFF7018681978126
:1036200002C08FEF9FEF2C960FB6F894DEBF0FBE4F
:10363000CDBFDF91CF911F910F91FF90EF90DF9061
:10364000CF90BF90AF909F908F907F906F905F9042
:103650004F903F902F900895FC010590615070406D
:103660000110D8F7809590958E0F9F1F0895FC014B
:103670006150704001900110D8F7809590958E0FA1
:103680009F1F08950F931F93CF93DF93FB01238117
:1036900021FD03C08FEF9FEF28C022FF16C0468197
:1036A0005781248135814217530744F4A081B181A9
:1036B0009D012F5F3F4F318320838C93268137817B
:1036C0002F5F3F4F3783268310C0EB01092F182F40
:1036D0000084F185E02D1995892BE1F68E819F817B
:1036E00001969F838E83812F902FDF91CF911F9121
:1036F0000F910895FA01AA27283051F1203181F164
:10370000E8946F936E7F6E5F7F4F8F4F9F4FAF4FE9
:10371000B1E03ED0B4E03CD0670F781F891F9A1FFC
:10372000A11D680F791F8A1F911DA11D6A0F711DB0
:10373000811D911DA11D20D009F468943F912AE0BC
:10374000269F11243019305D3193DEF6CF010895A4
:10375000462F4770405D4193B3E00FD0C9F7F6CFD5
:10376000462F4F70405D4A3318F0495D31FD40529D
:10377000419302D0A9F7EACFB4E0A6959795879533
:1037800077956795BA95C9F7009761057105089512
:103790009B01AC010A2E06945795479537952795BE
:1037A000BA95C9F7620F731F841F951FA01D089556
:0437B000F894FFCFBB
:1037B4000A030A030A030A030A030A030A030A039D
:1037C40053756E00000000000000000000000000BF
:1037D40000000000000000004D6F6E0000000000BB
:1037E40000000000000000000000000000000000D5
:1037F4005475650000000000000000000000000097
:103804000000000000000000576564000000000094
:1038140000000000000000000000000000000000A4
:103824005468750000000000000000000000000063
:103834000000000000000000467269000000000063
:103844000000000000000000000000000000000074
:10385400536174000000000000000000000000003C
:1038640000000000000000000000650580005E000C
:10387400BC0077010000000046020D0FDF018C023E
:103884001002EE01020200000000BA038B03E903F8
:103894005F0383036F036003000000001F030D0F29
:1038A400E903E803880A0B03600441045665727354
:1038B400696F6E2025642E253032642E25303264E3
:1038C40000442E412E542E452E20446973706C61A1
:1038D4007900525443206973204E4F542072756E00
:1038E4006E696E67210052657175657374696E67E0
:1038F4002074656D7065726174757265732066728B
:103904006F6D2073656E736F72733A2000444F4E6F
:10391400450054656D703A20006E616E00696E66F4
:10392400006F7666002D2D2D2D2D2D2D2D2D2D2D59
:103934002D2D2D2D2D2D2D2D002028002920004248
:1039440061636B6C69676874204F6E004261636BDE
:103954006C69676874206F6E2074696D653A200025
:043964000D0A000048
:00000001FF
