:10000000ACC10000DBC10000D9C10000D7C10000B5
:10001000D5C10000D3C10000D1C10000CFC1000094
:10002000CDC10000CBC10000C9C10000C7C10000A4
:10003000C5C10000C3C10000C1C10000BFC10000B4
:10004000BDC10000BBC10000B9C10000B7C10000C4
:10005000B5C10000B3C10000B1C1000067C6000017
:10006000ADC100006DC4000042C40000A7C1000083
:10007000A5C10000A3C10000A1C100009FC10000F4
:100080009DC100009BC1000099C1000097C1000004
:1000900095C1000093C1000091C100000C944C096F
:1000A0008DC100008BC1000089C1000087C1000024
:1000B00085C1000083C1000081C100007FC1000034
:1000C0007DC100007BC1000079C1000077C1000044
:1000D00075C1000073C1000071C100006FC1000054
:1000E0006DC10000F104F404E304E704ED042B0502
:1000F000F804FC04020506050A0510051405180598
:100100002B051E0522052605BE05C305C805D2051B
:10011000DC055506E605EE05F60500060A0614069A
:1001200023062D065506370641064B06005EBCE247
:10013000613FDD83C29C7E20A3FD1F419DC3217FC3
:10014000FCA2401E5F01E3BD3E6082DC237D9FC1B7
:10015000421CFEA0E1BF5D0380DE3C62BEE0025CAB
:10016000DF81633D7C22C09E1D43A1FF4618FAA497
:1001700027799BC584DA3866E5BB5907DB85673983
:10018000BAE406581947A5FB7826C49A653BD98777
:10019000045AB8E6A7F91B45C6987A24F8A6441A6B
:1001A00099C7257B3A6486D85B05E7B98CD2306E57
:1001B000EDB3510F4E10F2AC2F7193CD114FADF343
:1001C000702ECC92D38D6F31B2EC0E50AFF1134D37
:1001D000CE90722C6D33D18F0C52B0EE326C8ED02B
:1001E000530DEFB1F0AE4C1291CF2D73CA94762817
:1001F000ABF517490856B4EA6937D58B5709EBB503
:1002000036688AD495CB2977F4AA4816E9B7550BF6
:1002100088D6346A2B7597C94A14F6A8742AC896EA
:10022000154BA9F7B6E80A54D7896B351F1C1F1E5A
:100230001F1E1F1F1E1F1E1F00002100240027005D
:100240002A002D00300033000101000004010701E5
:100250000A0100002200250028002B002E0031009A
:10026000340002010000050108010B0100000A0B27
:1002700002090C0D0E080703040100000000000035
:10028000000000000000000000000000000000006E
:10029000000000000000000012111000000000002B
:1002A000000000000000000000000000000000004E
:1002B0000000000020002300260029002C002F0051
:1002C00032000001000003010601090105050505D2
:1002D000070508080808020202020A0A08080404BE
:1002E00004040101010101010101030303030303EC
:1002F0000303040707070C0C0C0C0C0C0C0C02027B
:10030000020206060606060606060B0B0B0B0B0B77
:100310000B0B010210202008081020401020408004
:1003200002010201080402010102040810204080B9
:100330008040201008040201800402018040201047
:100340000804020108040201010204081020408090
:100350000102040810204080AC1211241FBECFEF10
:10036000D1E2DEBFCDBF00E00CBF25E0A4EAB3E0E0
:1003700001C01D92A535B207E1F713E0A0E0B2E09D
:10038000EEECF4E300E00BBF02C007900D92A43A3C
:10039000B107D9F711E0CDEAD1E000E006C021971E
:1003A0000109802FFE010E946F15CC3AD10780E031
:1003B0000807A9F70E94C60D0C94651A21CEFC010E
:1003C000538D448D252F30E0842F90E0821B930BBA
:1003D000541710F0CF96089501970895FC01918D60
:1003E000828D981761F0828DDF01A80FB11D5D9697
:1003F0008C91928D9F5F9F73928F90E008958FEF05
:100400009FEF0895FC01918D828D981731F0828DB8
:10041000E80FF11D858D90E008958FEF9FEF08950F
:10042000FC01918D228D892F90E0805C9F4F821B73
:1004300091098F73992708958EE694E0F1DF21E00A
:10044000892B09F420E0822F0895FC01848DDF01BF
:10045000A80FB11DA35ABF4F2C91848D90E0019637
:100460008F739927848FA689B7892C93A089B18926
:100470008C9180648C93938D848D981306C0028830
:10048000F389E02D80818F7D80830895EF92FF9224
:100490000F931F93CF93DF93EC0181E0888F9B8DA7
:1004A0008C8D981305C0E889F989808185FD23C06A
:1004B000F62E0B8D10E00F5F1F4F0F731127E02EEC
:1004C0008C8DE8120BC00FB607FCFACFE889F989CA
:1004D000808185FFF5CFCE01B8DFF2CF8B8DFE0195
:1004E000E80FF11DE35AFF4FF0820B8FEA89FB8979
:1004F0008081806207C0EE89FF896083E889F9897D
:1005000080818064808381E090E0DF91CF911F91B2
:100510000F91FF90EF900895CF93DF93EC01888DBA
:100520008823C1F0EA89FB89808185FD05C0A889FF
:10053000B9898C9186FD0EC00FB607FCF5CF80817E
:1005400085FFF2CFA889B9898C9185FFEDCFCE01C7
:100550007CDFE8CFDF91CF91089580E090E0892B98
:1005600019F06ADF811125C080E090E0892B41F00D
:1005700080E090E0892B21F00E94000081111CC0D6
:1005800080E090E0892B41F080E090E0892B21F021
:100590000E940000811113C080E090E0892BA1F03F
:1005A00080E090E0892B81F00E94000081110AC058
:1005B00008950E940000D8CF0E940000E1CF0E9461
:1005C0000000EACF0C94000008953FB7F8948091A2
:1005D000EC039091ED03A091EE03B091EF0326B5EB
:1005E000A89B05C02F3F19F00196A11DB11D3FBF6B
:1005F000BA2FA92F982F8827820F911DA11DB11DF9
:10060000BC01CD0142E0660F771F881F991F4A95F4
:10061000D1F7089521E001C0220F6A95EAF7DC01C5
:100620001C962C931C971A965C934E931997ED91F8
:10063000FC910484F585E02D60E01994DC01ED91D6
:10064000FC910684F785E02D41E0199581E090E06A
:10065000089508950895089585ED8093BC008091D4
:10066000BC0084FDFCCF10926D0408954091C60338
:10067000262F30E0240F311D21323105DCF420918A
:100680006D042430C9F4FC0180E090E0861758F432
:100690003091C6032191DC01AC55BC4FA30FB11DB5
:1006A0002C930196F3CF8091C603680F6093C60325
:1006B00080E0089581E0089582E008950895E09132
:1006C000020480910104E81730F4F0E0E95DFB4F8B
:1006D000808190E008958FEF9FEF0895909102043C
:1006E00080910104981750F4E92FF0E0E95DFB4F89
:1006F000208130E09F5F9093020402C02FEF3FEF14
:10070000C90108958091010490E020910204821BA8
:1007100091090895CF92DF92EF92FF920F931F936A
:10072000CF93DF937C01262F972F8A0180910304BA
:10073000882391F0C62FD72F6E01C40ED51ECC157D
:10074000DD0569F06991D701ED91FC910190F0818F
:10075000E02DC7011995F3CF642F822F87DFC801E1
:10076000DF91CF911F910F91FF90EF90DF90CF908D
:100770000895CF93DF931F92CDB7DEB769832091A1
:1007800003042223D1F020912604203240F021E0FE
:1007900030E0FC013383228380E090E014C080913C
:1007A0000404E82FF0E0EB5FFB4F998190838F5FAB
:1007B000809304048093260404C061E0CE01019676
:1007C00055DF81E090E00F90DF91CF91089508957B
:1007D00080E090E008950E948817FC012381222385
:1007E000B1F09181909569236083828191E090932B
:1007F00003048093250410920404109226048BE0D5
:1008000095E0B7DF81E0EDD6282F30E002C020E090
:1008100030E081E090E0232B11F080E090E008953B
:10082000EF92FF920F931F93CF938C01FC0175966B
:1008300084E0C0E060FF02C09081C92B66958150C2
:1008400031968111F7CF413011F4F8014489F80154
:100850008585C82BC42B7801FEE0EF0EF11CF80152
:1008600062896C2BC701B9DFF801628960956C233E
:10087000C701CF911F910F91FF90EF90AECF0F93D3
:100880001F93CF93DF93062F0F70423019F440E08F
:10089000602F0FC0142F262FEC0130E0B90184E047
:1008A000759567958A95E1F7CE01BADF412F602FE4
:1008B000CE01DF91CF911F910F91B2CFFC018485C2
:1008C0008823A1F0218532852115310519F46111A4
:1008D00006C007C02130310521F4611102C08587AF
:1008E00001C015866585CF010E9677CF08951F92BA
:1008F0000F920FB60F9211240BB60F922F933F93C6
:100900004F935F936F937F938F939F93AF93BF9317
:10091000EF93FF938EE694E098DDFF91EF91BF9106
:10092000AF919F918F917F916F915F914F913F9187
:100930002F910F900BBE0F900FBE0F901F90189528
:100940001F920F920FB60F9211240BB60F922F9396
:100950008F939F93EF93FF93E0917E04F0917F0438
:100960008081E0918404F091850482FD12C0908121
:10097000809187048F5F8F7320918804821751F0D4
:10098000E0918704F0E0E259FB4F958F8093870454
:1009900001C08081FF91EF919F918F912F910F90D6
:1009A0000BBE0F900FBE0F901F90189590E0FC01AA
:1009B0003197E231F10508F04EC08827EE58FF4F1D
:1009C0008F4F0C946F15809180008F7703C08091BA
:1009D00080008F7D80938000089580918000877FC4
:1009E000F9CF84B58F7702C084B58F7D84BD08951B
:1009F0008091B0008F7703C08091B0008F7D80938D
:100A0000B0000895809190008F7707C0809190008A
:100A10008F7D03C080919000877F80939000089520
:100A20008091A0008F7707C08091A0008F7D03C0C8
:100A30008091A000877F8093A0000895809120017D
:100A40008F7707C0809120018F7D03C080912001A6
:100A5000877F8093200108951F93CF93DF93282FE2
:100A600030E0F901E459FD4F8491F901EE5EFC4F4D
:100A7000D491F901E453FD4FC491CC23C1F0162F5A
:100A8000811194DFEC2FF0E0EE0FFF1FEE5AFD4FC7
:100A9000A591B4918FB7F894111105C09C91ED2FD9
:100AA000E095E92302C0EC91ED2BEC938FBFDF9131
:100AB000CF911F910895CF93DF9390E0FC01EE5EFC
:100AC000FC4F2491FC01E453FD4F8491882361F194
:100AD00090E0880F991FFC01E85CFD4FC591D4910F
:100AE000FC01EE5AFD4FA591B491611109C09FB769
:100AF000F8948881209582238883EC912E230BC063
:100B0000623061F49FB7F8943881822F80958323F7
:100B10008883EC912E2B2C939FBF06C08FB7F8943F
:100B2000E8812E2B28838FBFDF91CF9108951F93EB
:100B3000CF93DF93182FEB0161E0BDDF209711F415
:100B400060E004C0CF3FD10531F461E0812FDF9137
:100B5000CF911F9181CFE12FF0E0E459FD4FE49157
:100B60004E2F50E0FA013197E231F10508F09DC0B7
:100B70008827EC57FF4F8F4F0C946F1584B5806812
:100B800084BDC7BD97C084B5806284BDC8BD92C016
:100B900080918000806880938000D0938900C0930A
:100BA000880088C080918000806280938000D0930C
:100BB0008B00C0938A007EC0809180008860809303
:100BC0008000D0938D00C0938C0074C08091B000E1
:100BD00080688093B000C093B3006CC08091B00077
:100BE00080628093B000C093B40064C08091900094
:100BF000806880939000D0939900C09398005AC069
:100C000080919000806280939000D0939B00C0936D
:100C10009A0050C080919000886080939000D0939B
:100C20009D00C0939C0046C08091A0008068809386
:100C3000A0008091A0008F7B8093A000D093A9009A
:100C4000C093A80037C08091A00080628093A0006C
:100C5000D093AB00C093AA002DC08091A000886003
:100C60008093A000D093AD00C093AC0023C08091CE
:100C70002001806880932001D0932901C09328012E
:100C800019C080912001806280932001D0932B01B4
:100C9000C0932A010FC080912001886080932001B9
:100CA000D0932D01C0932C0105C0C038D1050CF0A4
:100CB0004CCF46CFDF91CF911F9108958F929F9295
:100CC000AF92BF92CF92DF92EF92FF926B017C01C5
:100CD0007CDC4B015C01C114D104E104F104E9F0B6
:100CE00074DCDC01CB0188199909AA09BB09883E8B
:100CF0009340A105B10578F321E0C21AD108E108BB
:100D0000F10888EE880E83E0981EA11CB11CC11466
:100D1000D104E104F10421F7DECFFF90EF90DF90E2
:100D2000CF90BF90AF909F908F9008951F920F9299
:100D30000FB60F9211242F933F938F939F93AF93EE
:100D4000BF938091F0039091F103A091F203B091D1
:100D5000F3033091EB0323E0230F2D3720F40196AA
:100D6000A11DB11D05C026E8230F0296A11DB11DCE
:100D70002093EB038093F0039093F103A093F2038D
:100D8000B093F3038091EC039091ED03A091EE03F7
:100D9000B091EF030196A11DB11D8093EC039093D8
:100DA000ED03A093EE03B093EF03BF91AF919F913A
:100DB0008F913F912F910F900FBE0F901F9018951C
:100DC000CF92DF92EF92FF920F931F93CF93DF9317
:100DD000EC0181E08093030488E68093250410925F
:100DE00004041092260460E08BE095E0C2DC81E010
:100DF000F8D387E090E052D48BE095E06FDC8F77FA
:100E0000982F92959F701AEF082F919F000D112433
:100E10008BE095E063DC9C01332794E035952795C2
:100E20009A95E1F7F82E129FF00C11248BE095E0D3
:100E300055DC9C01332744E0359527954A95E1F729
:100E4000E82E129FE00C11248BE095E047DC8BE04C
:100E500095E044DC9C01332754E0359527955A955D
:100E6000E1F7D82E129FD00C11248BE095E036DCF0
:100E70009C01332764E0359527956A95E1F7C82EE4
:100E8000129FC00C11248BE095E028DC9C013327D5
:100E900074E0359527957A95E1F7129F800D11241E
:100EA0008883C982DA82EB82FC820D83CE01DF91D6
:100EB000CF911F910F91FF90EF90DF90CF90089509
:100EC000FC0161819081492F50E0228130E0ECE209
:100ED000F2E081E08E1B782F7E0F761728F4749154
:100EE000270F311D3196F7CF633020F0937011F446
:100EF0002F5F3F4F6DE671E0469FC001479F900D09
:100F0000569F900D112405964D5F5F4F569547955E
:100F100056954795840F951F820F931F67E070E0E9
:100F20000C9426150895DC01E0E0615038F08D91B5
:100F3000E827F0E0E45DFE4FE491F7CF8E2F0895AF
:100F4000FC0190810180F281E02DF8948181892B50
:100F500081832281892F809528232283A7E0B0E016
:100F60001197F1F7218182238183A3E2B0E01197E9
:100F7000F1F780817894EFECF0E03197F1F7982366
:100F800081E009F480E00895FC0190810180F28104
:100F9000E02D892F809560FF12C0F8942281822372
:100FA00082838181892B8183A3E2B0E01197F1F7DD
:100FB0008281982B9283789487ED90E011C0F89409
:100FC0002281822382838181892B8183AFEFB0E0EC
:100FD0001197F1F78281982B928378948FE090E0BB
:100FE0000197F1F70895CF92DF92EF92FF920F935E
:100FF0001F93CF93DF931F92CDB7DEB76C01E62E20
:1010000008E010E0FF24F39461E08F2D8E2109F4B5
:1010100060E0C6014983B8DFFF0C01501109498126
:101020000115110589F7411115C0F894D6011196E3
:10103000ED91FC91129791818C9180958923818308
:101040001196ED91FC91129792818C918095892354
:10105000828378940F90DF91CF911F910F91FF9031
:10106000EF90DF90CF900895CF92DF92EF92FF92B2
:101070000F931F93CF93DF931F92CDB7DEB78C01F1
:10108000F62E40E065E57983AEDFCF2C7981D72E4F
:10109000760188E0E80EF11CF60161916F0140E0F5
:1010A000C801A1DFCE14DF04B9F70F90DF91CF9113
:1010B0001F910F91FF90EF90DF90CF900895FC016A
:1010C00090810180F281E02DF8948181292F209573
:1010D0008223818378948DE743E050E0815021F1B1
:1010E000DA011197F1F730813923C1F3F894828145
:1010F000822382838181892B81837894ABE7B7E057
:101100001197F1F7F894818128232183A3E1B1E0BD
:101110001197F1F78081982381E009F080E07894BD
:10112000E3E6F6E03197F1F70895DC01ED91FC91EB
:101130000684F785E02D40E019940F931F93CF9319
:10114000DF93EC01423018F08C8188608C834F83F0
:101150006887222329F0413019F48C8184608C83C4
:1011600064E670E080E090E0A9DD6C8164FD31C050
:10117000E881F9810684F785E02D42E063E0CE0145
:1011800019950BE416E4C8010197F1F7E881F9819C
:101190000684F785E02D42E063E0CE011995C80191
:1011A0000197F1F7E881F9810684F785E02D42E0A7
:1011B00063E0CE01199583E592E00197F1F7E881AC
:1011C000F9810684F785E02D42E062E0CE011995B1
:1011D00013C06062CE01A9DF8BE496E40197F1F7BA
:1011E0006C816062CE01A1DF83E592E00197F1F7A7
:1011F0006C816062CE0199DF6C816062CE0195DF07
:1012000084E08D836CE0CE0190DF61E0CE018DDF64
:101210008BE39FE10197F1F782E08E8366E0CE01D8
:1012200084DFE881F9810484F585E02D6FEFCE013C
:10123000DF91CF911F910F911994FF920F931F93FC
:10124000CF93DF93EC01162F042FF22E8B85888B22
:1012500030D261E0888981D1109202048093010428
:1012600091E0811101C090E0998B8BE095E036DA36
:101270008E878989882331F01F861C8260E0CE0129
:101280000E96ABDA2F2D402F612FCE01DF91CF913B
:101290001F910F91FF9051CF1F920F920FB60F9297
:1012A00011240BB60F922F933F934F935F936F933D
:1012B0007F938F939F93AF93BF93EF93FF9380910F
:1012C000B900887F803609F49CC068F5883209F43B
:1012D0005BC090F4803109F454C038F4882309F4D9
:1012E000F6C0883009F44DC0F5C0883109F44CC00F
:1012F000803209F45DC0EEC0803409F468C048F45F
:10130000803309F455C0883309F0E4C080936B043E
:10131000D8C0803509F44FC0883509F45DC08834E1
:1013200009F0D8C0D6C0883909F4C7C0A8F48837F6
:1013300009F467C038F4883609F463C0803709F4CB
:1013400060C0C8C0883809F4B8C0803909F45FC0EB
:10135000803809F0BFC05BC0803B09F486C038F418
:10136000803A09F466C0883A09F47FC0B3C0803C73
:1013700009F4A7C0883C09F4A4C0883B09F48AC0DA
:10138000A9C08091680410C090916A04809169049A
:10139000981770F5E0916A0481E08E0F80936A04DB
:1013A000F0E0E95BFB4F80818093BB0085EC86C059
:1013B00080936B048EC0E0916A0481E08E0F80936D
:1013C0006A048091BB00F0E0E95BFB4F8083909161
:1013D0006A04809169046EC0E0916A0481E08E0F16
:1013E00080936A048091BB00F0E0E95BFB4F80834F
:1013F00080916C0481116DC081E08093670484EA60
:1014000061C083E080936D041092EA03CFCF809196
:10141000EA03803208F051C0E091EA0381E08E0FC8
:101420008093EA038091BB00F0E0E653FC4F808399
:10143000BDCF85EC8093BC0010926D048091EA03CF
:10144000803230F4E091EA03F0E0E653FC4F108282
:101450006091EA0370E0E091C803F091C9038AEC5F
:1014600093E019951092EA0335C084E080936D04EF
:101470001092C7031092C603E091C403F091C50314
:1014800019958091C603811105C081E08093C60340
:101490001092A403E091C70381E08E0F8093C703ED
:1014A000F0E0EC55FC4F80818093BB009091C70326
:1014B0008091C603981708F479CF85E88093BC0023
:1014C00009C085EC8093BC0010926D0403C010929B
:1014D0006B04C2D8FF91EF91BF91AF919F918F9113
:1014E0007F916F915F914F913F912F910F900BBE24
:1014F0000F900FBE0F901F901895CF92DF92EF9232
:10150000FF926C018AE0C816D10420F460E387E101
:1015100095E01FD30D2C000CEE08FF08F7FE0DC060
:101520006DE287E195E015D344275527BA014C19A0
:101530005D096E097F092AE003C02AE0B701A60110
:1015400087E195E0FF90EF90DF90CF9090C20895F3
:1015500060EA73E08EE694E003C390916D0491110C
:10156000FCCF91E090936D0490936C042FEF209347
:101570006B0410926A04260F209369049093680408
:1015800090916804880F892B809368048091670488
:10159000813061F410926704809168048093BB00ED
:1015A0008091BC0083FDF8CF85EC01C085EE80936F
:1015B000BC0080916D048130E1F380916A0486174C
:1015C00010F460916A04A7E4B4E027E234E0F90182
:1015D0008E2F821B861718F48D918193F9CF862F59
:1015E0000895382F2091260490912504213208F087
:1015F00049C080916D048111FCCF42E040936D049D
:1016000030936C043FEF30936B0410926A04209384
:101610006904A5E0B4E047E454E0FA013E2F341B2E
:10162000321718F43D913193F9CF1092680420914C
:101630006804990F922B90936804909167049130FD
:1016400061F410926704909168049093BB009091AC
:10165000BC0093FDF8CF95EC01C095EE9093BC00D3
:1016600090916D049230E1F390916B049F3F79F07B
:1016700080916B04803241F080916B04803331F0B3
:1016800084E005C081E003C082E001C083E01092E5
:10169000040410922604109203040895813208F085
:1016A00080E2682F88E659DF1092020480930104DB
:1016B00008951092020410920104109204041092F2
:1016C000260410926D0481E080936C0410926704EC
:1016D00061E084E1C1D961E085E1BED9E9EBF0E0E8
:1016E00080818E7F808380818D7F808388E480935A
:1016F000B80085E48093BC000895AF92BF92CF926A
:10170000DF92EF92FF920F931F93CF93DF93EC0141
:101710008B018091350590913605D1DC882381F1CC
:10172000BE0180913505909136059EDC40E06EEB60
:10173000809135059091360556DCE801680189E015
:10174000C80ED11CA0903505B090360588E0E82E73
:10175000F12C01E010E0C501F3DB8111102B000F2B
:1017600081E0E81AF108B9F71993CC15DD0551F7B6
:101770008091350590913605A2DC91E0813009F029
:1017800090E0892FDF91CF911F910F91FF90EF9003
:10179000DF90CF90BF90AF900895809135059091E4
:1017A00036058DDC40E06CEC809135059091360576
:1017B0001ADC4091300564E480913505909136053E
:1017C00012DC809132058823A1F0E0913105E950C7
:1017D000E33040F4F0E0EE0FFF1FE255FD4F608173
:1017E000718102C06EEE72E0072E000C880B990B1F
:1017F00065CA0895AF92BF92CF92DF92EF92FF92A7
:101800000F931F93CF93DF931F92CDB7DEB75C0189
:10181000D62EE72EFC018585811104C0C5014FDC61
:10182000811106C0F50113861586148680E061C01B
:1018300040E060EFC501D7DB01E0F12CC12C11E0E5
:10184000C5017EDB682FC50169837ADB6981613060
:1018500019F48130B9F432C04F2D50E068131BC029
:10186000F5018385181730F4E40FF51F8381802379
:1018700049F402C0181731F060E0193058F4F5014E
:10188000148708C0F501EF0DF11D8381802B838340
:1018900061E009C0C12EF501E40FF51F9381802F8F
:1018A000809589238383C5016FDB1F5F000F11F4CF
:1018B000F39401E0F7E0FF1508F0C2CF113408F40B
:1018C000B1CFF501C386C11002C081E08587F50163
:1018D0008381882309F4A6CFD5011396ED2DFE2D23
:1018E0009501255F3F4F8D918193A217B307D9F7DB
:1018F00081E00F90DF91CF911F910F91FF90EF90BA
:10190000DF90CF90BF90AF900895CF93DF93CDB786
:10191000DEB728970FB6F894DEBF0FBECDBF1D828D
:1019200090E49E8324E12F8324E5288719829A83FB
:1019300090E19B8390E59C8390911E05691710F0C0
:101940006FEF690F40911F05262F30E0FE01E20F77
:10195000F31F403121F4943011F4918101C095813D
:10196000682F690F606887E195E028960FB6F894B4
:10197000DEBF0FBECDBFDF91CF91D7CBCF93DF932B
:10198000CDB7DEB729970FB6F894DEBF0FBECDBF37
:10199000FC012081203109F1BE016F5F7F4FADDE78
:1019A000882371F068E0CE010196BDDA998589132C
:1019B00007C008C0803458F08F3569F08F3769F060
:1019C00080E00CC08D818F33A9F78AE007C08F318A
:1019D000B9F789E003C08BE001C08CE029960FB60F
:1019E000F894DEBF0FBECDBFDF91CF910895EF9287
:1019F000FF920F931F93CF93DF93EC017B018A013A
:101A000088819981009729F02A813B812417350725
:101A1000F8F4B8016F5F7F4F0E94A416009759F049
:101A2000998388831B830A832C813D81232B81F436
:101A3000FC0110820DC088819981009711F00E94ED
:101A40000C16198218821D821C821B821A8207C002
:101A50001D830C83B701888199810E949517CE015F
:101A6000DF91CF911F910F91FF90EF9008954F92CA
:101A70005F926F927F92EF92FF920F931F93CF939B
:101A8000DF93CDB7DEB7A1970FB6F894DEBF0FBED8
:101A9000CDBF7C01FA01CB0119A2223008F42AE063
:101AA0008E010F5D1F4F422E512C612C712CBF01F6
:101AB000A3019201F2D7F901CA01015011096A305C
:101AC00014F4605D01C0695CD8016C93232B242B56
:101AD000252B69F7B801C70143D0A1960FB6F8943A
:101AE000DEBF0FBECDBFDF91CF911F910F91FF9051
:101AF000EF907F906F905F904F900895CF92DF921C
:101B0000EF92FF920F931F93CF93DF936C017A01B3
:101B10008B01C0E0D0E0CE15DF0589F0D8016D91D2
:101B20008D01D601ED91FC910190F081E02DC6016F
:101B30001995892B11F47E0102C02196ECCFC701C3
:101B4000DF91CF911F910F91FF90EF90DF90CF9099
:101B50000895DC01ED91FC910190F081E02D199444
:101B60006115710579F0FB0101900020E9F73197CB
:101B7000AF01461B570BDC01ED91FC910280F38114
:101B8000E02D199480E090E00895EACFCF93DF93A1
:101B9000CDB7DEB76E970FB6F894DEBF0FBECDBFE0
:101BA000789484B5826084BD84B5816084BD85B538
:101BB000826085BD85B5816085BD80916E00816044
:101BC00080936E00109281008091810082608093EA
:101BD00081008091810081608093810080918000EC
:101BE0008160809380008091B10084608093B10017
:101BF0008091B00081608093B000809191008260FC
:101C000080939100809191008160809391008091F8
:101C100090008160809390008091A1008260809309
:101C2000A1008091A10081608093A1008091A0001B
:101C300081608093A00080912101826080932101C6
:101C40008091210181608093210180912001816038
:101C50008093200180917A00846080937A00809143
:101C60007A00826080937A0080917A00816080930C
:101C70007A0080917A00806880937A001092C10087
:101C8000E0917E04F0917F0482E08083E0917A0409
:101C9000F0917B041082E0917C04F0917D0480E15E
:101CA000808310928604E0918204F091830486E0A0
:101CB0008083E0918004F091810480818061808341
:101CC000E0918004F0918104808188608083E091BC
:101CD0008004F0918104808180688083E091800499
:101CE000F091810480818F7D808320E044E064E175
:101CF00087E195E0A2DA40E050E063E087E195E01B
:101D00000E940A0361E087E195E00E945E0411E011
:101D10001093F803CEDC64E170E086E00E94970542
:101D200060E082E10E945B0561E08DE00E945B055E
:101D300061E089E00E945B051A8E198E1C8E1B8E55
:101D40001E8E1D8E40E050E062EA73E0CE0149969F
:101D50004EDE1F921F931F9285E08F931F921F925A
:101D60008CEE92E09F938F938E010F5F1F4F1F9316
:101D70000F930E949C171A8A198A1C8A1B8A1E8A32
:101D80001D8AF80101900020E9F73197AF01401B4F
:101D9000510BB801CE0141962ADE898D9A8D0FB67E
:101DA000F894DEBF0FBECDBF0097A1F069897A8994
:101DB0006115710571F04B8D5C8D2D893E8942173F
:101DC000530738F00E9495178D899E899E8F8D8FBD
:101DD00011C022D789899A899A8F898F8B899C898A
:101DE0009C8F8B8F8D899E899E8F8D8F1A8A198AE1
:101DF0001C8A1B8A1E8A1D8A89899A890DD760E0F0
:101E000080E083DD61E073E087E195E0BEDE61E0C4
:101E100080E07BDD4D8D5E8D698D7A8D87E195E06B
:101E20006DDE60ED77E080E090E00E945E0661E0AC
:101E300087E195E07AD98BE39FE10197F1F7898DEE
:101E40009A8DEAD636DC81E08093030488E680939D
:101E50002504109204041092260460E08BE095E0C3
:101E60000E94B90381E0BDDB81E090E017DC8BE0EC
:101E700095E00E946E0387FF06C062E173E08EE684
:101E800094E06EDE65DBE0913505F0913605138652
:101E900015861486DF011B9633961E92AE17BF0778
:101EA000E1F710923405FF24F394BE016F5E7F4F7B
:101EB00080913505909136059DDC882309F446C054
:101EC00067E0CE0141962FD8988D8913EECF80918F
:101ED0003005811122C08091350590913605EFD8EB
:101EE000BE016F5E7F4F8091350590913605BCD85D
:101EF00040E064EB809135059091360574D880916F
:101F00003505909136051CD8E82E809135059091C5
:101F10003605D5D8EE2009F4CAC2B801CE014196E3
:101F2000ECDBE0903105CE01419628DD8E1518F4EA
:101F30008091310503C0CE01419620DD80933105AB
:101F4000809134058F5F80933405AFCFF4E22F2E5C
:101F5000F3E03F2EAEEDAA2EA2E0BA2EB8EE8B2E05
:101F6000B3E09B2E66E273E08EE694E00EDE15DCB5
:101F70006DE473E08EE694E008DEEADA62E573E091
:101F80008EE694E002DEC090F403D090F503E0907A
:101F9000F603F090F703A7019601C701B60152D5E9
:101FA000882319F069E573E018C026013701E89429
:101FB00077F82FEF3FEF4FE75FE7C301B20142D55C
:101FC00081110FC02FEF3FEF4FE75FE7C301B20171
:101FD00086D3181634F46DE573E08EE694E0C0DD28
:101FE0006BC02FEF3FEF4FE75FE4C701B60126D587
:101FF00018161CF461E673E0F0CF2FEF3FEF4FE7C8
:102000005FECC701B6016BD387FDF4CF20E030E071
:10201000A901C701B60163D387FF08C06DE28EE650
:1020200094E097DDF7FAF094F7F8F0942AE037EDB2
:1020300043EA5BE3C701B6016CD42B013C01D2D467
:102040006B017C0150D39B01AC01C301B20160D490
:102050002B013C012AE0B701A6018EE694E007DDE2
:102060006EE28EE694E075DD20E030E040E251E47F
:10207000C301B20199D36B017C01B4D42B01612C53
:10208000712C2AE0B301A2018EE694E0F0DCC301DA
:10209000B20129D39B01AC01C701B60139D420E0BC
:1020A00030E040E251E480D39DD4AB0160E070E0C9
:1020B0002AE08EE694E0DBDC4BDA65E673E08EE640
:1020C00094E063DD45DAC8010E94E006498150E0F2
:1020D0004053584F052E000C660B770B2AE08EE616
:1020E00094E0C5DC6FE28EE694E033DD4A8150E097
:1020F00060E070E02AE08EE694E0B9DC6FE28EE604
:1021000094E027DD4B8150E060E070E02AE08EE64D
:1021100094E0ADDC69E773E08EE694E036DDC8015B
:102120000E94600738E1389FC0011124BC01605053
:102130007E4F8EE694E029DD6CE773E08EE694E056
:1021400024DD4C8150E060E070E02AE08EE694E00F
:102150008EDC6AE38EE694E0FCDC4D8150E060E0CA
:1021600070E02AE08EE694E082DC6AE38EE694E09A
:10217000F0DC4E8150E060E070E02AE08EE694E012
:1021800076DCE6D960E080E0C0DBC8010E94E006B2
:102190008C8190E0B2D96AE387E195E0DADC8D8149
:1021A00090E0ABD960E086E0B0DBC8010E94600738
:1021B00048E1489FC0011124BC0160507E4F87E177
:1021C00095E0E3DC60E08AE0A0DB898190E0805369
:1021D000984F93D96FE287E195E0BBDC8A8190E06C
:1021E0008CD96FE287E195E0B4DC8B8190E085D9F2
:1021F00064EF71E080E090E00E945E0661E080E0C4
:1022000084DB62E573E087E195E0BFDCC090F40316
:10221000D090F503E090F603F090F70320E030E073
:10222000A901C701B6010AD420E030E040E05FE335
:1022300087FD04C0C701B6016CD303C0C701B60156
:1022400067D3CBD36B017C0197FF0DC06DE287E1B3
:1022500095E07FDC44275527BA014C195D096E09CA
:102260007F092AE003C02AE0AB01BC0187E195E0C9
:10227000FEDB6FED87E195E06CDC66E487E195E0DD
:1022800068DC8BDAE0913505F0913605138615860A
:102290001486DF011B96CF0103961E92A817B9077B
:1022A000E1F7BE016F5E7F4FCF01A4DA882349F0CA
:1022B00067E0CE0141960E949307988D891709F433
:1022C000F9C04AE9C42E49E9D42E44E4E42E43EC93
:1022D000F42EC092F403D092F503E092F603F0924C
:1022E000F70320E030E040EA52E4C701B601A6D38C
:1022F00087FF0AC020E030E040E752E4C701B601A2
:10230000EED118165CF553C0612C712CB3018DE031
:102310000E9497056EE170E080E090E00E945E060A
:102320002FE0620E711C3EE0631631E0730671F718
:1023300066246A94712CB3018DE00E9497056EE1CA
:1023400070E080E090E00E945E064FE0641A710841
:1023500051EF65165FEF750671F7CCCFE12CF12CCC
:10236000B70189E00E9497056EE170E080E090E09F
:102370000E945E06FFE0EF0EF11C2EE0E21621E067
:10238000F20671F7EE24EA94F12CB70189E00E947D
:1023900097056EE170E080E090E00E945E063FE00D
:1023A000E31AF10841EFE4164FEFF40671F7EEE798
:1023B000F2E08491F101E490F501F490FF20A1F0A6
:1023C00081110E94D604EF2DF0E0EE0FFF1FEE54B6
:1023D000FD4FA591B4918C91E82231E020E009F401
:1023E00030E0832F922F02C080E090E090930004B1
:1023F0008093FF03892B11F56FE773E08EE694E07D
:10240000AFDBA6D82FB7F8948091F0039091F10339
:10241000A091F203B091F3032FBF8093FB0390933D
:10242000FC03A093FD03B093FE031092FA031092F5
:10243000F90381E08093F8036FEF1FC08091F803E8
:102440008823F9F02FB7F8948091F0039091F1036D
:10245000A091F203B091F3032FBF2091FB033091C1
:10246000FC03821B930B9093FA038093F90381364C
:102470009A4E38F01092F80360E087E195E00E94F0
:102480005E046CE873E08EE694E07FDB8091F903F4
:102490009091FA03B401DAD2AB0160E070E02AE077
:1024A0008EE694E0E4DA54D80E94AD025BCDF0925F
:1024B000300533CDB801CE0141961FD9882339F0BC
:1024C00068E0C8010E94930799858917C9F060E800
:1024D00074EE6138F4EE7F070CF4F3CE072E000C97
:1024E000880B990B02D126E636E646E65CE35CD122
:1024F00020E030E040E052E40CD26B017C01E9CEF8
:10250000698188E0689FB00111248A81282F30E01A
:10251000322F2227330F330F330F262B372B898986
:102520008031C1F4688570E08F81FB01E81BF109FF
:10253000CF019695982F8827979587959BD26051C4
:102540007109207FE3E0220F331FEA95E1F7620F64
:10255000731FBFCFB901BDCF1092710410927004E8
:1025600088EE93E0A0E0B0E080937204909373044F
:10257000A0937404B093750428EB32E030936F0499
:1025800020936E0425EC30E030937B0420937A0492
:1025900024EC30E030937D0420937C0420EC30E088
:1025A00030937F0420937E0421EC30E0309381044B
:1025B0002093800422EC30E0309383042093820443
:1025C00026EC30E030938504209384041092870435
:1025D000109288041092890410928A0410920E05B9
:1025E00010920D0580930F0590931005A09311058F
:1025F000B09312058AEC92E090930C0580930B0542
:1026000060E08AE00E945B05ECE1F3E0E491E09396
:102610004305E6EDF2E0E491F0E0EE0FFF1FEE542B
:10262000FD4F8591949190934505809344051092B8
:102630004E051092500510924F05EEE4F5E012920F
:1026400085E0E634F807D9F78BE293E090934205F2
:102650008093410583E495E090933605809335059A
:10266000109234051092300589E08093310581E0A5
:10267000809332058093330510921A051092190544
:102680002CED32E0309318052093170510922705A2
:102690009FEF90932605109225051092280597E24A
:1026A0009093220510922305109224051092210583
:1026B0001092200594E09093290592E090932A05CA
:1026C00080932B0580E180932C0580E280932D057B
:1026D00080E480932E0580E880932F05089540D0F4
:1026E00008F481E00895E89409C097FB3EF49095C2
:1026F0008095709561957F4F8F4F9F4F9923A9F0DB
:10270000F92F96E9BB279395F69587957795679569
:10271000B795F111F8CFFAF4BB0F11F460FF1BC0AD
:102720006F5F7F4F8F4F9F4F16C0882311F096E940
:1027300011C0772321F09EE8872F762F05C06623EE
:1027400071F096E8862F70E060E02AF09A95660FA7
:10275000771F881FDAF7880F9695879597F9089560
:10276000990F0008550FAA0BE0E8FEEF16161706A2
:10277000E807F907C0F012161306E407F50798F00A
:10278000621B730B840B950B39F40A2661F0232B23
:10279000242B252B21F408950A2609F4A140A6959F
:1027A0008FEF811D811D08950BD078C069D028F06E
:1027B0006ED018F0952309F05AC05FC01124A2C052
:1027C0007ED0A0F3959FD1F3950F50E0551F629FE7
:1027D000F001729FBB27F00DB11D639FAA27F00D7A
:1027E000B11DAA1F649F6627B00DA11D661F829FA1
:1027F0002227B00DA11D621F739FB00DA11D621F86
:10280000839FA00D611D221F749F3327A00D611DA2
:10281000231F849F600D211D822F762F6A2F112484
:102820009F5750408AF0E1F088234AF0EE0FFF1FD7
:10283000BB1F661F771F881F91505040A9F79E3F0E
:10284000510570F014C05EC05F3FECF3983EDCF3BE
:10285000869577956795B795F795E7959F5FC1F74B
:10286000FE2B880F911D9695879597F9089597F9F6
:102870009F6780E870E060E008959FEF80EC089526
:1028800000240A941616170618060906089500244F
:102890000A9412161306140605060895092E0394C9
:1028A000000C11F4882352F0BB0F40F4BF2B11F43D
:1028B00060FF04C06F5F7F4F8F4F9F4F089557FD9C
:1028C0009058440F551F59F05F3F71F04795880F9E
:1028D00097FB991F61F09F3F79F087950895121635
:1028E00013061406551FF2CF4695F1DF08C01616E1
:1028F00017061806991FF1CF869571056105089492
:102900000895E894BB2766277727CB0197F90895A8
:102910005058BB27AA270ED0C1CFB2DF30F0B7DFA7
:1029200020F031F49F3F11F41EF4A7CF0EF4E09590
:10293000E7FB9DCFE92FC3DF80F3BA176207730768
:102940008407950718F071F49EF5DBCF0EF4E0953F
:102950000B2EBA2FA02D0B01B90190010C01CA0159
:10296000A0011124FF27591B99F0593F50F4503E04
:1029700068F11A16F040A22F232F342F4427585FF6
:10298000F3CF469537952795A795F0405395C9F70E
:102990007EF41F16BA0B620B730B840BBAF09150C6
:1029A000A1F0FF0FBB1F661F771F881FC2F70EC065
:1029B000BA0F621F731F841F48F487957795679538
:1029C000B795F7959E3F08F0B3CF9395880F08F021
:1029D0009927EE0F97958795089504D06894B111C3
:1029E00091CF089574DF88F09F5790F0B92F992701
:1029F000B751A0F0D1F0660F771F881F991F1AF00A
:102A0000BA95C9F712C0B13081F07BDFB1E008950B
:102A100078CF672F782F8827B85F39F0B93FCCF38C
:102A2000869577956795B395D9F73EF490958095FF
:102A3000709561957F4F8F4F9F4F089591DE08F4F9
:102A40008FEF08958DDE880B990B0895AA1BBB1B91
:102A500051E107C0AA1FBB1FA617B70710F0A61B9E
:102A6000B70B881F991F5A95A9F780959095BC01BF
:102A7000CD01089597FB072E16F4009406D077FD3C
:102A800008D0E4DF07FC05D03EF4909581959F4F78
:102A90000895709561957F4F0895A1E21A2EAA1BA3
:102AA000BB1BFD010DC0AA1FBB1FEE1FFF1FA217FE
:102AB000B307E407F50720F0A21BB30BE40BF50BFB
:102AC000661F771F881F991F1A9469F76095709584
:102AD000809590959B01AC01BD01CF010895EE0F4B
:102AE000FF1F881F8BBF0790F691E02D1994CF939D
:102AF000DF938230910510F482E090E0E09153057D
:102B0000F091540520E030E0C0E0D0E0309711F1C2
:102B10004081518148175907C0F04817590761F49F
:102B200082819381209719F09B838A832BC0909395
:102B300054058093530526C02115310519F042171D
:102B4000530718F49A01BE01DF01EF010280F381FF
:102B5000E02DDCCF2115310509F1281B390B24307C
:102B6000310590F412968D919C9113976115710522
:102B700021F0FB019383828304C0909354058093DA
:102B80005305FD01329644C0FD01E20FF31F81930E
:102B90009193225031092D933C933AC020915105D5
:102BA00030915205232B41F42091AA023091AB02BF
:102BB00030935205209351052091A8023091A9022B
:102BC0002115310541F42DB73EB74091AC0250912B
:102BD000AD02241B350BE0915105F0915205E2172F
:102BE000F307A0F42E1B3F0B2817390778F0AC0130
:102BF0004E5F5F4F2417350748F04E0F5F1F50930D
:102C00005205409351058193919302C0E0E0F0E0BA
:102C1000CF01DF91CF9108950F931F93CF93DF934F
:102C2000009709F48CC0FC01329713821282009144
:102C30005305109154050115110581F4208131814E
:102C4000820F931F209151053091520528173907A3
:102C500079F5F0935205E093510571C0D80140E039
:102C600050E0AE17BF0750F412962D913C91139788
:102C7000AD012115310509F1D901F3CF9D01DA012B
:102C80003383228360817181860F971F8217930798
:102C900069F4EC0128813981260F371F2E5F3F4FE1
:102CA000318320838A819B8193838283452B29F4FE
:102CB000F0935405E093530542C01396FC93EE93B2
:102CC0001297ED01499159919E01240F351FE2178A
:102CD000F30771F480819181840F951F02961196FC
:102CE0009C938E938281938113969C938E931297DB
:102CF000E0E0F0E0D80112968D919C911397009737
:102D000019F0F8018C01F6CF8D919C9198012E5FFE
:102D10003F4F820F931F2091510530915205281784
:102D2000390769F4309729F410925405109253052D
:102D300002C0138212821093520500935105DF9155
:102D4000CF911F910F9108956F927F928F929F92D2
:102D5000AF92BF92CF92DF92EF92FF920F931F93A9
:102D6000CF93DF93EC01009781F4CB01DF91CF91FA
:102D70001F910F91FF90EF90DF90CF90BF90AF9099
:102D80009F908F907F906F90B2CEFC01E60FF71F5F
:102D90009C0122503109E217F30708F4A8C0D901B9
:102DA0000D911C91119706171707A8F00530110512
:102DB00008F49BC0C80104978617970708F495C0CC
:102DC00002501109061B170B019311936D937C930D
:102DD000CF0122DF8AC05B01A01AB10A4C01800E2C
:102DE000911EA0915305B091540540E050E0E12CB4
:102DF000F12C109709F44AC0A815B905D1F56D90CA
:102E00007C901197630182E0C80ED11CCA14DB04C8
:102E100080F1A3014A195B096A0182E0C80ED11C46
:102E20001296BC9012971396AC91B5E0CB16D104D4
:102E300040F0B282A38351834083D9016D937C9388
:102E40000AC00E5F1F4FC301800F911FF9019183CC
:102E50008083EB2DFA2FE114F10431F0D7011396A2
:102E6000FC93EE93129741C0F0935405E093530501
:102E70003CC08D919C9111974817590708F4AC01FB
:102E80007D0112960D90BC91A02DB3CF809151057C
:102E90009091520588159905E1F446175707C8F433
:102EA0008091A8029091A902009741F48DB79EB736
:102EB0004091AC025091AD02841B950BE817F907C5
:102EC000B0F4F0935205E0935105F90171836083EA
:102ED0000CC0CB010CDE7C01009749F0A801BE01BB
:102EE0001BD0CE0199DEC70104C0CE0102C080E034
:102EF00090E0DF91CF911F910F91FF90EF90DF90C5
:102F0000CF90BF90AF909F908F907F906F900895DB
:102F100081E090E0F894D9C2FB01DC0102C001908D
:102F20000D9241505040D8F70895FB01DC0101900B
:102F30000D920020E1F708950F931F93CF93DF9335
:102F4000CDB7DEB72E970FB6F894DEBF0FBECDBF5C
:102F50000E891F8986E08C831A8309838FEF9FE790
:102F60009E838D83AE01465E5F4F688D798DCE0165
:102F7000019611D02F813885F801E20FF31F1082DE
:102F80002E960FB6F894DEBF0FBECDBFDF91CF9166
:102F90001F910F9108952F923F924F925F926F92DF
:102FA0007F928F929F92AF92BF92CF92DF92EF92D9
:102FB000FF920F931F93CF93DF93CDB7DEB72C977C
:102FC0000FB6F894DEBF0FBECDBF7C016B018A0146
:102FD000FC0117821682838181FFB0C1CE01019668
:102FE0004C01F7019381F60193FD859193FF819147
:102FF0006F01882309F49EC1853239F493FD8591D0
:1030000093FF81916F01853221F4B70190E0C7D120
:10301000E8CF512C312C20E02032A0F48B3269F023
:1030200030F4803259F0833269F420612CC08D3243
:1030300039F0803339F4216026C02260246023C037
:10304000286021C027FD27C030ED380F3A3078F4D2
:1030500026FF06C0FAE05F9E300D1124532E13C0E8
:103060008AE0389E300D1124332E20620CC08E323F
:1030700021F426FD5FC1206406C08C3611F420685F
:1030800002C0883641F4F60193FD859193FF81914A
:103090006F018111C1CF982F9F7D9554933028F4F3
:1030A0000C5F1F4FFFE3F9830DC0833631F0833788
:1030B00071F0833509F057C021C0F8018081898300
:1030C0000E5F1F4F44244394512C540114C0380107
:1030D000F2E06F0E711CF801A080B18026FF03C0E2
:1030E000652D70E002C06FEF7FEFC5012C874CD1DA
:1030F0002C0183012C852F77222E16C03801F2E097
:103100006F0E711CF801A080B18026FF03C0652DF1
:1031100070E002C06FEF7FEFC5012C872AD12C0130
:103120002C852068222E830123FC19C0832D90E07A
:1031300048165906A0F4B70180E290E030D13A94E5
:10314000F5CFF50127FC859127FE81915F01B7013D
:1031500090E025D131103A94F1E04F1A5108411412
:10316000510479F7DEC0843611F0893631F5F80163
:1031700027FF07C060817181828193810C5F1F4F9F
:1031800008C060817181072E000C880B990B0E5FBF
:103190001F4F2F76722E97FF09C0909580957095DE
:1031A00061957F4F8F4F9F4F2068722E2AE030E04D
:1031B000A4012DD1A82EA81843C0853729F42F7E4D
:1031C000B22E2AE030E025C0F22FF97FBF2E8F36D5
:1031D000C1F018F4883579F0ADC0803719F0883720
:1031E00021F0A8C02F2F2061B22EB4FE0DC08B2D70
:1031F0008460B82E09C024FF0AC09F2F9660B92EA4
:1032000006C028E030E005C020E130E002C020E147
:1032100032E0F801B7FE07C060817181828193813D
:103220000C5F1F4F06C06081718180E090E00E5FEF
:103230001F4FA401ECD0A82EA818FB2DFF777F2EDE
:1032400076FE0BC0372D3E7FA51450F474FE0AC0E5
:1032500072FC08C0372D3E7E05C0BA2C372D03C046
:10326000BA2C01C0B52C34FF0DC0FE01EA0DF11DD2
:103270008081803311F4397E09C032FF06C0B394D7
:10328000B39404C0832F867809F0B39433FD12C041
:1032900030FF06C05A2CB31418F4530C5B18B32C2F
:1032A000B31460F4B70180E290E03C8778D0B39427
:1032B0003C85F6CFB31410F43B1801C0312C34FF19
:1032C00011C0B70180E390E03C8769D03C8532FFB4
:1032D00016C031FD03C088E790E002C088E590E0A9
:1032E000B7010CC0832F867851F031FF02C08BE20A
:1032F00001C080E237FD8DE2B70190E050D0A51407
:1033000030F4B70180E390E04AD05A94F8CFAA9401
:10331000F401EA0DF11D8081B70190E040D0A110C9
:10332000F6CF332009F45DCEB70180E290E037D0CC
:103330003A94F7CFF7018681978102C08FEF9FEF14
:103340002C960FB6F894DEBF0FBECDBFDF91CF91A4
:103350001F910F91FF90EF90DF90CF90BF90AF90B3
:103360009F908F907F906F905F904F903F902F90A5
:103370000895FC010590615070400110D8F78095C8
:1033800090958E0F9F1F0895FC0161507040019031
:103390000110D8F7809590958E0F9F1F08950F9379
:1033A0001F93CF93DF93FB01238121FD03C08FEF98
:1033B0009FEF28C022FF16C04681578124813581A6
:1033C0004217530744F4A081B1819D012F5F3F4F05
:1033D000318320838C93268137812F5F3F4F378342
:1033E000268310C0EB01092F182F0084F185E02DF2
:1033F0001995892BE1F68E819F8101969F838E839B
:10340000812F902FDF91CF911F910F910895FA0195
:10341000AA27283051F1203181F1E8946F936E7F13
:103420006E5F7F4F8F4F9F4FAF4FB1E03ED0B4E004
:103430003CD0670F781F891F9A1FA11D680F791F45
:103440008A1F911DA11D6A0F711D811D911DA11D56
:1034500020D009F468943F912AE0269F1124301966
:10346000305D3193DEF6CF010895462F4770405D01
:103470004193B3E00FD0C9F7F6CF462F4F70405DB0
:103480004A3318F0495D31FD4052419302D0A9F70B
:10349000EACFB4E0A6959795879577956795BA9505
:1034A000C9F700976105710508959B01AC010A2ECB
:1034B00006945795479537952795BA95C9F7620FA2
:0E34C000731F841F951FA01D0895F894FFCF61
:1034CE0053756E00000000000000000000000000B8
:1034DE0000000000000000004D6F6E0000000000B4
:1034EE0000000000000000000000000000000000CE
:1034FE005475650000000000000000000000000090
:10350E00000000000000000057656400000000008D
:10351E00000000000000000000000000000000009D
:10352E00546875000000000000000000000000005C
:10353E00000000000000000046726900000000005C
:10354E00000000000000000000000000000000006D
:10355E005361740000000000000000000000000035
:10356E0000000000000000000000550580005E0015
:10357E00BC0077010000000046027E0DDF018C02C8
:10358E001002EE01020200000000B9038A03E803F4
:10359E005E0382036E035F03000000001E037E0DB8
:1035AE00E803E7031D090A035E043F0456657273C0
:1035BE00696F6E2025642E253032642E25303264DC
:1035CE0000442E412E542E452E20446973706C619A
:1035DE007900525443206973204E4F542072756EF9
:1035EE006E696E67210052657175657374696E67D9
:1035FE002074656D70657261747572657320667284
:10360E006F6D2073656E736F72733A2000444F4E68
:10361E00450054656D703A20006E616E00696E66ED
:10362E00006F7666002D2D2D2D2D2D2D2D2D2D2D52
:10363E002D2D2D2D2D2D2D2D002028002920004241
:10364E0061636B6C69676874204F6E004261636BD7
:10365E006C69676874206F6E2074696D653A20001E
:04366E000D0A000041
:00000001FF
