:10000000ACC10000DBC10000D9C10000D7C10000B5
:10001000D5C10000D3C10000D1C10000CFC1000094
:10002000CDC10000CBC10000C9C10000C7C10000A4
:10003000C5C10000C3C10000C1C10000BFC10000B4
:10004000BDC10000BBC10000B9C10000B7C10000C4
:10005000B5C10000B3C10000B1C100002EC6000050
:10006000ADC10000B4C300000C94450AA7C1000054
:10007000A5C10000A3C10000A1C100009FC10000F4
:100080009DC100009BC1000099C1000097C1000004
:1000900095C1000093C1000091C100000C94E008DC
:1000A0008DC100008BC1000089C1000087C1000024
:1000B00085C1000083C1000081C100007FC1000034
:1000C0007DC100007BC1000079C1000077C1000044
:1000D00075C1000073C1000071C100006FC1000054
:1000E0006DC10000D404D704C604CA04CE040E05B2
:1000F000DB04DF04E504E904ED04F304F704FB0486
:100100000E0501050505090585058A058F05990573
:10011000A3051C06AD05B505BD05C705D105DB0565
:10012000EA05F4051C06FE0508061206005EBCE2A0
:10013000613FDD83C29C7E20A3FD1F419DC3217FC3
:10014000FCA2401E5F01E3BD3E6082DC237D9FC1B7
:10015000421CFEA0E1BF5D0380DE3C62BEE0025CAB
:10016000DF81633D7C22C09E1D43A1FF4618FAA497
:1001700027799BC584DA3866E5BB5907DB85673983
:10018000BAE406581947A5FB7826C49A653BD98777
:10019000045AB8E6A7F91B45C6987A24F8A6441A6B
:1001A00099C7257B3A6486D85B05E7B98CD2306E57
:1001B000EDB3510F4E10F2AC2F7193CD114FADF343
:1001C000702ECC92D38D6F31B2EC0E50AFF1134D37
:1001D000CE90722C6D33D18F0C52B0EE326C8ED02B
:1001E000530DEFB1F0AE4C1291CF2D73CA94762817
:1001F000ABF517490856B4EA6937D58B5709EBB503
:1002000036688AD495CB2977F4AA4816E9B7550BF6
:1002100088D6346A2B7597C94A14F6A8742AC896EA
:10022000154BA9F7B6E80A54D7896B3500002100B1
:10023000240027002A002D003000330001010000B7
:10024000040107010A0100002200250028002B00FC
:100250002E003100340002010000050108010B01ED
:1002600000000A0B02090C0D0E0807030401000030
:10027000000000000000000000000000000000007E
:10028000000000000000000000000000121110003B
:10029000000000000000000000000000000000005E
:1002A0000000000000001F1C1F1E1F1E1F1F1E1F1E
:1002B0001E1F000020002300260029002C002F0014
:1002C00032000001000003010601090105050505D2
:1002D000070508080808020202020A0A08080404BE
:1002E00004040101010101010101030303030303EC
:1002F0000303040707070C0C0C0C0C0C0C0C02027B
:10030000020206060606060606060B0B0B0B0B0B77
:100310000B0B010210202008081020401020408004
:1003200002010201080402010102040810204080B9
:100330008040201008040201800402018040201047
:100340000804020108040201010204081020408090
:100350000102040810204080171211241FBECFEFA5
:10036000D1E2DEBFCDBF00E00CBF25E0A8E8B3E0DE
:1003700001C01D92A033B207E1F713E0A0E0B2E0A4
:10038000E4EAF3E300E00BBF02C007900D92A83847
:10039000B107D9F711E0CDEAD1E000E006C021971E
:1003A0000109802FFE010E94DA14CC3AD10780E0C7
:1003B0000807A9F70E948D0D0C94D01921CEFC01DD
:1003C000538D448D252F30E0842F90E0821B930BBA
:1003D000541710F0CF96089501970895FC01918D60
:1003E000828D981761F0828DDF01A80FB11D5D9697
:1003F0008C91928D9F5F9F73928F90E008958FEF05
:100400009FEF0895FC01918D828D981731F0828DB8
:10041000E80FF11D858D90E008958FEF9FEF08950F
:10042000FC01918D228D892F90E0805C9F4F821B73
:1004300091098F739927089580E090E0892B21F02E
:100440000E943B0A811125C080E090E0892B41F099
:1004500080E090E0892B21F00E94000081111CC0F7
:1004600080E090E0892B41F080E090E0892B21F042
:100470000E940000811113C080E090E0892BA1F060
:1004800080E090E0892B81F00E94000081110AC079
:1004900008950E940000D8CF0E940000E1CF0E9482
:1004A0000000EACF0C94000008953FB7F8948091C3
:1004B000D4039091D503A091D603B091D70326B56C
:1004C000A89B05C02F3F19F00196A11DB11D3FBF8C
:1004D000BA2FA92F982F8827820F911DA11DB11D1A
:1004E000BC01CD0142E0660F771F881F991F4A9516
:1004F000D1F7089521E001C0220F6A95EAF7DC01E7
:100500001C962C931C971A965C934E931997ED9119
:10051000FC910484F585E02D60E01994DC01ED91F7
:10052000FC910684F785E02D41E0199581E090E08B
:10053000089508950895089585ED8093BC008091F5
:10054000BC0084FDFCCF1092480408954091AA039A
:10055000262F30E0240F311D21323105DCF42091AB
:1005600048042430C9F4FC0180E090E0861758F478
:100570003091AA032191DC01A857BC4FA30FB11DF4
:100580002C930196F3CF8091AA03680F6093AA037E
:1005900080E0089581E0089582E008950895E09153
:1005A000DD038091DC03E81730F4F0E0EE5FFB4FF1
:1005B000808190E008958FEF9FEF08959091DD0383
:1005C0008091DC03981750F4E92FF0E0EE5FFB4FC9
:1005D000208130E09F5F9093DD0302C02FEF3FEF5B
:1005E000C90108958091DC0390E02091DD03821B16
:1005F00091090895CF92DF92EF92FF920F931F938C
:10060000CF93DF937C01262F972F8A018091DE0301
:10061000882391F0C62FD72F6E01C40ED51ECC159E
:10062000DD0569F06991D701ED91FC910190F081B0
:10063000E02DC7011995F3CF642F822F87DFC80102
:10064000DF91CF911F910F91FF90EF90DF90CF90AE
:100650000895CF93DF931F92CDB7DEB769832091C2
:10066000DE032223D1F020910104203240F021E06A
:1006700030E0FC013383228380E090E014C080915D
:10068000DF03E82FF0E0E052FC4F998190838F5F09
:100690008093DF038093010404C061E0CE010196E2
:1006A00055DF81E090E00F90DF91CF91089508959C
:1006B00080E090E008950E94F316FC01238122233C
:1006C000B1F09181909569236083828191E090934C
:1006D000DE03809300041092DF031092010486EE83
:1006E00094E0B7DF81E044D7282F30E002C020E05B
:1006F00030E081E090E0232B11F080E090E008955D
:10070000EF92FF920F931F93CF938C01FC0175968C
:1007100084E0C0E060FF02C09081C92B66958150E3
:1007200031968111F7CF413011F4F8014489F80175
:100730008585C82BC42B7801FEE0EF0EF11CF80173
:1007400062896C2BC701B9DFF801628960956C235F
:10075000C701CF911F910F91FF90EF90AECF0F93F4
:100760001F93CF93DF93062F0F70423019F440E0B0
:10077000602F0FC0142F262FEC0130E0B90184E068
:10078000759567958A95E1F7CE01BADF412F602F05
:10079000CE01DF91CF911F910F91B2CFFC018485E3
:1007A0008823A1F0218532852115310519F46111C5
:1007B00006C007C02130310521F4611102C08587D0
:1007C00001C015866585CF010E9677CF08951F92DB
:1007D0000F920FB60F9211240BB60F922F938F9397
:1007E0009F93EF93FF93E0915904F0915A04808115
:1007F000E0915F04F091600482FD12C090818091CD
:1008000062048F5F8F7320916304821751F0E0912F
:100810006204F0E0E75BFB4F958F8093620401C0B8
:100820008081FF91EF919F918F912F910F900BBE3F
:100830000F900FBE0F901F901895FC01848DDF0163
:10084000A80FB11DA35ABF4F2C91848D90E0019643
:100850008F739927848FA689B7892C93A089B18932
:100860008C9180648C93938D848D981306C002883C
:10087000F389E02D80818F7D80830895EF92FF9230
:100880000F931F93CF93DF93EC0181E0888F9B8DB3
:100890008C8D981305C0E889F989808185FD23C076
:1008A000F62E0B8D10E00F5F1F4F0F731127E02EF8
:1008B0008C8DE8120BC00FB607FCFACFE889F989D6
:1008C000808185FFF5CFCE01B8DFF2CF8B8DFE01A1
:1008D000E80FF11DE35AFF4FF0820B8FEA89FB8985
:1008E0008081806207C0EE89FF896083E889F98989
:1008F00080818064808381E090E0DF91CF911F91BF
:100900000F91FF90EF900895CF93DF93EC01888DC6
:100910008823C1F0EA89FB89808185FD05C0A8890B
:10092000B9898C9186FD0EC00FB607FCF5CF80818A
:1009300085FFF2CFA889B9898C9185FFEDCFCE01D3
:100940007CDFE8CFDF91CF910895362F90E0FC0156
:10095000E05AFD4F4491FC01EE5EFC4F2491FC01F6
:10096000E453FD4F9491992309F46BC0442309F497
:1009700055C050E0FA013197E231F10508F04EC060
:100980008827EE58FF4F8F4F0C94DA148091800027
:100990008F7707C0809180008F7D03C08091800099
:1009A000877F809380003AC084B58F7702C084B57A
:1009B0008F7D84BD33C08091B0008F7703C080915C
:1009C000B0008F7D8093B00029C0809190008F7718
:1009D00007C0809190008F7D03C080919000877F39
:1009E000809390001BC08091A0008F7707C08091FA
:1009F000A0008F7D03C08091A000877F8093A0001E
:100A00000DC0809120018F7707C0809120018F7DDC
:100A100003C080912001877F80932001E92FF0E0BF
:100A2000EE0FFF1FEA5BFD4FA591B4918FB7F894CD
:100A3000EC91311103C020952E2301C02E2B2C9355
:100A40008FBF0895CF93DF9390E0FC01EE5EFC4FE3
:100A50002491FC01E453FD4F8491882361F190E0DF
:100A6000880F991FFC01E45DFD4FC591D491FC01F5
:100A7000EA5BFD4FA591B491611109C09FB7F8944D
:100A80008881209582238883EC912E230BC06230CD
:100A900061F49FB7F8943881822F809583238883EF
:100AA000EC912E2B2C939FBF06C08FB7F894E88152
:100AB0002E2B28838FBFDF91CF9108951F93CF9363
:100AC000DF93182FEB0161E0BDDF209711F460E0A8
:100AD00004C0CF3FD10531F461E0812FDF91CF9188
:100AE0001F9133CFE12FF0E0E05AFD4FE4914E2FFC
:100AF00050E0FA013197E231F10508F09DC08827F6
:100B0000EC57FF4F8F4F0C94DA1484B5806884BD86
:100B1000C7BD97C084B5806284BDC8BD92C08091B6
:100B20008000806880938000D0938900C093880003
:100B300088C080918000806280938000D0938B0079
:100B4000C0938A007EC0809180008860809380007E
:100B5000D0938D00C0938C0074C08091B0008068E9
:100B60008093B000C093B3006CC08091B0008062ED
:100B70008093B000C093B40064C0809190008068FE
:100B800080939000D0939900C09398005AC08091B0
:100B90009000806280939000D0939B00C0939A0055
:100BA00050C080919000886080939000D0939D0009
:100BB000C0939C0046C08091A00080688093A000F4
:100BC0008091A0008F7B8093A000D093A900C09358
:100BD000A80037C08091A00080628093A000D093CD
:100BE000AB00C093AA002DC08091A00088608093C4
:100BF000A000D093AD00C093AC0023C08091200131
:100C0000806880932001D0932901C093280119C0E6
:100C100080912001806280932001D0932B01C093AA
:100C20002A010FC080912001886080932001D09319
:100C30002D01C0932C0105C0C038D1050CF04CCF5C
:100C400046CFDF91CF911F9108958F929F92AF92DF
:100C5000BF92CF92DF92EF92FF926B017C0125DC75
:100C60004B015C01C114D104E104F104E9F01DDC85
:100C7000DC01CB0188199909AA09BB09883E934078
:100C8000A105B10578F321E0C21AD108E108F10805
:100C900088EE880E83E0981EA11CB11CC114D104FB
:100CA000E104F10421F7DECFFF90EF90DF90CF90C9
:100CB000BF90AF909F908F9008951F920F920FB6A4
:100CC0000F9211242F933F938F939F93AF93BF93D2
:100CD0008091D0039091D103A091D203B091D3031E
:100CE0003091CF0323E0230F2D3720F40196A11D6F
:100CF000B11D05C026E8230F0296A11DB11D20934A
:100D0000CF038093D0039093D103A093D203B093E9
:100D1000D3038091D4039091D503A091D603B091D1
:100D2000D7030196A11DB11D8093D4039093D503E1
:100D3000A093D603B093D703BF91AF919F918F91AA
:100D40003F912F910F900FBE0F901F901895CF924B
:100D5000DF92EF92FF920F931F93CF93DF93EC01FB
:100D600081E08093DE0388E6809300041092DF0325
:100D70001092010460E086EE94E06BDC81E0F8D331
:100D800087E090E052D486EE94E018DC8F77982FBD
:100D900092959F701AEF082F919F000D112486EEF7
:100DA00094E00CDC9C01332794E0359527959A95C7
:100DB000E1F7F82E129FF00C112486EE94E0FEDB92
:100DC0009C01332744E0359527954A95E1F7E82EB5
:100DD000129FE00C112486EE94E0F0DB86EE94E0A6
:100DE000EDDB9C01332754E0359527955A95E1F7C3
:100DF000D82E129FD00C112486EE94E0DFDB9C01EC
:100E0000332764E0359527956A95E1F7C82E129F40
:100E1000C00C112486EE94E0D1DB9C01332774E0F2
:100E2000359527957A95E1F7129F800D11248883D7
:100E3000C982DA82EB82FC820D83CE01DF91CF91F1
:100E40001F910F91FF90EF90DF90CF900895DC01FC
:100E5000E0E0615038F08D91E827F0E0E45DFE4F6E
:100E6000E491F7CF8E2F0895FC0190810180F281EB
:100E7000E02DF8948181892B81832281892F8095AF
:100E800028232283A7E0B0E01197F1F72181822384
:100E90008183A3E2B0E01197F1F780817894EFECC1
:100EA000F0E03197F1F7982381E009F480E00895AC
:100EB000FC0190810180F281E02D892F809560FFF7
:100EC00012C0F8942281822382838181892B8183BD
:100ED000A3E2B0E01197F1F78281982B9283789486
:100EE00087ED90E011C0F894228182238283818172
:100EF000892B8183AFEFB0E01197F1F78281982BB6
:100F0000928378948FE090E00197F1F70895CF9263
:100F1000DF92EF92FF920F931F93CF93DF931F9275
:100F2000CDB7DEB76C01E62E08E010E0FF24F394A5
:100F300061E08F2D8E2109F460E0C6014983B8DF9E
:100F4000FF0C0150110949810115110589F7411163
:100F500015C0F894D6011196ED91FC9112979181EC
:100F60008C918095892381831196ED91FC91129744
:100F700092818C9180958923828378940F90DF9160
:100F8000CF911F910F91FF90EF90DF90CF90089538
:100F9000CF92DF92EF92FF920F931F93CF93DF9345
:100FA0001F92CDB7DEB78C01F62E40E065E5798360
:100FB000AEDFCF2C7981D72E760188E0E80EF11CC8
:100FC000F60161916F0140E0C801A1DFCE14DF049A
:100FD000B9F70F90DF91CF911F910F91FF90EF9094
:100FE000DF90CF900895FC0190810180F281E02D87
:100FF000F8948181292F20958223818378948DE72D
:1010000043E050E0815021F1DA011197F1F730818E
:101010003923C1F3F8948281822382838181892BD1
:1010200081837894ABE7B7E01197F1F7F894818169
:1010300028232183A3E1B1E01197F1F78081982360
:1010400081E009F080E07894E3E6F6E03197F1F78B
:101050000895DC01ED91FC910684F785E02D40E0D8
:1010600019940F931F93CF93DF93EC01423018F044
:101070008C8188608C834F836887222329F04130DC
:1010800019F48C8184608C8364E670E080E090E0E9
:10109000DCDD6C8164FD31C0E881F9810684F7856F
:1010A000E02D42E063E0CE0119950BE416E4C8019F
:1010B0000197F1F7E881F9810684F785E02D42E098
:1010C00063E0CE011995C8010197F1F7E881F98134
:1010D0000684F785E02D42E063E0CE01199583E5B3
:1010E00092E00197F1F7E881F9810684F785E02D18
:1010F00042E062E0CE01199513C06062CE01A9DF23
:101100008BE496E40197F1F76C816062CE01A1DF78
:1011100083E592E00197F1F76C816062CE0199DF7F
:101120006C816062CE0195DF84E08D836CE0CE013E
:1011300090DF61E0CE018DDF8BE39FE10197F1F756
:1011400082E08E8366E0CE0184DFE881F981048449
:10115000F585E02D6FEFCE01DF91CF911F910F91BB
:101160001994FF920F931F93CF93DF93EC01162FE7
:10117000042FF22E8B85888B63D261E08889B4D1ED
:101180001092DD038093DC0391E0811101C090E0B7
:10119000998B86EE94E012DA8E878989882331F064
:1011A0001F861C8260E0CE010E9687DA2F2D402F1D
:1011B000612FCE01DF91CF911F910F91FF9051CF01
:1011C0001F920F920FB60F9211240BB60F922F930E
:1011D0003F934F935F936F937F938F939F93AF93BF
:1011E000BF93EF93FF938091B900887F803609F415
:1011F0009CC068F5883209F45BC090F4803109F432
:1012000054C038F4882309F4F6C0883009F44DC07E
:10121000F5C0883109F44CC0803209F45DC0EEC0DD
:10122000803409F468C048F4803309F455C0883329
:1012300009F0E4C080934604D8C0803509F44FC05B
:10124000883509F45DC0883409F0D8C0D6C0883923
:1012500009F4C7C0A8F4883709F467C038F48836A1
:1012600009F463C0803709F460C0C8C0883809F445
:10127000B8C0803909F45FC0803809F0BFC05BC0D6
:10128000803B09F486C038F4803A09F466C0883A95
:1012900009F47FC0B3C0803C09F4A7C0883C09F4BE
:1012A000A4C0883B09F48AC0A9C08091430410C03F
:1012B0009091450480914404981770F5E09145049D
:1012C00081E08E0F80934504F0E0EE5DFB4F80815E
:1012D0008093BB0085EC86C0809346048EC0E0916D
:1012E000450481E08E0F809345048091BB00F0E0BF
:1012F000EE5DFB4F808390914504809144046EC065
:10130000E091450481E08E0F809345048091BB00FD
:10131000F0E0EE5DFB4F80838091470481116DC04A
:1013200081E08093420484EA61C083E080934804B2
:101330001092CE03CFCF8091CE03803208F051C0FF
:10134000E091CE0381E08E0F8093CE038091BB00AD
:10135000F0E0E255FC4F8083BDCF85EC8093BC006C
:10136000109248048091CE03803230F4E091CE0395
:10137000F0E0E255FC4F10826091CE0370E0E09106
:10138000AC03F091AD038EEA93E019951092CE0371
:1013900035C084E0809348041092AB031092AA03F6
:1013A000E091A803F091A90319958091AA038111F6
:1013B00005C081E08093AA0310928803E091AB03FB
:1013C00081E08E0F8093AB03F0E0E857FC4F808103
:1013D0008093BB009091AB038091AA03981708F407
:1013E00079CF85E88093BC0009C085EC8093BC0070
:1013F0001092480403C0109246049ED8FF91EF91CA
:10140000BF91AF919F918F917F916F915F914F911C
:101410003F912F910F900BBE0F900FBE0F901F901A
:101420001895CF92DF92EF92FF926C018AE0C81676
:10143000D10420F460E382EF94E052D30D2C000C31
:10144000EE08FF08F7FE0DC06DE282EF94E048D38E
:1014500044275527BA014C195D096E097F092AE016
:1014600003C02AE0B701A60182EF94E0FF90EF905D
:10147000DF90CF90C3C289E494E00E94100221E083
:10148000892B09F420E0822F08951F920F920FB646
:101490000F9211240BB60F922F933F934F935F93AC
:1014A0006F937F938F939F93AF93BF93EF93FF932C
:1014B00089E494E0C2D9FF91EF91BF91AF919F91E0
:1014C0008F917F916F915F914F913F912F910F90ED
:1014D0000BBE0F900FBE0F901F901895089564E8F3
:1014E00073E089E494E003C3909148049111FCCF28
:1014F00091E090934804909347042FEF2093460483
:1015000010924504260F2093440490934304909135
:101510004304880F892B80934304809142048130D7
:1015200061F410924204809143048093BB00809147
:10153000BC0083FDF8CF85EC01C085EE8093BC0034
:10154000809148048130E1F380914504861710F4BE
:1015500060914504A2E2B4E022E034E0F9018E2F6C
:10156000821B861718F48D918193F9CF862F0895E9
:10157000382F2091010490910004213208F049C0D5
:10158000809148048111FCCF42E04093480430939D
:1015900047043FEF309346041092450420934404DF
:1015A000A0EEB3E042E254E0FA013E2F341B3217C2
:1015B00018F43D913193F9CF1092430420914304E4
:1015C000990F922B9093430490914204913061F4CF
:1015D00010924204909143049093BB009091BC0000
:1015E00093FDF8CF95EC01C095EE9093BC009091DF
:1015F00048049230E1F3909146049F3F79F0809146
:101600004604803241F080914604803331F084E01A
:1016100005C081E003C082E001C083E01092DF03D7
:10162000109201041092DE030895813208F080E2E6
:10163000682F88E659DF1092DD038093DC0308955C
:101640001092DD031092DC031092DF03109201046C
:101650001092480481E0809347041092420461E0B4
:1016600084E173D961E085E170D9E9EBF0E0808134
:101670008E7F808380818D7F808388E48093B80013
:1016800085E48093BC000895AF92BF92CF92DF9221
:10169000EF92FF920F931F93CF93DF93EC018B0197
:1016A00080911005909111059EDC882381F1BE0187
:1016B00080911005909111056BDC40E06EEB8091FC
:1016C00010059091110523DCE801680189E0C80E3E
:1016D000D11CA0901005B090110588E0E82EF12CE7
:1016E00001E010E0C501C0DB8111102B000F81E08B
:1016F000E81AF108B9F71993CC15DD0551F7809177
:101700001005909111056FDC91E0813009F090E0B7
:10171000892FDF91CF911F910F91FF90EF90DF9074
:10172000CF90BF90AF9008958091100590911105D2
:101730005ADC40E06CEC8091100590911105E7DBDC
:1017400040910B0564E48091100590911105DFDB59
:1017500080910D058823A1F0E0910C05E950E3305C
:1017600040F4F0E0EE0FFF1FE255FD4F6081718104
:1017700002C06EEE72E0072E000C880B990B65CA52
:101780000895AF92BF92CF92DF92EF92FF920F93A4
:101790001F93CF93DF931F92CDB7DEB75C01D62E98
:1017A000E72EFC018585811104C0C5011CDC811177
:1017B00006C0F50113861586148680E061C040E0FE
:1017C00060EFC501A4DB01E0F12CC12C11E0C501E3
:1017D0004BDB682FC501698347DB6981613019F4F0
:1017E0008130B9F432C04F2D50E068131BC0F501B1
:1017F0008385181730F4E40FF51F8381802349F4A3
:1018000002C0181731F060E0193058F4F501148760
:1018100008C0F501EF0DF11D8381802B838361E00A
:1018200009C0C12EF501E40FF51F9381802F80952B
:1018300089238383C5013CDB1F5F000F11F4F39400
:1018400001E0F7E0FF1508F0C2CF113408F4B1CF82
:10185000F501C386C11002C081E08587F50183814F
:10186000882309F4A6CFD5011396ED2DFE2D950101
:10187000255F3F4F8D918193A217B307D9F781E080
:101880000F90DF91CF911F910F91FF90EF90DF901C
:10189000CF90BF90AF900895CF93DF93CDB7DEB7D1
:1018A00028970FB6F894DEBF0FBECDBF1D8290E41F
:1018B0009E8324E12F8324E5288719829A8390E16F
:1018C0009B8390E59C839091F904691710F06FEF6A
:1018D000690F4091FA04262F30E0FE01E20FF31F5A
:1018E000403121F4943011F4918101C09581682F29
:1018F000690F606882EF94E028960FB6F894DEBF17
:101900000FBECDBFDF91CF91A4CBCF93DF93CDB7E7
:10191000DEB729970FB6F894DEBF0FBECDBFFC012E
:101920002081203109F1BE016F5F7F4FADDE88233A
:1019300071F068E0CE0101968ADA9985891307C0B3
:1019400008C0803458F08F3569F08F3769F080E037
:101950000CC08D818F33A9F78AE007C08F31B9F7AA
:1019600089E003C08BE001C08CE029960FB6F894A3
:10197000DEBF0FBECDBFDF91CF910895EF92FF92F2
:101980000F931F93CF93DF93EC017B018A01888132
:101990009981009729F02A813B8124173507F8F4B3
:1019A000B8016F5F7F4F0E940F16009759F099831F
:1019B00088831B830A832C813D81232B81F4FC01C6
:1019C00010820DC088819981009711F00E947715CF
:1019D000198218821D821C821B821A8207C01D83F5
:1019E0000C83B701888199810E940017CE01DF9195
:1019F000CF911F910F91FF90EF9008954F925F92BA
:101A00006F927F92EF92FF920F931F93CF93DF938A
:101A1000CDB7DEB7A1970FB6F894DEBF0FBECDBF2E
:101A20007C01FA01CB0119A2223008F42AE08E01D0
:101A30000F5D1F4F422E512C612C712CBF01A30151
:101A4000920196D7F901CA01015011096A3014F4C4
:101A5000605D01C0695CD8016C93232B242B252B7E
:101A600069F7B801C70143D0A1960FB6F894DEBF5D
:101A70000FBECDBFDF91CF911F910F91FF90EF90DF
:101A80007F906F905F904F900895CF92DF92EF928A
:101A9000FF920F931F93CF93DF936C017A018B0119
:101AA000C0E0D0E0CE15DF0589F0D8016D918D0141
:101AB000D601ED91FC910190F081E02DC6011995C0
:101AC000892B11F47E0102C02196ECCFC701DF9172
:101AD000CF911F910F91FF90EF90DF90CF900895DD
:101AE000DC01ED91FC910190F081E02D19946115DC
:101AF000710579F0FB0101900020E9F73197AF0102
:101B0000461B570BDC01ED91FC910280F381E02D27
:101B1000199480E090E00895EACFCF93DF93CDB79A
:101B2000DEB76E970FB6F894DEBF0FBECDBF7894C8
:101B300084B5826084BD84B5816084BD85B58260D2
:101B400085BD85B5816085BD80916E008160809383
:101B50006E001092810080918100826080938100EC
:101B600080918100816080938100809180008160FC
:101B7000809380008091B10084608093B100809157
:101B8000B00081608093B00080919100826080936A
:101B900091008091910081608093910080919000EC
:101BA0008160809390008091A10082608093A10069
:101BB0008091A10081608093A1008091A00081604C
:101BC0008093A00080912101826080932101809107
:101BD00021018160809321018091200181608093A7
:101BE000200180917A00846080937A0080917A004D
:101BF000826080937A0080917A00816080937A007D
:101C000080917A00806880937A001092C100E09100
:101C10005904F0915A0482E08083E0915504F091D8
:101C200056041082E0915704F091580480E18083BB
:101C300010926104E0915D04F0915E0486E080837F
:101C4000E0915B04F0915C04808180618083E0918D
:101C50005B04F0915C04808188608083E0915B0488
:101C6000F0915C04808180688083E0915B04F09156
:101C70005C0480818F7D808320E044E064E182EF1A
:101C800094E06FDA40E050E063E082EF94E00E947D
:101C90007A0261E082EF94E00E94CE03D1DC64E13D
:101CA00070E086E00E945E0560E082E10E9422050D
:101CB00061E08DE00E94220561E089E00E9422053A
:101CC0001A8E198E1C8E1B8E1E8E1D8E40E050E0CB
:101CD00066E873E0CE01499651DE1F928AE08F9349
:101CE0001F9284E08F931F921F928CEE92E09F933D
:101CF0008F938E010F5F1F4F1F930F930E94071743
:101D00001A8A198A1C8A1B8A1E8A1D8AF801019068
:101D10000020E9F73197AF01401B510BB801CE010C
:101D200041962CDE898D9A8D0FB6F894DEBF0FBEDA
:101D3000CDBF0097A1F069897A896115710571F0AD
:101D40004B8D5C8D2D893E894217530738F00E94D8
:101D500000178D899E899E8F8D8F11C0C8D6898965
:101D60009A899A8F898F8B899C899C8F8B8F8D897B
:101D70009E899E8F8D8F1A8A198A1C8A1B8A1E8AB9
:101D80001D8A89899A89B3D660E080E085DD61E0AB
:101D900073E082EF94E0C0DE61E080E07DDD4D8D98
:101DA0005E8D698D7A8D82EF94E06FDE60ED77E075
:101DB00080E090E00E94250661E082EF94E049D93E
:101DC0008BE39FE10197F1F7898D9A8D90D638DCEE
:101DD00081E08093DE0388E6809300041092DF03A5
:101DE0001092010460E086EE94E00E94290381E0F5
:101DF000BFDB81E090E019DC86EE94E00E94DE0219
:101E000087FF06C062E173E089E494E070DE67DB7F
:101E1000E0911005F0911105138615861486DF01F7
:101E20001B9633961E92AE17BF07E1F710920F056F
:101E3000FF24F394BE016F5E7F4F80911005909157
:101E400011059FDC882309F448C067E0CE01419664
:101E50000E942707988D8913EDCF80910B05811182
:101E600023C08091100590911105BDD8BE016F5E11
:101E70007F4F80911005909111058AD840E064EB66
:101E8000809110059091110542D880911005909194
:101E900011050E943407E82E8091100590911105DC
:101EA000A2D8EE2009F46DC2B801CE014196ECDB58
:101EB000E0900C05CE01419628DD8E1518F4809136
:101EC0000C0503C0CE01419620DD80930C05809166
:101ED0000F058F5F80930F05ADCF21E086EA92E07A
:101EE000622E681A7DE6A72EBB24B394E7E08E2EFF
:101EF000912CF8E17F2E66E273E089E494E00CDE39
:101F000013DC6DE473E089E494E006DEE8DA62E570
:101F100073E089E494E000DEC090D803D090D90348
:101F2000E090DA03F090DB03A7019601C701B60148
:101F3000F4D4882319F069E573E018C0160127016D
:101F4000E89457F82FEF3FEF4FE75FE7C201B10189
:101F5000E4D481110FC02FEF3FEF4FE75FE7C201DD
:101F6000B10128D3181634F46DE573E089E494E0E8
:101F7000BEDD6BC02FEF3FEF4FE75FE4C701B60157
:101F8000C8D418161CF461E673E0F0CF2FEF3FEFD2
:101F90004FE75FECC701B6010DD387FDF4CF20E01A
:101FA00030E0A901C701B60105D387FF08C06DE283
:101FB00089E494E095DDF7FAF094F7F8F0942AE0DC
:101FC00037ED43EA5BE3C701B6010ED41B012C01D8
:101FD00074D46B017C01F2D29B01AC01C201B1014E
:101FE00002D41B012C012AE0B701A60189E494E088
:101FF00005DD6EE289E494E073DD20E030E040E24C
:1020000051E4C201B1013BD36B017C0156D41B01E9
:10201000412C512C2AE0B201A10189E494E0EEDCCC
:10202000C201B101CBD29B01AC01C701B601DBD328
:1020300020E030E040E251E422D33FD4AB0160E045
:1020400070E02AE089E494E0D9DC49DA65E673E0DF
:1020500089E494E061DD43DAC8010E94A706498162
:1020600050E04053584F052E000C660B770B2AE0CA
:1020700089E494E0C3DC6FE289E494E031DD4A81D5
:1020800050E060E070E02AE089E494E0B7DC6FE2C1
:1020900089E494E025DD4B8150E060E070E02AE0C7
:1020A00089E494E0ABDC69E773E089E494E034DD33
:1020B0006A819981492F50E02B8130E0E6EAF2E015
:1020C000862D8E0F861728F48491280F311D3196A6
:1020D000F7CF633020F0937011F42F5F3F4F4A9D8C
:1020E000C0014B9D900D5A9D900D112405964D5F9A
:1020F0005F4F5695479556954795840F951F820FCC
:10210000931FB4010ED4789EB001799E700D1124F6
:1021100060507E4F89E494E0FFDC6CE773E089E473
:1021200094E0FADC4C8150E060E070E02AE089E461
:1021300094E064DC6AE389E494E0D2DC4D8150E011
:1021400060E070E02AE089E494E058DC6AE389E426
:1021500094E0C6DC4E8150E060E070E02AE089E463
:1021600094E04CDCBCD960E080E096DBC8010E94C2
:10217000A7068C8190E055D96AE382EF94E0B0DC49
:102180008D8190E04ED96FE773E082EF94E0C4DC7C
:1021900060E08AE081DB898190E08053984F41D9EB
:1021A0006FE282EF94E09CDC8A8190E03AD96FE2A2
:1021B00082EF94E095DC8B8190E033D964EF71E09D
:1021C00080E090E00E94250661E080E065DB62E54A
:1021D00073E082EF94E0A0DCC090D803D090D903E4
:1021E000E090DA03F090DB0320E030E0A901C701C2
:1021F000B6018FD320E030E040E05FE387FD04C00C
:10220000C701B601F1D203C0C701B601ECD250D369
:102210006B017C0197FF0DC06DE282EF94E060DC02
:1022200044275527BA014C195D096E097F092AE038
:1022300003C02AE0AB01BC0182EF94E0DFDB6FED6D
:1022400082EF94E04DDC66E482EF94E049DC6CDAE6
:10225000E0911005F0911105138615861486DF01B3
:102260001B96CF0103961E92A817B907E1F7BE018E
:102270006F5E7F4FCF0185DA882349F067E0CE019A
:1022800041960E942707988D891709F47DC03AE985
:10229000C32E39E9D32E34E4E32E33ECF32EC0926F
:1022A000D803D092D903E092DA03F092DB0320E066
:1022B00030E040EA52E4C701B6012BD387FF0DC0DE
:1022C00020E030E040E752E4C701B60173D11816B0
:1022D0000CF454C0E12CF12C2AC0412C512CB20139
:1022E0008DE00E945E056EE170E080E090E00E946B
:1022F00025068FE0480E511C2EE0421621E05206C2
:1023000071F744244A94512CB2018DE00E945E057D
:102310006EE170E080E090E00E9425063FE0431A05
:10232000510841EF44164FEF540671F7C9CFB7017A
:1023300089E00E945E056EE170E080E090E00E941E
:1023400025065FE0E50EF11C8EE0E81681E0F80658
:1023500071F7EE24EA94F12CB70189E00E945E0542
:102360006EE170E080E090E00E9425062FE0E21A26
:10237000F10831EFE3163FEFF30671F70E941C02FC
:10238000BACDF0920B0590CDB801CE0141967CD923
:10239000882309F449C068E0C8010E94270799858D
:1023A000891342C0698148E0649FB00111248A8189
:1023B000282F30E0322F2227330F330F330F262BF5
:1023C000372B8989803171F5688570E08F81AB0189
:1023D000481B5109CA019695982F8827979587958C
:1023E000B4D260517109207F53E0220F331F5A95F8
:1023F000E1F7620F731F613854EE75070CF447CF95
:10240000072E000C880B990BDBD026E636E646E655
:102410005CE335D120E030E040E052E4E5D16B01EF
:102420007C013DCFB901E7CF60E874EEE4CF1092B4
:102430004C0410924B0488EE93E0A0E0B0E080934F
:102440004D0490934E04A0934F04B093500428EB96
:1024500032E030934A042093490425EC30E0309375
:1024600056042093550424EC30E030935804209314
:10247000570420EC30E030935A042093590421ECA7
:1024800030E030935C0420935B0422EC30E0309326
:102490005E0420935D0426EC30E0309360042093CA
:1024A0005F0410926204109263041092640410920C
:1024B00065041092E9041092E8048093EA04909372
:1024C000EB04A093EC04B093ED048AEC92E09093BB
:1024D000E7048093E60460E08AE00E942205ECE1D4
:1024E000F3E0E491E0931E05E6EDF2E0E491F0E024
:1024F000EE0FFF1FEE54FD4F8591949190932005B0
:1025000080931F051092290510922B0510922A0521
:10251000E9E2F5E0129285E0E132F807D9F78BE9BC
:1025200092E090931D0580931C058EE195E09093B9
:1025300011058093100510920F0510920B0589E08C
:1025400080930C0581E080930D0580930E05109219
:10255000F5041092F4042CED32E03093F304209350
:10256000F204109202059FEF90930105109200056E
:102570001092030597E29093FD041092FE041092CE
:10258000FF041092FC041092FB0494E09093040565
:1025900092E0909305058093060580E180930705FE
:1025A00080E28093080580E48093090580E88093A9
:1025B0000A05089540D008F481E00895E89409C020
:1025C00097FB3EF490958095709561957F4F8F4F66
:1025D0009F4F9923A9F0F92F96E9BB279395F6957C
:1025E000879577956795B795F111F8CFFAF4BB0FFA
:1025F00011F460FF1BC06F5F7F4F8F4F9F4F16C05E
:10260000882311F096E911C0772321F09EE8872FE7
:10261000762F05C0662371F096E8862F70E060E0A3
:102620002AF09A95660F771F881FDAF7880F96951C
:10263000879597F90895990F0008550FAA0BE0E8C0
:10264000FEEF16161706E807F907C0F01216130674
:10265000E407F50798F0621B730B840B950B39F4B4
:102660000A2661F0232B242B252B21F408950A261A
:1026700009F4A140A6958FEF811D811D08950BD00F
:1026800078C069D028F06ED018F0952309F05AC0B0
:102690005FC01124A2C07ED0A0F3959FD1F3950F07
:1026A00050E0551F629FF001729FBB27F00DB11DD6
:1026B000639FAA27F00DB11DAA1F649F6627B00D66
:1026C000A11D661F829F2227B00DA11D621F739F4F
:1026D000B00DA11D621F839FA00D611D221F749F5D
:1026E0003327A00D611D231F849F600D211D822FA4
:1026F000762F6A2F11249F5750408AF0E1F08823EB
:102700004AF0EE0FFF1FBB1F661F771F881F9150F7
:102710005040A9F79E3F510570F014C05EC05F3F66
:10272000ECF3983EDCF3869577956795B795F7952A
:10273000E7959F5FC1F7FE2B880F911D96958795B2
:1027400097F9089597F99F6780E870E060E0089531
:102750009FEF80EC089500240A94161617061806B9
:102760000906089500240A94121613061406050695
:102770000895092E0394000C11F4882352F0BB0F26
:1027800040F4BF2B11F460FF04C06F5F7F4F8F4F89
:102790009F4F089557FD9058440F551F59F05F3FC4
:1027A00071F04795880F97FB991F61F09F3F79F073
:1027B00087950895121613061406551FF2CF4695F5
:1027C000F1DF08C0161617061806991FF1CF869577
:1027D0007105610508940895E894BB27662777275B
:1027E000CB0197F908955058BB27AA270ED0C1CF27
:1027F000B2DF30F0B7DF20F031F49F3F11F41EF468
:10280000A7CF0EF4E095E7FB9DCFE92FC3DF80F360
:10281000BA17620773078407950718F071F49EF5DD
:10282000DBCF0EF4E0950B2EBA2FA02D0B01B901D2
:1028300090010C01CA01A0011124FF27591B99F036
:10284000593F50F4503E68F11A16F040A22F232F42
:10285000342F4427585FF3CF469537952795A79592
:10286000F0405395C9F77EF41F16BA0B620B730B39
:10287000840BBAF09150A1F0FF0FBB1F661F771FAA
:10288000881FC2F70EC0BA0F621F731F841F48F45F
:10289000879577956795B795F7959E3F08F0B3CFE5
:1028A0009395880F08F09927EE0F979587950895CF
:1028B00004D06894B11191CF089574DF88F09F57C8
:1028C00090F0B92F9927B751A0F0D1F0660F771F7C
:1028D000881F991F1AF0BA95C9F712C0B13081F05C
:1028E0007BDFB1E0089578CF672F782F8827B85F16
:1028F00039F0B93FCCF3869577956795B395D9F7BD
:102900003EF490958095709561957F4F8F4F9F4FC6
:10291000089591DE08F48FEF08958DDE880B990BF2
:102920000895AA1BBB1B51E107C0AA1FBB1FA61716
:10293000B70710F0A61BB70B881F991F5A95A9F768
:1029400080959095BC01CD01089597FB072E16F454
:10295000009406D077FD08D0E4DF07FC05D03EF4F4
:10296000909581959F4F0895709561957F4F08953B
:10297000A1E21A2EAA1BBB1BFD010DC0AA1FBB1F83
:10298000EE1FFF1FA217B307E407F50720F0A21BF5
:10299000B30BE40BF50B661F771F881F991F1A9462
:1029A00069F760957095809590959B01AC01BD018C
:1029B000CF010895EE0FFF1F881F8BBF0790F69180
:1029C000E02D1994CF93DF938230910510F482E0CB
:1029D00090E0E0912E05F0912F0520E030E0C0E07E
:1029E000D0E0309711F14081518148175907C0F06C
:1029F0004817590761F482819381209719F09B83CE
:102A00008A832BC090932F0580932E0526C0211515
:102A1000310519F04217530718F49A01BE01DF017E
:102A2000EF010280F381E02DDCCF2115310509F1A2
:102A3000281B390B2430310590F412968D919C910E
:102A400013976115710521F0FB019383828304C004
:102A500090932F0580932E05FD01329644C0FD0111
:102A6000E20FF31F81939193225031092D933C93F0
:102A70003AC020912C0530912D05232B41F4209153
:102A8000AA023091AB0230932D0520932C052091A2
:102A9000A8023091A9022115310541F42DB73EB7A6
:102AA0004091AC025091AD02241B350BE0912C05F6
:102AB000F0912D05E217F307A0F42E1B3F0B28170A
:102AC000390778F0AC014E5F5F4F2417350748F0A7
:102AD0004E0F5F1F50932D0540932C0581939193CA
:102AE00002C0E0E0F0E0CF01DF91CF9108950F93B5
:102AF0001F93CF93DF93009709F48CC0FC013297AA
:102B00001382128200912E0510912F0501151105D7
:102B100081F420813181820F931F20912C05309107
:102B20002D052817390779F5F0932D05E0932C052D
:102B300071C0D80140E050E0AE17BF0750F41296C4
:102B40002D913C911397AD012115310509F1D90162
:102B5000F3CF9D01DA013383228360817181860F77
:102B6000971F8217930769F4EC0128813981260F9A
:102B7000371F2E5F3F4F318320838A819B81938350
:102B80008283452B29F4F0932F05E0932E0542C054
:102B90001396FC93EE931297ED01499159919E0182
:102BA000240F351FE217F30771F480819181840FA0
:102BB000951F029611969C938E9382819381139612
:102BC0009C938E931297E0E0F0E0D80112968D91DD
:102BD0009C911397009719F0F8018C01F6CF8D9115
:102BE0009C9198012E5F3F4F820F931F20912C05DF
:102BF00030912D052817390769F4309729F4109280
:102C00002F0510922E0502C01382128210932D05FB
:102C100000932C05DF91CF911F910F9108956F9232
:102C20007F928F929F92AF92BF92CF92DF92EF925C
:102C3000FF920F931F93CF93DF93EC01009781F4E2
:102C4000CB01DF91CF911F910F91FF90EF90DF901B
:102C5000CF90BF90AF909F908F907F906F90B2CEAB
:102C6000FC01E60FF71F9C0122503109E217F30720
:102C700008F4A8C0D9010D911C91119706171707E8
:102C8000A8F00530110508F49BC0C8010497861709
:102C9000970708F495C002501109061B170B019302
:102CA00011936D937C93CF0122DF8AC05B01A01A40
:102CB000B10A4C01800E911EA0912E05B0912F05F6
:102CC00040E050E0E12CF12C109709F44AC0A8151F
:102CD000B905D1F56D907C901197630182E0C80E23
:102CE000D11CCA14DB0480F1A3014A195B096A01F3
:102CF00082E0C80ED11C1296BC9012971396AC912C
:102D0000B5E0CB16D10440F0B282A3835183408357
:102D1000D9016D937C930AC00E5F1F4FC301800FD2
:102D2000911FF90191838083EB2DFA2FE114F104B7
:102D300031F0D7011396FC93EE93129741C0F093B4
:102D40002F05E0932E053CC08D919C91119748175B
:102D5000590708F4AC017D0112960D90BC91A02D8D
:102D6000B3CF80912C0590912D0588159905E1F43C
:102D700046175707C8F48091A8029091A9020097BE
:102D800041F48DB79EB74091AC025091AD02841BC7
:102D9000950BE817F907B0F4F0932D05E0932C0597
:102DA000F901718360830CC0CB010CDE7C010097BC
:102DB00049F0A801BE011BD0CE0199DEC70104C0B5
:102DC000CE0102C080E090E0DF91CF911F910F9182
:102DD000FF90EF90DF90CF90BF90AF909F908F903B
:102DE0007F906F90089581E090E0F894D9C2FB0144
:102DF000DC0102C001900D9241505040D8F7089577
:102E0000FB01DC0101900D920020E1F708950F9382
:102E10001F93CF93DF93CDB7DEB72E970FB6F894FD
:102E2000DEBF0FBECDBF0E891F8986E08C831A835B
:102E300009838FEF9FE79E838D83AE01465E5F4FD0
:102E4000688D798DCE01019611D02F813885F801DA
:102E5000E20FF31F10822E960FB6F894DEBF0FBE5E
:102E6000CDBFDF91CF911F910F9108952F923F9287
:102E70004F925F926F927F928F929F92AF92BF928A
:102E8000CF92DF92EF92FF920F931F93CF93DF9336
:102E9000CDB7DEB72C970FB6F894DEBF0FBECDBF0F
:102EA0007C016B018A01FC0117821682838181FFFC
:102EB000B0C1CE0101964C01F7019381F60193FD5B
:102EC000859193FF81916F01882309F49EC185321A
:102ED00039F493FD859193FF81916F01853221F43F
:102EE000B70190E0C7D1E8CF512C312C20E020323F
:102EF000A0F48B3269F030F4803259F0833269F4F7
:102F000020612CC08D3239F0803339F4216026C025
:102F10002260246023C0286021C027FD27C030ED37
:102F2000380F3A3078F426FF06C0FAE05F9E300D85
:102F30001124532E13C08AE0389E300D1124332EF5
:102F400020620CC08E3221F426FD5FC1206406C0D1
:102F50008C3611F4206802C0883641F4F60193FDE6
:102F6000859193FF81916F018111C1CF982F9F7D32
:102F70009554933028F40C5F1F4FFFE3F9830DC085
:102F8000833631F0833771F0833509F057C021C0A3
:102F9000F801808189830E5F1F4F44244394512C94
:102FA000540114C03801F2E06F0E711CF801A080CA
:102FB000B18026FF03C0652D70E002C06FEF7FEF88
:102FC000C5012C874CD12C0183012C852F77222E13
:102FD00016C03801F2E06F0E711CF801A080B180BC
:102FE00026FF03C0652D70E002C06FEF7FEFC501C3
:102FF0002C872AD12C012C852068222E830123FCCA
:1030000019C0832D90E048165906A0F4B70180E25C
:1030100090E030D13A94F5CFF50127FC859127FE59
:1030200081915F01B70190E025D131103A94F1E030
:103030004F1A51084114510479F7DEC0843611F05B
:10304000893631F5F80127FF07C0608171818281DF
:1030500093810C5F1F4F08C060817181072E000CA7
:10306000880B990B0E5F1F4F2F76722E97FF09C0AA
:1030700090958095709561957F4F8F4F9F4F2068F9
:10308000722E2AE030E0A4012DD1A82EA81843C04A
:10309000853729F42F7EB22E2AE030E025C0F22FAA
:1030A000F97FBF2E8F36C1F018F4883579F0ADC0A6
:1030B000803719F0883721F0A8C02F2F2061B22E59
:1030C000B4FE0DC08B2D8460B82E09C024FF0AC049
:1030D0009F2F9660B92E06C028E030E005C020E1A1
:1030E00030E002C020E132E0F801B7FE07C06081A5
:1030F0007181828193810C5F1F4F06C06081718155
:1031000080E090E00E5F1F4FA401ECD0A82EA8181D
:10311000FB2DFF777F2E76FE0BC0372D3E7FA5144B
:1031200050F474FE0AC072FC08C0372D3E7E05C004
:10313000BA2C372D03C0BA2C01C0B52C34FF0DC0FA
:10314000FE01EA0DF11D8081803311F4397E09C042
:1031500032FF06C0B394B39404C0832F867809F07D
:10316000B39433FD12C030FF06C05A2CB31418F4C8
:10317000530C5B18B32CB31460F4B70180E290E0F9
:103180003C8778D0B3943C85F6CFB31410F43B1849
:1031900001C0312C34FF11C0B70180E390E03C87BF
:1031A00069D03C8532FF16C031FD03C088E790E04E
:1031B00002C088E590E0B7010CC0832F867851F0FB
:1031C00031FF02C08BE201C080E237FD8DE2B70122
:1031D00090E050D0A51430F4B70180E390E04AD0DD
:1031E0005A94F8CFAA94F401EA0DF11D8081B70139
:1031F00090E040D0A110F6CF332009F45DCEB701A6
:1032000080E290E037D03A94F7CFF701868197813A
:1032100002C08FEF9FEF2C960FB6F894DEBF0FBE63
:10322000CDBFDF91CF911F910F91FF90EF90DF9075
:10323000CF90BF90AF909F908F907F906F905F9056
:103240004F903F902F900895FC0105906150704081
:103250000110D8F7809590958E0F9F1F0895FC015F
:103260006150704001900110D8F7809590958E0FB5
:103270009F1F08950F931F93CF93DF93FB0123812B
:1032800021FD03C08FEF9FEF28C022FF16C04681AB
:103290005781248135814217530744F4A081B181BD
:1032A0009D012F5F3F4F318320838C93268137818F
:1032B0002F5F3F4F3783268310C0EB01092F182F54
:1032C0000084F185E02D1995892BE1F68E819F818F
:1032D00001969F838E83812F902FDF91CF911F9135
:1032E0000F910895FA01AA27283051F1203181F178
:1032F000E8946F936E7F6E5F7F4F8F4F9F4FAF4FFE
:10330000B1E03ED0B4E03CD0670F781F891F9A1F10
:10331000A11D680F791F8A1F911DA11D6A0F711DC4
:10332000811D911DA11D20D009F468943F912AE0D0
:10333000269F11243019305D3193DEF6CF010895B8
:10334000462F4770405D4193B3E00FD0C9F7F6CFE9
:10335000462F4F70405D4A3318F0495D31FD4052B1
:10336000419302D0A9F7EACFB4E0A6959795879547
:1033700077956795BA95C9F7009761057105089526
:103380009B01AC010A2E06945795479537952795D2
:10339000BA95C9F7620F731F841F951FA01D08956A
:0433A000F894FFCFCF
:1033A40053756E64617900000000000000000000A5
:1033B40000000000000000004D6F6E6461790000A1
:1033C40000000000000000000000000000000000F9
:1033D400547565736461790000000000000000000A
:1033E40000000000000000005765646E65736461AE
:1033F4007900000000000000000000000000000050
:103404005468757273646179000000000000000064
:103414000000000000000000467269646179000049
:103424000000000000000000000000000000000098
:10343400536174757264617900000000000000003B
:1034440000000000000000000000300580005E0065
:10345400BC007701000000003E04450DDF01840438
:103464001002EE010202000000002903FA025803D0
:10347400CE02F202DE02CF02000000008E02450DF1
:1034840058035703B1087A02CE03AF03566572732B
:10349400696F6E2025642E253032642E2530326407
:1034A40000442E412E542E452E20446973706C61C5
:1034B4007900525443206973204E4F542072756E24
:1034C4006E696E67210052657175657374696E6704
:1034D4002074656D706572617475726573206672AF
:1034E4006F6D2073656E736F72733A2000444F4E94
:1034F400450054656D703A20006E616E00696E6619
:10350400006F7666002D2D2D2D2D2D2D2D2D2D2D7D
:103514002D2D2D2D2D2D2D2D00202800292000208E
:08352400434454000D0A0000AD
:020000023000CC
:10E000000D9489F10D94B2F10D94B2F10D94B2F129
:10E010000D94B2F10D94B2F10D94B2F10D94B2F1F0
:10E020000D94B2F10D94B2F10D94B2F10D94B2F1E0
:10E030000D94B2F10D94B2F10D94B2F10D94B2F1D0
:10E040000D94B2F10D94B2F10D94B2F10D94B2F1C0
:10E050000D94B2F10D94B2F10D94B2F10D94B2F1B0
:10E060000D94B2F10D94B2F10D94B2F10D94B2F1A0
:10E070000D94B2F10D94B2F10D94B2F10D94B2F190
:10E080000D94B2F10D94B2F10D94B2F10D94B2F180
:10E090000D94B2F10D94B2F10D94B2F10D94B2F170
:10E0A0000D94B2F10D94B2F10D94B2F10D94B2F160
:10E0B0000D94B2F10D94B2F10D94B2F10D94B2F150
:10E0C0000D94B2F10D94B2F10D94B2F10D94B2F140
:10E0D0000D94B2F10D94B2F10D94B2F10D94B2F130
:10E0E0000D94B2F141546D656761323536300041AF
:10E0F000726475696E6F206578706C6F72657220DE
:10E1000073746B3530305632206279204D4C530099
:10E11000426F6F746C6F616465723E004875683F52
:10E1200000436F6D70696C6564206F6E203D200048
:10E130004350552054797065202020203D20005FF9
:10E140005F4156525F415243485F5F3D2000415658
:10E1500052204C696243205665723D20004743437C
:10E160002056657273696F6E203D20004350552024
:10E1700049442020202020203D20004C6F7720663D
:10E18000757365202020203D20004869676820665F
:10E190007573652020203D200045787420667573D6
:10E1A00065202020203D20004C6F636B2066757336
:10E1B000652020203D20004D617220203720323024
:10E1C000313300312E362E3800342E332E350056A2
:10E1D00023202020414444522020206F7020636F70
:10E1E00064652020202020696E73747275637469E1
:10E1F0006F6E2061646472202020496E74657272B3
:10E20000757074006E6F20766563746F7200726A49
:10E210006D702020006A6D70200057686174207056
:10E220006F72743A00506F7274206E6F7420737541
:10E2300070706F72746564004D7573742062652030
:10E2400061206C6574746572002000577269747483
:10E25000696E672045450052656164696E672045B7
:10E26000450045452065727220636E743D00504F35
:10E27000525400303D5A65726F2061646472003FF1
:10E280003D43505520737461747300403D454550C3
:10E29000524F4D207465737400423D426C696E6B41
:10E2A000204C454400453D44756D70204545505215
:10E2B0004F4D00463D44756D7020464C415348001B
:10E2C000483D48656C70004C3D4C69737420492F83
:10E2D0004F20506F72747300513D51756974005234
:10E2E0003D44756D702052414D00563D73686F7707
:10E2F00020696E7465727275707420566563746FF0
:10E30000727300593D506F727420626C696E6B00BD
:10E310002A0011241FBECFEFD1E2DEBFCDBF01E046
:10E320000CBF12E0A0E0B2E0EEE1FDEF03E00BBFB6
:10E3300002C007900D92A030B107D9F712E0A0E01B
:10E34000B2E001C01D92AE30B107E1F70F9460F367
:10E350000D948DFE01E20EBF0FEF0DBF11241FBE05
:10E360000D9460F30D9400F020E030E040ED57E0B4
:10E3700005C0FA013197F1F72F5F3F4F2817390792
:10E38000C0F308959C01260F311DC901A0E0B0E043
:10E390002F5F3F4FABBFFC018791882361F08093D3
:10E3A000C6008091C00086FFFCCF8091C0008064D1
:10E3B0008093C000EACF08958DE08093C6008091DD
:10E3C000C00086FFFCCF8091C00080648093C000B5
:10E3D0008AE08093C6008091C00086FFFCCF8091C8
:10E3E000C00080648093C00008950F94C2F10F9420
:10E3F000DCF10895FC019081992359F09093C600B7
:10E400008091C00086FFFCCF8091C0008064809323
:10E41000C0003196992379F70895282F982F929567
:10E420009F70892F805D8A3308F0895F8093C600D2
:10E430008091C00086FFFCCF8091C00080648093F3
:10E44000C000822F8F70982F905D9A3308F0995FEB
:10E450009093C6008091C00086FFFCCF8091C000E1
:10E4600080648093C00008959C01FB01853691056E
:10E470001CF46330710594F0C90164E670E00F94F8
:10E480002EFE605D7F4F6093C6008091C00086FFC6
:10E49000FCCF8091C00080648093C0002B30310598
:10E4A00014F43297B4F0C90164E670E00F942EFEC4
:10E4B0006AE070E00F942EFE605D7F4F6093C600AF
:10E4C0008091C00086FFFCCF8091C0008064809363
:10E4D000C000C9016AE070E00F942EFEC0968093E0
:10E4E000C6008091C00086FFFCCF8091C000806490
:10E4F0008093C00008951F93182F8EE692EE60E07F
:10E500000F94C2F11093C6008091C00086FFFCCF2B
:10E510008091C00080648093C0000F94DCF11F9153
:10E5200008952F923F924F925F926F927F928F92B7
:10E530009F92AF92BF92CF92DF92EF92FF920F9392
:10E540001F93DF93CF93CDB7DEB762970FB6F894E2
:10E55000DEBF0FBECDBF382E622ECA01DB015C01CB
:10E560006D01772420E2222E2E010894411C511CBB
:10E570008BC081E0A81680E0B80681E0C80680E084
:10E58000D80628F0C601AA27BB270F940DF2BB2797
:10E59000AD2D9C2D8B2D0F940DF28A2D0F940DF225
:10E5A0002092C6008091C00086FFFCCF8091C00001
:10E5B00080648093C0009DE29093C6008091C0006B
:10E5C00086FFFCCF8091C00080648093C0002092C1
:10E5D000C6008091C00086FFFCCF8091C00080649F
:10E5E0008093C00019828601750188249924A1E0D6
:10E5F0003A1651F03A1620F0B2E03B1661F409C029
:10E600000BBFF701779007C0C7010F9477FE782EF4
:10E6100002C0F7017080872D0F940DF22092C60082
:10E620008091C00086FFFCCF8091C0008064809301
:10E63000C000872D8052F401EF70F0708F3520F408
:10E64000E40DF51D708204C0E40DF51D8EE280839B
:10E650000894E11CF11C011D111D0894811C911CE2
:10E6600090E18916910409F0C2CF80E190E0A0E02A
:10E67000B0E0A80EB91ECA1EDB1E198AC2010F9493
:10E68000FAF10F94DCF16A94662009F072CF629679
:10E690000FB6F894DEBF0FBECDBFCF91DF911F91B3
:10E6A0000F91FF90EF90DF90CF90BF90AF909F9031
:10E6B0008F907F906F905F904F903F902F90089534
:10E6C0002F923F924F925F926F927F928F929F9282
:10E6D000AF92BF92CF92DF92EF92FF920F931F9370
:10E6E000DF93CF93CDB7DEB7CD53D1400FB6F894BB
:10E6F000DEBF0FBECDBF01E20EBF0FEF0DBF94B75F
:10E70000F894A89514BE80916000886180936000A1
:10E7100010926000789493FF05C0E0910002F091A0
:10E7200001021995279A2F9A8091C00082608093E8
:10E73000C00080E18093C40088E18093C1000000A4
:10E74000EE24FF24870144E0A42EB12CCC24DD2448
:10E7500024C0C5010197F1F70894E11CF11C011DCB
:10E76000111D21E2E2162EE4F20620E0020720E06D
:10E77000120718F031E0C32ED12CC801B70127ECE5
:10E780003BE140E050E00F9441FE611571058105C9
:10E79000910519F485B1805885B98091C00087FD35
:10E7A00003C0C114D104A9F2A6014F5F5F4FC25E3E
:10E7B000DE4F59834883CE51D140C25EDE4F8881FF
:10E7C0009981CE51D140019711F00D9410FEC05D9A
:10E7D000DE4F19821882C053D14060E0C15DDE4F28
:10E7E0001882CF52D14088249924C35DDE4F19820C
:10E7F0001882CD52D140C05EDE4F188219821A8233
:10E800001B82C052D140CE5CDE4F188219821A8220
:10E810001B82C253D140EE24FF2487010BBFF701B6
:10E8200007911691C45CDE4F19830883CC53D14005
:10E830000D940BFEC25EDE4F28813981CE51D1404E
:10E840002130310509F52091C600C25EDE4F1982E4
:10E850001882CE51D14022C02F5F3F4F4F4F5F4FA4
:10E86000213082E138078AE7480780E0580780F0C6
:10E87000C45CDE4FE881F981CC53D140EF5FFF4F9C
:10E8800019F0EE27FF27099420E030E040E050E047
:10E890008091C00087FFE0CF2091C600C35DDE4FAE
:10E8A00048815981CD52D1404F5F5F4FC35DDE4FEC
:10E8B00059834883CD52D140213209F063C64A3092
:10E8C000510508F05FC60894811C911C53E0851621
:10E8D000910409F059C600E010E018C081E280936D
:10E8E000C6008091C00086FFFCCF8091C00080648C
:10E8F0008093C0002F5F3F4F2931310579F70F9486
:10E90000DCF10F5F1F4F0530110519F020E030E0FA
:10E91000E5CF10920A0210920B0210920C02109294
:10E920000D02109206021092070210920802109235
:10E930000902109202021092030210920402109235
:10E9400005028FEE90EE60E00F94F5F180E191EE1C
:10E9500060E00F94C2F18091C00087FFFCCF9091DE
:10E96000C600903608F09F759032B8F09093C600BC
:10E970008091C00086FFFCCF8091C00080648093AE
:10E98000C000A0E2A093C6008091C00086FFFCCF2B
:10E990008091C00080648093C000983409F4D7C18E
:10E9A0009934B8F4923409F459C1933458F490333B
:10E9B00019F1903308F4E3C59F33A1F1903409F0C5
:10E9C000DEC5BDC0953409F470C1963409F0D7C5D1
:10E9D00098C1923509F42BC2933538F49C3409F46C
:10E9E000F5C1913509F0CBC518C2963509F445C279
:10E9F000993509F0C4C567C483E792EE62E00F94CD
:10EA0000F5F110920602109207021092080210927D
:10EA1000090210920A0210920B0210920C0210923C
:10EA20000D0213C18FE792EE62E00F94F5F18FEEC5
:10EA300090EE60E00F94F5F181E291EE60E00F94CA
:10EA4000C2F187EB91EE60E00F94F5F180E391EE77
:10EA500060E00F94C2F184EE90EE60E00F94F5F167
:10EA60008FE391EE60E00F94C2F186E090E061E008
:10EA700070E00F9434F20F94DCF18DE591EE60E0DC
:10EA80000F94C2F189EC91EE60E00F94F5F18EE401
:10EA900091EE60E00F94C2F183EC91EE60E00F9490
:10EAA000F5F18CE691EE60E00F94C2F18EE10F94E7
:10EAB0000DF288E90F940DF281E00F940DF20F949E
:10EAC000DCF18BE791EE60E00F94C2F119E0E0E039
:10EAD000F0E010935700E4918E2F0F940DF20F94F5
:10EAE000DCF18AE891EE60E00F94C2F1E3E0F0E03F
:10EAF00010935700E4918E2F0F940DF20F94DCF1D8
:10EB000089E991EE60E00F94C2F1E2E0F0E0109349
:10EB10005700E4918E2F0F940DF20F94DCF188EAE8
:10EB200091EE60E00F94C2F1E1E0F0E01093570045
:10EB30001491812F0F940DF20F94DCF107CF8BE825
:10EB400092EE62E00F94F5F18BE492EE60E00F94A8
:10EB5000F5F10F94DCF100E010E019C0C8016F2D51
:10EB60000F947FFEFF2031F489E492EE60E00F9471
:10EB7000C2F10BC0F092C6008091C00086FFFCCFAE
:10EB80008091C00080648093C0000F5F1F4FC80158
:10EB900081519F41A0E0B0E0ABBFFC01F790BAE229
:10EBA000FB1621F0E2E000301E07C1F60F94DCF105
:10EBB0000F94DCF187E592EE60E00F94F5F10F948D
:10EBC000DCF1CC24DD2400E010E01EC0C8010F946D
:10EBD00077FEF82E882331F489E492EE60E00F94FA
:10EBE000C2F10BC08093C6008091C00086FFFCCFAD
:10EBF0008091C00080648093C000FE1419F00894D6
:10EC0000C11CD11C0F5F1F4FC80181519F41A0E063
:10EC1000B0E0ABBFFC01E790FAE2EF1621F022E092
:10EC20000030120799F60F94DCF10F94DCF182E6C4
:10EC300092EE60E00F94C2F1C60161E070E00F94C3
:10EC400034F20F94DCF10F94DCF110920202109276
:10EC50000302109204021092050278CE89E992EE26
:10EC600062E00F94F5F1279A2F9A16C02F9880E052
:10EC700090E0E0EDF7E03197F1F7019684369105E9
:10EC8000C1F72F9A80E090E0E0EDF7E03197F1F7DF
:10EC9000019684369105C1F78091C00087FFE6CFC9
:10ECA0008091C00087FFFCCF64C485EA92EE62E0E9
:10ECB0000F94F5F140910202509103026091040219
:10ECC0007091050281E020E10F9491F2809102029F
:10ECD00090910302A0910402B091050280509F4FD1
:10ECE000AF4FBF4F8093020290930302A0930402A0
:10ECF000B093050280509041A040B04008F426CE69
:10ED0000A4CF83EB92EE62E00F94F5F140910602FE
:10ED100050910702609108027091090280E020E1A1
:10ED20000F9491F28091060290910702A09108023F
:10ED3000B091090280509F4FAF4FBF4F80930602A2
:10ED400090930702A0930802B0930902FFCD80ECD4
:10ED500092EE62E00F94F5F183E792EE60E00F949B
:10ED6000F5F18FE792EE60E00F94F5F18BE892EE0B
:10ED700060E00F94F5F189E992EE60E00F94F5F10F
:10ED800085EA92EE60E00F94F5F183EB92EE60E09D
:10ED90000F94F5F180EC92EE60E00F94F5F187ECC2
:10EDA00092EE60E00F94F5F188ED92EE60E00F9442
:10EDB000F5F18FED92EE60E00F94F5F18AEE92EEB0
:10EDC00060E00F94F5F183E093EEBDCD87EC92EE19
:10EDD00062E00F94F5F181E40F947BF282E40F94EA
:10EDE0007BF283E40F947BF284E40F947BF285E45E
:10EDF0000F947BF286E40F947BF287E40F947BF20E
:10EE000088E40F947BF28AE40F947BF28BE40F94F6
:10EE10007BF28CE40F947BF299CD88ED92EE62E068
:10EE20000F94F5F1772473948824992409C48FED05
:10EE300092EE62E00F94F5F140910A0250910B02BC
:10EE400060910C0270910D0282E020E10F9491F22A
:10EE500080910A0290910B02A0910C02B0910D02D8
:10EE600080509F4FAF4FBF4F80930A0290930B0289
:10EE7000A0930C02B0930D0269CD8AEE92EE62E08F
:10EE80000F94F5F184EE90EE60E00F94F5F18FECC5
:10EE900091EE60E00F94F5F1662477244301CC5D98
:10EEA000DE4F19821882C452D140D401C301B695F5
:10EEB000A79597958795CA5DDE4F88839983AA8326
:10EEC000BB83C652D140CC5DDE4FA881B981C4520C
:10EED000D1401196CC5DDE4FB983A883C452D14096
:10EEE000CD0162E070E00F9434F2B0E2B093C6005E
:10EEF0008091C00086FFFCCF8091C0008064809329
:10EF0000C000EDE2E093C6008091C00086FFFCCF18
:10EF10008091C00080648093C000F0E2F093C6004E
:10EF20008091C00086FFFCCF8091C00080648093F8
:10EF3000C000CA5DDE4FE880F9800A811B81C6529D
:10EF4000D140BB27A12F902F8F2D0F940DF2CA5DBA
:10EF5000DE4F8881C652D1400F940DF2B0E2FB2EF5
:10EF6000F092C6008091C00086FFFCCF8091C00067
:10EF700080648093C0000DE30093C6008091C000C0
:10EF800086FFFCCF8091C00080648093C00010E2B7
:10EF90001093C6008091C00086FFFCCF8091C00016
:10EFA00080648093C0008BBEF3012791C65DDE4F65
:10EFB0002883CA52D140A22EBB24CC24DD2408943D
:10EFC000611C711C811C911C8BBEF3018791282E42
:10EFD0003324442455240894611C711C811C911C09
:10EFE0008BBEF3013791C55DDE4F3883CB52D140E4
:10EFF0000894611C711C811C911C8BBEF30147910C
:10F00000C45DDE4F4883CC52D140ADEFEA2EAFEF66
:10F01000FA2EAFEF0A2FAFEF1A2F6E0C7F1C801E57
:10F02000911E142D032DF22CEE24EA0CFB1C0C1D5A
:10F030001D1D0F940DF220E22093C6008091C000A8
:10F0400086FFFCCF8091C00080648093C000C65DC5
:10F05000DE4F8881CA52D1400F940DF230E23093D6
:10F06000C6008091C00086FFFCCF8091C000806404
:10F070008093C000C45DDE4F8881CC52D1400F9494
:10F080000DF240E24093C6008091C00086FFFCCFA5
:10F090008091C00080648093C000C55DDE4F888190
:10F0A000CB52D1400F940DF250E25093C6008091A4
:10F0B000C00086FFFCCF8091C00080648093C000B8
:10F0C0008FEFE8168FEFF80680E0080780E018075A
:10F0D00031F484E092EE60E00F94C2F1DFC0D80119
:10F0E000C7018070907CA070B0708050904CA040A0
:10F0F000B040D1F52FEF3FE340E050E0E222F322B1
:10F1000004231523CA5DDE4FA880B980CA80DB8046
:10F11000C652D140AE0CBF1CC01ED11EAA0CBB1CD7
:10F12000CC1CDD1C8EE092EE60E00F94C2F1BB2798
:10F13000A12F902F8F2D0F940DF28E2D0F940DF285
:10F1400030E23093C6008091C00086FFFCCF8091F2
:10F15000C00080648093C0004EE34093C60080915D
:10F16000C00086FFFCCF87C08EE09EEFA0E0B0E03D
:10F17000E822F9220A231B239CE0E91694E9F90608
:10F1800090E0090790E0190709F088C0C45DDE4FE0
:10F19000A881CC52D140EA2EFF2400E010E0102FCD
:10F1A0000F2DFE2CEE24C55DDE4FB881CB52D14031
:10F1B000EB0EF11C011D111DD601C501817090706F
:10F1C000A070B070DC0199278827E80EF91E0A1F8D
:10F1D0001B1F20EF30E040E050E0A222B322C42207
:10F1E000D52241E1AA0CBB1CCC1CDD1C4A95D1F7F1
:10F1F000EA0CFB1C0C1D1D1D81E090E0A0E0B0E0BE
:10F20000282239224A225B2235E1220C331C441C7D
:10F21000551C3A95D1F7E20CF31C041D151D57013E
:10F220006801AA0CBB1CCC1CDD1C85E192EE60E0E1
:10F230000F94C2F1C801AA27BB270F940DF2BB2778
:10F24000A12F902F8F2D0F940DF28E2D0F940DF274
:10F2500090E29093C6008091C00086FFFCCF809121
:10F26000C00080648093C000AEE3A093C60080918C
:10F27000C00086FFFCCF8091C00080648093C000F6
:10F28000C601AA27BB270F940DF2BB27AD2D9C2DDD
:10F290008B2D0F940DF28A2D0F940DF20F94DCF14B
:10F2A000CC5DDE4FE881F981C452D140F99709F471
:10F2B0004DCBF4E0EF2EF12C012D112D6E0C7F1CA7
:10F2C000801E911EF2CD83E093EE62E00F94F5F183
:10F2D0008AE192EE60E00F94C2F18091C00087FF56
:10F2E000FCCF1091C6001F751093C6008091C0001E
:10F2F00086FFFCCF8091C00080648093C0000F9493
:10F30000DCF1812F81548A3108F036C1163409F4BA
:10F3100095C0173490F4133409F44EC0143430F40B
:10F320001134F1F0123409F01DC130C0143409F465
:10F3300059C0153409F016C16BC01A3409F4C4C0A1
:10F340001B3438F4173409F48FC0183409F00AC19B
:10F35000A1C01B3409F4D2C01C3409F003C1E8C0B9
:10F360008FEF81B90DC082B1809582B980E090E0C5
:10F37000E0EDF7E03197F1F70196883C9105C1F790
:10F380008091C00087FFEFCF12B8EFC08FEF84B934
:10F390000DC085B1809585B980E090E0E0EDF7E0A3
:10F3A0003197F1F70196883C9105C1F78091C00033
:10F3B00087FFEFCF15B8D9C08FEF87B90DC088B1DF
:10F3C000809588B980E090E0E0EDF7E03197F1F7C3
:10F3D0000196883C9105C1F78091C00087FFEFCF6F
:10F3E00018B8C3C08FEF8AB90DC08BB180958BB9A7
:10F3F00080E090E0E0EDF7E03197F1F70196883C8E
:10F400009105C1F78091C00087FFEFCF1BB8ADC059
:10F410008FEF8DB90DC08EB180958EB980E090E0F0
:10F42000E0EDF7E03197F1F70196883C9105C1F7DF
:10F430008091C00087FFEFCF1EB897C08FEF80BBD1
:10F440000DC081B3809581BB80E090E0E0EDF7E0F6
:10F450003197F1F70196883C9105C1F78091C00082
:10F4600087FFEFCF11BA81C08FEF83BB0DC084B38C
:10F47000809584BB80E090E0E0EDF7E03197F1F714
:10F480000196883C9105C1F78091C00087FFEFCFBE
:10F4900014BA6BC08FEF809301010FC080910201FD
:10F4A00080958093020180E090E0E0EDF7E03197F5
:10F4B000F1F70196883C9105C1F78091C00087FF64
:10F4C000EDCF1092020151C08FEF809304010FC065
:10F4D0008091050180958093050180E090E0E0ED4A
:10F4E000F7E03197F1F70196883C9105C1F78091DB
:10F4F000C00087FFEDCF1092050137C08FEF8093DA
:10F5000007010FC08091080180958093080180E079
:10F5100090E0E0EDF7E03197F1F70196883C910536
:10F52000C1F78091C00087FFEDCF109208011DC088
:10F530008FEF80930A010FC080910B01809580931B
:10F540000B0180E090E0E0EDF7E03197F1F70196F4
:10F55000883C9105C1F78091C00087FFEDCF1092E4
:10F560000B0103C085E292EEEEC98091C00087FFD7
:10F57000FCCF8091C600EAC988E392EEE4C98CE131
:10F5800091EEE1C988249924933011F1943028F444
:10F59000913089F09230B8F408C0953061F195301F
:10F5A000F0F0963009F048C043C02B3109F042C951
:10F5B00091E06BE13FC96227C15DDE4F2883CF52E6
:10F5C000D14092E037C9B22FA0E0622793E032C960
:10F5D000822F90E0A82BB92B622794E02BC92E3004
:10F5E00009F039C3622795E0C05DDE4F19821882A9
:10F5F000C053D1401FC9E1E0F0E0EC0FFD1FC05D3A
:10F60000DE4F08811981C053D140E00FF11F2083E4
:10F610000F5F1F4FC05DDE4F19830883C053D14079
:10F6200062270A171B0709F005C9D80196E002C92D
:10F63000261709F010C303C0973009F0FBC87724E0
:10F640009981933109F412C19431C8F4963009F4C8
:10F65000D8C0973050F4923009F406C1933009F4C1
:10F660006DC0913009F059C253C0913109F477C08F
:10F67000923108F0BBC0903109F04FC2F5C098310B
:10F6800009F487C0993150F4953109F4EFC09531F0
:10F6900008F4C6C1963109F040C2C2C19A3109F4DA
:10F6A0006CC09A3108F491C09B3109F45BC09D3164
:10F6B00009F033C29D81903359F48F81882311F46E
:10F6C0009EE11CC0813011F091E018C098E916C08D
:10F6D000892F807591F0903539F4E0E0F0E089E011
:10F6E0008093570094910AC0983539F4E3E0F0E034
:10F6F00089E080935700949101C090E01A821B82A8
:10F700008D818C831D829E831F8227E030E009C299
:10F710001A8288E08B8381E48C8386E58D8382E581
:10F720008E8389E48F8383E5888780E589878FE5E9
:10F730008A8782E38B872BE030E0F3C18A818139AD
:10F7400041F0823941F0803911F48FE005C080E04A
:10F7500003C082E001C08AE01A828B8344C0772410
:10F76000739482C08D81882311F48EE12CC0813086
:10F7700011F081E028C088E926C01A82E1E0F0E0BB
:10F7800089E08093570084918B831C8224E030E0D1
:10F79000C8C18B81803589F48C81883039F4E2E0EE
:10F7A000F0E089E08093570084910DC0E0E0F0E044
:10F7B00089E080935700849106C0E3E0F0E089E09F
:10F7C0008093570084911A82DFCF8D81836C99E0FA
:10F7D000E1E0F0E0082E90935700E89507B600FCB2
:10F7E000FDCF1A821B8223E030E09BC180EC8A832C
:10F7F000CE5CDE4F188219821A821B82C253D1401E
:10F800008EC18A8190E0A0E0B0E0582F44273327D2
:10F8100022278B8190E0A0E0B0E0DC0199278827C7
:10F82000282B392B4A2B5B2B8D8190E0A0E0B0E098
:10F83000282B392B4A2B5B2B8C8190E0A0E0B0E089
:10F84000BA2FA92F982F8827282B392B4A2B5B2BCF
:10F85000220F331F441F551FC05EDE4F288339839C
:10F860004A835B83C052D1401A8259C13A81C95C34
:10F87000DE4F3883C753D140CA5CDE4F1882C6536F
:10F88000D1408B81C82EDD24CA5CDE4F488159816E
:10F89000C653D140C42AD52A933109F082C0CE5C28
:10F8A000DE4F88819981AA81BB81C253D1408050AB
:10F8B000904CA340B04030F583E0CE5CDE4FE88052
:10F8C000F9800A811B81C253D140F70100935B008C
:10F8D00080935700E89507B600FCFDCFCE5CDE4F65
:10F8E000088119812A813B81C253D14000501F4FAA
:10F8F0002F4F3F4FCE5CDE4F088319832A833B8313
:10F90000C253D140C05EDE4F488159816A817B81FC
:10F91000C052D140DE011B9631E08C9111962C91A2
:10F9200011971296C75CDE4F2883C953D140C85C3B
:10F93000DE4F1882C853D14090E0C85CDE4FE881AA
:10F94000F981C853D1408E2B9F2B0C01FA01609393
:10F950005B0030935700E89511244E5F5F4F6F4F67
:10F960007F4F0EEFE02E0FEFF02ECE0CDF1CC114F8
:10F97000D10499F685E0C05EDE4F088119812A81A5
:10F980003B81C052D140F80120935B008093570027
:10F99000E89507B600FCFDCF81E180935700E8951C
:10F9A00035C0C05EDE4F88819981AA81BB81C0527B
:10F9B000D140B695A795979587957C018601ABE0D8
:10F9C000AA2EB12CAC0EBD1E0BC0D5016D915D01F0
:10F9D000C7010F947FFE0894E11CF11C01501040F8
:10F9E0000115110591F7A60160E070E0440F551F65
:10F9F000661F771FC05EDE4FE880F9800A811B8199
:10FA0000C052D1404E0D5F1D601F711F1A82C05E33
:10FA1000DE4F488359836A837B83C052D1407FC0C5
:10FA2000FA80C55CDE4FF882CB53D140C65CDE4F16
:10FA30001882CA53D1408B81C82EDD24C65CDE4FAC
:10FA400008811981CA53D140C02AD12A1A828981DA
:10FA5000BE016D5F7F4F843121F59601C05EDE4FA0
:10FA6000E880F9800A811B81C052D1400BBFF701A9
:10FA700087919691DB018C9311969C936E5F7F4FDB
:10FA8000D801C7010296A11DB11DC05EDE4F88835B
:10FA90009983AA83BB83C052D14022503040F1F6F3
:10FAA00036C0C05EDE4F288139814A815B81C052F9
:10FAB000D1400894C108D108760100E010E0089414
:10FAC000C11CD11C0894E11CF11C011D111DE20E8A
:10FAD000F31E041F151F21BDBB27A52F942F832FB5
:10FAE00082BD2F5F3F4F4F4F5F4FF89A80B5DB01CC
:10FAF0008D93BD012E153F054007510761F7C05E8C
:10FB0000DE4F288339834A835B83C052D1409601FC
:10FB10002D5F3F4FFB01108204C080EC8A8322E0FE
:10FB200030E08BE18093C6008091C00086FFFCCF5F
:10FB30008091C00080648093C000C15DDE4FF88179
:10FB4000CF52D140F093C6008091C00086FFFCCF19
:10FB50008091C00080648093C000432F3093C60022
:10FB60008091C00086FFFCCF8091C00080648093AC
:10FB7000C000922F2093C6008091C00086FFFCCF6A
:10FB80008091C00080648093C0008EE08093C600A6
:10FB90008091C00086FFFCCF8091C000806480937C
:10FBA000C00065E1C15DDE4FE880CF52D1406E25D7
:10FBB00069276427FE01319610C090819093C6009A
:10FBC0008091C00086FFFCCF31968091C000806498
:10FBD0008093C0006927215030402115310569F715
:10FBE0006093C6008091C00086FFFCCF8091C0006A
:10FBF00080648093C00085B1805885B9772081F4F6
:10FC0000C15DDE4F0881CF52D1400F5FC15DDE4F35
:10FC10000883CF52D14090E0A0E0B0E00D941AF4F8
:10FC200027982F9880E090E020ED37E0F901319798
:10FC3000F1F7019684369105C9F700008091C00064
:10FC40008D7F8093C00081E180935700E895EE2777
:10FC5000FF270994FFCF90E00D941AF497FB092E2B
:10FC600007260AD077FD04D02ED006D000201AF443
:10FC7000709561957F4F0895F6F7909581959F4F08
:10FC80000895A1E21A2EAA1BBB1BFD010DC0AA1FDD
:10FC9000BB1FEE1FFF1FA217B307E407F50720F0F5
:10FCA000A21BB30BE40BF50B661F771F881F991F70
:10FCB0001A9469F760957095809590959B01AC01B9
:10FCC000BD01CF010895AA1BBB1B51E107C0AA1FAC
:10FCD000BB1FA617B70710F0A61BB70B881F991FED
:10FCE0005A95A9F780959095BC01CD010895F99991
:10FCF000FECF92BD81BDF89A992780B50895262F31
:10FD0000F999FECF1FBA92BD81BD20BD0FB6F89400
:0EFD1000FA9AF99A0FBE01960895F894FFCF63
:040000033000E000E9
:00000001FF