:10000000DAC100000C942908F9C70000CCC7000031
:100010009FC7000072C7000045C7000018C7000056
:10002000EBC60000F9C10000F7C10000F5C10000F7
:10003000F3C10000F1C10000EFC10000EDC10000FC
:10004000EBC10000E9C10000E7C10000E5C100000C
:10005000E3C10000E1C10000DFC1000083C6000071
:10006000DBC10000E4C300000C94A40DD5C1000066
:10007000D3C10000D1C10000CFC10000CDC100003C
:10008000CBC10000C9C10000C7C10000C5C100004C
:10009000C3C10000C1C10000BFC100000C948D0AA3
:1000A000BBC10000B9C10000B7C10000B5C100006C
:1000B000B3C10000B1C10000AFC10000ADC100007C
:1000C000ABC10000A9C10000A7C10000A5C100008C
:1000D000A3C10000A1C100009FC100009DC100009C
:1000E0009BC10000F004F304E204E604EC042A05DA
:1000F000F704FB040105050509050F0513051705A0
:100100002A051D0521052505BD05C205C705D10523
:10011000DB055406E505ED05F505FF0509061306A3
:1001200022062C065406360640064A060930202DC3
:10013000204D61696E204D656E75000933202D20BC
:100140004C4344204261636B6C696768742053744C
:1001500061747573000932202D205254432053746A
:1001600061747573000931202D20517565727920F5
:1001700054656D702053656E736F72004C4344205C
:10018000485544202D2000005EBCE2613FDD83C263
:100190009C7E20A3FD1F419DC3217FFCA2401E5FCA
:1001A00001E3BD3E6082DC237D9FC1421CFEA0E1D5
:1001B000BF5D0380DE3C62BEE0025CDF81633D7CAC
:1001C00022C09E1D43A1FF4618FAA427799BC5842F
:1001D000DA3866E5BB5907DB856739BAE406581992
:1001E00047A5FB7826C49A653BD987045AB8E6A789
:1001F000F91B45C6987A24F8A6441A99C7257B3A74
:100200006486D85B05E7B98CD2306EEDB3510F4EE2
:1002100010F2AC2F7193CD114FADF3702ECC92D361
:100220008D6F31B2EC0E50AFF1134DCE90722C6D3C
:1002300033D18F0C52B0EE326C8ED0530DEFB1F043
:10024000AE4C1291CF2D73CA947628ABF51749089E
:1002500056B4EA6937D58B5709EBB536688AD49519
:10026000CB2977F4AA4816E9B7550B88D6346A2B00
:100270007597C94A14F6A8742AC896154BA9F7B6FB
:10028000E80A54D7896B3500002100240027002A92
:10029000002D003000330001010000040107010AB5
:1002A0000100002200250028002B002E0031003420
:1002B0000002010000050108010B011F1C1F1E1F89
:1002C0001E1F1F1E1F1E1F00000A0B02090C0D0E11
:1002D0000807030401000000000000000000000007
:1002E000000000000000000000000000000000000E
:1002F00000000012111000000000000000000000CB
:1003000000000000000000000000000000000020CD
:10031000002300260029002C002F003200000100DD
:100320000003010601090105050505070508080880
:1003300008020202020A0A08080404040401010176
:10034000010101010103030303030303030407077E
:10035000070C0C0C0C0C0C0C0C020202020606061C
:1003600006060606060B0B0B0B0B0B0B0B01021004
:1003700020200808102040102040800201020108BF
:10038000040201010204081020408080402010086F
:1003900004020180040201804020100804020108C8
:1003A0000402010102040810204080010204081028
:1003B000204080002E1711241FBECFEFD1E2DEBFF8
:1003C000CDBF00E00CBF25E0AAEEB3E001C01D9256
:1003D000A93AB207E1F713E0A0E0B2E0E2EAFEE3F7
:1003E00000E00BBF02C007900D92AA3EB107D9F7FB
:1003F00011E0CBEDD1E000E006C021970109802F8C
:10040000FE010E94591ACA3DD10780E00807A9F7EA
:100410000E943E120C944F1FF3CDFC01538D448D6E
:10042000252F30E0842F90E0821B930B541710F09F
:10043000CF96089501970895FC01918D828D9817AC
:1004400061F0828DDF01A80FB11D5D968C91928DB8
:100450009F5F9F73928F90E008958FEF9FEF0895B5
:10046000FC01918D828D981731F0828DE80FF11D7E
:10047000858D90E008958FEF9FEF0895FC01918D99
:10048000228D892F90E0805C9F4F821B91098F7392
:100490009927089580E090E0892B21F00E94590C63
:1004A000811125C080E090E0892B41F080E090E050
:1004B000892B21F00E94000081111CC080E090E097
:1004C000892B41F080E090E0892B21F00E94000010
:1004D000811113C080E090E0892BA1F080E090E0D2
:1004E000892B81F00E94000081110AC008950E94AA
:1004F0000000D8CF0E940000E1CF0E940000EACFA8
:100500000C94000008953FB7F894809136049091C0
:100510003704A0913804B091390426B5A89B05C0D2
:100520002F3F19F00196A11DB11D3FBFBA2FA92F72
:10053000982F8827820F911DA11DB11DBC01CD01EF
:1005400042E0660F771F881F991F4A95D1F70895DB
:10055000089521E001C0220F6A95EAF7DC011C969C
:100560002C931C971A965C934E931997ED91FC91DE
:100570000484F585E02D60E01994DC01ED91FC9197
:100580000684F785E02D41E0199581E090E008951B
:1005900008950895089585ED8093BC008091BC0076
:1005A00084FDFCCF1092C104089540910C04262FC5
:1005B00030E0240F311D21323105DCF42091C104DB
:1005C0002430C9F4FC0180E090E0861758F43091A3
:1005D0000C042191DC01A651BC4FA30FB11D2C933B
:1005E0000196F3CF80910C04680F60930C0480E0B7
:1005F000089581E0089582E008950895E0915604F9
:1006000080915504E81730F4F0E0E558FB4F808105
:1006100090E008958FEF9FEF089590915604809198
:100620005504981750F4E92FF0E0E558FB4F20816E
:1006300030E09F5F9093560402C02FEF3FEFC90157
:1006400008958091550490E020915604821B9109F1
:100650000895CF92DF92EF92FF920F931F93CF9363
:10066000DF937C01262F972F8A01809157048823DE
:1006700091F0C62FD72F6E01C40ED51ECC15DD0507
:1006800069F06991D701ED91FC910190F081E02D25
:10069000C7011995F3CF642F822F87DFC801DF913F
:1006A000CF911F910F91FF90EF90DF90CF90089521
:1006B000CF93DF931F92CDB7DEB7698320915704A4
:1006C0002223D1F020917A04203240F021E030E062
:1006D000FC013383228380E090E014C080915804B1
:1006E000E82FF0E0E75AFB4F998190838F5F80936A
:1006F000580480937A0404C061E0CE01019655DF6E
:1007000081E090E00F90DF91CF910895089580E00F
:1007100090E008950E94721CFC0123812223B9F00D
:100720009181909569236083828191E09093570431
:10073000809379041092580410927A048FE595E022
:10074000B7DF81E00E94480E282F30E002C020E091
:1007500030E081E090E0232B11F080E090E00895FC
:10076000EF92FF920F931F93CF938C01FC0175962C
:1007700084E0C0E060FF02C09081C92B6695815083
:1007800031968111F7CF413011F4F8014489F80115
:100790008585C82BC42B7801FEE0EF0EF11CF80113
:1007A00062896C2BC701B8DFF801628960956C2300
:1007B000C701CF911F910F91FF90EF90ADCF0F9395
:1007C0001F93CF93DF93062F0F70423019F440E050
:1007D000602F0FC0142F262FEC0130E0B90184E008
:1007E000759567958A95E1F7CE01BADF412F602FA5
:1007F000CE01DF91CF911F910F91B2CFFC01848583
:100800008823A1F0218532852115310519F4611164
:1008100006C007C02130310521F4611102C085876F
:1008200001C015866585CF010E9676CF08951F927B
:100830000F920FB60F9211240BB60F922F938F9336
:100840009F93EF93FF93E091D204F091D3048081C2
:10085000E091D804F091D90482FD12C0908180917A
:10086000DB048F5F8F732091DC04821751F0E091DD
:10087000DB04F0E0EE53FB4F958F8093DB0401C067
:100880008081FF91EF919F918F912F910F900BBEDF
:100890000F900FBE0F901F901895FC01848DDF0103
:1008A000A80FB11DA35ABF4F2C91848D90E00196E3
:1008B0008F739927848FA689B7892C93A089B189D2
:1008C0008C9180648C93938D848D981306C00288DC
:1008D000F389E02D80818F7D80830895EF92FF92D0
:1008E0000F931F93CF93DF93EC0181E0888F9B8D53
:1008F0008C8D981305C0E889F989808185FD23C016
:10090000F62E0B8D10E00F5F1F4F0F731127E02E97
:100910008C8DE8120BC00FB607FCFACFE889F98975
:10092000808185FFF5CFCE01B8DFF2CF8B8DFE0140
:10093000E80FF11DE35AFF4FF0820B8FEA89FB8924
:100940008081806207C0EE89FF896083E889F98928
:1009500080818064808381E090E0DF91CF911F915E
:100960000F91FF90EF900895CF93DF93EC01888D66
:100970008823C1F0EA89FB89808185FD05C0A889AB
:10098000B9898C9186FD0EC00FB607FCF5CF80812A
:1009900085FFF2CFA889B9898C9185FFEDCFCE0173
:1009A0007CDFE8CFDF91CF91089590E0FC01319793
:1009B000E231F10508F04EC08827EE58FF4F8F4F07
:1009C0000C94591A809180008F7703C08091800029
:1009D0008F7D80938000089580918000877FF9CF7C
:1009E00084B58F7702C084B58F7D84BD08958091D2
:1009F000B0008F7703C08091B0008F7D8093B000EE
:100A00000895809190008F7707C0809190008F7D2E
:100A100003C080919000877F80939000089580911B
:100A2000A0008F7707C08091A0008F7D03C08091C8
:100A3000A000877F8093A0000895809120018F7788
:100A400007C0809120018F7D03C080912001877FA6
:100A50008093200108951F93CF93DF93282F30E0D8
:100A6000F901E953FD4F8491F901E359FC4FD49109
:100A7000F901E95DFC4FC491CC23C1F0162F81111F
:100A800094DFEC2FF0E0EE0FFF1FEF55FD4FA59127
:100A9000B4918FB7F894111105C09C91ED2FE0959A
:100AA000E92302C0EC91ED2BEC938FBFDF91CF9146
:100AB0001F910895CF93DF9390E0FC01E359FC4F21
:100AC0002491FC01E95DFC4F8491882361F190E061
:100AD000880F991FFC01E957FD4FC591D491FC0186
:100AE000EF55FD4FA591B491611109C09FB7F894DE
:100AF0008881209582238883EC912E230BC062305D
:100B000061F49FB7F8943881822F8095832388837E
:100B1000EC912E2B2C939FBF06C08FB7F894E881E1
:100B20002E2B28838FBFDF91CF9108951F93CF93F2
:100B3000DF93182FEB0161E0BDDF209711F460E037
:100B400004C0CF3FD10531F461E0812FDF91CF9117
:100B50001F9181CFE12FF0E0E953FD4FE4914E2F3B
:100B600050E0FA013197E231F10508F09DC0882785
:100B7000EC57FF4F8F4F0C94591A84B5806884BD91
:100B8000C7BD97C084B5806284BDC8BD92C0809146
:100B90008000806880938000D0938900C093880093
:100BA00088C080918000806280938000D0938B0009
:100BB000C0938A007EC0809180008860809380000E
:100BC000D0938D00C0938C0074C08091B000806879
:100BD0008093B000C093B3006CC08091B00080627D
:100BE0008093B000C093B40064C08091900080688E
:100BF00080939000D0939900C09398005AC0809140
:100C00009000806280939000D0939B00C0939A00E4
:100C100050C080919000886080939000D0939D0098
:100C2000C0939C0046C08091A00080688093A00083
:100C30008091A0008F7B8093A000D093A900C093E7
:100C4000A80037C08091A00080628093A000D0935C
:100C5000AB00C093AA002DC08091A0008860809353
:100C6000A000D093AD00C093AC0023C080912001C0
:100C7000806880932001D0932901C093280119C076
:100C800080912001806280932001D0932B01C0933A
:100C90002A010FC080912001886080932001D093A9
:100CA0002D01C0932C0105C0C038D1050CF04CCFEC
:100CB00046CFDF91CF911F9108958F929F92AF926F
:100CC000BF92CF92DF92EF92FF926B017C011BDC0F
:100CD0004B015C01C114D104E104F104E9F013DC1F
:100CE000DC01CB0188199909AA09BB09883E934008
:100CF000A105B10578F321E0C21AD108E108F10895
:100D000088EE880E83E0981EA11CB11CC114D1048A
:100D1000E104F10421F7DECFFF90EF90DF90CF9058
:100D2000BF90AF909F908F90089538D790933B04D9
:100D300080933A04892B11F461E001C060E08BE0FC
:100D40008ADE62E370E080E090E0B7CF2FB7F894DE
:100D50006091320470913304809134049091350491
:100D60002FBF08951F920F920FB60F9211242F9349
:100D70003F938F939F93AF93BF9380913204909151
:100D80003304A0913404B09135043091310423E050
:100D9000230F2D3720F40196A11DB11D05C026E8B3
:100DA000230F0296A11DB11D2093310480933204BC
:100DB00090933304A0933404B093350480913604A7
:100DC00090913704A0913804B09139040196A11D87
:100DD000B11D8093360490933704A0933804B093E8
:100DE0003904BF91AF919F918F913F912F910F90B7
:100DF0000FBE0F901F9018951F920F920FB60F9273
:100E000011240BB60F922F933F934F935F936F93E1
:100E10007F938F939F93AF93BF93EF93FF93E09153
:100E20000E02F0910F021995FF91EF91BF91AF91D2
:100E30009F918F917F916F915F914F913F912F91F2
:100E40000F900BBE0F900FBE0F901F9018951F9222
:100E50000F920FB60F9211240BB60F922F933F9360
:100E60004F935F936F937F938F939F93AF93BF93B2
:100E7000EF93FF93E0910C02F0910D021995FF9111
:100E8000EF91BF91AF919F918F917F916F915F9102
:100E90004F913F912F910F900BBE0F900FBE0F906F
:100EA0001F9018951F920F920FB60F9211240BB638
:100EB0000F922F933F934F935F936F937F938F93F3
:100EC0009F93AF93BF93EF93FF93E0910202F09152
:100ED00003021995FF91EF91BF91AF919F918F916F
:100EE0007F916F915F914F913F912F910F900BBE2A
:100EF0000F900FBE0F901F9018951F920F920FB674
:100F00000F9211240BB60F922F933F934F935F9341
:100F10006F937F938F939F93AF93BF93EF93FF93C1
:100F2000E0910002F09101021995FF91EF91BF91BC
:100F3000AF919F918F917F916F915F914F913F9171
:100F40002F910F900BBE0F900FBE0F901F90189512
:100F50001F920F920FB60F9211240BB60F922F9380
:100F60003F934F935F936F937F938F939F93AF9331
:100F7000BF93EF93FF93E0910A02F0910B02199552
:100F8000FF91EF91BF91AF919F918F917F916F9161
:100F90005F914F913F912F910F900BBE0F900FBE1D
:100FA0000F901F9018951F920F920FB60F92112459
:100FB0000BB60F922F933F934F935F936F937F9353
:100FC0008F939F93AF93BF93EF93FF93E0910802AA
:100FD000F09109021995FF91EF91BF91AF919F9107
:100FE0008F917F916F915F914F913F912F910F90D2
:100FF0000BBE0F900FBE0F901F9018951F920F926F
:101000000FB60F9211240BB60F922F933F934F936D
:101010005F936F937F938F939F93AF93BF93EF9360
:10102000FF93E0910602F09107021995FF91EF916D
:10103000BF91AF919F918F917F916F915F914F91F0
:101040003F912F910F900BBE0F900FBE0F901F90EE
:1010500018951F920F920FB60F9211240BB60F9294
:101060002F933F934F935F936F937F938F939F93B0
:10107000AF93BF93EF93FF93E0910402F0910502C9
:101080001995FF91EF91BF91AF919F918F917F91B2
:101090006F915F914F913F912F910F900BBE0F90E9
:1010A0000FBE0F901F901895CF92DF92EF92FF9294
:1010B0000F931F93CF93DF93EC0181E0809357044C
:1010C00088E6809379041092580410927A0460E0C4
:1010D0008FE595E0EDDA81E0DBD587E090E035D66D
:1010E0008FE595E09ADA8F77982F92959F701AEF97
:1010F000082F919F000D11248FE595E08EDA9C0159
:10110000332794E0359527959A95E1F7F82E129FAD
:10111000F00C11248FE595E080DA9C01332744E040
:10112000359527954A95E1F7E82E129FE00C11249A
:101130008FE595E072DA8FE595E06FDA9C01332751
:1011400054E0359527955A95E1F7D82E129FD00C8B
:1011500011248FE595E061DA9C01332764E0359531
:1011600027956A95E1F7C82E129FC00C11248FE5D0
:1011700095E053DA9C01332774E0359527957A95ED
:10118000E1F7129F800D11248883C982DA82EB82F5
:10119000FC820D83CE01DF91CF911F910F91FF90C3
:1011A000EF90DF90CF900895DC01E0E0615038F0DF
:1011B0008D91E827F0E0E957FE4FE491F7CF8E2FAD
:1011C0000895FC0190810180F281E02DF8948181E5
:1011D000892B81832281892F809528232283A7E070
:1011E000B0E01197F1F7218182238183A3E2B0E07F
:1011F0001197F1F780817894EFECF0E03197F1F7F7
:10120000982381E009F480E00895FC019081018039
:10121000F281E02D892F809560FF12C0F894228121
:10122000822382838181892B8183A3E2B0E011979D
:10123000F1F78281982B9283789487ED90E011C02A
:10124000F8942281822382838181892B8183AFEF6D
:10125000B0E01197F1F78281982B928378948FE018
:1012600090E00197F1F70895CF92DF92EF92FF920D
:101270000F931F93CF93DF931F92CDB7DEB76C010F
:10128000E62E08E010E0FF24F39461E08F2D8E211C
:1012900009F460E0C6014983B8DFFF0C0150110971
:1012A00049810115110589F7411115C0F894D6013E
:1012B0001196ED91FC91129791818C9180958923E3
:1012C00081831196ED91FC91129792818C9180957A
:1012D0008923828378940F90DF91CF911F910F9192
:1012E000FF90EF90DF90CF900895CF92DF92EF9232
:1012F000FF920F931F93CF93DF931F92CDB7DEB76B
:101300008C01F62E40E065E57983AEDFCF2C798144
:10131000D72E760188E0E80EF11CF60161916F018D
:1013200040E0C801A1DFCE14DF04B9F70F90DF91D0
:10133000CF911F910F91FF90EF90DF90CF90089584
:10134000FC0190810180F281E02DF8948181292FA8
:1013500020958223818378948DE743E050E081508B
:1013600021F1DA011197F1F730813923C1F3F894B3
:101370008281822382838181892B81837894ABE768
:10138000B7E01197F1F7F894818128232183A3E135
:10139000B1E01197F1F78081982381E009F080E0B6
:1013A0007894E3E6F6E03197F1F70895DC01ED91EA
:1013B000FC910684F785E02D40E019940F931F936C
:1013C000CF93DF93EC01423018F08C8188608C83DE
:1013D0004F836887222329F0413019F48C8184607F
:1013E0008C8364E670E080E090E067DC6C8164FDF3
:1013F00031C0E881F9810684F785E02D42E063E0A1
:10140000CE0119950BE416E4C8010197F1F7E881C4
:10141000F9810684F785E02D42E063E0CE0119955D
:10142000C8010197F1F7E881F9810684F785E02D7D
:1014300042E063E0CE01199583E592E00197F1F770
:10144000E881F9810684F785E02D42E062E0CE0173
:10145000199513C06062CE01A9DF8BE496E4019771
:10146000F1F76C816062CE01A1DF83E592E0019724
:10147000F1F76C816062CE0199DF6C816062CE0110
:1014800095DF84E08D836CE0CE0190DF61E0CE01DA
:101490008DDF8BE39FE10197F1F782E08E8366E0B9
:1014A000CE0184DFE881F9810484F585E02D6FEFBA
:1014B000CE01DF91CF911F910F911994FF920F935D
:1014C0001F93CF93DF93EC01162F042FF22E8B8501
:1014D000888B6CD461E0888997D3109256048093EE
:1014E000550491E0811101C090E0998B8FE595E062
:1014F00094D88E878989882331F01F861C8260E00A
:10150000CE010E9609D92F2D402F612FCE01DF91EC
:10151000CF911F910F91FF9051CF1F920F920FB655
:101520000F9211240BB60F922F933F934F935F931B
:101530006F937F938F939F93AF93BF93EF93FF939B
:101540008091B900887F803609F49CC068F58832A4
:1015500009F45BC090F4803109F454C038F4882356
:1015600009F4F6C0883009F44DC0F6C0883109F49A
:101570004CC0803209F45DC0EFC0803409F468C00B
:1015800048F4803309F455C0883309F0E5C08093EE
:10159000BF04D8C0803509F44FC0883509F45DC058
:1015A000883409F0D9C0D6C0883909F4C7C0A8F476
:1015B000883709F467C038F4883609F463C0803787
:1015C00009F460C0C9C0883809F4B8C0803909F48A
:1015D0005FC0803809F0C0C05BC0803B09F486C0A2
:1015E00038F4803A09F466C0883A09F47FC0B4C080
:1015F000803C09F4A7C0883C09F4A4C0883B09F4E6
:101600008AC0AAC08091BC0410C09091BE04809191
:10161000BD04981770F5E091BE0481E08E0F8093B1
:10162000BE04F0E0E556FB4F80818093BB0085EC63
:1016300086C08093BF048EC0E091BE0481E08E0F0F
:101640008093BE048091BB00F0E0E556FB4F8083A1
:101650009091BE048091BD046EC0E091BE0481E013
:101660008E0F8093BE048091BB00F0E0E556FB4FE7
:1016700080838091C00481116DC081E08093BB04A0
:1016800084EA61C083E08093C10410923004CFCF1C
:1016900080913004803208F051C0E091300481E044
:1016A0008E0F809330048091BB00F0E0E05FFB4F31
:1016B0008083BDCF85EC8093BC001092C1048091E3
:1016C0003004803230F4E0913004F0E0E05FFB4F12
:1016D00010826091300470E0E0910E04F0910F04EC
:1016E00080E194E019951092300436C084E0809334
:1016F000C10410920D0410920C04E0910A04F091C0
:101700000B04199580910C04811105C081E0809330
:101710000C041092EA03E0910D0481E08E0F809397
:101720000D04F0E0E651FC4F80818093BB00909166
:101730000D0480910C04981708F479CF85E8809304
:10174000BC000AC085EC8093BC001092C10404C0A8
:101750001092BF040E94CB02FF91EF91BF91AF9115
:101760009F918F917F916F915F914F913F912F91B9
:101770000F900BBE0F900FBE0F901F901895CF9338
:10178000DF93EC010A9720F460E38BE695E09BD0B1
:10179000BE01DD0F880B990BDF91CF9146C50F93EA
:1017A0001F93CF93DF93CDB7DEB76C970FB6F89446
:1017B000DEBF0FBECDBF68EE73E0CE01419612D6FC
:1017C0001F9282E38F931F9285E08F931F921F9247
:1017D00088E393E09F938F938E010F5F1F4F1F93BA
:1017E0000F930E94861CB801CE014796FBD5BE011F
:1017F000695E7F4FCE014196BCD58F89988D0E943E
:10180000F61A8CE791E031D34D895E8969897A892E
:1018100082EC94E023D0E6D185E691E047D385E5DC
:1018200091E044D38BE391E041D38CE291E03ED34D
:10183000D9D189899A890E94F61A0FB6F894DEBF29
:101840000FBECDBF6C960FB6F894DEBF0FBECDBFF6
:10185000DF91CF911F910F9108950895CF92DF925C
:10186000EF92FF920F931F93CF93DF936C017A0156
:101870008B01C0E0D0E0CE15DF0589F0D8016D9175
:101880008D01D601ED91FC910190F081E02DC60112
:101890001995892B11F47E0102C02196ECCFC70166
:1018A000DF91CF911F910F91FF90EF90DF90CF903C
:1018B000089582EC94E00E943E0221E0892B09F415
:1018C00020E0822F0895DC01ED91FC910190F081E0
:1018D000E02D19946115710579F0FB01019000204C
:1018E000E9F73197AF01461B570BDC01ED91FC91F5
:1018F0000280F381E02D199480E090E008954F92EA
:101900005F926F927F92EF92FF920F931F93CF930C
:10191000DF93CDB7DEB7A1970FB6F894DEBF0FBE49
:10192000CDBF7C01FA01CB0119A2223008F42AE0D4
:101930008E010F5D1F4F422E512C612C712CBF0167
:10194000A30192010E94371AF901CA01015011093D
:101950006A3014F4605D01C0695CD8016C93232B7C
:10196000242B252B61F7B801C701B4DFA1960FB670
:10197000F894DEBF0FBECDBFDF91CF911F910F91C5
:10198000FF90EF907F906F905F904F9008954F92EF
:101990005F926F927F928F929F92AF92BF92CF92FF
:1019A000DF92EF92FF92CF93DF93EC016A017B010C
:1019B000B22E9A01AB01C701B6010E940C1A88230E
:1019C00019F06DE473E027C026013701E89477F839
:1019D0002FEF3FEF4FE75FE7C301B2010E940C1A00
:1019E00081110DC02FEF3FEF4FE75FE7C301B20159
:1019F0000E94F11718161CF461E573E00CC02FEF7C
:101A00003FEF4FE75FE4C701B6010E94081A1816BE
:101A100094F465E573E0CE01DF91CF91FF90EF90F4
:101A2000DF90CF90BF90AF909F908F907F906F90FE
:101A30005F904F904FCF2FEF3FEF4FE75FECC70125
:101A4000B6010E94F11787FDE4CF20E030E0A90144
:101A5000C701B6010E94F11787FF09C06DE2CE01F0
:101A600032DF4C01F7FAF094F7F8F09402C0812CC1
:101A7000912CA12C60E070E080E09FE3AB1441F07A
:101A800020E030E040E251E40E946F19A394F6CFC9
:101A90009B01AC01C701B6010E940B192B013C014F
:101AA0000E94DC196B017C010E94F5179B01AC01BF
:101AB000C301B2010E940A192B013C012AE0B701BF
:101AC000A601CE011CDF7C01E80CF91CBB2029F02B
:101AD0006EE2CE01F8DEE80EF91EDB2CDD2021F1EE
:101AE00020E030E040E251E4C301B2010E94561808
:101AF0002B013C010E94DC194B01A12CB12C2AE0E6
:101B0000B501A401CE01FBDEE80EF91EC501B4014A
:101B10000E94F5179B01AC01C301B2010E940A1992
:101B20002B013C01DA94DACFC701DF91CF91FF900E
:101B3000EF90DF90CF90BF90AF909F908F907F906D
:101B40006F905F904F9008951F920F920FB60F9273
:101B500011240BB60F922F933F934F935F936F9384
:101B60007F938F939F93AF93BF93EF93FF9382ECF9
:101B700094E00E944D04FF91EF91BF91AF919F912E
:101B80008F917F916F915F914F913F912F910F9026
:101B90000BBE0F900FBE0F901F901895CF93DF9341
:101BA000E9EDF2E08491EFE7F3E0D491E9E3F3E0CB
:101BB000C491CC2391F081110E94D504EC2FF0E068
:101BC000EE0FFF1FE35FFC4FA591B491EC91ED2365
:101BD00081E090E021F480E002C080E090E0DF91BD
:101BE000CF91089566EE73E082EC94E073CECF93CC
:101BF000DF93BC0182EC94E06DDEEC01F3DF8C0F2F
:101C00009D1FDF91CF9108959091C1049111FCCF58
:101C100091E09093C1049093C0042FEF2093BF04F0
:101C20001092BE04260F2093BD049093BC049091A3
:101C3000BC04880F892B8093BC048091BB04813045
:101C400061F41092BB048091BC048093BB0080912E
:101C5000BC0083FDF8CF85EC01C085EE8093BC000D
:101C60008091C1048130E1F38091BE04861710F4A5
:101C70006091BE04ABE9B4E02BE734E0F9018E2FAC
:101C8000821B861718F48D918193F9CF862F0895C2
:101C9000382F20917A0490917904213208F049C0BC
:101CA0008091C1048111FCCF42E04093C104309384
:101CB000C0043FEF3093BF041092BE042093BD04D4
:101CC000A9E5B4E04BE954E0FA013E2F341B32178A
:101CD00018F43D913193F9CF1092BC042091BC04CB
:101CE000990F922B9093BC049091BB04913061F4B6
:101CF0001092BB049091BC049093BB009091BC00E7
:101D000093FDF8CF95EC01C095EE9093BC009091B7
:101D1000C1049230E1F39091BF049F3F79F080912C
:101D2000BF04803241F08091BF04803331F084E001
:101D300005C081E003C082E001C083E01092580436
:101D400010927A04109257040895813208F080E2CC
:101D5000682F88E659DF1092560480935504089541
:101D6000CF93DF9381E08093570488E680937904D2
:101D70001092580410927A0460E08FE595E00E947A
:101D8000580381E085DF81E090E0DFDF8FE595E0BB
:101D90000E940D0387FB882780F9C82F20E0D22FEF
:101DA000CE0121E08227DF91CF9108951092560451
:101DB000109255041092580410927A041092C104A3
:101DC00081E08093C0041092BB0461E084E10E9432
:101DD0002B0561E085E10E942B05E9EBF0E08081B5
:101DE0008E7F808380818D7F808388E48093B8009C
:101DF00085E48093BC000895CF93DF93CDB7DEB721
:101E000028970FB6F894DEBF0FBECDBF1D8290E4B9
:101E10009E8324E12F8324E5288719829A8390E109
:101E20009B8390E59C8390917205691710F06FEF8A
:101E3000690F40917305262F30E0FE01E20FF31F7A
:101E4000403121F4943011F4918101C09581682FC3
:101E5000690F60688BE695E028960FB6F894DEBFB0
:101E60000FBECDBFDF91CF91A1CA0F931F93CF9328
:101E7000DF938C01C0E0D0E0F801EC0FFD1F64910E
:101E8000662371F0E091C204F091C3040190F081E7
:101E9000E02D82EC94E01995892B11F02196ECCF7E
:101EA000CE01DF91CF911F910F910895CF93DF93D2
:101EB000DCDFEC0197DE8C0F9D1FDF91CF91089541
:101EC000AF92BF92CF92DF92EF92FF920F931F9348
:101ED000CF93DF93EC018B018091890590918A0566
:101EE0002FDA882381F1BE018091890590918A05BE
:101EF000FCD940E06EEB8091890590918A05B4D9B8
:101F0000E801680189E0C80ED11CA0908905B09055
:101F10008A0588E0E82EF12C01E010E0C50151D9D6
:101F20008111102B000F81E0E81AF108B9F719931D
:101F3000CC15DD0551F78091890590918A0500DA6D
:101F400091E0813009F090E0892FDF91CF911F91CE
:101F50000F91FF90EF90DF90CF90BF90AF900895DA
:101F60000F931F93CF93DF93CDB7DEB729970FB6AB
:101F7000F894DEBF0FBECDBF8C01BE016F5F7F4FF7
:101F80009FDF8823A9F168E0CE0101960DD99985DC
:101F900089132EC0298158E0259FB00111249A8110
:101FA000292F30E0322F2227330F330F330F262B08
:101FB000372BF80180818031C9F4688570E08F810A
:101FC000AB01481B5109CA019695982F8827979510
:101FD00087950E94241ACB014097207F53E0220F5F
:101FE000331F5A95E1F7820F931F04C0C90102C045
:101FF00080E894EE29960FB6F894DEBF0FBECDBFF1
:10200000DF91CF911F910F910895AF92BF92CF9220
:10201000DF92EF92FF920F931F93CF93DF931F9264
:10202000CDB7DEB75C01D62EE72EFC018585811188
:1020300004C0C50185D9811106C0F5011386158636
:10204000148680E061C040E060EFC5010DD901E079
:10205000F12CC12C11E0C501B4D8682FC5016983EA
:10206000B0D86981613019F48130B9F432C04F2D94
:1020700050E068131BC0F5018385181730F4E40F96
:10208000F51F8381802349F402C0181731F060E006
:10209000193058F4F501148708C0F501EF0DF11D52
:1020A0008381802B838361E009C0C12EF501E40F99
:1020B000F51F9381802F809589238383C501A5D83F
:1020C0001F5F000F11F4F39401E0F7E0FF1508F033
:1020D000C2CF113408F4B1CFF501C386C11002C0DC
:1020E00081E08587F5018381882309F4A6CFD50196
:1020F0001396ED2DFE2D9501255F3F4F8D91819318
:10210000A217B307D9F781E00F90DF91CF911F910C
:102110000F91FF90EF90DF90CF90BF90AF90089518
:10212000CF93DF93EC01E0918905F0918A05138646
:1021300015861486DF011B96CF0103961E92A81701
:10214000B907E1F7BE01CF0160DF882341F067E006
:10215000CE012AD89F81891302C081E001C080E0AE
:10216000DF91CF910895CF93DF93CDB7DEB7289756
:102170000FB6F894DEBF0FBECDBFCE010196D0DF03
:10218000811105C06AE979E984E493EC17C0CE01B6
:102190000196E6DE813824EE9207A4F3BC01990F84
:1021A000880B990B24D726E636E646E65CE37ED715
:1021B00020E030E040E052E40E940B1928960FB670
:1021C000F894DEBF0FBECDBFDF91CF91089580910F
:1021D000890590918A05B4D840E06CEC809189051E
:1021E00090918A0541D84091840564E480918905E5
:1021F00090918A0539D8809186058823A9F0E091CD
:102200008505E950E33040F4F0E0EE0FFF1FE650A3
:10221000FD4F6081718102C06EEE72E0072E000CEE
:10222000880B990B0C945D060895CF92DF92EF9284
:10223000FF92CF93DF93AB01BC0177FF1BC06A0114
:102240007B016DE28BE695E03EDBEC0144275527F0
:10225000BA014C195D096E097F092AE08BE695E009
:102260004EDB8C0F9D1FDF91CF91FF90EF90DF90A1
:10227000CF9008952AE08BE695E0DF91CF91FF9013
:10228000EF90DF90CF903BCBCF93DF93CDB7DEB70E
:1022900029970FB6F894DEBF0FBECDBFFC01208199
:1022A000203111F1BE016F5F7F4F0ADE882379F084
:1022B00068E0CE0101960E94D4089985891307C071
:1022C00008C0803458F08F3569F08F3769F080E0AE
:1022D0000CC08D818F33A9F78AE007C08F31B9F721
:1022E00089E003C08BE001C08CE029960FB6F8941A
:1022F000DEBF0FBECDBFDF91CF910895CF92DF92A9
:10230000EF92FF920F931F93CF93DF931F92CDB75E
:10231000DEB7162F877028E0829FC0011124682F36
:1023200060648BE695E0798341D883E790E001977C
:10233000F1F7C12E7981D72E8601085F1F4F8BE9F7
:10234000E82EF12CF60161916F018BE695E00E9479
:10235000BD02C7010197F1F7C016D10699F70F909A
:10236000DF91CF911F910F91FF90EF90DF90CF9071
:1023700008950F931F93CF93DF938C01EB01FC0122
:10238000808191810097B1F0688179816115710533
:1023900079F0428153812C813D814217530740F0EF
:1023A0000E947F1C8C819D81F8019583848313C0DA
:1023B0000E94F61A88819981F801918380838A812D
:1023C0009B81938382838C819D81958384831982F1
:1023D00018821B821A821D821C82DF91CF911F916D
:1023E0000F910895EF92FF920F931F93CF93DF9376
:1023F000EC01198218821B821A821D821C826115CF
:102400007105A9F17B01FB0101900020E9F73197EB
:102410008F01061B170BB8016F5F7F4F80E090E0C4
:102420000E948E1B009759F0998388831B830A832F
:102430002C813D81232B81F4FC0110820DC0888109
:102440009981009711F00E94F61A198218821D8254
:102450001C821B821A820BC01D830C83B701DF9183
:10246000CF911F910F91FF90EF900C947F1CDF9103
:10247000CF911F910F91FF90EF900895CF93DF932D
:10248000CDB7DEB7A1970FB6F894DEBF0FBECDBFB4
:10249000789484B5826084BD84B5816084BD85B53F
:1024A000826085BD85B5816085BD80916E0081604B
:1024B00080936E00109281008091810082608093F1
:1024C00081008091810081608093810080918000F3
:1024D0008160809380008091B10084608093B1001E
:1024E0008091B00081608093B00080919100826003
:1024F0008093910080919100816080939100809100
:1025000090008160809390008091A1008260809310
:10251000A1008091A10081608093A1008091A00022
:1025200081608093A00080912101826080932101CD
:10253000809121018160809321018091200181603F
:102540008093200180917A00846080937A0080914A
:102550007A00826080937A0080917A008160809313
:102560007A0080917A00806880937A001092C1008E
:10257000E091D204F091D30482E08083E091CE0414
:10258000F091CF041082E091D004F091D10480E169
:1025900080831092DA04E091D604F091D70486E0AB
:1025A0008083E091D404F091D504808180618083A0
:1025B000E091D404F091D504808188608083E0911B
:1025C000D404F091D504808180688083E091D404A4
:1025D000F091D50480818F7D8083E1D820E044E0B4
:1025E00064E18BE695E00E945E0A40E050E063E023
:1025F0008BE695E00E94A90261E08BE695E00E94DF
:10260000FE0381E08093400468E372E080E076DEC0
:1026100060E372E081E072DE68E272E082E06EDE2A
:1026200060E272E083E06ADE68E172E084E066DE28
:1026300060E172E085E062DEB9DB64E170E086E0D3
:102640000E94960560E082E10E945A0561E08DE0FB
:102650000E945A0561E089E00E945A0561E08BE022
:102660000E945A0568EE73E0CE014996BBDE1F92C8
:1026700082E38F931F9285E08F931F921F9288E3CE
:1026800093E09F938F938E010F5F1F4F1F930F93C4
:102690000E94861CB801CE014196A4DEBE016F5E89
:1026A0007F4FCE01499665DE89899A899FD760E080
:1026B00080E0A2DB69E573E08BE695E00BD961E091
:1026C00080E09ADB4D8D5E8D698D7A8D8BE695E08D
:1026D000C5D860ED77E080E090E00E945D0661E0A3
:1026E0008BE695E00E94D6098BE39FE10197F1F715
:1026F000898D9A8D7BD75ADB33DB0FB6F894DEBF1A
:102700000FBECDBF811103C08AE693E070DAE0917D
:102710008905F0918A05138615861486DF011B96BC
:1027200033961E92AE17BF07E1F710928805FF247B
:10273000F394BE016F5E7F4F8091890590918A0569
:1027400064DC882309F44CC067E0CE0141960E9406
:10275000D408988D8913EDCF80918405811127C00D
:102760008091890590918A050E94A009BE016F5E43
:102770007F4F8091890590918A050E94750940E0FC
:1027800064EB8091890590918A050E9434098091BB
:10279000890590918A050E94E108E82E80918905BB
:1027A00090918A050E94A009EE2009F454C3B80153
:1027B000CE01419685DBE0908505CE01419664DD32
:1027C0008E1518F48091850503C0CE0141965CDD1D
:1027D00080938505809188058F5F80938805A9CFB8
:1027E0008BEB92E031E0381B3F8F7DE6272E3324C0
:1027F0003394E2E0CE2ED12CF3E0AF2EB12CA5E045
:102800008A2E912C0E94A6064090F0025090F10270
:102810006090F2027090F302AB01BC0144195509BB
:102820006609770940365A4E6105710508F498C06B
:10283000D301C201805A9541AF4FBF4F8093F00240
:102840009093F102A093F202B093F302C0DC8BDC10
:1028500060934E0470934F048093500490935104FE
:1028600061E080E0C9DA6EE773E08BE695E032D88C
:1028700040904E0450904F0460905004709051046A
:1028800020E030E0A901C301B201C2D520E030E070
:1028900040E05FE387FD04C0C301B201BCD403C0C4
:1028A000C301B201B7D483D5C0DC6FED8BE695E0F0
:1028B0000AD866E48BE695E006D8C80131DC8111C0
:1028C00005C060E070E08EEF92EC10C0C80148DBFC
:1028D000813824EE9207ACF3BC01990F880B990B59
:1028E00086D320E030E040E05CE3E0D360933C043A
:1028F00070933D0480933E0490933F0461E08CE02C
:102900007BDA6EE78BE695E00E94630C61E08FE076
:1029100073DA40903C0450903D0460903E04709007
:102920003F0420E030E0A901C301B20171D520E0ED
:1029300030E040E05FE387FD04C0C301B2016BD427
:1029400003C0C301B20166D432D56FDC6FED8BE6F4
:1029500095E00E94630C63E48BE695E00E94630CB3
:10296000C8010E9454088E818C3381F060E080E0C1
:1029700043DA8C8190E00E94BF0B6AE38BE695E01E
:102980000E94630C8D8190E00E94BF0B8B81833687
:1029900009F456C060E086E02FDA6A819981492FF8
:1029A00050E02B8130E0EBEBF2E08F8D8E0F86173D
:1029B00028F48491280F311D3196F7CF633020F031
:1029C000937011F42F5F3F4F429DC001439D900DC6
:1029D000529D900D112405964D5F5F4F569547957A
:1029E00056954795840F951F820F931F67E070E0FF
:1029F00017D528E1289FB001299F700D1124605C34
:102A00007D4F8BE695E00E946A0C60E08AE0F4D985
:102A1000898190E08053984F0E94BF0B6FE28BE654
:102A200095E00E94630C8A8190E00E94BF0B6FE2E8
:102A30008BE695E00E94630C8B8190E00E94BF0BB7
:102A4000ADD890933B0480933A04892BB1F485E888
:102A500093E0CDD80E94A60660934304709344048B
:102A600080934504909346041092420410924104CE
:102A700031E0309340046FEF16C08091400488230A
:102A8000B1F00E94A6062091430430914404621BD9
:102A9000730B709342046093410461367A4E38F0B0
:102AA0001092400460E08BE695E00E94FE030E94D5
:102AB000950640904E0450904F04609050047090E2
:102AC000510420E030E040EA52E4C301B201A0D456
:102AD00087FF0AC020E030E040E752E4C301B201C2
:102AE00080D2181664F554C0E12CF12CB7018DE0AA
:102AF0000E9496056EE170E080E090E00E945D0625
:102B00002FE0E20EF11C3EE0E31631E0F30671F730
:102B10002FEF30E0B9018DE028A339A30E9496057C
:102B20006EE170E080E090E00E945D0628A139A18E
:102B30002F503109213F8FEF380761F7CBCF612C40
:102B4000712CB30189E00E9496056EE170E080E08F
:102B500090E00E945D063FE0630E711C8EE06816F7
:102B600081E0780671F766246A94712CB30189E0DC
:102B70000E9496056EE170E080E090E00E945D06A4
:102B80002FE0621A710831EF63163FEF730671F799
:102B90000E94A6064090E8025090E9026090EA0286
:102BA0007090EB02AB01BC01441955096609770925
:102BB00040365A4E6105710508F483C0D301C20145
:102BC000805A9541AF4FBF4F8093E8029093E9023E
:102BD000A093EA02B093EB021FC080917A0086FDB9
:102BE000FCCF809178002091790090E0922B209189
:102BF0004C0430914D04820F931F90934D048093A9
:102C00004C0480914B048F5F80934B046AE070E02A
:102C100080E090E00E945D0680914B048A3070F461
:102C200080917B00877F80937B0082E480937C008F
:102C300080917A00806480937A00CFCF60914C04B9
:102C400070914D04072E000C880B990BD0D120E019
:102C500030E040E251E443D324EF3DEF4CE950E44F
:102C600025D220E030E040E85AE320D260934704C8
:102C7000709348048093490490934A0462E080E092
:102C8000BBD82DEC3CEC4CE85FE3609147047091BD
:102C900048048091490490914A0408D2AB01BC01D8
:102CA00022E08BE695E00E94C70C62E973E08BE6B8
:102CB00095E00E946A0C10924B0410924D04109201
:102CC0004C0482EC94E00E943E02892B39F182ECA4
:102CD00094E00E941C02823389F03CF48033C1F0FE
:102CE0008133E1F481E090E015C0833361F08336F5
:102CF000A9F4909253048092520410C0D0925304CD
:102D0000C09252040BC0B0925304A092520406C069
:102D100084E090E090935304809352048091520495
:102D2000909153048230910509F450C0843091058C
:102D300009F488C0019709F08BC049DA14DA60936E
:102D40004E0470934F0480935004909351040E945A
:102D5000A6064090EC025090ED026090EE0270905A
:102D6000EF02AB01BC0144195509660977094036E9
:102D70005A4E6105710508F46BC0D301C201805A37
:102D80009541AF4FBF4F8093EC029093ED02A0931B
:102D9000EE02B093EF0265E973E082EC94E00E94EA
:102DA0006A0C40914E0450914F0460915004709110
:102DB000510422E082EC94E00E94C70C66E482ECAD
:102DC00094E00E94630C0E94F20D42C00E94D60E55
:102DD000C8010E9454080E94B00E882371F183EB51
:102DE00093E00E94F70D83EC93E00E94F70D4C8175
:102DF00050E060E070E02AE082EC94E00E947F0CFA
:102E00006AE382EC94E00E94630C4D8150E060E044
:102E100070E02AE082EC94E00E947F0C6AE382EC8E
:102E200094E00E94630C4E8150E060E070E02AE084
:102E300082EC94E00E947F0C0BC082ED93E00E9434
:102E4000F70D06C00E94CF0B10925304109252044B
:102E50000E944A02D7CCF0928405A9CC1092C504F6
:102E60001092C40488EE93E0A0E0B0E08093C60422
:102E70009093C704A093C804B093C90424E033E03E
:102E80003093C3042093C20425EC30E03093CF0488
:102E90002093CE0424EC30E03093D1042093D0046E
:102EA00020EC30E03093D3042093D20421EC30E0C6
:102EB0003093D5042093D40422EC30E03093D7042F
:102EC0002093D60426EC30E03093D9042093D80424
:102ED0001092DB041092DC041092DD041092DE04E8
:102EE00010926205109261058093630590936405CA
:102EF000A0936505B093660586E193E09093600525
:102F000080935F0560E08AE00E945A05E7E7F3E0FE
:102F1000E491E0939705E1E3F3E0E491F0E0EE0F54
:102F2000FF1FE35FFC4F85919491909399058093E7
:102F300098051092A2051092A4051092A305E2EA4A
:102F4000F5E0129285E0EA39F807D9F78AEC92E0C9
:102F5000909396058093950587E995E090938A056F
:102F600080938905109288051092840589E08093EA
:102F7000850581E0809386058093870510926E0514
:102F800010926D0528E233E030936C0520936B05B9
:102F900010927B059FEF90937A051092790510921D
:102FA0007C0597E29093760510927705109278054C
:102FB000109275051092740594E090937D0592E04F
:102FC00090937E0580937F0580E18093800580E269
:102FD0008093810580E48093820580E88093830557
:102FE000089540D008F481E00895E89409C097FB63
:102FF0003EF490958095709561957F4F8F4F9F4FD0
:103000009923A9F0F92F96E9BB279395F695879513
:1030100077956795B795F111F8CFFAF4BB0F11F4D6
:1030200060FF1BC06F5F7F4F8F4F9F4F16C088237D
:1030300011F096E911C0772321F09EE8872F762FB3
:1030400005C0662371F096E8862F70E060E02AF0F4
:103050009A95660F771F881FDAF7880F96958795E0
:1030600097F90895990F0008550FAA0BE0E8FEEFB5
:1030700016161706E807F907C0F012161306E4073C
:10308000F50798F0621B730B840B950B39F40A2635
:1030900061F0232B242B252B21F408950A2609F413
:1030A000A140A6958FEF811D811D08950BD078C09A
:1030B00069D028F06ED018F0952309F05AC05FC08F
:1030C0001124A2C07ED0A0F3959FD1F3950F50E0BC
:1030D000551F629FF001729FBB27F00DB11D639FCA
:1030E000AA27F00DB11DAA1F649F6627B00DA11D70
:1030F000661F829F2227B00DA11D621F739FB00D16
:10310000A11D621F839FA00D611D221F749F332785
:10311000A00D611D231F849F600D211D822F762F1E
:103120006A2F11249F5750408AF0E1F088234AF01B
:10313000EE0FFF1FBB1F661F771F881F9150504067
:10314000A9F79E3F510570F014C05EC05F3FECF3DD
:10315000983EDCF3869577956795B795F795E79553
:103160009F5FC1F7FE2B880F911D9695879597F964
:10317000089597F99F6780E870E060E008959FEFF9
:1031800080EC089500240A941616170618060906FE
:10319000089500240A9412161306140605060895CD
:1031A000092E0394000C11F4882352F0BB0F40F455
:1031B000BF2B11F460FF04C06F5F7F4F8F4F9F4F95
:1031C000089557FD9058440F551F59F05F3F71F017
:1031D0004795880F97FB991F61F09F3F79F087957E
:1031E0000895121613061406551FF2CF4695F1DF07
:1031F00008C0161617061806991FF1CF8695710597
:10320000610508940895E894BB2766277727CB01CA
:1032100097F908955058BB27AA270ED0C1CFB2DF27
:1032200030F0B7DF20F031F49F3F11F41EF4A7CF48
:103230000EF4E095E7FB9DCFE92FC3DF80F3BA17CB
:10324000620773078407950718F071F49EF5DBCFCA
:103250000EF4E0950B2EBA2FA02D0B01B9019001B1
:103260000C01CA01A0011124FF27591B99F0593FF5
:1032700050F4503E68F11A16F040A22F232F342F3D
:103280004427585FF3CF469537952795A795F0408B
:103290005395C9F77EF41F16BA0B620B730B840BA0
:1032A000BAF09150A1F0FF0FBB1F661F771F881F58
:1032B000C2F70EC0BA0F621F731F841F48F48795B0
:1032C00077956795B795F7959E3F08F0B3CF93959F
:1032D000880F08F09927EE0F9795879508950CD0E1
:1032E0005FCF57DF40F04EDF30F021F45F3F19F041
:1032F00040CF511189CF43CF64DF98F39923C9F3AD
:103300005523B1F3951B550BBB27AA2762177307EB
:10331000840738F09F5F5F4F220F331F441FAA1F9F
:10332000A9F333D00E2E3AF0E0E830D0915050405F
:10333000E695001CCAF729D0FE2F27D0660F771F0D
:10334000881FBB1F261737074807AB07B0E809F0EF
:10335000BB0B802DBF01FF2793585F4F2AF09E3F84
:10336000510568F006CF50CF5F3FECF3983EDCF399
:10337000869577956795B795F7959F5FC9F7880FFD
:10338000911D9695879597F90895E1E0660F771F4F
:10339000881FBB1F621773078407BA0720F0621BE0
:1033A000730B840BBA0BEE1F88F7E095089504D0D9
:1033B0006894B11129CF08950CDF88F09F5790F0E1
:1033C000B92F9927B751A0F0D1F0660F771F881F4A
:1033D000991F1AF0BA95C9F712C0B13081F013DF06
:1033E000B1E0089510CF672F782F8827B85F39F0A4
:1033F000B93FCCF3869577956795B395D9F73EF4A9
:1034000090958095709561957F4F8F4F9F4F089550
:1034100029DE08F48FEF089525DE880B990B0895B7
:10342000AA1BBB1B51E107C0AA1FBB1FA617B707EA
:1034300010F0A61BB70B881F991F5A95A9F7809506
:103440009095BC01CD01089597FB072E16F40094CA
:1034500006D077FD08D0E4DF07FC05D03EF4909558
:1034600081959F4F0895709561957F4F0895A1E2D2
:103470001A2EAA1BBB1BFD010DC0AA1FBB1FEE1FEE
:10348000FF1FA217B307E407F50720F0A21BB30B39
:10349000E40BF50B661F771F881F991F1A9469F7B5
:1034A00060957095809590959B01AC01BD01CF0111
:1034B0000895EE0FFF1F881F8BBF0790F691E02D38
:1034C0001994CF93DF938230910510F482E090E05D
:1034D000E091A705F091A80520E030E0C0E0D0E041
:1034E000309711F14081518148175907C0F04817B2
:1034F000590761F482819381209719F09B838A8315
:103500002BC09093A8058093A70526C021153105EF
:1035100019F04217530718F49A01BE01DF01EF01B9
:103520000280F381E02DDCCF2115310509F1281B44
:10353000390B2430310590F412968D919C9113979C
:103540006115710521F0FB019383828304C0909380
:10355000A8058093A705FD01329644C0FD01E20F46
:10356000F31F81939193225031092D933C933AC0DC
:103570002091A5053091A605232B41F42091F60258
:103580003091F7023093A6052093A5052091F4020F
:103590003091F5022115310541F42DB73EB7409128
:1035A000F8025091F902241B350BE091A505F0912A
:1035B000A605E217F307A0F42E1B3F0B28173907C7
:1035C00078F0AC014E5F5F4F2417350748F04E0F7F
:1035D0005F1F5093A6054093A5058193919302C068
:1035E000E0E0F0E0CF01DF91CF9108950F931F93BA
:1035F000CF93DF93009709F48CC0FC0132971382BC
:1036000012820091A7051091A8050115110581F4FA
:1036100020813181820F931F2091A5053091A6054D
:103620002817390779F5F093A605E093A50571C031
:10363000D80140E050E0AE17BF0750F412962D912C
:103640003C911397AD012115310509F1D901F3CF53
:103650009D01DA013383228360817181860F971F78
:103660008217930769F4EC0128813981260F371FEF
:103670002E5F3F4F318320838A819B819383828396
:10368000452B29F4F093A805E093A70542C01396B3
:10369000FC93EE931297ED01499159919E01240FED
:1036A000351FE217F30771F480819181840F951F14
:1036B000029611969C938E938281938113969C938C
:1036C0008E931297E0E0F0E0D80112968D919C91D4
:1036D0001397009719F0F8018C01F6CF8D919C910A
:1036E00098012E5F3F4F820F931F2091A5053091C7
:1036F000A6052817390769F4309729F41092A80510
:103700001092A70502C0138212821093A60500939F
:10371000A505DF91CF911F910F9108956F927F9230
:103720008F929F92AF92BF92CF92DF92EF92FF92D1
:103730000F931F93CF93DF93EC01009781F4CB019C
:10374000DF91CF911F910F91FF90EF90DF90CF907D
:10375000BF90AF909F908F907F906F90B2CEFC0102
:10376000E60FF71F9C0122503109E217F30708F416
:10377000A8C0D9010D911C91119706171707A8F041
:103780000530110508F49BC0C801049786179707F8
:1037900008F495C002501109061B170B01931193F1
:1037A0006D937C93CF0122DF8AC05B01A01AB10A1E
:1037B0004C01800E911EA091A705B091A80540E094
:1037C00050E0E12CF12C109709F44AC0A815B90576
:1037D000D1F56D907C901197630182E0C80ED11CE9
:1037E000CA14DB0480F1A3014A195B096A0182E073
:1037F000C80ED11C1296BC9012971396AC91B5E0EE
:10380000CB16D10440F0B282A38351834083D90107
:103810006D937C930AC00E5F1F4FC301800F911FF1
:10382000F90191838083EB2DFA2FE114F10431F03B
:10383000D7011396FC93EE93129741C0F093A8051D
:10384000E093A7053CC08D919C91119748175907AB
:1038500008F4AC017D0112960D90BC91A02DB3CF60
:103860008091A5059091A60588159905E1F4461764
:103870005707C8F48091F4029091F502009741F443
:103880008DB79EB74091F8025091F902841B950BB9
:10389000E817F907B0F4F093A605E093A505F90140
:1038A000718360830CC0CB010CDE7C01009749F072
:1038B000A801BE011BD0CE0199DEC70104C0CE0114
:1038C00002C080E090E0DF91CF911F910F91FF90B7
:1038D000EF90DF90CF90BF90AF909F908F907F90B0
:1038E0006F90089581E090E0F894D9C2FB01DC016B
:1038F00002C001900D9241505040D8F70895FB014D
:10390000DC0101900D920020E1F708950F931F93C1
:10391000CF93DF93CDB7DEB72E970FB6F894DEBF07
:103920000FBECDBF0E891F8986E08C831A83098361
:103930008FEF9FE79E838D83AE01465E5F4F688D5C
:10394000798DCE01019611D02F813885F801E20FD3
:10395000F31F10822E960FB6F894DEBF0FBECDBFB8
:10396000DF91CF911F910F9108952F923F924F9227
:103970005F926F927F928F929F92AF92BF92CF92FF
:10398000DF92EF92FF920F931F93CF93DF93CDB708
:10399000DEB72C970FB6F894DEBF0FBECDBF7C010B
:1039A0006B018A01FC0117821682838181FFB0C1FD
:1039B000CE0101964C01F7019381F60193FD8591AB
:1039C00093FF81916F01882309F49EC1853239F4F8
:1039D00093FD859193FF81916F01853221F4B701A9
:1039E00090E0C7D1E8CF512C312C20E02032A0F458
:1039F0008B3269F030F4803259F0833269F42061FF
:103A00002CC08D3239F0803339F4216026C0226019
:103A1000246023C0286021C027FD27C030ED380F67
:103A20003A3078F426FF06C0FAE05F9E300D11248C
:103A3000532E13C08AE0389E300D1124332E20629D
:103A40000CC08E3221F426FD5FC1206406C08C3686
:103A500011F4206802C0883641F4F60193FD859187
:103A600093FF81916F018111C1CF982F9F7D955454
:103A7000933028F40C5F1F4FFFE3F9830DC08336AA
:103A800031F0833771F0833509F057C021C0F80158
:103A9000808189830E5F1F4F44244394512C54012D
:103AA00014C03801F2E06F0E711CF801A080B180E3
:103AB00026FF03C0652D70E002C06FEF7FEFC501E8
:103AC0002C874CD12C0183012C852F77222E16C0F8
:103AD0003801F2E06F0E711CF801A080B18026FF62
:103AE00003C0652D70E002C06FEF7FEFC5012C872A
:103AF0002AD12C012C852068222E830123FC19C099
:103B0000832D90E048165906A0F4B70180E290E0BA
:103B100030D13A94F5CFF50127FC859127FE8191AC
:103B20005F01B70190E025D131103A94F1E04F1ACE
:103B300051084114510479F7DEC0843611F08936FA
:103B400031F5F80127FF07C060817181828193817F
:103B50000C5F1F4F08C060817181072E000C880B1D
:103B6000990B0E5F1F4F2F76722E97FF09C090950D
:103B70008095709561957F4F8F4F9F4F2068722E73
:103B80002AE030E0A4012DD1A82EA81843C0853723
:103B900029F42F7EB22E2AE030E025C0F22FF97FE3
:103BA000BF2E8F36C1F018F4883579F0ADC080375C
:103BB00019F0883721F0A8C02F2F2061B22EB4FE53
:103BC0000DC08B2D8460B82E09C024FF0AC09F2F22
:103BD0009660B92E06C028E030E005C020E130E054
:103BE00002C020E132E0F801B7FE07C060817181B8
:103BF000828193810C5F1F4F06C06081718180E0DC
:103C000090E00E5F1F4FA401ECD0A82EA818FB2D4A
:103C1000FF777F2E76FE0BC0372D3E7FA51450F424
:103C200074FE0AC072FC08C0372D3E7E05C0BA2C57
:103C3000372D03C0BA2C01C0B52C34FF0DC0FE01D6
:103C4000EA0DF11D8081803311F4397E09C032FF05
:103C500006C0B394B39404C0832F867809F0B3945C
:103C600033FD12C030FF06C05A2CB31418F4530CA5
:103C70005B18B32CB31460F4B70180E290E03C878A
:103C800078D0B3943C85F6CFB31410F43B1801C040
:103C9000312C34FF11C0B70180E390E03C8769D03C
:103CA0003C8532FF16C031FD03C088E790E002C0BA
:103CB00088E590E0B7010CC0832F867851F031FF82
:103CC00002C08BE201C080E237FD8DE2B70190E0D7
:103CD00050D0A51430F4B70180E390E04AD05A9454
:103CE000F8CFAA94F401EA0DF11D8081B70190E0AC
:103CF00040D0A110F6CF332009F45DCEB70180E2A9
:103D000090E037D03A94F7CFF7018681978102C0CF
:103D10008FEF9FEF2C960FB6F894DEBF0FBECDBF8E
:103D2000DF91CF911F910F91FF90EF90DF90CF9097
:103D3000BF90AF909F908F907F906F905F904F90CB
:103D40003F902F900895FC01059061507040011044
:103D5000D8F7809590958E0F9F1F0895FC016150B4
:103D6000704001900110D8F7809590958E0F9F1F9D
:103D700008950F931F93CF93DF93FB01238121FDC0
:103D800003C08FEF9FEF28C022FF16C046815781E6
:103D9000248135814217530744F4A081B1819D01EC
:103DA0002F5F3F4F318320838C93268137812F5F94
:103DB0003F4F3783268310C0EB01092F182F008453
:103DC000F185E02D1995892BE1F68E819F81019671
:103DD0009F838E83812F902FDF91CF911F910F9121
:103DE0000895FA01AA27283051F1203181F1E89491
:103DF0006F936E7F6E5F7F4F8F4F9F4FAF4FB1E0DE
:103E00003ED0B4E03CD0670F781F891F9A1FA11DD8
:103E1000680F791F8A1F911DA11D6A0F711D811DD9
:103E2000911DA11D20D009F468943F912AE0269F9E
:103E300011243019305D3193DEF6CF010895462FFD
:103E40004770405D4193B3E00FD0C9F7F6CF462FDE
:103E50004F70405D4A3318F0495D31FD4052419347
:103E600002D0A9F7EACFB4E0A69597958795779504
:103E70006795BA95C9F700976105710508959B018B
:103E8000AC010A2E06945795479537952795BA9514
:103E9000C9F7620F731F841F951FA01D0895F89422
:023EA000FFCF52
:103EA200A802A802A802A802A802A802A802A802C0
:103EB2001E0203010103021E1F0000000000001F7A
:103EC2001F1010101010101F1E021B1D1D1B021EA2
:103ED2001F001F1F1F1F001F1F1017171717101F6C
:103EE20053756E000000000000000000000000009A
:103EF20000000000000000004D6F6E000000000096
:103F020000000000000000000000000000000000AF
:103F12005475650000000000000000000000000071
:103F2200000000000000000057656400000000006F
:103F3200000000000000000000000000000000007F
:103F4200546875000000000000000000000000003E
:103F5200000000000000000046726900000000003E
:103F6200000000000000000000000000000000004F
:103F72005361740000000000000000000000000017
:103F82000000000000000000A015FFFFA015FFFFC9
:103F9200A015FFFF0000A90580005E00BC007701AC
:103FA200000000006E042E0C0D02B4043E021C023E
:103FB200300200000000580329038703FD02210399
:103FC2000D03FE0200000000BD022E0C87038603D3
:103FD2005E0AA902FE03DF0356657273696F6E20E3
:103FE20025642E253032642E25303264006E616ED7
:103FF20000696E66006F766600442E412E542E458F
:104002002E20446973706C617900525443206973A5
:10401200204E4F542072756E6E696E672100546592
:104022006D703A20004261636B6C69676874204F5F
:104032006E0020560043757272656E74207265615F
:1040420064696E672066726F6D2073656E736F723E
:104052003A20005254432069732072756E6E696E65
:10406200672E0043757272656E742074696D653ACD
:104072002000525443206973206E6F742072756E53
:0A4082006E696E672E000D0A000043
:00000001FF
